{
  "abi": [
    {
      "inputs": [
        {
          "internalType": "address",
          "name": "_factory",
          "type": "address"
        },
        {
          "internalType": "address",
          "name": "_feswaNFT",
          "type": "address"
        },
        {
          "internalType": "address",
          "name": "_WETH",
          "type": "address"
        }
      ],
      "stateMutability": "nonpayable",
      "type": "constructor"
    },
    {
      "inputs": [
        {
          "internalType": "uint256",
          "name": "tokenID",
          "type": "uint256"
        },
        {
          "internalType": "address",
          "name": "pairOwner",
          "type": "address"
        },
        {
          "internalType": "uint256",
          "name": "rateTrigger",
          "type": "uint256"
        }
      ],
      "name": "ManageFeswaPair",
      "outputs": [
        {
          "internalType": "address",
          "name": "pairAAB",
          "type": "address"
        },
        {
          "internalType": "address",
          "name": "pairABB",
          "type": "address"
        }
      ],
      "stateMutability": "nonpayable",
      "type": "function"
    },
    {
      "inputs": [],
      "name": "WETH",
      "outputs": [
        {
          "internalType": "address",
          "name": "",
          "type": "address"
        }
      ],
      "stateMutability": "view",
      "type": "function"
    },
    {
      "inputs": [
        {
          "components": [
            {
              "internalType": "address",
              "name": "tokenA",
              "type": "address"
            },
            {
              "internalType": "address",
              "name": "tokenB",
              "type": "address"
            },
            {
              "internalType": "uint256",
              "name": "amountADesired",
              "type": "uint256"
            },
            {
              "internalType": "uint256",
              "name": "amountBDesired",
              "type": "uint256"
            },
            {
              "internalType": "uint256",
              "name": "amountAMin",
              "type": "uint256"
            },
            {
              "internalType": "uint256",
              "name": "amountBMin",
              "type": "uint256"
            },
            {
              "internalType": "uint256",
              "name": "ratio",
              "type": "uint256"
            }
          ],
          "internalType": "struct IFeSwapRouter.AddLiquidityParams",
          "name": "addParams",
          "type": "tuple"
        },
        {
          "internalType": "address",
          "name": "to",
          "type": "address"
        },
        {
          "internalType": "uint256",
          "name": "deadline",
          "type": "uint256"
        }
      ],
      "name": "addLiquidity",
      "outputs": [
        {
          "internalType": "uint256",
          "name": "amountA",
          "type": "uint256"
        },
        {
          "internalType": "uint256",
          "name": "amountB",
          "type": "uint256"
        },
        {
          "internalType": "uint256",
          "name": "liquidityAAB",
          "type": "uint256"
        },
        {
          "internalType": "uint256",
          "name": "liquidityABB",
          "type": "uint256"
        }
      ],
      "stateMutability": "nonpayable",
      "type": "function"
    },
    {
      "inputs": [
        {
          "components": [
            {
              "internalType": "address",
              "name": "token",
              "type": "address"
            },
            {
              "internalType": "uint256",
              "name": "amountTokenDesired",
              "type": "uint256"
            },
            {
              "internalType": "uint256",
              "name": "amountTokenMin",
              "type": "uint256"
            },
            {
              "internalType": "uint256",
              "name": "amountETHMin",
              "type": "uint256"
            },
            {
              "internalType": "uint256",
              "name": "ratio",
              "type": "uint256"
            }
          ],
          "internalType": "struct IFeSwapRouter.AddLiquidityETHParams",
          "name": "addParams",
          "type": "tuple"
        },
        {
          "internalType": "address",
          "name": "to",
          "type": "address"
        },
        {
          "internalType": "uint256",
          "name": "deadline",
          "type": "uint256"
        }
      ],
      "name": "addLiquidityETH",
      "outputs": [
        {
          "internalType": "uint256",
          "name": "amountToken",
          "type": "uint256"
        },
        {
          "internalType": "uint256",
          "name": "amountETH",
          "type": "uint256"
        },
        {
          "internalType": "uint256",
          "name": "liquidityTTE",
          "type": "uint256"
        },
        {
          "internalType": "uint256",
          "name": "liquidityTEE",
          "type": "uint256"
        }
      ],
      "stateMutability": "payable",
      "type": "function"
    },
    {
      "inputs": [
        {
          "internalType": "uint256",
          "name": "amountOut",
          "type": "uint256"
        },
        {
          "internalType": "address[]",
          "name": "path",
          "type": "address[]"
        }
      ],
      "name": "estimateAmountsIn",
      "outputs": [
        {
          "internalType": "uint256[]",
          "name": "amounts",
          "type": "uint256[]"
        }
      ],
      "stateMutability": "view",
      "type": "function"
    },
    {
      "inputs": [
        {
          "internalType": "uint256",
          "name": "amountIn",
          "type": "uint256"
        },
        {
          "internalType": "address[]",
          "name": "path",
          "type": "address[]"
        }
      ],
      "name": "estimateAmountsOut",
      "outputs": [
        {
          "internalType": "uint256[]",
          "name": "amounts",
          "type": "uint256[]"
        }
      ],
      "stateMutability": "view",
      "type": "function"
    },
    {
      "inputs": [],
      "name": "factory",
      "outputs": [
        {
          "internalType": "address",
          "name": "",
          "type": "address"
        }
      ],
      "stateMutability": "view",
      "type": "function"
    },
    {
      "inputs": [],
      "name": "feswaNFT",
      "outputs": [
        {
          "internalType": "address",
          "name": "",
          "type": "address"
        }
      ],
      "stateMutability": "view",
      "type": "function"
    },
    {
      "inputs": [
        {
          "internalType": "uint256",
          "name": "amountOut",
          "type": "uint256"
        },
        {
          "internalType": "uint256",
          "name": "reserveIn",
          "type": "uint256"
        },
        {
          "internalType": "uint256",
          "name": "reserveOut",
          "type": "uint256"
        }
      ],
      "name": "getAmountIn",
      "outputs": [
        {
          "internalType": "uint256",
          "name": "amountIn",
          "type": "uint256"
        }
      ],
      "stateMutability": "view",
      "type": "function"
    },
    {
      "inputs": [
        {
          "internalType": "uint256",
          "name": "amountIn",
          "type": "uint256"
        },
        {
          "internalType": "uint256",
          "name": "reserveIn",
          "type": "uint256"
        },
        {
          "internalType": "uint256",
          "name": "reserveOut",
          "type": "uint256"
        }
      ],
      "name": "getAmountOut",
      "outputs": [
        {
          "internalType": "uint256",
          "name": "amountOut",
          "type": "uint256"
        }
      ],
      "stateMutability": "view",
      "type": "function"
    },
    {
      "inputs": [
        {
          "internalType": "uint256",
          "name": "amountA",
          "type": "uint256"
        },
        {
          "internalType": "uint256",
          "name": "reserveA",
          "type": "uint256"
        },
        {
          "internalType": "uint256",
          "name": "reserveB",
          "type": "uint256"
        }
      ],
      "name": "quote",
      "outputs": [
        {
          "internalType": "uint256",
          "name": "amountB",
          "type": "uint256"
        }
      ],
      "stateMutability": "pure",
      "type": "function"
    },
    {
      "inputs": [
        {
          "components": [
            {
              "internalType": "address",
              "name": "tokenA",
              "type": "address"
            },
            {
              "internalType": "address",
              "name": "tokenB",
              "type": "address"
            },
            {
              "internalType": "uint256",
              "name": "liquidityAAB",
              "type": "uint256"
            },
            {
              "internalType": "uint256",
              "name": "liquidityABB",
              "type": "uint256"
            },
            {
              "internalType": "uint256",
              "name": "amountAMin",
              "type": "uint256"
            },
            {
              "internalType": "uint256",
              "name": "amountBMin",
              "type": "uint256"
            }
          ],
          "internalType": "struct IFeSwapRouter.RemoveLiquidityParams",
          "name": "removeParams",
          "type": "tuple"
        },
        {
          "internalType": "address",
          "name": "to",
          "type": "address"
        },
        {
          "internalType": "uint256",
          "name": "deadline",
          "type": "uint256"
        }
      ],
      "name": "removeLiquidity",
      "outputs": [
        {
          "internalType": "uint256",
          "name": "amountA",
          "type": "uint256"
        },
        {
          "internalType": "uint256",
          "name": "amountB",
          "type": "uint256"
        }
      ],
      "stateMutability": "nonpayable",
      "type": "function"
    },
    {
      "inputs": [
        {
          "components": [
            {
              "internalType": "address",
              "name": "tokenA",
              "type": "address"
            },
            {
              "internalType": "address",
              "name": "tokenB",
              "type": "address"
            },
            {
              "internalType": "uint256",
              "name": "liquidityAAB",
              "type": "uint256"
            },
            {
              "internalType": "uint256",
              "name": "liquidityABB",
              "type": "uint256"
            },
            {
              "internalType": "uint256",
              "name": "amountAMin",
              "type": "uint256"
            },
            {
              "internalType": "uint256",
              "name": "amountBMin",
              "type": "uint256"
            }
          ],
          "internalType": "struct IFeSwapRouter.RemoveLiquidityParams",
          "name": "removeParams",
          "type": "tuple"
        },
        {
          "internalType": "address",
          "name": "to",
          "type": "address"
        },
        {
          "internalType": "uint256",
          "name": "deadline",
          "type": "uint256"
        }
      ],
      "name": "removeLiquidityETH",
      "outputs": [
        {
          "internalType": "uint256",
          "name": "amountToken",
          "type": "uint256"
        },
        {
          "internalType": "uint256",
          "name": "amountETH",
          "type": "uint256"
        }
      ],
      "stateMutability": "nonpayable",
      "type": "function"
    },
    {
      "inputs": [
        {
          "components": [
            {
              "internalType": "address",
              "name": "tokenA",
              "type": "address"
            },
            {
              "internalType": "address",
              "name": "tokenB",
              "type": "address"
            },
            {
              "internalType": "uint256",
              "name": "liquidityAAB",
              "type": "uint256"
            },
            {
              "internalType": "uint256",
              "name": "liquidityABB",
              "type": "uint256"
            },
            {
              "internalType": "uint256",
              "name": "amountAMin",
              "type": "uint256"
            },
            {
              "internalType": "uint256",
              "name": "amountBMin",
              "type": "uint256"
            }
          ],
          "internalType": "struct IFeSwapRouter.RemoveLiquidityParams",
          "name": "removeParams",
          "type": "tuple"
        },
        {
          "internalType": "address",
          "name": "to",
          "type": "address"
        },
        {
          "internalType": "uint256",
          "name": "deadline",
          "type": "uint256"
        }
      ],
      "name": "removeLiquidityETHFeeOnTransfer",
      "outputs": [
        {
          "internalType": "uint256",
          "name": "amountETH",
          "type": "uint256"
        }
      ],
      "stateMutability": "nonpayable",
      "type": "function"
    },
    {
      "inputs": [
        {
          "components": [
            {
              "internalType": "address",
              "name": "tokenA",
              "type": "address"
            },
            {
              "internalType": "address",
              "name": "tokenB",
              "type": "address"
            },
            {
              "internalType": "uint256",
              "name": "liquidityAAB",
              "type": "uint256"
            },
            {
              "internalType": "uint256",
              "name": "liquidityABB",
              "type": "uint256"
            },
            {
              "internalType": "uint256",
              "name": "amountAMin",
              "type": "uint256"
            },
            {
              "internalType": "uint256",
              "name": "amountBMin",
              "type": "uint256"
            }
          ],
          "internalType": "struct IFeSwapRouter.RemoveLiquidityParams",
          "name": "removeParams",
          "type": "tuple"
        },
        {
          "internalType": "address",
          "name": "to",
          "type": "address"
        },
        {
          "internalType": "uint256",
          "name": "deadline",
          "type": "uint256"
        },
        {
          "internalType": "bool",
          "name": "approveMax",
          "type": "bool"
        },
        {
          "components": [
            {
              "internalType": "uint8",
              "name": "v",
              "type": "uint8"
            },
            {
              "internalType": "bytes32",
              "name": "r",
              "type": "bytes32"
            },
            {
              "internalType": "bytes32",
              "name": "s",
              "type": "bytes32"
            }
          ],
          "internalType": "struct IFeSwapRouter.Signature",
          "name": "sigTTE",
          "type": "tuple"
        },
        {
          "components": [
            {
              "internalType": "uint8",
              "name": "v",
              "type": "uint8"
            },
            {
              "internalType": "bytes32",
              "name": "r",
              "type": "bytes32"
            },
            {
              "internalType": "bytes32",
              "name": "s",
              "type": "bytes32"
            }
          ],
          "internalType": "struct IFeSwapRouter.Signature",
          "name": "sigTEE",
          "type": "tuple"
        }
      ],
      "name": "removeLiquidityETHWithPermit",
      "outputs": [
        {
          "internalType": "uint256",
          "name": "amountToken",
          "type": "uint256"
        },
        {
          "internalType": "uint256",
          "name": "amountETH",
          "type": "uint256"
        }
      ],
      "stateMutability": "nonpayable",
      "type": "function"
    },
    {
      "inputs": [
        {
          "components": [
            {
              "internalType": "address",
              "name": "tokenA",
              "type": "address"
            },
            {
              "internalType": "address",
              "name": "tokenB",
              "type": "address"
            },
            {
              "internalType": "uint256",
              "name": "liquidityAAB",
              "type": "uint256"
            },
            {
              "internalType": "uint256",
              "name": "liquidityABB",
              "type": "uint256"
            },
            {
              "internalType": "uint256",
              "name": "amountAMin",
              "type": "uint256"
            },
            {
              "internalType": "uint256",
              "name": "amountBMin",
              "type": "uint256"
            }
          ],
          "internalType": "struct IFeSwapRouter.RemoveLiquidityParams",
          "name": "removeParams",
          "type": "tuple"
        },
        {
          "internalType": "address",
          "name": "to",
          "type": "address"
        },
        {
          "internalType": "uint256",
          "name": "deadline",
          "type": "uint256"
        },
        {
          "internalType": "bool",
          "name": "approveMax",
          "type": "bool"
        },
        {
          "components": [
            {
              "internalType": "uint8",
              "name": "v",
              "type": "uint8"
            },
            {
              "internalType": "bytes32",
              "name": "r",
              "type": "bytes32"
            },
            {
              "internalType": "bytes32",
              "name": "s",
              "type": "bytes32"
            }
          ],
          "internalType": "struct IFeSwapRouter.Signature",
          "name": "sigTTE",
          "type": "tuple"
        },
        {
          "components": [
            {
              "internalType": "uint8",
              "name": "v",
              "type": "uint8"
            },
            {
              "internalType": "bytes32",
              "name": "r",
              "type": "bytes32"
            },
            {
              "internalType": "bytes32",
              "name": "s",
              "type": "bytes32"
            }
          ],
          "internalType": "struct IFeSwapRouter.Signature",
          "name": "sigTEE",
          "type": "tuple"
        }
      ],
      "name": "removeLiquidityETHWithPermitFeeOnTransfer",
      "outputs": [
        {
          "internalType": "uint256",
          "name": "amountETH",
          "type": "uint256"
        }
      ],
      "stateMutability": "nonpayable",
      "type": "function"
    },
    {
      "inputs": [
        {
          "components": [
            {
              "internalType": "address",
              "name": "tokenA",
              "type": "address"
            },
            {
              "internalType": "address",
              "name": "tokenB",
              "type": "address"
            },
            {
              "internalType": "uint256",
              "name": "liquidityAAB",
              "type": "uint256"
            },
            {
              "internalType": "uint256",
              "name": "liquidityABB",
              "type": "uint256"
            },
            {
              "internalType": "uint256",
              "name": "amountAMin",
              "type": "uint256"
            },
            {
              "internalType": "uint256",
              "name": "amountBMin",
              "type": "uint256"
            }
          ],
          "internalType": "struct IFeSwapRouter.RemoveLiquidityParams",
          "name": "removeParams",
          "type": "tuple"
        },
        {
          "internalType": "address",
          "name": "to",
          "type": "address"
        },
        {
          "internalType": "uint256",
          "name": "deadline",
          "type": "uint256"
        },
        {
          "internalType": "bool",
          "name": "approveMax",
          "type": "bool"
        },
        {
          "components": [
            {
              "internalType": "uint8",
              "name": "v",
              "type": "uint8"
            },
            {
              "internalType": "bytes32",
              "name": "r",
              "type": "bytes32"
            },
            {
              "internalType": "bytes32",
              "name": "s",
              "type": "bytes32"
            }
          ],
          "internalType": "struct IFeSwapRouter.Signature",
          "name": "sigAAB",
          "type": "tuple"
        },
        {
          "components": [
            {
              "internalType": "uint8",
              "name": "v",
              "type": "uint8"
            },
            {
              "internalType": "bytes32",
              "name": "r",
              "type": "bytes32"
            },
            {
              "internalType": "bytes32",
              "name": "s",
              "type": "bytes32"
            }
          ],
          "internalType": "struct IFeSwapRouter.Signature",
          "name": "sigABB",
          "type": "tuple"
        }
      ],
      "name": "removeLiquidityWithPermit",
      "outputs": [
        {
          "internalType": "uint256",
          "name": "amountA",
          "type": "uint256"
        },
        {
          "internalType": "uint256",
          "name": "amountB",
          "type": "uint256"
        }
      ],
      "stateMutability": "nonpayable",
      "type": "function"
    },
    {
      "inputs": [
        {
          "internalType": "uint256",
          "name": "amountOut",
          "type": "uint256"
        },
        {
          "internalType": "address[]",
          "name": "path",
          "type": "address[]"
        },
        {
          "internalType": "address",
          "name": "to",
          "type": "address"
        },
        {
          "internalType": "uint256",
          "name": "deadline",
          "type": "uint256"
        }
      ],
      "name": "swapETHForExactTokens",
      "outputs": [
        {
          "internalType": "uint256[]",
          "name": "amounts",
          "type": "uint256[]"
        }
      ],
      "stateMutability": "payable",
      "type": "function"
    },
    {
      "inputs": [
        {
          "internalType": "uint256",
          "name": "amountOutMin",
          "type": "uint256"
        },
        {
          "internalType": "address[]",
          "name": "path",
          "type": "address[]"
        },
        {
          "internalType": "address",
          "name": "to",
          "type": "address"
        },
        {
          "internalType": "uint256",
          "name": "deadline",
          "type": "uint256"
        }
      ],
      "name": "swapExactETHForTokens",
      "outputs": [
        {
          "internalType": "uint256[]",
          "name": "amounts",
          "type": "uint256[]"
        }
      ],
      "stateMutability": "payable",
      "type": "function"
    },
    {
      "inputs": [
        {
          "internalType": "uint256",
          "name": "amountOutMin",
          "type": "uint256"
        },
        {
          "internalType": "address[]",
          "name": "path",
          "type": "address[]"
        },
        {
          "internalType": "address",
          "name": "to",
          "type": "address"
        },
        {
          "internalType": "uint256",
          "name": "deadline",
          "type": "uint256"
        }
      ],
      "name": "swapExactETHForTokensFeeOnTransfer",
      "outputs": [],
      "stateMutability": "payable",
      "type": "function"
    },
    {
      "inputs": [
        {
          "internalType": "uint256",
          "name": "amountIn",
          "type": "uint256"
        },
        {
          "internalType": "uint256",
          "name": "amountOutMin",
          "type": "uint256"
        },
        {
          "internalType": "address[]",
          "name": "path",
          "type": "address[]"
        },
        {
          "internalType": "address",
          "name": "to",
          "type": "address"
        },
        {
          "internalType": "uint256",
          "name": "deadline",
          "type": "uint256"
        }
      ],
      "name": "swapExactTokensForETH",
      "outputs": [
        {
          "internalType": "uint256[]",
          "name": "amounts",
          "type": "uint256[]"
        }
      ],
      "stateMutability": "nonpayable",
      "type": "function"
    },
    {
      "inputs": [
        {
          "internalType": "uint256",
          "name": "amountIn",
          "type": "uint256"
        },
        {
          "internalType": "uint256",
          "name": "amountOutMin",
          "type": "uint256"
        },
        {
          "internalType": "address[]",
          "name": "path",
          "type": "address[]"
        },
        {
          "internalType": "address",
          "name": "to",
          "type": "address"
        },
        {
          "internalType": "uint256",
          "name": "deadline",
          "type": "uint256"
        }
      ],
      "name": "swapExactTokensForETHFeeOnTransfer",
      "outputs": [],
      "stateMutability": "nonpayable",
      "type": "function"
    },
    {
      "inputs": [
        {
          "internalType": "uint256",
          "name": "amountIn",
          "type": "uint256"
        },
        {
          "internalType": "uint256",
          "name": "amountOutMin",
          "type": "uint256"
        },
        {
          "internalType": "address[]",
          "name": "path",
          "type": "address[]"
        },
        {
          "internalType": "address",
          "name": "to",
          "type": "address"
        },
        {
          "internalType": "uint256",
          "name": "deadline",
          "type": "uint256"
        }
      ],
      "name": "swapExactTokensForTokens",
      "outputs": [
        {
          "internalType": "uint256[]",
          "name": "amounts",
          "type": "uint256[]"
        }
      ],
      "stateMutability": "nonpayable",
      "type": "function"
    },
    {
      "inputs": [
        {
          "internalType": "uint256",
          "name": "amountIn",
          "type": "uint256"
        },
        {
          "internalType": "uint256",
          "name": "amountOutMin",
          "type": "uint256"
        },
        {
          "internalType": "address[]",
          "name": "path",
          "type": "address[]"
        },
        {
          "internalType": "address",
          "name": "to",
          "type": "address"
        },
        {
          "internalType": "uint256",
          "name": "deadline",
          "type": "uint256"
        }
      ],
      "name": "swapExactTokensForTokensFeeOnTransfer",
      "outputs": [],
      "stateMutability": "nonpayable",
      "type": "function"
    },
    {
      "inputs": [
        {
          "internalType": "uint256",
          "name": "amountOut",
          "type": "uint256"
        },
        {
          "internalType": "uint256",
          "name": "amountInMax",
          "type": "uint256"
        },
        {
          "internalType": "address[]",
          "name": "path",
          "type": "address[]"
        },
        {
          "internalType": "address",
          "name": "to",
          "type": "address"
        },
        {
          "internalType": "uint256",
          "name": "deadline",
          "type": "uint256"
        }
      ],
      "name": "swapTokensForExactETH",
      "outputs": [
        {
          "internalType": "uint256[]",
          "name": "amounts",
          "type": "uint256[]"
        }
      ],
      "stateMutability": "nonpayable",
      "type": "function"
    },
    {
      "inputs": [
        {
          "internalType": "uint256",
          "name": "amountOut",
          "type": "uint256"
        },
        {
          "internalType": "uint256",
          "name": "amountInMax",
          "type": "uint256"
        },
        {
          "internalType": "address[]",
          "name": "path",
          "type": "address[]"
        },
        {
          "internalType": "address",
          "name": "to",
          "type": "address"
        },
        {
          "internalType": "uint256",
          "name": "deadline",
          "type": "uint256"
        }
      ],
      "name": "swapTokensForExactTokens",
      "outputs": [
        {
          "internalType": "uint256[]",
          "name": "amounts",
          "type": "uint256[]"
        }
      ],
      "stateMutability": "nonpayable",
      "type": "function"
    },
    {
      "stateMutability": "payable",
      "type": "receive"
    }
  ],
  "evm": {
    "bytecode": {
      "linkReferences": {},
      "object": "60e06040523480156200001157600080fd5b5060405162005b7238038062005b7283398101604081905262000034916200005c565b6001600160601b0319606093841b811660805291831b821660a05290911b1660c052620000c8565b60008060006060848603121562000071578283fd5b83516200007e81620000af565b60208501519093506200009181620000af565b6040850151909250620000a481620000af565b809150509250925092565b6001600160a01b0381168114620000c557600080fd5b50565b60805160601c60a05160601c60c05160601c61597f620001f3600039806101c252806105a952806107625280610cbd52806111b352806118c752806119f45280611a895280611d885280611dc95280611e8252806120165280612060528061211952806122c45280612402528061250052806125c652806126a7528061271a52806127d4528061287f52806129005280612bc25280612d365280612dc95280612eef528061301952806130ae52508061129d5280612e60525080610660528061083652806108a152806109d65280610d74528061140452806114ef528061167c52806119725280611be95280612775528061293f5280612e895280612f9a52806135b952806135fc52806139d35280613b0b5280613df552806140875280614199525061597f6000f3fe6080604052600436106101a55760003560e01c80639b9f35f0116100e1578063c45a01551161008a578063e78aaf6311610064578063e78aaf63146104cf578063ead86a29146104ef578063eef40f3114610504578063fb3bdb4114610524576101eb565b8063c45a015514610487578063d57b57a51461049c578063df4bf7e8146104af576101eb565b8063ad5c4648116100bb578063ad5c464814610425578063ad615dec14610447578063b9e3bb2514610467576101eb565b80639b9f35f0146103d2578063a59600db146103e5578063a601e41b14610405576101eb565b806356ed15ba1161014e57806378d9a04f1161012857806378d9a04f146103515780637ff36ab51461037f57806385f8c259146103925780638803dbee146103b2576101eb565b806356ed15ba146102d35780635f361e95146103035780636a055fa914610323576101eb565b806338ed17391161017f57806338ed1739146102735780633d221b20146102935780634a25d94a146102b3576101eb565b8063054d50d4146101f057806318cbafe5146102265780632e1db14314610253576101eb565b366101eb573373ffffffffffffffffffffffffffffffffffffffff7f000000000000000000000000000000000000000000000000000000000000000016146101e957fe5b005b600080fd5b3480156101fc57600080fd5b5061021061020b366004614ef8565b610537565b60405161021d9190615827565b60405180910390f35b34801561023257600080fd5b50610246610241366004614e87565b61054c565b60405161021d919061513f565b34801561025f57600080fd5b5061024661026e366004614db5565b61082f565b34801561027f57600080fd5b5061024661028e366004614e87565b61085d565b34801561029f57600080fd5b506101e96102ae366004614e87565b610970565b3480156102bf57600080fd5b506102466102ce366004614e87565b610c69565b3480156102df57600080fd5b506102f36102ee366004614be4565b610df1565b60405161021d94939291906158b3565b34801561030f57600080fd5b5061021061031e366004614c6b565b61119a565b34801561032f57600080fd5b5061034361033e366004614d7e565b611253565b60405161021d9291906150bb565b34801561035d57600080fd5b5061037161036c366004614c2b565b6114a0565b60405161021d9291906158a5565b61024661038d366004614dff565b611888565b34801561039e57600080fd5b506102106103ad366004614ef8565b611b98565b3480156103be57600080fd5b506102466103cd366004614e87565b611ba5565b6102f36103e0366004614b9f565b611c66565b3480156103f157600080fd5b506101e9610400366004614e87565b612272565b34801561041157600080fd5b50610371610420366004614c2b565b612571565b34801561043157600080fd5b5061043a612718565b60405161021d919061501b565b34801561045357600080fd5b50610210610462366004614ef8565b61273c565b34801561047357600080fd5b50610371610482366004614c6b565b612749565b34801561049357600080fd5b5061043a612773565b6101e96104aa366004614dff565b612797565b3480156104bb57600080fd5b506102106104ca366004614c2b565b612b6e565b3480156104db57600080fd5b506103716104ea366004614c6b565b612daf565b3480156104fb57600080fd5b5061043a612e5e565b34801561051057600080fd5b5061024661051f366004614db5565b612e82565b610246610532366004614dff565b612eb0565b60006105448484846131ee565b949350505050565b60608142811015610592576040517f08c379a000000000000000000000000000000000000000000000000000000000815260040161058990615228565b60405180910390fd5b73ffffffffffffffffffffffffffffffffffffffff7f00000000000000000000000000000000000000000000000000000000000000001686867fffffffffffffffffffffffffffffffffffffffffffffffffffffffffffffffff81018181106105f757fe5b905060200201602081019061060c9190614a2d565b73ffffffffffffffffffffffffffffffffffffffff1614610659576040517f08c379a0000000000000000000000000000000000000000000000000000000008152600401610589906151f1565b60006106877f00000000000000000000000000000000000000000000000000000000000000008a898961329f565b809450819250505087836001855103815181106106a057fe5b602002602001015110156106e0576040517f08c379a0000000000000000000000000000000000000000000000000000000008152600401610589906153f5565b610721878760008181106106f057fe5b90506020020160208101906107059190614a2d565b33838660008151811061071457fe5b6020026020010151613418565b61076083888880806020026020016040519081016040528093929190818152602001838360200280828437600092019190915250309250613545915050565b7f000000000000000000000000000000000000000000000000000000000000000073ffffffffffffffffffffffffffffffffffffffff16632e1a7d4d846001865103815181106107ac57fe5b60200260200101516040518263ffffffff1660e01b81526004016107d09190615827565b600060405180830381600087803b1580156107ea57600080fd5b505af11580156107fe573d6000803e3d6000fd5b50505050610823858460018651038151811061081657fe5b60200260200101516136cf565b50509695505050505050565b60606105447f0000000000000000000000000000000000000000000000000000000000000000858585613788565b6060814281101561089a576040517f08c379a000000000000000000000000000000000000000000000000000000000815260040161058990615228565b60006108c87f00000000000000000000000000000000000000000000000000000000000000008a898961329f565b809450819250505087836001855103815181106108e157fe5b60200260200101511015610921576040517f08c379a0000000000000000000000000000000000000000000000000000000008152600401610589906153f5565b610931878760008181106106f057fe5b610823838888808060200260200160405190810160405280939291908181526020018383602002808284376000920191909152508a9250613545915050565b80428110156109ab576040517f08c379a000000000000000000000000000000000000000000000000000000000815260040161058990615228565b610a44858560008181106109bb57fe5b90506020020160208101906109d09190614a2d565b33610a3e7f000000000000000000000000000000000000000000000000000000000000000089896000818110610a0257fe5b9050602002016020810190610a179190614a2d565b8a8a6001818110610a2457fe5b9050602002016020810190610a399190614a2d565b613910565b8a613418565b600085857fffffffffffffffffffffffffffffffffffffffffffffffffffffffffffffffff8101818110610a7457fe5b9050602002016020810190610a899190614a2d565b73ffffffffffffffffffffffffffffffffffffffff166370a08231856040518263ffffffff1660e01b8152600401610ac1919061501b565b60206040518083038186803b158015610ad957600080fd5b505afa158015610aed573d6000803e3d6000fd5b505050506040513d601f19601f82011682018060405250810190610b119190614d66565b9050610b5186868080602002602001604051908101604052809392919081815260200183836020028082843760009201919091525088925061398b915050565b86610c278288887fffffffffffffffffffffffffffffffffffffffffffffffffffffffffffffffff8101818110610b8457fe5b9050602002016020810190610b999190614a2d565b73ffffffffffffffffffffffffffffffffffffffff166370a08231886040518263ffffffff1660e01b8152600401610bd1919061501b565b60206040518083038186803b158015610be957600080fd5b505afa158015610bfd573d6000803e3d6000fd5b505050506040513d601f19601f82011682018060405250810190610c219190614d66565b90613be4565b1015610c5f576040517f08c379a0000000000000000000000000000000000000000000000000000000008152600401610589906153f5565b5050505050505050565b60608142811015610ca6576040517f08c379a000000000000000000000000000000000000000000000000000000000815260040161058990615228565b73ffffffffffffffffffffffffffffffffffffffff7f00000000000000000000000000000000000000000000000000000000000000001686867fffffffffffffffffffffffffffffffffffffffffffffffffffffffffffffffff8101818110610d0b57fe5b9050602002016020810190610d209190614a2d565b73ffffffffffffffffffffffffffffffffffffffff1614610d6d576040517f08c379a0000000000000000000000000000000000000000000000000000000008152600401610589906151f1565b6000610d9b7f00000000000000000000000000000000000000000000000000000000000000008a8989613c27565b80945081925050508783600081518110610db157fe5b602002602001015111156106e0576040517f08c379a0000000000000000000000000000000000000000000000000000000008152600401610589906154e6565b6000806000808442811015610e32576040517f08c379a000000000000000000000000000000000000000000000000000000000815260040161058990615228565b60648860c001351115610e71576040517f08c379a0000000000000000000000000000000000000000000000000000000008152600401610589906155d7565b60c08801351561101a576000806064610e9260408c013560c08d0135613d9d565b81610e9957fe5b04905060006064610eb260608d013560c08e0135613d9d565b81610eb957fe5b04905060006064610ed260808e013560c08f0135613d9d565b81610ed957fe5b04905060006064610efb8e60c001358f60a00135613d9d90919063ffffffff16565b81610f0257fe5b049050610f31610f1560208f018f614a2d565b8e6020016020810190610f289190614a2d565b86868686613dee565b919b5099509450610f50610f4860208f018f614a2d565b33878d613418565b610f6e8d6020016020810190610f669190614a2d565b33878c613418565b6040517f6a62784200000000000000000000000000000000000000000000000000000000815273ffffffffffffffffffffffffffffffffffffffff861690636a62784290610fc0908f9060040161501b565b602060405180830381600087803b158015610fda57600080fd5b505af1158015610fee573d6000803e3d6000fd5b505050506040513d601f19601f820116820180604052508101906110129190614d66565b975050505050505b60648860c0013514611190576000604089013586900360608a01358690038260808c0135611049576000611051565b888c60800135035b9050600060a08d013561106557600061106d565b888d60a00135035b90506110a18d60200160208101906110859190614a2d565b8e60000160208101906110989190614a2d565b85878587613dee565b9650945092506110bf6110b760208f018f614a2d565b338787613418565b6110dd8d60200160208101906110d59190614a2d565b338786613418565b6040517f6a62784200000000000000000000000000000000000000000000000000000000815273ffffffffffffffffffffffffffffffffffffffff861690636a6278429061112f908f9060040161501b565b602060405180830381600087803b15801561114957600080fd5b505af115801561115d573d6000803e3d6000fd5b505050506040513d601f19601f820116820180604052508101906111819190614d66565b93909901985050909501949250505b5093509350935093565b600073ffffffffffffffffffffffffffffffffffffffff7f0000000000000000000000000000000000000000000000000000000000000000166111e36040890160208a01614a2d565b73ffffffffffffffffffffffffffffffffffffffff1614611230576040517f08c379a00000000000000000000000000000000000000000000000000000000081526004016105899061532a565b61123d8786868686614076565b611248878787612b6e565b979650505050505050565b6000806000611260614939565b6040517f2f380b3500000000000000000000000000000000000000000000000000000000815273ffffffffffffffffffffffffffffffffffffffff7f00000000000000000000000000000000000000000000000000000000000000001690632f380b35906112d2908a90600401615827565b60e06040518083038186803b1580156112ea57600080fd5b505afa1580156112fe573d6000803e3d6000fd5b505050506040513d601f19601f820116820180604052508101906113229190614aa5565b90925090503373ffffffffffffffffffffffffffffffffffffffff831614611376576040517f08c379a000000000000000000000000000000000000000000000000000000000815260040161058990615543565b60038160a00151600581111561138857fe5b10156113c0576040517f08c379a00000000000000000000000000000000000000000000000000000000081526004016105899061525f565b805160208201516040517f883d273000000000000000000000000000000000000000000000000000000000815273ffffffffffffffffffffffffffffffffffffffff7f0000000000000000000000000000000000000000000000000000000000000000169063883d27309061143f90859085908d908d906004016150e2565b6040805180830381600087803b15801561145857600080fd5b505af115801561146c573d6000803e3d6000fd5b505050506040513d601f19601f820116820180604052508101906114909190614a6c565b909a909950975050505050505050565b60008082428110156114de576040517f08c379a000000000000000000000000000000000000000000000000000000000815260040161058990615228565b60408601351561166b57600061152b7f000000000000000000000000000000000000000000000000000000000000000061151b60208a018a614a2d565b610a3960408b0160208c01614a2d565b90508073ffffffffffffffffffffffffffffffffffffffff166323b872dd33838a604001356040518463ffffffff1660e01b815260040161156e9392919061508a565b602060405180830381600087803b15801561158857600080fd5b505af115801561159c573d6000803e3d6000fd5b505050506040513d601f19601f820116820180604052508101906115c09190614b83565b506040517f89afcb4400000000000000000000000000000000000000000000000000000000815273ffffffffffffffffffffffffffffffffffffffff8216906389afcb449061161390899060040161501b565b6040805180830381600087803b15801561162c57600080fd5b505af1158015611640573d6000803e3d6000fd5b505050506040513d601f19601f820116820180604052508101906116649190614e64565b9094509250505b6060860135156118035760006116b87f00000000000000000000000000000000000000000000000000000000000000006116ab60408a0160208b01614a2d565b610a3960208b018b614a2d565b6040517f23b872dd00000000000000000000000000000000000000000000000000000000815290915073ffffffffffffffffffffffffffffffffffffffff8216906323b872dd90611715903390859060608d01359060040161508a565b602060405180830381600087803b15801561172f57600080fd5b505af1158015611743573d6000803e3d6000fd5b505050506040513d601f19601f820116820180604052508101906117679190614b83565b506000808273ffffffffffffffffffffffffffffffffffffffff166389afcb44896040518263ffffffff1660e01b81526004016117a4919061501b565b6040805180830381600087803b1580156117bd57600080fd5b505af11580156117d1573d6000803e3d6000fd5b505050506040513d601f19601f820116820180604052508101906117f59190614e64565b969096019594909401935050505b8560800135831015611841576040517f08c379a0000000000000000000000000000000000000000000000000000000008152600401610589906156c8565b8560a0013582101561187f576040517f08c379a00000000000000000000000000000000000000000000000000000000081526004016105899061557a565b50935093915050565b606081428110156118c5576040517f08c379a000000000000000000000000000000000000000000000000000000000815260040161058990615228565b7f000000000000000000000000000000000000000000000000000000000000000073ffffffffffffffffffffffffffffffffffffffff168686600081811061190957fe5b905060200201602081019061191e9190614a2d565b73ffffffffffffffffffffffffffffffffffffffff161461196b576040517f08c379a0000000000000000000000000000000000000000000000000000000008152600401610589906151f1565b60006119997f000000000000000000000000000000000000000000000000000000000000000034898961329f565b809450819250505087836001855103815181106119b257fe5b602002602001015110156119f2576040517f08c379a0000000000000000000000000000000000000000000000000000000008152600401610589906153f5565b7f000000000000000000000000000000000000000000000000000000000000000073ffffffffffffffffffffffffffffffffffffffff1663d0e30db084600081518110611a3b57fe5b60200260200101516040518263ffffffff1660e01b81526004016000604051808303818588803b158015611a6e57600080fd5b505af1158015611a82573d6000803e3d6000fd5b50505050507f000000000000000000000000000000000000000000000000000000000000000073ffffffffffffffffffffffffffffffffffffffff1663a9059cbb8285600081518110611ad157fe5b60200260200101516040518363ffffffff1660e01b8152600401611af6929190615119565b602060405180830381600087803b158015611b1057600080fd5b505af1158015611b24573d6000803e3d6000fd5b505050506040513d601f19601f82011682018060405250810190611b489190614b83565b611b4e57fe5b611b8d838888808060200260200160405190810160405280939291908181526020018383602002808284376000920191909152508a9250613545915050565b505095945050505050565b60006105448484846142a1565b60608142811015611be2576040517f08c379a000000000000000000000000000000000000000000000000000000000815260040161058990615228565b6000611c107f00000000000000000000000000000000000000000000000000000000000000008a8989613c27565b80945081925050508783600081518110611c2657fe5b60200260200101511115610921576040517f08c379a0000000000000000000000000000000000000000000000000000000008152600401610589906154e6565b6000806000808442811015611ca7576040517f08c379a000000000000000000000000000000000000000000000000000000000815260040161058990615228565b606488608001351115611ce6576040517f08c379a0000000000000000000000000000000000000000000000000000000008152600401610589906155d7565b608088013515611fc0576000806064611d0760208c013560808d0135613d9d565b81611d0e57fe5b04905060006064611d233460808e0135613d9d565b81611d2a57fe5b04905060006064611d4360408e013560808f0135613d9d565b81611d4a57fe5b04905060006064611d6c8e608001358f60600135613d9d90919063ffffffff16565b81611d7357fe5b049050611db0611d8660208f018f614a2d565b7f000000000000000000000000000000000000000000000000000000000000000086868686613dee565b919b5099509450611dc7610f4860208f018f614a2d565b7f000000000000000000000000000000000000000000000000000000000000000073ffffffffffffffffffffffffffffffffffffffff1663d0e30db08a6040518263ffffffff1660e01b81526004016000604051808303818588803b158015611e2f57600080fd5b505af1158015611e43573d6000803e3d6000fd5b50506040517fa9059cbb00000000000000000000000000000000000000000000000000000000815273ffffffffffffffffffffffffffffffffffffffff7f000000000000000000000000000000000000000000000000000000000000000016935063a9059cbb9250611ebc915088908d90600401615119565b602060405180830381600087803b158015611ed657600080fd5b505af1158015611eea573d6000803e3d6000fd5b505050506040513d601f19601f82011682018060405250810190611f0e9190614b83565b611f1457fe5b6040517f6a62784200000000000000000000000000000000000000000000000000000000815273ffffffffffffffffffffffffffffffffffffffff861690636a62784290611f66908f9060040161501b565b602060405180830381600087803b158015611f8057600080fd5b505af1158015611f94573d6000803e3d6000fd5b505050506040513d601f19601f82011682018060405250810190611fb89190614d66565b975050505050505b606488608001351461225e5760006020890135869003348690038260408c0135611feb576000611ff3565b888c60400135035b9050600060608d013561200757600061200f565b888d60600135035b90506120487f00000000000000000000000000000000000000000000000000000000000000008e60000160208101906110989190614a2d565b96509450925061205e6110b760208f018f614a2d565b7f000000000000000000000000000000000000000000000000000000000000000073ffffffffffffffffffffffffffffffffffffffff1663d0e30db0846040518263ffffffff1660e01b81526004016000604051808303818588803b1580156120c657600080fd5b505af11580156120da573d6000803e3d6000fd5b50506040517fa9059cbb00000000000000000000000000000000000000000000000000000000815273ffffffffffffffffffffffffffffffffffffffff7f000000000000000000000000000000000000000000000000000000000000000016935063a9059cbb9250612153915088908790600401615119565b602060405180830381600087803b15801561216d57600080fd5b505af1158015612181573d6000803e3d6000fd5b505050506040513d601f19601f820116820180604052508101906121a59190614b83565b6121ab57fe5b6040517f6a62784200000000000000000000000000000000000000000000000000000000815273ffffffffffffffffffffffffffffffffffffffff861690636a627842906121fd908f9060040161501b565b602060405180830381600087803b15801561221757600080fd5b505af115801561222b573d6000803e3d6000fd5b505050506040513d601f19601f8201168201806040525081019061224f9190614d66565b93909901985050909501949250505b8334111561119057611190338534036136cf565b80428110156122ad576040517f08c379a000000000000000000000000000000000000000000000000000000000815260040161058990615228565b73ffffffffffffffffffffffffffffffffffffffff7f00000000000000000000000000000000000000000000000000000000000000001685857fffffffffffffffffffffffffffffffffffffffffffffffffffffffffffffffff810181811061231257fe5b90506020020160208101906123279190614a2d565b73ffffffffffffffffffffffffffffffffffffffff1614612374576040517f08c379a0000000000000000000000000000000000000000000000000000000008152600401610589906151f1565b612384858560008181106109bb57fe5b6123c285858080602002602001604051908101604052809392919081815260200183836020028082843760009201919091525030925061398b915050565b6040517f70a0823100000000000000000000000000000000000000000000000000000000815260009073ffffffffffffffffffffffffffffffffffffffff7f000000000000000000000000000000000000000000000000000000000000000016906370a082319061243790309060040161501b565b60206040518083038186803b15801561244f57600080fd5b505afa158015612463573d6000803e3d6000fd5b505050506040513d601f19601f820116820180604052508101906124879190614d66565b9050868110156124c3576040517f08c379a0000000000000000000000000000000000000000000000000000000008152600401610589906153f5565b6040517f2e1a7d4d00000000000000000000000000000000000000000000000000000000815273ffffffffffffffffffffffffffffffffffffffff7f00000000000000000000000000000000000000000000000000000000000000001690632e1a7d4d90612535908490600401615827565b600060405180830381600087803b15801561254f57600080fd5b505af1158015612563573d6000803e3d6000fd5b50505050610c5f84826136cf565b60008082428110156125af576040517f08c379a000000000000000000000000000000000000000000000000000000000815260040161058990615228565b73ffffffffffffffffffffffffffffffffffffffff7f0000000000000000000000000000000000000000000000000000000000000000166125f66040880160208901614a2d565b73ffffffffffffffffffffffffffffffffffffffff1614612643576040517f08c379a00000000000000000000000000000000000000000000000000000000081526004016105899061532a565b61264e8630866114a0565b909350915061266a6126636020880188614a2d565b8685614350565b6040517f2e1a7d4d00000000000000000000000000000000000000000000000000000000815273ffffffffffffffffffffffffffffffffffffffff7f00000000000000000000000000000000000000000000000000000000000000001690632e1a7d4d906126dc908590600401615827565b600060405180830381600087803b1580156126f657600080fd5b505af115801561270a573d6000803e3d6000fd5b5050505061187f85836136cf565b7f000000000000000000000000000000000000000000000000000000000000000081565b6000610544848484614473565b6000806127598887878787614076565b6127648888886114a0565b90999098509650505050505050565b7f000000000000000000000000000000000000000000000000000000000000000081565b80428110156127d2576040517f08c379a000000000000000000000000000000000000000000000000000000000815260040161058990615228565b7f000000000000000000000000000000000000000000000000000000000000000073ffffffffffffffffffffffffffffffffffffffff168585600081811061281657fe5b905060200201602081019061282b9190614a2d565b73ffffffffffffffffffffffffffffffffffffffff1614612878576040517f08c379a0000000000000000000000000000000000000000000000000000000008152600401610589906151f1565b60003490507f000000000000000000000000000000000000000000000000000000000000000073ffffffffffffffffffffffffffffffffffffffff1663d0e30db0826040518263ffffffff1660e01b81526004016000604051808303818588803b1580156128e557600080fd5b505af11580156128f9573d6000803e3d6000fd5b50505050507f000000000000000000000000000000000000000000000000000000000000000073ffffffffffffffffffffffffffffffffffffffff1663a9059cbb61296b7f000000000000000000000000000000000000000000000000000000000000000089896000818110610a0257fe5b836040518363ffffffff1660e01b8152600401612989929190615119565b602060405180830381600087803b1580156129a357600080fd5b505af11580156129b7573d6000803e3d6000fd5b505050506040513d601f19601f820116820180604052508101906129db9190614b83565b6129e157fe5b600086867fffffffffffffffffffffffffffffffffffffffffffffffffffffffffffffffff8101818110612a1157fe5b9050602002016020810190612a269190614a2d565b73ffffffffffffffffffffffffffffffffffffffff166370a08231866040518263ffffffff1660e01b8152600401612a5e919061501b565b60206040518083038186803b158015612a7657600080fd5b505afa158015612a8a573d6000803e3d6000fd5b505050506040513d601f19601f82011682018060405250810190612aae9190614d66565b9050612aee87878080602002602001604051908101604052809392919081815260200183836020028082843760009201919091525089925061398b915050565b87610c278289897fffffffffffffffffffffffffffffffffffffffffffffffffffffffffffffffff8101818110612b2157fe5b9050602002016020810190612b369190614a2d565b73ffffffffffffffffffffffffffffffffffffffff166370a08231896040518263ffffffff1660e01b8152600401610bd1919061501b565b60008142811015612bab576040517f08c379a000000000000000000000000000000000000000000000000000000000815260040161058990615228565b73ffffffffffffffffffffffffffffffffffffffff7f000000000000000000000000000000000000000000000000000000000000000016612bf26040870160208801614a2d565b73ffffffffffffffffffffffffffffffffffffffff1614612c3f576040517f08c379a00000000000000000000000000000000000000000000000000000000081526004016105899061532a565b612c4a8530856114a0565b9250612cf99050612c5e6020870187614a2d565b85612c6c6020890189614a2d565b73ffffffffffffffffffffffffffffffffffffffff166370a08231306040518263ffffffff1660e01b8152600401612ca4919061501b565b60206040518083038186803b158015612cbc57600080fd5b505afa158015612cd0573d6000803e3d6000fd5b505050506040513d601f19601f82011682018060405250810190612cf49190614d66565b614350565b6040517f2e1a7d4d00000000000000000000000000000000000000000000000000000000815273ffffffffffffffffffffffffffffffffffffffff7f00000000000000000000000000000000000000000000000000000000000000001690632e1a7d4d90612d6b908590600401615827565b600060405180830381600087803b158015612d8557600080fd5b505af1158015612d99573d6000803e3d6000fd5b50505050612da784836136cf565b509392505050565b60008073ffffffffffffffffffffffffffffffffffffffff7f000000000000000000000000000000000000000000000000000000000000000016612df960408a0160208b01614a2d565b73ffffffffffffffffffffffffffffffffffffffff1614612e46576040517f08c379a00000000000000000000000000000000000000000000000000000000081526004016105899061532a565b612e538887878787614076565b612764888888612571565b7f000000000000000000000000000000000000000000000000000000000000000081565b60606105447f000000000000000000000000000000000000000000000000000000000000000085858561450f565b60608142811015612eed576040517f08c379a000000000000000000000000000000000000000000000000000000000815260040161058990615228565b7f000000000000000000000000000000000000000000000000000000000000000073ffffffffffffffffffffffffffffffffffffffff1686866000818110612f3157fe5b9050602002016020810190612f469190614a2d565b73ffffffffffffffffffffffffffffffffffffffff1614612f93576040517f08c379a0000000000000000000000000000000000000000000000000000000008152600401610589906151f1565b6000612fc17f0000000000000000000000000000000000000000000000000000000000000000898989613c27565b80945081925050503483600081518110612fd757fe5b60200260200101511115613017576040517f08c379a0000000000000000000000000000000000000000000000000000000008152600401610589906154e6565b7f000000000000000000000000000000000000000000000000000000000000000073ffffffffffffffffffffffffffffffffffffffff1663d0e30db08460008151811061306057fe5b60200260200101516040518263ffffffff1660e01b81526004016000604051808303818588803b15801561309357600080fd5b505af11580156130a7573d6000803e3d6000fd5b50505050507f000000000000000000000000000000000000000000000000000000000000000073ffffffffffffffffffffffffffffffffffffffff1663a9059cbb82856000815181106130f657fe5b60200260200101516040518363ffffffff1660e01b815260040161311b929190615119565b602060405180830381600087803b15801561313557600080fd5b505af1158015613149573d6000803e3d6000fd5b505050506040513d601f19601f8201168201806040525081019061316d9190614b83565b61317357fe5b6131b2838888808060200260200160405190810160405280939291908181526020018383602002808284376000920191909152508a9250613545915050565b826000815181106131bf57fe5b6020026020010151341115611b8d57611b8d33846000815181106131df57fe5b602002602001015134036136cf565b6000808411613229576040517f08c379a000000000000000000000000000000000000000000000000000000000815260040161058990615398565b6000831180156132395750600082115b61326f576040517f08c379a0000000000000000000000000000000000000000000000000000000008152600401610589906152cd565b600061327b8584613d9d565b905060006132898587614656565b905080828161329457fe5b049695505050505050565b6000606060028310156132de576040517f08c379a0000000000000000000000000000000000000000000000000000000008152600401610589906154af565b8267ffffffffffffffff811180156132f557600080fd5b5060405190808252806020026020018201604052801561331f578160200160208202803683370190505b509050848160008151811061333057fe5b60200260200101818152505060005b7fffffffffffffffffffffffffffffffffffffffffffffffffffffffffffffffff840181101561340e5760008060006133bc8a89898781811061337e57fe5b90506020020160208101906133939190614a2d565b8a8a886001018181106133a257fe5b90506020020160208101906133b79190614a2d565b614693565b9250925092506133e08585815181106133d157fe5b602002602001015184846131ee565b8585600101815181106133ef57fe5b602090810291909101015283613403578095505b50505060010161333f565b5094509492505050565b600060608573ffffffffffffffffffffffffffffffffffffffff166323b872dd86868660405160240161344d9392919061508a565b6040516020818303038152906040529060e01b6020820180517bffffffffffffffffffffffffffffffffffffffffffffffffffffffff838183161783525050505060405161349b9190614f7e565b6000604051808303816000865af19150503d80600081146134d8576040519150601f19603f3d011682016040523d82523d6000602084013e6134dd565b606091505b50915091508180156135075750805115806135075750808060200190518101906135079190614b83565b61353d576040517f08c379a00000000000000000000000000000000000000000000000000000000081526004016105899061575c565b505050505050565b60005b60018351038110156136c95760008084838151811061356357fe5b602002602001015185846001018151811061357a57fe5b602002602001015191509150600086846001018151811061359757fe5b602002602001015190506000600287510385106135b457856135f5565b6135f57f0000000000000000000000000000000000000000000000000000000000000000848988600201815181106135e857fe5b6020026020010151613910565b90506136227f00000000000000000000000000000000000000000000000000000000000000008585613910565b604080516000815260208101918290527f1c6da7240000000000000000000000000000000000000000000000000000000090915273ffffffffffffffffffffffffffffffffffffffff9190911690631c6da72490613687908590859060248101615830565b600060405180830381600087803b1580156136a157600080fd5b505af11580156136b5573d6000803e3d6000fd5b505060019096019550613548945050505050565b50505050565b6040805160008082526020820190925273ffffffffffffffffffffffffffffffffffffffff84169083906040516137069190614f7e565b60006040518083038185875af1925050503d8060008114613743576040519150601f19603f3d011682016040523d82523d6000602084013e613748565b606091505b5050905080613783576040517f08c379a00000000000000000000000000000000000000000000000000000000081526004016105899061560e565b505050565b606060028210156137c5576040517f08c379a0000000000000000000000000000000000000000000000000000000008152600401610589906154af565b8167ffffffffffffffff811180156137dc57600080fd5b50604051908082528060200260200182016040528015613806578160200160208202803683370190505b509050838160018351038151811061381a57fe5b60209081029190910101527fffffffffffffffffffffffffffffffffffffffffffffffffffffffffffffffff82015b8015613907576000806138a08887876001870381811061386557fe5b905060200201602081019061387a9190614a2d565b88888781811061388657fe5b905060200201602081019061389b9190614a2d565b614882565b5050915091506138c48484815181106138b557fe5b602002602001015183836142a1565b8460018503815181106138d357fe5b602090810291909101015250507fffffffffffffffffffffffffffffffffffffffffffffffffffffffffffffffff01613849565b50949350505050565b6000838383604051602001613926929190614f44565b6040516020818303038152906040528051906020012060405160200161394d929190614f9a565b604080517fffffffffffffffffffffffffffffffffffffffffffffffffffffffffffffffe08184030181529190528051602090910120949350505050565b60005b6001835103811015613783576000808483815181106139a957fe5b60200260200101518584600101815181106139c057fe5b60200260200101519150915060006139f97f00000000000000000000000000000000000000000000000000000000000000008484613910565b90506000806000808473ffffffffffffffffffffffffffffffffffffffff16630902f1ac6040518163ffffffff1660e01b815260040160806040518083038186803b158015613a4757600080fd5b505afa158015613a5b573d6000803e3d6000fd5b505050506040513d601f19601f82011682018060405250810190613a7f9190614d10565b50506dffffffffffffffffffffffffffff1691506dffffffffffffffffffffffffffff169150613ae2828873ffffffffffffffffffffffffffffffffffffffff166370a08231886040518263ffffffff1660e01b8152600401610bd1919061501b565b9350613aef8483836131ee565b92505050600060028951038710613b065787613b3a565b613b3a7f0000000000000000000000000000000000000000000000000000000000000000868b8a600201815181106135e857fe5b604080516000815260208101918290527f1c6da7240000000000000000000000000000000000000000000000000000000090915290915073ffffffffffffffffffffffffffffffffffffffff851690631c6da72490613ba0908590859060248101615830565b600060405180830381600087803b158015613bba57600080fd5b505af1158015613bce573d6000803e3d6000fd5b50506001909801975061398e9650505050505050565b80820382811115613c21576040517f08c379a000000000000000000000000000000000000000000000000000000000815260040161058990615183565b92915050565b600060606002831015613c66576040517f08c379a0000000000000000000000000000000000000000000000000000000008152600401610589906154af565b8267ffffffffffffffff81118015613c7d57600080fd5b50604051908082528060200260200182016040528015613ca7578160200160208202803683370190505b5090508481600183510381518110613cbb57fe5b60209081029190910101526000807fffffffffffffffffffffffffffffffffffffffffffffffffffffffffffffffff85015b8015613d9157613d2789888860018503818110613d0657fe5b9050602002016020810190613d1b9190614a2d565b8989858181106133a257fe5b86519097509194509250613d5090859083908110613d4157fe5b602002602001015184846142a1565b846001830381518110613d5f57fe5b60209081029190910101527fffffffffffffffffffffffffffffffffffffffffffffffffffffffffffffffff01613ced565b50505094509492505050565b6000811580613db857505080820282828281613db557fe5b04145b613c21576040517f08c379a000000000000000000000000000000000000000000000000000000000815260040161058990615296565b60008060007f000000000000000000000000000000000000000000000000000000000000000073ffffffffffffffffffffffffffffffffffffffff1663e6a439058a8a6040518363ffffffff1660e01b8152600401613e4e9291906150bb565b60206040518083038186803b158015613e6657600080fd5b505afa158015613e7a573d6000803e3d6000fd5b505050506040513d601f19601f82011682018060405250810190613e9e9190614a50565b905073ffffffffffffffffffffffffffffffffffffffff8116613eed576040517f08c379a0000000000000000000000000000000000000000000000000000000008152600401610589906157b9565b6000808273ffffffffffffffffffffffffffffffffffffffff16630902f1ac6040518163ffffffff1660e01b815260040160806040518083038186803b158015613f3657600080fd5b505afa158015613f4a573d6000803e3d6000fd5b505050506040513d601f19601f82011682018060405250810190613f6e9190614d10565b50506dffffffffffffffffffffffffffff1691506dffffffffffffffffffffffffffff169150816000148015613fa2575080155b15613fb257889450879350614068565b6000613fbf8a8484614473565b905088811161400d5786811015614002576040517f08c379a0000000000000000000000000000000000000000000000000000000008152600401610589906157f0565b899550935083614066565b600061401a8a8486614473565b90508a81111561402657fe5b88811015614060576040517f08c379a000000000000000000000000000000000000000000000000000000000815260040161058990615725565b95508894505b505b505096509650969350505050565b6020820135156141885760006140c37f00000000000000000000000000000000000000000000000000000000000000006140b36020890189614a2d565b610a3960408a0160208b01614a2d565b90506000846140d65786604001356140f8565b7fffffffffffffffffffffffffffffffffffffffffffffffffffffffffffffffff5b905073ffffffffffffffffffffffffffffffffffffffff821663d505accf3330848a61412760208b018b614f23565b8a602001358b604001356040518863ffffffff1660e01b8152600401614153979695949392919061503c565b600060405180830381600087803b15801561416d57600080fd5b505af1158015614181573d6000803e3d6000fd5b5050505050505b60208101351561429a5760006141d57f00000000000000000000000000000000000000000000000000000000000000006141c86040890160208a01614a2d565b610a3960208a018a614a2d565b90506000846141e857866060013561420a565b7fffffffffffffffffffffffffffffffffffffffffffffffffffffffffffffffff5b905073ffffffffffffffffffffffffffffffffffffffff821663d505accf3330848a61423960208a018a614f23565b89602001358a604001356040518863ffffffff1660e01b8152600401614265979695949392919061503c565b600060405180830381600087803b15801561427f57600080fd5b505af1158015614293573d6000803e3d6000fd5b5050505050505b5050505050565b60008084116142dc576040517f08c379a00000000000000000000000000000000000000000000000000000000081526004016105899061566b565b6000831180156142ec5750600082115b614322576040517f08c379a0000000000000000000000000000000000000000000000000000000008152600401610589906152cd565b600061432e8486613d9d565b9050600061433c8487613be4565b9050806143498382614656565b8161329457fe5b600060608473ffffffffffffffffffffffffffffffffffffffff1663a9059cbb8585604051602401614383929190615119565b6040516020818303038152906040529060e01b6020820180517bffffffffffffffffffffffffffffffffffffffffffffffffffffffff83818316178352505050506040516143d19190614f7e565b6000604051808303816000865af19150503d806000811461440e576040519150601f19603f3d011682016040523d82523d6000602084013e614413565b606091505b509150915081801561443d57508051158061443d57508080602001905181019061443d9190614b83565b61429a576040517f08c379a0000000000000000000000000000000000000000000000000000000008152600401610589906151ba565b60008084116144ae576040517f08c379a000000000000000000000000000000000000000000000000000000000815260040161058990615452565b6000831180156144be5750600082115b6144f4576040517f08c379a0000000000000000000000000000000000000000000000000000000008152600401610589906152cd565b826144ff8584613d9d565b8161450657fe5b04949350505050565b6060600282101561454c576040517f08c379a0000000000000000000000000000000000000000000000000000000008152600401610589906154af565b8167ffffffffffffffff8111801561456357600080fd5b5060405190808252806020026020018201604052801561458d578160200160208202803683370190505b509050838160008151811061459e57fe5b60200260200101818152505060005b7fffffffffffffffffffffffffffffffffffffffffffffffffffffffffffffffff83018110156139075760008061460e888787868181106145ea57fe5b90506020020160208101906145ff9190614a2d565b88888760010181811061388657fe5b50509150915061463284848151811061462357fe5b602002602001015183836131ee565b84846001018151811061464157fe5b602090810291909101015250506001016145ad565b80820182811015613c21576040517f08c379a000000000000000000000000000000000000000000000000000000000815260040161058990615361565b60008060006146a3868686614882565b509194509250905060008080806146bb8a898b614882565b9296509094509250905060006146d18886613d9d565b905060006146df8886613d9d565b90506146eb8184613d9d565b6146f783612710613d9d565b11156148735760006147098383613be4565b90506000614722600261471c8d8a614656565b90613d9d565b90506000614735600261471c8d8c614656565b905061474c8e8b8984878161474657fe5b04613418565b61475b8d888c85878161474657fe5b8973ffffffffffffffffffffffffffffffffffffffff1663fff6cae96040518163ffffffff1660e01b81526004016040805180830381600087803b1580156147a257600080fd5b505af11580156147b6573d6000803e3d6000fd5b505050506040513d601f19601f820116820180604052508101906147da9190614ce2565b50508673ffffffffffffffffffffffffffffffffffffffff1663fff6cae96040518163ffffffff1660e01b81526004016040805180830381600087803b15801561482357600080fd5b505af1158015614837573d6000803e3d6000fd5b505050506040513d601f19601f8201168201806040525081019061485b9190614ce2565b50506148688f8f8f614882565b50919d509b50505050505b50505050505093509350939050565b600080600080614893878787613910565b91508173ffffffffffffffffffffffffffffffffffffffff16630902f1ac6040518163ffffffff1660e01b815260040160806040518083038186803b1580156148db57600080fd5b505afa1580156148ef573d6000803e3d6000fd5b505050506040513d601f19601f820116820180604052508101906149139190614d10565b6dffffffffffffffffffffffffffff9384169b9290931699509397509095509350505050565b6040805160c08101825260008082526020820181905291810182905260608101829052608081018290529060a082015290565b8051613c21816158fa565b60008083601f840112614988578182fd5b50813567ffffffffffffffff81111561499f578182fd5b60208301915083602080830285010111156149b957600080fd5b9250929050565b805160068110613c2157600080fd5b600060c082840312156149e0578081fd5b50919050565b6000606082840312156149e0578081fd5b80516dffffffffffffffffffffffffffff81168114613c2157600080fd5b805167ffffffffffffffff81168114613c2157600080fd5b600060208284031215614a3e578081fd5b8135614a49816158fa565b9392505050565b600060208284031215614a61578081fd5b8151614a49816158fa565b60008060408385031215614a7e578081fd5b8251614a89816158fa565b6020840151909250614a9a816158fa565b809150509250929050565b60008082840360e0811215614ab8578283fd5b8351614ac3816158fa565b925060c07fffffffffffffffffffffffffffffffffffffffffffffffffffffffffffffffe082011215614af4578182fd5b5060405160c0810181811067ffffffffffffffff82111715614b14578283fd5b604052614b24856020860161496c565b8152614b33856040860161496c565b602082015260608401516040820152614b4f8560808601614a15565b6060820152614b618560a08601614a15565b6080820152614b738560c086016149c0565b60a0820152809150509250929050565b600060208284031215614b94578081fd5b8151614a498161591f565b600080600083850360e0811215614bb4578182fd5b60a0811215614bc1578182fd5b5083925060a0840135614bd3816158fa565b9295929450505060c0919091013590565b6000806000838503610120811215614bfa578384fd5b60e0811215614c07578384fd5b5083925060e0840135614c19816158fa565b92959294505050610100919091013590565b60008060006101008486031215614c40578283fd5b614c4a85856149cf565b925060c0840135614c5a816158fa565b9295929450505060e0919091013590565b6000806000806000806101e08789031215614c84578384fd5b614c8e88886149cf565b955060c0870135614c9e816158fa565b945060e08701359350610100870135614cb68161591f565b9250614cc68861012089016149e6565b9150614cd68861018089016149e6565b90509295509295509295565b60008060408385031215614cf4578182fd5b8251614cff8161592d565b6020840151909250614a9a8161592d565b60008060008060808587031215614d25578182fd5b614d2f86866149f7565b9350614d3e86602087016149f7565b9250604085015163ffffffff81168114614d56578283fd5b6060959095015193969295505050565b600060208284031215614d77578081fd5b5051919050565b600080600060608486031215614d92578081fd5b833592506020840135614da4816158fa565b929592945050506040919091013590565b600080600060408486031215614dc9578081fd5b83359250602084013567ffffffffffffffff811115614de6578182fd5b614df286828701614977565b9497909650939450505050565b600080600080600060808688031215614e16578283fd5b85359450602086013567ffffffffffffffff811115614e33578384fd5b614e3f88828901614977565b9095509350506040860135614e53816158fa565b949793965091946060013592915050565b60008060408385031215614e76578182fd5b505080516020909101519092909150565b60008060008060008060a08789031215614e9f578384fd5b8635955060208701359450604087013567ffffffffffffffff811115614ec3578485fd5b614ecf89828a01614977565b9095509350506060870135614ee3816158fa565b80925050608087013590509295509295509295565b600080600060608486031215614f0c578081fd5b505081359360208301359350604090920135919050565b600060208284031215614f34578081fd5b813560ff81168114614a49578182fd5b7fffffffffffffffffffffffffffffffffffffffff000000000000000000000000606093841b811682529190921b16601482015260280190565b60008251614f908184602087016158ce565b9190910192915050565b7fff00000000000000000000000000000000000000000000000000000000000000815260609290921b7fffffffffffffffffffffffffffffffffffffffff00000000000000000000000016600183015260158201527fbaeae6b526d52ab9edea88a8a5991ed61443a0c4d6bea03dc99971664961f4b7603582015260550190565b73ffffffffffffffffffffffffffffffffffffffff91909116815260200190565b73ffffffffffffffffffffffffffffffffffffffff97881681529590961660208601526040850193909352606084019190915260ff16608083015260a082015260c081019190915260e00190565b73ffffffffffffffffffffffffffffffffffffffff9384168152919092166020820152604081019190915260600190565b73ffffffffffffffffffffffffffffffffffffffff92831681529116602082015260400190565b73ffffffffffffffffffffffffffffffffffffffff9485168152928416602084015292166040820152606081019190915260800190565b73ffffffffffffffffffffffffffffffffffffffff929092168252602082015260400190565b6020808252825182820181905260009190848201906040850190845b818110156151775783518352928401929184019160010161515b565b50909695505050505050565b60208082526015908201527f64732d6d6174682d7375622d756e646572666c6f770000000000000000000000604082015260600190565b6020808252601f908201527f5472616e7366657248656c7065723a205452414e534645525f4641494c454400604082015260600190565b6020808252601a908201527f466553776170526f757465723a20494e56414c49445f50415448000000000000604082015260600190565b60208082526015908201527f466553776170526f757465723a20455850495245440000000000000000000000604082015260600190565b60208082526013908201527f4665537761703a204e4f5420414c4c4f57454400000000000000000000000000604082015260600190565b60208082526014908201527f64732d6d6174682d6d756c2d6f766572666c6f77000000000000000000000000604082015260600190565b60208082526025908201527f4665537761704c6962726172793a20494e53554646494349454e545f4c49515560408201527f4944495459000000000000000000000000000000000000000000000000000000606082015260800190565b60208082526012908201527f4665537761703a2057524f4e4720574554480000000000000000000000000000604082015260600190565b60208082526014908201527f64732d6d6174682d6164642d6f766572666c6f77000000000000000000000000604082015260600190565b60208082526028908201527f4665537761704c6962726172793a20494e53554646494349454e545f494e505560408201527f545f414d4f554e54000000000000000000000000000000000000000000000000606082015260800190565b60208082526028908201527f466553776170526f757465723a20494e53554646494349454e545f4f5554505560408201527f545f414d4f554e54000000000000000000000000000000000000000000000000606082015260800190565b60208082526022908201527f4665537761704c6962726172793a20494e53554646494349454e545f414d4f5560408201527f4e54000000000000000000000000000000000000000000000000000000000000606082015260800190565b6020808252601b908201527f4665537761704c6962726172793a20494e56414c49445f504154480000000000604082015260600190565b60208082526024908201527f466553776170526f757465723a204558434553534956455f494e5055545f414d60408201527f4f554e5400000000000000000000000000000000000000000000000000000000606082015260800190565b60208082526017908201527f4665537761703a204e4f5420544f4b454e204f574e4552000000000000000000604082015260600190565b60208082526023908201527f466553776170526f757465723a20494e53554646494349454e545f425f414d4f60408201527f554e540000000000000000000000000000000000000000000000000000000000606082015260800190565b60208082526011908201527f4665537761703a20524154494f20454552000000000000000000000000000000604082015260600190565b60208082526023908201527f5472616e7366657248656c7065723a204554485f5452414e534645525f46414960408201527f4c45440000000000000000000000000000000000000000000000000000000000606082015260800190565b60208082526029908201527f4665537761704c6962726172793a20494e53554646494349454e545f4f55545060408201527f55545f414d4f554e540000000000000000000000000000000000000000000000606082015260800190565b60208082526023908201527f466553776170526f757465723a20494e53554646494349454e545f415f414d4f60408201527f554e540000000000000000000000000000000000000000000000000000000000606082015260800190565b60208082526016908201527f4665537761703a204c4553535f494e5f414d4f554e5400000000000000000000604082015260600190565b60208082526024908201527f5472616e7366657248656c7065723a205452414e534645525f46524f4d5f464160408201527f494c454400000000000000000000000000000000000000000000000000000000606082015260800190565b60208082526013908201527f4665537761703a204e4f54204352454154454400000000000000000000000000604082015260600190565b60208082526017908201527f4665537761703a204c4553535f4f55545f414d4f554e54000000000000000000604082015260600190565b90815260200190565b600084825273ffffffffffffffffffffffffffffffffffffffff841660208301526060604083015282518060608401526158718160808501602087016158ce565b601f017fffffffffffffffffffffffffffffffffffffffffffffffffffffffffffffffe01691909101608001949350505050565b918252602082015260400190565b93845260208401929092526040830152606082015260800190565b60005b838110156158e95781810151838201526020016158d1565b838111156136c95750506000910152565b73ffffffffffffffffffffffffffffffffffffffff8116811461591c57600080fd5b50565b801515811461591c57600080fd5b6dffffffffffffffffffffffffffff8116811461591c57600080fdfea26469706673582212207add533bed96aa9da9f8e4ed7c58e5cfca09a13429f8432e676d2a9309f8fbe164736f6c634300060c0033",
      "opcodes": "PUSH1 0xE0 PUSH1 0x40 MSTORE CALLVALUE DUP1 ISZERO PUSH3 0x11 JUMPI PUSH1 0x0 DUP1 REVERT JUMPDEST POP PUSH1 0x40 MLOAD PUSH3 0x5B72 CODESIZE SUB DUP1 PUSH3 0x5B72 DUP4 CODECOPY DUP2 ADD PUSH1 0x40 DUP2 SWAP1 MSTORE PUSH3 0x34 SWAP2 PUSH3 0x5C JUMP JUMPDEST PUSH1 0x1 PUSH1 0x1 PUSH1 0x60 SHL SUB NOT PUSH1 0x60 SWAP4 DUP5 SHL DUP2 AND PUSH1 0x80 MSTORE SWAP2 DUP4 SHL DUP3 AND PUSH1 0xA0 MSTORE SWAP1 SWAP2 SHL AND PUSH1 0xC0 MSTORE PUSH3 0xC8 JUMP JUMPDEST PUSH1 0x0 DUP1 PUSH1 0x0 PUSH1 0x60 DUP5 DUP7 SUB SLT ISZERO PUSH3 0x71 JUMPI DUP3 DUP4 REVERT JUMPDEST DUP4 MLOAD PUSH3 0x7E DUP2 PUSH3 0xAF JUMP JUMPDEST PUSH1 0x20 DUP6 ADD MLOAD SWAP1 SWAP4 POP PUSH3 0x91 DUP2 PUSH3 0xAF JUMP JUMPDEST PUSH1 0x40 DUP6 ADD MLOAD SWAP1 SWAP3 POP PUSH3 0xA4 DUP2 PUSH3 0xAF JUMP JUMPDEST DUP1 SWAP2 POP POP SWAP3 POP SWAP3 POP SWAP3 JUMP JUMPDEST PUSH1 0x1 PUSH1 0x1 PUSH1 0xA0 SHL SUB DUP2 AND DUP2 EQ PUSH3 0xC5 JUMPI PUSH1 0x0 DUP1 REVERT JUMPDEST POP JUMP JUMPDEST PUSH1 0x80 MLOAD PUSH1 0x60 SHR PUSH1 0xA0 MLOAD PUSH1 0x60 SHR PUSH1 0xC0 MLOAD PUSH1 0x60 SHR PUSH2 0x597F PUSH3 0x1F3 PUSH1 0x0 CODECOPY DUP1 PUSH2 0x1C2 MSTORE DUP1 PUSH2 0x5A9 MSTORE DUP1 PUSH2 0x762 MSTORE DUP1 PUSH2 0xCBD MSTORE DUP1 PUSH2 0x11B3 MSTORE DUP1 PUSH2 0x18C7 MSTORE DUP1 PUSH2 0x19F4 MSTORE DUP1 PUSH2 0x1A89 MSTORE DUP1 PUSH2 0x1D88 MSTORE DUP1 PUSH2 0x1DC9 MSTORE DUP1 PUSH2 0x1E82 MSTORE DUP1 PUSH2 0x2016 MSTORE DUP1 PUSH2 0x2060 MSTORE DUP1 PUSH2 0x2119 MSTORE DUP1 PUSH2 0x22C4 MSTORE DUP1 PUSH2 0x2402 MSTORE DUP1 PUSH2 0x2500 MSTORE DUP1 PUSH2 0x25C6 MSTORE DUP1 PUSH2 0x26A7 MSTORE DUP1 PUSH2 0x271A MSTORE DUP1 PUSH2 0x27D4 MSTORE DUP1 PUSH2 0x287F MSTORE DUP1 PUSH2 0x2900 MSTORE DUP1 PUSH2 0x2BC2 MSTORE DUP1 PUSH2 0x2D36 MSTORE DUP1 PUSH2 0x2DC9 MSTORE DUP1 PUSH2 0x2EEF MSTORE DUP1 PUSH2 0x3019 MSTORE DUP1 PUSH2 0x30AE MSTORE POP DUP1 PUSH2 0x129D MSTORE DUP1 PUSH2 0x2E60 MSTORE POP DUP1 PUSH2 0x660 MSTORE DUP1 PUSH2 0x836 MSTORE DUP1 PUSH2 0x8A1 MSTORE DUP1 PUSH2 0x9D6 MSTORE DUP1 PUSH2 0xD74 MSTORE DUP1 PUSH2 0x1404 MSTORE DUP1 PUSH2 0x14EF MSTORE DUP1 PUSH2 0x167C MSTORE DUP1 PUSH2 0x1972 MSTORE DUP1 PUSH2 0x1BE9 MSTORE DUP1 PUSH2 0x2775 MSTORE DUP1 PUSH2 0x293F MSTORE DUP1 PUSH2 0x2E89 MSTORE DUP1 PUSH2 0x2F9A MSTORE DUP1 PUSH2 0x35B9 MSTORE DUP1 PUSH2 0x35FC MSTORE DUP1 PUSH2 0x39D3 MSTORE DUP1 PUSH2 0x3B0B MSTORE DUP1 PUSH2 0x3DF5 MSTORE DUP1 PUSH2 0x4087 MSTORE DUP1 PUSH2 0x4199 MSTORE POP PUSH2 0x597F PUSH1 0x0 RETURN INVALID PUSH1 0x80 PUSH1 0x40 MSTORE PUSH1 0x4 CALLDATASIZE LT PUSH2 0x1A5 JUMPI PUSH1 0x0 CALLDATALOAD PUSH1 0xE0 SHR DUP1 PUSH4 0x9B9F35F0 GT PUSH2 0xE1 JUMPI DUP1 PUSH4 0xC45A0155 GT PUSH2 0x8A JUMPI DUP1 PUSH4 0xE78AAF63 GT PUSH2 0x64 JUMPI DUP1 PUSH4 0xE78AAF63 EQ PUSH2 0x4CF JUMPI DUP1 PUSH4 0xEAD86A29 EQ PUSH2 0x4EF JUMPI DUP1 PUSH4 0xEEF40F31 EQ PUSH2 0x504 JUMPI DUP1 PUSH4 0xFB3BDB41 EQ PUSH2 0x524 JUMPI PUSH2 0x1EB JUMP JUMPDEST DUP1 PUSH4 0xC45A0155 EQ PUSH2 0x487 JUMPI DUP1 PUSH4 0xD57B57A5 EQ PUSH2 0x49C JUMPI DUP1 PUSH4 0xDF4BF7E8 EQ PUSH2 0x4AF JUMPI PUSH2 0x1EB JUMP JUMPDEST DUP1 PUSH4 0xAD5C4648 GT PUSH2 0xBB JUMPI DUP1 PUSH4 0xAD5C4648 EQ PUSH2 0x425 JUMPI DUP1 PUSH4 0xAD615DEC EQ PUSH2 0x447 JUMPI DUP1 PUSH4 0xB9E3BB25 EQ PUSH2 0x467 JUMPI PUSH2 0x1EB JUMP JUMPDEST DUP1 PUSH4 0x9B9F35F0 EQ PUSH2 0x3D2 JUMPI DUP1 PUSH4 0xA59600DB EQ PUSH2 0x3E5 JUMPI DUP1 PUSH4 0xA601E41B EQ PUSH2 0x405 JUMPI PUSH2 0x1EB JUMP JUMPDEST DUP1 PUSH4 0x56ED15BA GT PUSH2 0x14E JUMPI DUP1 PUSH4 0x78D9A04F GT PUSH2 0x128 JUMPI DUP1 PUSH4 0x78D9A04F EQ PUSH2 0x351 JUMPI DUP1 PUSH4 0x7FF36AB5 EQ PUSH2 0x37F JUMPI DUP1 PUSH4 0x85F8C259 EQ PUSH2 0x392 JUMPI DUP1 PUSH4 0x8803DBEE EQ PUSH2 0x3B2 JUMPI PUSH2 0x1EB JUMP JUMPDEST DUP1 PUSH4 0x56ED15BA EQ PUSH2 0x2D3 JUMPI DUP1 PUSH4 0x5F361E95 EQ PUSH2 0x303 JUMPI DUP1 PUSH4 0x6A055FA9 EQ PUSH2 0x323 JUMPI PUSH2 0x1EB JUMP JUMPDEST DUP1 PUSH4 0x38ED1739 GT PUSH2 0x17F JUMPI DUP1 PUSH4 0x38ED1739 EQ PUSH2 0x273 JUMPI DUP1 PUSH4 0x3D221B20 EQ PUSH2 0x293 JUMPI DUP1 PUSH4 0x4A25D94A EQ PUSH2 0x2B3 JUMPI PUSH2 0x1EB JUMP JUMPDEST DUP1 PUSH4 0x54D50D4 EQ PUSH2 0x1F0 JUMPI DUP1 PUSH4 0x18CBAFE5 EQ PUSH2 0x226 JUMPI DUP1 PUSH4 0x2E1DB143 EQ PUSH2 0x253 JUMPI PUSH2 0x1EB JUMP JUMPDEST CALLDATASIZE PUSH2 0x1EB JUMPI CALLER PUSH20 0xFFFFFFFFFFFFFFFFFFFFFFFFFFFFFFFFFFFFFFFF PUSH32 0x0 AND EQ PUSH2 0x1E9 JUMPI INVALID JUMPDEST STOP JUMPDEST PUSH1 0x0 DUP1 REVERT JUMPDEST CALLVALUE DUP1 ISZERO PUSH2 0x1FC JUMPI PUSH1 0x0 DUP1 REVERT JUMPDEST POP PUSH2 0x210 PUSH2 0x20B CALLDATASIZE PUSH1 0x4 PUSH2 0x4EF8 JUMP JUMPDEST PUSH2 0x537 JUMP JUMPDEST PUSH1 0x40 MLOAD PUSH2 0x21D SWAP2 SWAP1 PUSH2 0x5827 JUMP JUMPDEST PUSH1 0x40 MLOAD DUP1 SWAP2 SUB SWAP1 RETURN JUMPDEST CALLVALUE DUP1 ISZERO PUSH2 0x232 JUMPI PUSH1 0x0 DUP1 REVERT JUMPDEST POP PUSH2 0x246 PUSH2 0x241 CALLDATASIZE PUSH1 0x4 PUSH2 0x4E87 JUMP JUMPDEST PUSH2 0x54C JUMP JUMPDEST PUSH1 0x40 MLOAD PUSH2 0x21D SWAP2 SWAP1 PUSH2 0x513F JUMP JUMPDEST CALLVALUE DUP1 ISZERO PUSH2 0x25F JUMPI PUSH1 0x0 DUP1 REVERT JUMPDEST POP PUSH2 0x246 PUSH2 0x26E CALLDATASIZE PUSH1 0x4 PUSH2 0x4DB5 JUMP JUMPDEST PUSH2 0x82F JUMP JUMPDEST CALLVALUE DUP1 ISZERO PUSH2 0x27F JUMPI PUSH1 0x0 DUP1 REVERT JUMPDEST POP PUSH2 0x246 PUSH2 0x28E CALLDATASIZE PUSH1 0x4 PUSH2 0x4E87 JUMP JUMPDEST PUSH2 0x85D JUMP JUMPDEST CALLVALUE DUP1 ISZERO PUSH2 0x29F JUMPI PUSH1 0x0 DUP1 REVERT JUMPDEST POP PUSH2 0x1E9 PUSH2 0x2AE CALLDATASIZE PUSH1 0x4 PUSH2 0x4E87 JUMP JUMPDEST PUSH2 0x970 JUMP JUMPDEST CALLVALUE DUP1 ISZERO PUSH2 0x2BF JUMPI PUSH1 0x0 DUP1 REVERT JUMPDEST POP PUSH2 0x246 PUSH2 0x2CE CALLDATASIZE PUSH1 0x4 PUSH2 0x4E87 JUMP JUMPDEST PUSH2 0xC69 JUMP JUMPDEST CALLVALUE DUP1 ISZERO PUSH2 0x2DF JUMPI PUSH1 0x0 DUP1 REVERT JUMPDEST POP PUSH2 0x2F3 PUSH2 0x2EE CALLDATASIZE PUSH1 0x4 PUSH2 0x4BE4 JUMP JUMPDEST PUSH2 0xDF1 JUMP JUMPDEST PUSH1 0x40 MLOAD PUSH2 0x21D SWAP5 SWAP4 SWAP3 SWAP2 SWAP1 PUSH2 0x58B3 JUMP JUMPDEST CALLVALUE DUP1 ISZERO PUSH2 0x30F JUMPI PUSH1 0x0 DUP1 REVERT JUMPDEST POP PUSH2 0x210 PUSH2 0x31E CALLDATASIZE PUSH1 0x4 PUSH2 0x4C6B JUMP JUMPDEST PUSH2 0x119A JUMP JUMPDEST CALLVALUE DUP1 ISZERO PUSH2 0x32F JUMPI PUSH1 0x0 DUP1 REVERT JUMPDEST POP PUSH2 0x343 PUSH2 0x33E CALLDATASIZE PUSH1 0x4 PUSH2 0x4D7E JUMP JUMPDEST PUSH2 0x1253 JUMP JUMPDEST PUSH1 0x40 MLOAD PUSH2 0x21D SWAP3 SWAP2 SWAP1 PUSH2 0x50BB JUMP JUMPDEST CALLVALUE DUP1 ISZERO PUSH2 0x35D JUMPI PUSH1 0x0 DUP1 REVERT JUMPDEST POP PUSH2 0x371 PUSH2 0x36C CALLDATASIZE PUSH1 0x4 PUSH2 0x4C2B JUMP JUMPDEST PUSH2 0x14A0 JUMP JUMPDEST PUSH1 0x40 MLOAD PUSH2 0x21D SWAP3 SWAP2 SWAP1 PUSH2 0x58A5 JUMP JUMPDEST PUSH2 0x246 PUSH2 0x38D CALLDATASIZE PUSH1 0x4 PUSH2 0x4DFF JUMP JUMPDEST PUSH2 0x1888 JUMP JUMPDEST CALLVALUE DUP1 ISZERO PUSH2 0x39E JUMPI PUSH1 0x0 DUP1 REVERT JUMPDEST POP PUSH2 0x210 PUSH2 0x3AD CALLDATASIZE PUSH1 0x4 PUSH2 0x4EF8 JUMP JUMPDEST PUSH2 0x1B98 JUMP JUMPDEST CALLVALUE DUP1 ISZERO PUSH2 0x3BE JUMPI PUSH1 0x0 DUP1 REVERT JUMPDEST POP PUSH2 0x246 PUSH2 0x3CD CALLDATASIZE PUSH1 0x4 PUSH2 0x4E87 JUMP JUMPDEST PUSH2 0x1BA5 JUMP JUMPDEST PUSH2 0x2F3 PUSH2 0x3E0 CALLDATASIZE PUSH1 0x4 PUSH2 0x4B9F JUMP JUMPDEST PUSH2 0x1C66 JUMP JUMPDEST CALLVALUE DUP1 ISZERO PUSH2 0x3F1 JUMPI PUSH1 0x0 DUP1 REVERT JUMPDEST POP PUSH2 0x1E9 PUSH2 0x400 CALLDATASIZE PUSH1 0x4 PUSH2 0x4E87 JUMP JUMPDEST PUSH2 0x2272 JUMP JUMPDEST CALLVALUE DUP1 ISZERO PUSH2 0x411 JUMPI PUSH1 0x0 DUP1 REVERT JUMPDEST POP PUSH2 0x371 PUSH2 0x420 CALLDATASIZE PUSH1 0x4 PUSH2 0x4C2B JUMP JUMPDEST PUSH2 0x2571 JUMP JUMPDEST CALLVALUE DUP1 ISZERO PUSH2 0x431 JUMPI PUSH1 0x0 DUP1 REVERT JUMPDEST POP PUSH2 0x43A PUSH2 0x2718 JUMP JUMPDEST PUSH1 0x40 MLOAD PUSH2 0x21D SWAP2 SWAP1 PUSH2 0x501B JUMP JUMPDEST CALLVALUE DUP1 ISZERO PUSH2 0x453 JUMPI PUSH1 0x0 DUP1 REVERT JUMPDEST POP PUSH2 0x210 PUSH2 0x462 CALLDATASIZE PUSH1 0x4 PUSH2 0x4EF8 JUMP JUMPDEST PUSH2 0x273C JUMP JUMPDEST CALLVALUE DUP1 ISZERO PUSH2 0x473 JUMPI PUSH1 0x0 DUP1 REVERT JUMPDEST POP PUSH2 0x371 PUSH2 0x482 CALLDATASIZE PUSH1 0x4 PUSH2 0x4C6B JUMP JUMPDEST PUSH2 0x2749 JUMP JUMPDEST CALLVALUE DUP1 ISZERO PUSH2 0x493 JUMPI PUSH1 0x0 DUP1 REVERT JUMPDEST POP PUSH2 0x43A PUSH2 0x2773 JUMP JUMPDEST PUSH2 0x1E9 PUSH2 0x4AA CALLDATASIZE PUSH1 0x4 PUSH2 0x4DFF JUMP JUMPDEST PUSH2 0x2797 JUMP JUMPDEST CALLVALUE DUP1 ISZERO PUSH2 0x4BB JUMPI PUSH1 0x0 DUP1 REVERT JUMPDEST POP PUSH2 0x210 PUSH2 0x4CA CALLDATASIZE PUSH1 0x4 PUSH2 0x4C2B JUMP JUMPDEST PUSH2 0x2B6E JUMP JUMPDEST CALLVALUE DUP1 ISZERO PUSH2 0x4DB JUMPI PUSH1 0x0 DUP1 REVERT JUMPDEST POP PUSH2 0x371 PUSH2 0x4EA CALLDATASIZE PUSH1 0x4 PUSH2 0x4C6B JUMP JUMPDEST PUSH2 0x2DAF JUMP JUMPDEST CALLVALUE DUP1 ISZERO PUSH2 0x4FB JUMPI PUSH1 0x0 DUP1 REVERT JUMPDEST POP PUSH2 0x43A PUSH2 0x2E5E JUMP JUMPDEST CALLVALUE DUP1 ISZERO PUSH2 0x510 JUMPI PUSH1 0x0 DUP1 REVERT JUMPDEST POP PUSH2 0x246 PUSH2 0x51F CALLDATASIZE PUSH1 0x4 PUSH2 0x4DB5 JUMP JUMPDEST PUSH2 0x2E82 JUMP JUMPDEST PUSH2 0x246 PUSH2 0x532 CALLDATASIZE PUSH1 0x4 PUSH2 0x4DFF JUMP JUMPDEST PUSH2 0x2EB0 JUMP JUMPDEST PUSH1 0x0 PUSH2 0x544 DUP5 DUP5 DUP5 PUSH2 0x31EE JUMP JUMPDEST SWAP5 SWAP4 POP POP POP POP JUMP JUMPDEST PUSH1 0x60 DUP2 TIMESTAMP DUP2 LT ISZERO PUSH2 0x592 JUMPI PUSH1 0x40 MLOAD PUSH32 0x8C379A000000000000000000000000000000000000000000000000000000000 DUP2 MSTORE PUSH1 0x4 ADD PUSH2 0x589 SWAP1 PUSH2 0x5228 JUMP JUMPDEST PUSH1 0x40 MLOAD DUP1 SWAP2 SUB SWAP1 REVERT JUMPDEST PUSH20 0xFFFFFFFFFFFFFFFFFFFFFFFFFFFFFFFFFFFFFFFF PUSH32 0x0 AND DUP7 DUP7 PUSH32 0xFFFFFFFFFFFFFFFFFFFFFFFFFFFFFFFFFFFFFFFFFFFFFFFFFFFFFFFFFFFFFFFF DUP2 ADD DUP2 DUP2 LT PUSH2 0x5F7 JUMPI INVALID JUMPDEST SWAP1 POP PUSH1 0x20 MUL ADD PUSH1 0x20 DUP2 ADD SWAP1 PUSH2 0x60C SWAP2 SWAP1 PUSH2 0x4A2D JUMP JUMPDEST PUSH20 0xFFFFFFFFFFFFFFFFFFFFFFFFFFFFFFFFFFFFFFFF AND EQ PUSH2 0x659 JUMPI PUSH1 0x40 MLOAD PUSH32 0x8C379A000000000000000000000000000000000000000000000000000000000 DUP2 MSTORE PUSH1 0x4 ADD PUSH2 0x589 SWAP1 PUSH2 0x51F1 JUMP JUMPDEST PUSH1 0x0 PUSH2 0x687 PUSH32 0x0 DUP11 DUP10 DUP10 PUSH2 0x329F JUMP JUMPDEST DUP1 SWAP5 POP DUP2 SWAP3 POP POP POP DUP8 DUP4 PUSH1 0x1 DUP6 MLOAD SUB DUP2 MLOAD DUP2 LT PUSH2 0x6A0 JUMPI INVALID JUMPDEST PUSH1 0x20 MUL PUSH1 0x20 ADD ADD MLOAD LT ISZERO PUSH2 0x6E0 JUMPI PUSH1 0x40 MLOAD PUSH32 0x8C379A000000000000000000000000000000000000000000000000000000000 DUP2 MSTORE PUSH1 0x4 ADD PUSH2 0x589 SWAP1 PUSH2 0x53F5 JUMP JUMPDEST PUSH2 0x721 DUP8 DUP8 PUSH1 0x0 DUP2 DUP2 LT PUSH2 0x6F0 JUMPI INVALID JUMPDEST SWAP1 POP PUSH1 0x20 MUL ADD PUSH1 0x20 DUP2 ADD SWAP1 PUSH2 0x705 SWAP2 SWAP1 PUSH2 0x4A2D JUMP JUMPDEST CALLER DUP4 DUP7 PUSH1 0x0 DUP2 MLOAD DUP2 LT PUSH2 0x714 JUMPI INVALID JUMPDEST PUSH1 0x20 MUL PUSH1 0x20 ADD ADD MLOAD PUSH2 0x3418 JUMP JUMPDEST PUSH2 0x760 DUP4 DUP9 DUP9 DUP1 DUP1 PUSH1 0x20 MUL PUSH1 0x20 ADD PUSH1 0x40 MLOAD SWAP1 DUP2 ADD PUSH1 0x40 MSTORE DUP1 SWAP4 SWAP3 SWAP2 SWAP1 DUP2 DUP2 MSTORE PUSH1 0x20 ADD DUP4 DUP4 PUSH1 0x20 MUL DUP1 DUP3 DUP5 CALLDATACOPY PUSH1 0x0 SWAP3 ADD SWAP2 SWAP1 SWAP2 MSTORE POP ADDRESS SWAP3 POP PUSH2 0x3545 SWAP2 POP POP JUMP JUMPDEST PUSH32 0x0 PUSH20 0xFFFFFFFFFFFFFFFFFFFFFFFFFFFFFFFFFFFFFFFF AND PUSH4 0x2E1A7D4D DUP5 PUSH1 0x1 DUP7 MLOAD SUB DUP2 MLOAD DUP2 LT PUSH2 0x7AC JUMPI INVALID JUMPDEST PUSH1 0x20 MUL PUSH1 0x20 ADD ADD MLOAD PUSH1 0x40 MLOAD DUP3 PUSH4 0xFFFFFFFF AND PUSH1 0xE0 SHL DUP2 MSTORE PUSH1 0x4 ADD PUSH2 0x7D0 SWAP2 SWAP1 PUSH2 0x5827 JUMP JUMPDEST PUSH1 0x0 PUSH1 0x40 MLOAD DUP1 DUP4 SUB DUP2 PUSH1 0x0 DUP8 DUP1 EXTCODESIZE ISZERO DUP1 ISZERO PUSH2 0x7EA JUMPI PUSH1 0x0 DUP1 REVERT JUMPDEST POP GAS CALL ISZERO DUP1 ISZERO PUSH2 0x7FE JUMPI RETURNDATASIZE PUSH1 0x0 DUP1 RETURNDATACOPY RETURNDATASIZE PUSH1 0x0 REVERT JUMPDEST POP POP POP POP PUSH2 0x823 DUP6 DUP5 PUSH1 0x1 DUP7 MLOAD SUB DUP2 MLOAD DUP2 LT PUSH2 0x816 JUMPI INVALID JUMPDEST PUSH1 0x20 MUL PUSH1 0x20 ADD ADD MLOAD PUSH2 0x36CF JUMP JUMPDEST POP POP SWAP7 SWAP6 POP POP POP POP POP POP JUMP JUMPDEST PUSH1 0x60 PUSH2 0x544 PUSH32 0x0 DUP6 DUP6 DUP6 PUSH2 0x3788 JUMP JUMPDEST PUSH1 0x60 DUP2 TIMESTAMP DUP2 LT ISZERO PUSH2 0x89A JUMPI PUSH1 0x40 MLOAD PUSH32 0x8C379A000000000000000000000000000000000000000000000000000000000 DUP2 MSTORE PUSH1 0x4 ADD PUSH2 0x589 SWAP1 PUSH2 0x5228 JUMP JUMPDEST PUSH1 0x0 PUSH2 0x8C8 PUSH32 0x0 DUP11 DUP10 DUP10 PUSH2 0x329F JUMP JUMPDEST DUP1 SWAP5 POP DUP2 SWAP3 POP POP POP DUP8 DUP4 PUSH1 0x1 DUP6 MLOAD SUB DUP2 MLOAD DUP2 LT PUSH2 0x8E1 JUMPI INVALID JUMPDEST PUSH1 0x20 MUL PUSH1 0x20 ADD ADD MLOAD LT ISZERO PUSH2 0x921 JUMPI PUSH1 0x40 MLOAD PUSH32 0x8C379A000000000000000000000000000000000000000000000000000000000 DUP2 MSTORE PUSH1 0x4 ADD PUSH2 0x589 SWAP1 PUSH2 0x53F5 JUMP JUMPDEST PUSH2 0x931 DUP8 DUP8 PUSH1 0x0 DUP2 DUP2 LT PUSH2 0x6F0 JUMPI INVALID JUMPDEST PUSH2 0x823 DUP4 DUP9 DUP9 DUP1 DUP1 PUSH1 0x20 MUL PUSH1 0x20 ADD PUSH1 0x40 MLOAD SWAP1 DUP2 ADD PUSH1 0x40 MSTORE DUP1 SWAP4 SWAP3 SWAP2 SWAP1 DUP2 DUP2 MSTORE PUSH1 0x20 ADD DUP4 DUP4 PUSH1 0x20 MUL DUP1 DUP3 DUP5 CALLDATACOPY PUSH1 0x0 SWAP3 ADD SWAP2 SWAP1 SWAP2 MSTORE POP DUP11 SWAP3 POP PUSH2 0x3545 SWAP2 POP POP JUMP JUMPDEST DUP1 TIMESTAMP DUP2 LT ISZERO PUSH2 0x9AB JUMPI PUSH1 0x40 MLOAD PUSH32 0x8C379A000000000000000000000000000000000000000000000000000000000 DUP2 MSTORE PUSH1 0x4 ADD PUSH2 0x589 SWAP1 PUSH2 0x5228 JUMP JUMPDEST PUSH2 0xA44 DUP6 DUP6 PUSH1 0x0 DUP2 DUP2 LT PUSH2 0x9BB JUMPI INVALID JUMPDEST SWAP1 POP PUSH1 0x20 MUL ADD PUSH1 0x20 DUP2 ADD SWAP1 PUSH2 0x9D0 SWAP2 SWAP1 PUSH2 0x4A2D JUMP JUMPDEST CALLER PUSH2 0xA3E PUSH32 0x0 DUP10 DUP10 PUSH1 0x0 DUP2 DUP2 LT PUSH2 0xA02 JUMPI INVALID JUMPDEST SWAP1 POP PUSH1 0x20 MUL ADD PUSH1 0x20 DUP2 ADD SWAP1 PUSH2 0xA17 SWAP2 SWAP1 PUSH2 0x4A2D JUMP JUMPDEST DUP11 DUP11 PUSH1 0x1 DUP2 DUP2 LT PUSH2 0xA24 JUMPI INVALID JUMPDEST SWAP1 POP PUSH1 0x20 MUL ADD PUSH1 0x20 DUP2 ADD SWAP1 PUSH2 0xA39 SWAP2 SWAP1 PUSH2 0x4A2D JUMP JUMPDEST PUSH2 0x3910 JUMP JUMPDEST DUP11 PUSH2 0x3418 JUMP JUMPDEST PUSH1 0x0 DUP6 DUP6 PUSH32 0xFFFFFFFFFFFFFFFFFFFFFFFFFFFFFFFFFFFFFFFFFFFFFFFFFFFFFFFFFFFFFFFF DUP2 ADD DUP2 DUP2 LT PUSH2 0xA74 JUMPI INVALID JUMPDEST SWAP1 POP PUSH1 0x20 MUL ADD PUSH1 0x20 DUP2 ADD SWAP1 PUSH2 0xA89 SWAP2 SWAP1 PUSH2 0x4A2D JUMP JUMPDEST PUSH20 0xFFFFFFFFFFFFFFFFFFFFFFFFFFFFFFFFFFFFFFFF AND PUSH4 0x70A08231 DUP6 PUSH1 0x40 MLOAD DUP3 PUSH4 0xFFFFFFFF AND PUSH1 0xE0 SHL DUP2 MSTORE PUSH1 0x4 ADD PUSH2 0xAC1 SWAP2 SWAP1 PUSH2 0x501B JUMP JUMPDEST PUSH1 0x20 PUSH1 0x40 MLOAD DUP1 DUP4 SUB DUP2 DUP7 DUP1 EXTCODESIZE ISZERO DUP1 ISZERO PUSH2 0xAD9 JUMPI PUSH1 0x0 DUP1 REVERT JUMPDEST POP GAS STATICCALL ISZERO DUP1 ISZERO PUSH2 0xAED JUMPI RETURNDATASIZE PUSH1 0x0 DUP1 RETURNDATACOPY RETURNDATASIZE PUSH1 0x0 REVERT JUMPDEST POP POP POP POP PUSH1 0x40 MLOAD RETURNDATASIZE PUSH1 0x1F NOT PUSH1 0x1F DUP3 ADD AND DUP3 ADD DUP1 PUSH1 0x40 MSTORE POP DUP2 ADD SWAP1 PUSH2 0xB11 SWAP2 SWAP1 PUSH2 0x4D66 JUMP JUMPDEST SWAP1 POP PUSH2 0xB51 DUP7 DUP7 DUP1 DUP1 PUSH1 0x20 MUL PUSH1 0x20 ADD PUSH1 0x40 MLOAD SWAP1 DUP2 ADD PUSH1 0x40 MSTORE DUP1 SWAP4 SWAP3 SWAP2 SWAP1 DUP2 DUP2 MSTORE PUSH1 0x20 ADD DUP4 DUP4 PUSH1 0x20 MUL DUP1 DUP3 DUP5 CALLDATACOPY PUSH1 0x0 SWAP3 ADD SWAP2 SWAP1 SWAP2 MSTORE POP DUP9 SWAP3 POP PUSH2 0x398B SWAP2 POP POP JUMP JUMPDEST DUP7 PUSH2 0xC27 DUP3 DUP9 DUP9 PUSH32 0xFFFFFFFFFFFFFFFFFFFFFFFFFFFFFFFFFFFFFFFFFFFFFFFFFFFFFFFFFFFFFFFF DUP2 ADD DUP2 DUP2 LT PUSH2 0xB84 JUMPI INVALID JUMPDEST SWAP1 POP PUSH1 0x20 MUL ADD PUSH1 0x20 DUP2 ADD SWAP1 PUSH2 0xB99 SWAP2 SWAP1 PUSH2 0x4A2D JUMP JUMPDEST PUSH20 0xFFFFFFFFFFFFFFFFFFFFFFFFFFFFFFFFFFFFFFFF AND PUSH4 0x70A08231 DUP9 PUSH1 0x40 MLOAD DUP3 PUSH4 0xFFFFFFFF AND PUSH1 0xE0 SHL DUP2 MSTORE PUSH1 0x4 ADD PUSH2 0xBD1 SWAP2 SWAP1 PUSH2 0x501B JUMP JUMPDEST PUSH1 0x20 PUSH1 0x40 MLOAD DUP1 DUP4 SUB DUP2 DUP7 DUP1 EXTCODESIZE ISZERO DUP1 ISZERO PUSH2 0xBE9 JUMPI PUSH1 0x0 DUP1 REVERT JUMPDEST POP GAS STATICCALL ISZERO DUP1 ISZERO PUSH2 0xBFD JUMPI RETURNDATASIZE PUSH1 0x0 DUP1 RETURNDATACOPY RETURNDATASIZE PUSH1 0x0 REVERT JUMPDEST POP POP POP POP PUSH1 0x40 MLOAD RETURNDATASIZE PUSH1 0x1F NOT PUSH1 0x1F DUP3 ADD AND DUP3 ADD DUP1 PUSH1 0x40 MSTORE POP DUP2 ADD SWAP1 PUSH2 0xC21 SWAP2 SWAP1 PUSH2 0x4D66 JUMP JUMPDEST SWAP1 PUSH2 0x3BE4 JUMP JUMPDEST LT ISZERO PUSH2 0xC5F JUMPI PUSH1 0x40 MLOAD PUSH32 0x8C379A000000000000000000000000000000000000000000000000000000000 DUP2 MSTORE PUSH1 0x4 ADD PUSH2 0x589 SWAP1 PUSH2 0x53F5 JUMP JUMPDEST POP POP POP POP POP POP POP POP JUMP JUMPDEST PUSH1 0x60 DUP2 TIMESTAMP DUP2 LT ISZERO PUSH2 0xCA6 JUMPI PUSH1 0x40 MLOAD PUSH32 0x8C379A000000000000000000000000000000000000000000000000000000000 DUP2 MSTORE PUSH1 0x4 ADD PUSH2 0x589 SWAP1 PUSH2 0x5228 JUMP JUMPDEST PUSH20 0xFFFFFFFFFFFFFFFFFFFFFFFFFFFFFFFFFFFFFFFF PUSH32 0x0 AND DUP7 DUP7 PUSH32 0xFFFFFFFFFFFFFFFFFFFFFFFFFFFFFFFFFFFFFFFFFFFFFFFFFFFFFFFFFFFFFFFF DUP2 ADD DUP2 DUP2 LT PUSH2 0xD0B JUMPI INVALID JUMPDEST SWAP1 POP PUSH1 0x20 MUL ADD PUSH1 0x20 DUP2 ADD SWAP1 PUSH2 0xD20 SWAP2 SWAP1 PUSH2 0x4A2D JUMP JUMPDEST PUSH20 0xFFFFFFFFFFFFFFFFFFFFFFFFFFFFFFFFFFFFFFFF AND EQ PUSH2 0xD6D JUMPI PUSH1 0x40 MLOAD PUSH32 0x8C379A000000000000000000000000000000000000000000000000000000000 DUP2 MSTORE PUSH1 0x4 ADD PUSH2 0x589 SWAP1 PUSH2 0x51F1 JUMP JUMPDEST PUSH1 0x0 PUSH2 0xD9B PUSH32 0x0 DUP11 DUP10 DUP10 PUSH2 0x3C27 JUMP JUMPDEST DUP1 SWAP5 POP DUP2 SWAP3 POP POP POP DUP8 DUP4 PUSH1 0x0 DUP2 MLOAD DUP2 LT PUSH2 0xDB1 JUMPI INVALID JUMPDEST PUSH1 0x20 MUL PUSH1 0x20 ADD ADD MLOAD GT ISZERO PUSH2 0x6E0 JUMPI PUSH1 0x40 MLOAD PUSH32 0x8C379A000000000000000000000000000000000000000000000000000000000 DUP2 MSTORE PUSH1 0x4 ADD PUSH2 0x589 SWAP1 PUSH2 0x54E6 JUMP JUMPDEST PUSH1 0x0 DUP1 PUSH1 0x0 DUP1 DUP5 TIMESTAMP DUP2 LT ISZERO PUSH2 0xE32 JUMPI PUSH1 0x40 MLOAD PUSH32 0x8C379A000000000000000000000000000000000000000000000000000000000 DUP2 MSTORE PUSH1 0x4 ADD PUSH2 0x589 SWAP1 PUSH2 0x5228 JUMP JUMPDEST PUSH1 0x64 DUP9 PUSH1 0xC0 ADD CALLDATALOAD GT ISZERO PUSH2 0xE71 JUMPI PUSH1 0x40 MLOAD PUSH32 0x8C379A000000000000000000000000000000000000000000000000000000000 DUP2 MSTORE PUSH1 0x4 ADD PUSH2 0x589 SWAP1 PUSH2 0x55D7 JUMP JUMPDEST PUSH1 0xC0 DUP9 ADD CALLDATALOAD ISZERO PUSH2 0x101A JUMPI PUSH1 0x0 DUP1 PUSH1 0x64 PUSH2 0xE92 PUSH1 0x40 DUP13 ADD CALLDATALOAD PUSH1 0xC0 DUP14 ADD CALLDATALOAD PUSH2 0x3D9D JUMP JUMPDEST DUP2 PUSH2 0xE99 JUMPI INVALID JUMPDEST DIV SWAP1 POP PUSH1 0x0 PUSH1 0x64 PUSH2 0xEB2 PUSH1 0x60 DUP14 ADD CALLDATALOAD PUSH1 0xC0 DUP15 ADD CALLDATALOAD PUSH2 0x3D9D JUMP JUMPDEST DUP2 PUSH2 0xEB9 JUMPI INVALID JUMPDEST DIV SWAP1 POP PUSH1 0x0 PUSH1 0x64 PUSH2 0xED2 PUSH1 0x80 DUP15 ADD CALLDATALOAD PUSH1 0xC0 DUP16 ADD CALLDATALOAD PUSH2 0x3D9D JUMP JUMPDEST DUP2 PUSH2 0xED9 JUMPI INVALID JUMPDEST DIV SWAP1 POP PUSH1 0x0 PUSH1 0x64 PUSH2 0xEFB DUP15 PUSH1 0xC0 ADD CALLDATALOAD DUP16 PUSH1 0xA0 ADD CALLDATALOAD PUSH2 0x3D9D SWAP1 SWAP2 SWAP1 PUSH4 0xFFFFFFFF AND JUMP JUMPDEST DUP2 PUSH2 0xF02 JUMPI INVALID JUMPDEST DIV SWAP1 POP PUSH2 0xF31 PUSH2 0xF15 PUSH1 0x20 DUP16 ADD DUP16 PUSH2 0x4A2D JUMP JUMPDEST DUP15 PUSH1 0x20 ADD PUSH1 0x20 DUP2 ADD SWAP1 PUSH2 0xF28 SWAP2 SWAP1 PUSH2 0x4A2D JUMP JUMPDEST DUP7 DUP7 DUP7 DUP7 PUSH2 0x3DEE JUMP JUMPDEST SWAP2 SWAP12 POP SWAP10 POP SWAP5 POP PUSH2 0xF50 PUSH2 0xF48 PUSH1 0x20 DUP16 ADD DUP16 PUSH2 0x4A2D JUMP JUMPDEST CALLER DUP8 DUP14 PUSH2 0x3418 JUMP JUMPDEST PUSH2 0xF6E DUP14 PUSH1 0x20 ADD PUSH1 0x20 DUP2 ADD SWAP1 PUSH2 0xF66 SWAP2 SWAP1 PUSH2 0x4A2D JUMP JUMPDEST CALLER DUP8 DUP13 PUSH2 0x3418 JUMP JUMPDEST PUSH1 0x40 MLOAD PUSH32 0x6A62784200000000000000000000000000000000000000000000000000000000 DUP2 MSTORE PUSH20 0xFFFFFFFFFFFFFFFFFFFFFFFFFFFFFFFFFFFFFFFF DUP7 AND SWAP1 PUSH4 0x6A627842 SWAP1 PUSH2 0xFC0 SWAP1 DUP16 SWAP1 PUSH1 0x4 ADD PUSH2 0x501B JUMP JUMPDEST PUSH1 0x20 PUSH1 0x40 MLOAD DUP1 DUP4 SUB DUP2 PUSH1 0x0 DUP8 DUP1 EXTCODESIZE ISZERO DUP1 ISZERO PUSH2 0xFDA JUMPI PUSH1 0x0 DUP1 REVERT JUMPDEST POP GAS CALL ISZERO DUP1 ISZERO PUSH2 0xFEE JUMPI RETURNDATASIZE PUSH1 0x0 DUP1 RETURNDATACOPY RETURNDATASIZE PUSH1 0x0 REVERT JUMPDEST POP POP POP POP PUSH1 0x40 MLOAD RETURNDATASIZE PUSH1 0x1F NOT PUSH1 0x1F DUP3 ADD AND DUP3 ADD DUP1 PUSH1 0x40 MSTORE POP DUP2 ADD SWAP1 PUSH2 0x1012 SWAP2 SWAP1 PUSH2 0x4D66 JUMP JUMPDEST SWAP8 POP POP POP POP POP POP JUMPDEST PUSH1 0x64 DUP9 PUSH1 0xC0 ADD CALLDATALOAD EQ PUSH2 0x1190 JUMPI PUSH1 0x0 PUSH1 0x40 DUP10 ADD CALLDATALOAD DUP7 SWAP1 SUB PUSH1 0x60 DUP11 ADD CALLDATALOAD DUP7 SWAP1 SUB DUP3 PUSH1 0x80 DUP13 ADD CALLDATALOAD PUSH2 0x1049 JUMPI PUSH1 0x0 PUSH2 0x1051 JUMP JUMPDEST DUP9 DUP13 PUSH1 0x80 ADD CALLDATALOAD SUB JUMPDEST SWAP1 POP PUSH1 0x0 PUSH1 0xA0 DUP14 ADD CALLDATALOAD PUSH2 0x1065 JUMPI PUSH1 0x0 PUSH2 0x106D JUMP JUMPDEST DUP9 DUP14 PUSH1 0xA0 ADD CALLDATALOAD SUB JUMPDEST SWAP1 POP PUSH2 0x10A1 DUP14 PUSH1 0x20 ADD PUSH1 0x20 DUP2 ADD SWAP1 PUSH2 0x1085 SWAP2 SWAP1 PUSH2 0x4A2D JUMP JUMPDEST DUP15 PUSH1 0x0 ADD PUSH1 0x20 DUP2 ADD SWAP1 PUSH2 0x1098 SWAP2 SWAP1 PUSH2 0x4A2D JUMP JUMPDEST DUP6 DUP8 DUP6 DUP8 PUSH2 0x3DEE JUMP JUMPDEST SWAP7 POP SWAP5 POP SWAP3 POP PUSH2 0x10BF PUSH2 0x10B7 PUSH1 0x20 DUP16 ADD DUP16 PUSH2 0x4A2D JUMP JUMPDEST CALLER DUP8 DUP8 PUSH2 0x3418 JUMP JUMPDEST PUSH2 0x10DD DUP14 PUSH1 0x20 ADD PUSH1 0x20 DUP2 ADD SWAP1 PUSH2 0x10D5 SWAP2 SWAP1 PUSH2 0x4A2D JUMP JUMPDEST CALLER DUP8 DUP7 PUSH2 0x3418 JUMP JUMPDEST PUSH1 0x40 MLOAD PUSH32 0x6A62784200000000000000000000000000000000000000000000000000000000 DUP2 MSTORE PUSH20 0xFFFFFFFFFFFFFFFFFFFFFFFFFFFFFFFFFFFFFFFF DUP7 AND SWAP1 PUSH4 0x6A627842 SWAP1 PUSH2 0x112F SWAP1 DUP16 SWAP1 PUSH1 0x4 ADD PUSH2 0x501B JUMP JUMPDEST PUSH1 0x20 PUSH1 0x40 MLOAD DUP1 DUP4 SUB DUP2 PUSH1 0x0 DUP8 DUP1 EXTCODESIZE ISZERO DUP1 ISZERO PUSH2 0x1149 JUMPI PUSH1 0x0 DUP1 REVERT JUMPDEST POP GAS CALL ISZERO DUP1 ISZERO PUSH2 0x115D JUMPI RETURNDATASIZE PUSH1 0x0 DUP1 RETURNDATACOPY RETURNDATASIZE PUSH1 0x0 REVERT JUMPDEST POP POP POP POP PUSH1 0x40 MLOAD RETURNDATASIZE PUSH1 0x1F NOT PUSH1 0x1F DUP3 ADD AND DUP3 ADD DUP1 PUSH1 0x40 MSTORE POP DUP2 ADD SWAP1 PUSH2 0x1181 SWAP2 SWAP1 PUSH2 0x4D66 JUMP JUMPDEST SWAP4 SWAP1 SWAP10 ADD SWAP9 POP POP SWAP1 SWAP6 ADD SWAP5 SWAP3 POP POP JUMPDEST POP SWAP4 POP SWAP4 POP SWAP4 POP SWAP4 JUMP JUMPDEST PUSH1 0x0 PUSH20 0xFFFFFFFFFFFFFFFFFFFFFFFFFFFFFFFFFFFFFFFF PUSH32 0x0 AND PUSH2 0x11E3 PUSH1 0x40 DUP10 ADD PUSH1 0x20 DUP11 ADD PUSH2 0x4A2D JUMP JUMPDEST PUSH20 0xFFFFFFFFFFFFFFFFFFFFFFFFFFFFFFFFFFFFFFFF AND EQ PUSH2 0x1230 JUMPI PUSH1 0x40 MLOAD PUSH32 0x8C379A000000000000000000000000000000000000000000000000000000000 DUP2 MSTORE PUSH1 0x4 ADD PUSH2 0x589 SWAP1 PUSH2 0x532A JUMP JUMPDEST PUSH2 0x123D DUP8 DUP7 DUP7 DUP7 DUP7 PUSH2 0x4076 JUMP JUMPDEST PUSH2 0x1248 DUP8 DUP8 DUP8 PUSH2 0x2B6E JUMP JUMPDEST SWAP8 SWAP7 POP POP POP POP POP POP POP JUMP JUMPDEST PUSH1 0x0 DUP1 PUSH1 0x0 PUSH2 0x1260 PUSH2 0x4939 JUMP JUMPDEST PUSH1 0x40 MLOAD PUSH32 0x2F380B3500000000000000000000000000000000000000000000000000000000 DUP2 MSTORE PUSH20 0xFFFFFFFFFFFFFFFFFFFFFFFFFFFFFFFFFFFFFFFF PUSH32 0x0 AND SWAP1 PUSH4 0x2F380B35 SWAP1 PUSH2 0x12D2 SWAP1 DUP11 SWAP1 PUSH1 0x4 ADD PUSH2 0x5827 JUMP JUMPDEST PUSH1 0xE0 PUSH1 0x40 MLOAD DUP1 DUP4 SUB DUP2 DUP7 DUP1 EXTCODESIZE ISZERO DUP1 ISZERO PUSH2 0x12EA JUMPI PUSH1 0x0 DUP1 REVERT JUMPDEST POP GAS STATICCALL ISZERO DUP1 ISZERO PUSH2 0x12FE JUMPI RETURNDATASIZE PUSH1 0x0 DUP1 RETURNDATACOPY RETURNDATASIZE PUSH1 0x0 REVERT JUMPDEST POP POP POP POP PUSH1 0x40 MLOAD RETURNDATASIZE PUSH1 0x1F NOT PUSH1 0x1F DUP3 ADD AND DUP3 ADD DUP1 PUSH1 0x40 MSTORE POP DUP2 ADD SWAP1 PUSH2 0x1322 SWAP2 SWAP1 PUSH2 0x4AA5 JUMP JUMPDEST SWAP1 SWAP3 POP SWAP1 POP CALLER PUSH20 0xFFFFFFFFFFFFFFFFFFFFFFFFFFFFFFFFFFFFFFFF DUP4 AND EQ PUSH2 0x1376 JUMPI PUSH1 0x40 MLOAD PUSH32 0x8C379A000000000000000000000000000000000000000000000000000000000 DUP2 MSTORE PUSH1 0x4 ADD PUSH2 0x589 SWAP1 PUSH2 0x5543 JUMP JUMPDEST PUSH1 0x3 DUP2 PUSH1 0xA0 ADD MLOAD PUSH1 0x5 DUP2 GT ISZERO PUSH2 0x1388 JUMPI INVALID JUMPDEST LT ISZERO PUSH2 0x13C0 JUMPI PUSH1 0x40 MLOAD PUSH32 0x8C379A000000000000000000000000000000000000000000000000000000000 DUP2 MSTORE PUSH1 0x4 ADD PUSH2 0x589 SWAP1 PUSH2 0x525F JUMP JUMPDEST DUP1 MLOAD PUSH1 0x20 DUP3 ADD MLOAD PUSH1 0x40 MLOAD PUSH32 0x883D273000000000000000000000000000000000000000000000000000000000 DUP2 MSTORE PUSH20 0xFFFFFFFFFFFFFFFFFFFFFFFFFFFFFFFFFFFFFFFF PUSH32 0x0 AND SWAP1 PUSH4 0x883D2730 SWAP1 PUSH2 0x143F SWAP1 DUP6 SWAP1 DUP6 SWAP1 DUP14 SWAP1 DUP14 SWAP1 PUSH1 0x4 ADD PUSH2 0x50E2 JUMP JUMPDEST PUSH1 0x40 DUP1 MLOAD DUP1 DUP4 SUB DUP2 PUSH1 0x0 DUP8 DUP1 EXTCODESIZE ISZERO DUP1 ISZERO PUSH2 0x1458 JUMPI PUSH1 0x0 DUP1 REVERT JUMPDEST POP GAS CALL ISZERO DUP1 ISZERO PUSH2 0x146C JUMPI RETURNDATASIZE PUSH1 0x0 DUP1 RETURNDATACOPY RETURNDATASIZE PUSH1 0x0 REVERT JUMPDEST POP POP POP POP PUSH1 0x40 MLOAD RETURNDATASIZE PUSH1 0x1F NOT PUSH1 0x1F DUP3 ADD AND DUP3 ADD DUP1 PUSH1 0x40 MSTORE POP DUP2 ADD SWAP1 PUSH2 0x1490 SWAP2 SWAP1 PUSH2 0x4A6C JUMP JUMPDEST SWAP1 SWAP11 SWAP1 SWAP10 POP SWAP8 POP POP POP POP POP POP POP POP JUMP JUMPDEST PUSH1 0x0 DUP1 DUP3 TIMESTAMP DUP2 LT ISZERO PUSH2 0x14DE JUMPI PUSH1 0x40 MLOAD PUSH32 0x8C379A000000000000000000000000000000000000000000000000000000000 DUP2 MSTORE PUSH1 0x4 ADD PUSH2 0x589 SWAP1 PUSH2 0x5228 JUMP JUMPDEST PUSH1 0x40 DUP7 ADD CALLDATALOAD ISZERO PUSH2 0x166B JUMPI PUSH1 0x0 PUSH2 0x152B PUSH32 0x0 PUSH2 0x151B PUSH1 0x20 DUP11 ADD DUP11 PUSH2 0x4A2D JUMP JUMPDEST PUSH2 0xA39 PUSH1 0x40 DUP12 ADD PUSH1 0x20 DUP13 ADD PUSH2 0x4A2D JUMP JUMPDEST SWAP1 POP DUP1 PUSH20 0xFFFFFFFFFFFFFFFFFFFFFFFFFFFFFFFFFFFFFFFF AND PUSH4 0x23B872DD CALLER DUP4 DUP11 PUSH1 0x40 ADD CALLDATALOAD PUSH1 0x40 MLOAD DUP5 PUSH4 0xFFFFFFFF AND PUSH1 0xE0 SHL DUP2 MSTORE PUSH1 0x4 ADD PUSH2 0x156E SWAP4 SWAP3 SWAP2 SWAP1 PUSH2 0x508A JUMP JUMPDEST PUSH1 0x20 PUSH1 0x40 MLOAD DUP1 DUP4 SUB DUP2 PUSH1 0x0 DUP8 DUP1 EXTCODESIZE ISZERO DUP1 ISZERO PUSH2 0x1588 JUMPI PUSH1 0x0 DUP1 REVERT JUMPDEST POP GAS CALL ISZERO DUP1 ISZERO PUSH2 0x159C JUMPI RETURNDATASIZE PUSH1 0x0 DUP1 RETURNDATACOPY RETURNDATASIZE PUSH1 0x0 REVERT JUMPDEST POP POP POP POP PUSH1 0x40 MLOAD RETURNDATASIZE PUSH1 0x1F NOT PUSH1 0x1F DUP3 ADD AND DUP3 ADD DUP1 PUSH1 0x40 MSTORE POP DUP2 ADD SWAP1 PUSH2 0x15C0 SWAP2 SWAP1 PUSH2 0x4B83 JUMP JUMPDEST POP PUSH1 0x40 MLOAD PUSH32 0x89AFCB4400000000000000000000000000000000000000000000000000000000 DUP2 MSTORE PUSH20 0xFFFFFFFFFFFFFFFFFFFFFFFFFFFFFFFFFFFFFFFF DUP3 AND SWAP1 PUSH4 0x89AFCB44 SWAP1 PUSH2 0x1613 SWAP1 DUP10 SWAP1 PUSH1 0x4 ADD PUSH2 0x501B JUMP JUMPDEST PUSH1 0x40 DUP1 MLOAD DUP1 DUP4 SUB DUP2 PUSH1 0x0 DUP8 DUP1 EXTCODESIZE ISZERO DUP1 ISZERO PUSH2 0x162C JUMPI PUSH1 0x0 DUP1 REVERT JUMPDEST POP GAS CALL ISZERO DUP1 ISZERO PUSH2 0x1640 JUMPI RETURNDATASIZE PUSH1 0x0 DUP1 RETURNDATACOPY RETURNDATASIZE PUSH1 0x0 REVERT JUMPDEST POP POP POP POP PUSH1 0x40 MLOAD RETURNDATASIZE PUSH1 0x1F NOT PUSH1 0x1F DUP3 ADD AND DUP3 ADD DUP1 PUSH1 0x40 MSTORE POP DUP2 ADD SWAP1 PUSH2 0x1664 SWAP2 SWAP1 PUSH2 0x4E64 JUMP JUMPDEST SWAP1 SWAP5 POP SWAP3 POP POP JUMPDEST PUSH1 0x60 DUP7 ADD CALLDATALOAD ISZERO PUSH2 0x1803 JUMPI PUSH1 0x0 PUSH2 0x16B8 PUSH32 0x0 PUSH2 0x16AB PUSH1 0x40 DUP11 ADD PUSH1 0x20 DUP12 ADD PUSH2 0x4A2D JUMP JUMPDEST PUSH2 0xA39 PUSH1 0x20 DUP12 ADD DUP12 PUSH2 0x4A2D JUMP JUMPDEST PUSH1 0x40 MLOAD PUSH32 0x23B872DD00000000000000000000000000000000000000000000000000000000 DUP2 MSTORE SWAP1 SWAP2 POP PUSH20 0xFFFFFFFFFFFFFFFFFFFFFFFFFFFFFFFFFFFFFFFF DUP3 AND SWAP1 PUSH4 0x23B872DD SWAP1 PUSH2 0x1715 SWAP1 CALLER SWAP1 DUP6 SWAP1 PUSH1 0x60 DUP14 ADD CALLDATALOAD SWAP1 PUSH1 0x4 ADD PUSH2 0x508A JUMP JUMPDEST PUSH1 0x20 PUSH1 0x40 MLOAD DUP1 DUP4 SUB DUP2 PUSH1 0x0 DUP8 DUP1 EXTCODESIZE ISZERO DUP1 ISZERO PUSH2 0x172F JUMPI PUSH1 0x0 DUP1 REVERT JUMPDEST POP GAS CALL ISZERO DUP1 ISZERO PUSH2 0x1743 JUMPI RETURNDATASIZE PUSH1 0x0 DUP1 RETURNDATACOPY RETURNDATASIZE PUSH1 0x0 REVERT JUMPDEST POP POP POP POP PUSH1 0x40 MLOAD RETURNDATASIZE PUSH1 0x1F NOT PUSH1 0x1F DUP3 ADD AND DUP3 ADD DUP1 PUSH1 0x40 MSTORE POP DUP2 ADD SWAP1 PUSH2 0x1767 SWAP2 SWAP1 PUSH2 0x4B83 JUMP JUMPDEST POP PUSH1 0x0 DUP1 DUP3 PUSH20 0xFFFFFFFFFFFFFFFFFFFFFFFFFFFFFFFFFFFFFFFF AND PUSH4 0x89AFCB44 DUP10 PUSH1 0x40 MLOAD DUP3 PUSH4 0xFFFFFFFF AND PUSH1 0xE0 SHL DUP2 MSTORE PUSH1 0x4 ADD PUSH2 0x17A4 SWAP2 SWAP1 PUSH2 0x501B JUMP JUMPDEST PUSH1 0x40 DUP1 MLOAD DUP1 DUP4 SUB DUP2 PUSH1 0x0 DUP8 DUP1 EXTCODESIZE ISZERO DUP1 ISZERO PUSH2 0x17BD JUMPI PUSH1 0x0 DUP1 REVERT JUMPDEST POP GAS CALL ISZERO DUP1 ISZERO PUSH2 0x17D1 JUMPI RETURNDATASIZE PUSH1 0x0 DUP1 RETURNDATACOPY RETURNDATASIZE PUSH1 0x0 REVERT JUMPDEST POP POP POP POP PUSH1 0x40 MLOAD RETURNDATASIZE PUSH1 0x1F NOT PUSH1 0x1F DUP3 ADD AND DUP3 ADD DUP1 PUSH1 0x40 MSTORE POP DUP2 ADD SWAP1 PUSH2 0x17F5 SWAP2 SWAP1 PUSH2 0x4E64 JUMP JUMPDEST SWAP7 SWAP1 SWAP7 ADD SWAP6 SWAP5 SWAP1 SWAP5 ADD SWAP4 POP POP POP JUMPDEST DUP6 PUSH1 0x80 ADD CALLDATALOAD DUP4 LT ISZERO PUSH2 0x1841 JUMPI PUSH1 0x40 MLOAD PUSH32 0x8C379A000000000000000000000000000000000000000000000000000000000 DUP2 MSTORE PUSH1 0x4 ADD PUSH2 0x589 SWAP1 PUSH2 0x56C8 JUMP JUMPDEST DUP6 PUSH1 0xA0 ADD CALLDATALOAD DUP3 LT ISZERO PUSH2 0x187F JUMPI PUSH1 0x40 MLOAD PUSH32 0x8C379A000000000000000000000000000000000000000000000000000000000 DUP2 MSTORE PUSH1 0x4 ADD PUSH2 0x589 SWAP1 PUSH2 0x557A JUMP JUMPDEST POP SWAP4 POP SWAP4 SWAP2 POP POP JUMP JUMPDEST PUSH1 0x60 DUP2 TIMESTAMP DUP2 LT ISZERO PUSH2 0x18C5 JUMPI PUSH1 0x40 MLOAD PUSH32 0x8C379A000000000000000000000000000000000000000000000000000000000 DUP2 MSTORE PUSH1 0x4 ADD PUSH2 0x589 SWAP1 PUSH2 0x5228 JUMP JUMPDEST PUSH32 0x0 PUSH20 0xFFFFFFFFFFFFFFFFFFFFFFFFFFFFFFFFFFFFFFFF AND DUP7 DUP7 PUSH1 0x0 DUP2 DUP2 LT PUSH2 0x1909 JUMPI INVALID JUMPDEST SWAP1 POP PUSH1 0x20 MUL ADD PUSH1 0x20 DUP2 ADD SWAP1 PUSH2 0x191E SWAP2 SWAP1 PUSH2 0x4A2D JUMP JUMPDEST PUSH20 0xFFFFFFFFFFFFFFFFFFFFFFFFFFFFFFFFFFFFFFFF AND EQ PUSH2 0x196B JUMPI PUSH1 0x40 MLOAD PUSH32 0x8C379A000000000000000000000000000000000000000000000000000000000 DUP2 MSTORE PUSH1 0x4 ADD PUSH2 0x589 SWAP1 PUSH2 0x51F1 JUMP JUMPDEST PUSH1 0x0 PUSH2 0x1999 PUSH32 0x0 CALLVALUE DUP10 DUP10 PUSH2 0x329F JUMP JUMPDEST DUP1 SWAP5 POP DUP2 SWAP3 POP POP POP DUP8 DUP4 PUSH1 0x1 DUP6 MLOAD SUB DUP2 MLOAD DUP2 LT PUSH2 0x19B2 JUMPI INVALID JUMPDEST PUSH1 0x20 MUL PUSH1 0x20 ADD ADD MLOAD LT ISZERO PUSH2 0x19F2 JUMPI PUSH1 0x40 MLOAD PUSH32 0x8C379A000000000000000000000000000000000000000000000000000000000 DUP2 MSTORE PUSH1 0x4 ADD PUSH2 0x589 SWAP1 PUSH2 0x53F5 JUMP JUMPDEST PUSH32 0x0 PUSH20 0xFFFFFFFFFFFFFFFFFFFFFFFFFFFFFFFFFFFFFFFF AND PUSH4 0xD0E30DB0 DUP5 PUSH1 0x0 DUP2 MLOAD DUP2 LT PUSH2 0x1A3B JUMPI INVALID JUMPDEST PUSH1 0x20 MUL PUSH1 0x20 ADD ADD MLOAD PUSH1 0x40 MLOAD DUP3 PUSH4 0xFFFFFFFF AND PUSH1 0xE0 SHL DUP2 MSTORE PUSH1 0x4 ADD PUSH1 0x0 PUSH1 0x40 MLOAD DUP1 DUP4 SUB DUP2 DUP6 DUP9 DUP1 EXTCODESIZE ISZERO DUP1 ISZERO PUSH2 0x1A6E JUMPI PUSH1 0x0 DUP1 REVERT JUMPDEST POP GAS CALL ISZERO DUP1 ISZERO PUSH2 0x1A82 JUMPI RETURNDATASIZE PUSH1 0x0 DUP1 RETURNDATACOPY RETURNDATASIZE PUSH1 0x0 REVERT JUMPDEST POP POP POP POP POP PUSH32 0x0 PUSH20 0xFFFFFFFFFFFFFFFFFFFFFFFFFFFFFFFFFFFFFFFF AND PUSH4 0xA9059CBB DUP3 DUP6 PUSH1 0x0 DUP2 MLOAD DUP2 LT PUSH2 0x1AD1 JUMPI INVALID JUMPDEST PUSH1 0x20 MUL PUSH1 0x20 ADD ADD MLOAD PUSH1 0x40 MLOAD DUP4 PUSH4 0xFFFFFFFF AND PUSH1 0xE0 SHL DUP2 MSTORE PUSH1 0x4 ADD PUSH2 0x1AF6 SWAP3 SWAP2 SWAP1 PUSH2 0x5119 JUMP JUMPDEST PUSH1 0x20 PUSH1 0x40 MLOAD DUP1 DUP4 SUB DUP2 PUSH1 0x0 DUP8 DUP1 EXTCODESIZE ISZERO DUP1 ISZERO PUSH2 0x1B10 JUMPI PUSH1 0x0 DUP1 REVERT JUMPDEST POP GAS CALL ISZERO DUP1 ISZERO PUSH2 0x1B24 JUMPI RETURNDATASIZE PUSH1 0x0 DUP1 RETURNDATACOPY RETURNDATASIZE PUSH1 0x0 REVERT JUMPDEST POP POP POP POP PUSH1 0x40 MLOAD RETURNDATASIZE PUSH1 0x1F NOT PUSH1 0x1F DUP3 ADD AND DUP3 ADD DUP1 PUSH1 0x40 MSTORE POP DUP2 ADD SWAP1 PUSH2 0x1B48 SWAP2 SWAP1 PUSH2 0x4B83 JUMP JUMPDEST PUSH2 0x1B4E JUMPI INVALID JUMPDEST PUSH2 0x1B8D DUP4 DUP9 DUP9 DUP1 DUP1 PUSH1 0x20 MUL PUSH1 0x20 ADD PUSH1 0x40 MLOAD SWAP1 DUP2 ADD PUSH1 0x40 MSTORE DUP1 SWAP4 SWAP3 SWAP2 SWAP1 DUP2 DUP2 MSTORE PUSH1 0x20 ADD DUP4 DUP4 PUSH1 0x20 MUL DUP1 DUP3 DUP5 CALLDATACOPY PUSH1 0x0 SWAP3 ADD SWAP2 SWAP1 SWAP2 MSTORE POP DUP11 SWAP3 POP PUSH2 0x3545 SWAP2 POP POP JUMP JUMPDEST POP POP SWAP6 SWAP5 POP POP POP POP POP JUMP JUMPDEST PUSH1 0x0 PUSH2 0x544 DUP5 DUP5 DUP5 PUSH2 0x42A1 JUMP JUMPDEST PUSH1 0x60 DUP2 TIMESTAMP DUP2 LT ISZERO PUSH2 0x1BE2 JUMPI PUSH1 0x40 MLOAD PUSH32 0x8C379A000000000000000000000000000000000000000000000000000000000 DUP2 MSTORE PUSH1 0x4 ADD PUSH2 0x589 SWAP1 PUSH2 0x5228 JUMP JUMPDEST PUSH1 0x0 PUSH2 0x1C10 PUSH32 0x0 DUP11 DUP10 DUP10 PUSH2 0x3C27 JUMP JUMPDEST DUP1 SWAP5 POP DUP2 SWAP3 POP POP POP DUP8 DUP4 PUSH1 0x0 DUP2 MLOAD DUP2 LT PUSH2 0x1C26 JUMPI INVALID JUMPDEST PUSH1 0x20 MUL PUSH1 0x20 ADD ADD MLOAD GT ISZERO PUSH2 0x921 JUMPI PUSH1 0x40 MLOAD PUSH32 0x8C379A000000000000000000000000000000000000000000000000000000000 DUP2 MSTORE PUSH1 0x4 ADD PUSH2 0x589 SWAP1 PUSH2 0x54E6 JUMP JUMPDEST PUSH1 0x0 DUP1 PUSH1 0x0 DUP1 DUP5 TIMESTAMP DUP2 LT ISZERO PUSH2 0x1CA7 JUMPI PUSH1 0x40 MLOAD PUSH32 0x8C379A000000000000000000000000000000000000000000000000000000000 DUP2 MSTORE PUSH1 0x4 ADD PUSH2 0x589 SWAP1 PUSH2 0x5228 JUMP JUMPDEST PUSH1 0x64 DUP9 PUSH1 0x80 ADD CALLDATALOAD GT ISZERO PUSH2 0x1CE6 JUMPI PUSH1 0x40 MLOAD PUSH32 0x8C379A000000000000000000000000000000000000000000000000000000000 DUP2 MSTORE PUSH1 0x4 ADD PUSH2 0x589 SWAP1 PUSH2 0x55D7 JUMP JUMPDEST PUSH1 0x80 DUP9 ADD CALLDATALOAD ISZERO PUSH2 0x1FC0 JUMPI PUSH1 0x0 DUP1 PUSH1 0x64 PUSH2 0x1D07 PUSH1 0x20 DUP13 ADD CALLDATALOAD PUSH1 0x80 DUP14 ADD CALLDATALOAD PUSH2 0x3D9D JUMP JUMPDEST DUP2 PUSH2 0x1D0E JUMPI INVALID JUMPDEST DIV SWAP1 POP PUSH1 0x0 PUSH1 0x64 PUSH2 0x1D23 CALLVALUE PUSH1 0x80 DUP15 ADD CALLDATALOAD PUSH2 0x3D9D JUMP JUMPDEST DUP2 PUSH2 0x1D2A JUMPI INVALID JUMPDEST DIV SWAP1 POP PUSH1 0x0 PUSH1 0x64 PUSH2 0x1D43 PUSH1 0x40 DUP15 ADD CALLDATALOAD PUSH1 0x80 DUP16 ADD CALLDATALOAD PUSH2 0x3D9D JUMP JUMPDEST DUP2 PUSH2 0x1D4A JUMPI INVALID JUMPDEST DIV SWAP1 POP PUSH1 0x0 PUSH1 0x64 PUSH2 0x1D6C DUP15 PUSH1 0x80 ADD CALLDATALOAD DUP16 PUSH1 0x60 ADD CALLDATALOAD PUSH2 0x3D9D SWAP1 SWAP2 SWAP1 PUSH4 0xFFFFFFFF AND JUMP JUMPDEST DUP2 PUSH2 0x1D73 JUMPI INVALID JUMPDEST DIV SWAP1 POP PUSH2 0x1DB0 PUSH2 0x1D86 PUSH1 0x20 DUP16 ADD DUP16 PUSH2 0x4A2D JUMP JUMPDEST PUSH32 0x0 DUP7 DUP7 DUP7 DUP7 PUSH2 0x3DEE JUMP JUMPDEST SWAP2 SWAP12 POP SWAP10 POP SWAP5 POP PUSH2 0x1DC7 PUSH2 0xF48 PUSH1 0x20 DUP16 ADD DUP16 PUSH2 0x4A2D JUMP JUMPDEST PUSH32 0x0 PUSH20 0xFFFFFFFFFFFFFFFFFFFFFFFFFFFFFFFFFFFFFFFF AND PUSH4 0xD0E30DB0 DUP11 PUSH1 0x40 MLOAD DUP3 PUSH4 0xFFFFFFFF AND PUSH1 0xE0 SHL DUP2 MSTORE PUSH1 0x4 ADD PUSH1 0x0 PUSH1 0x40 MLOAD DUP1 DUP4 SUB DUP2 DUP6 DUP9 DUP1 EXTCODESIZE ISZERO DUP1 ISZERO PUSH2 0x1E2F JUMPI PUSH1 0x0 DUP1 REVERT JUMPDEST POP GAS CALL ISZERO DUP1 ISZERO PUSH2 0x1E43 JUMPI RETURNDATASIZE PUSH1 0x0 DUP1 RETURNDATACOPY RETURNDATASIZE PUSH1 0x0 REVERT JUMPDEST POP POP PUSH1 0x40 MLOAD PUSH32 0xA9059CBB00000000000000000000000000000000000000000000000000000000 DUP2 MSTORE PUSH20 0xFFFFFFFFFFFFFFFFFFFFFFFFFFFFFFFFFFFFFFFF PUSH32 0x0 AND SWAP4 POP PUSH4 0xA9059CBB SWAP3 POP PUSH2 0x1EBC SWAP2 POP DUP9 SWAP1 DUP14 SWAP1 PUSH1 0x4 ADD PUSH2 0x5119 JUMP JUMPDEST PUSH1 0x20 PUSH1 0x40 MLOAD DUP1 DUP4 SUB DUP2 PUSH1 0x0 DUP8 DUP1 EXTCODESIZE ISZERO DUP1 ISZERO PUSH2 0x1ED6 JUMPI PUSH1 0x0 DUP1 REVERT JUMPDEST POP GAS CALL ISZERO DUP1 ISZERO PUSH2 0x1EEA JUMPI RETURNDATASIZE PUSH1 0x0 DUP1 RETURNDATACOPY RETURNDATASIZE PUSH1 0x0 REVERT JUMPDEST POP POP POP POP PUSH1 0x40 MLOAD RETURNDATASIZE PUSH1 0x1F NOT PUSH1 0x1F DUP3 ADD AND DUP3 ADD DUP1 PUSH1 0x40 MSTORE POP DUP2 ADD SWAP1 PUSH2 0x1F0E SWAP2 SWAP1 PUSH2 0x4B83 JUMP JUMPDEST PUSH2 0x1F14 JUMPI INVALID JUMPDEST PUSH1 0x40 MLOAD PUSH32 0x6A62784200000000000000000000000000000000000000000000000000000000 DUP2 MSTORE PUSH20 0xFFFFFFFFFFFFFFFFFFFFFFFFFFFFFFFFFFFFFFFF DUP7 AND SWAP1 PUSH4 0x6A627842 SWAP1 PUSH2 0x1F66 SWAP1 DUP16 SWAP1 PUSH1 0x4 ADD PUSH2 0x501B JUMP JUMPDEST PUSH1 0x20 PUSH1 0x40 MLOAD DUP1 DUP4 SUB DUP2 PUSH1 0x0 DUP8 DUP1 EXTCODESIZE ISZERO DUP1 ISZERO PUSH2 0x1F80 JUMPI PUSH1 0x0 DUP1 REVERT JUMPDEST POP GAS CALL ISZERO DUP1 ISZERO PUSH2 0x1F94 JUMPI RETURNDATASIZE PUSH1 0x0 DUP1 RETURNDATACOPY RETURNDATASIZE PUSH1 0x0 REVERT JUMPDEST POP POP POP POP PUSH1 0x40 MLOAD RETURNDATASIZE PUSH1 0x1F NOT PUSH1 0x1F DUP3 ADD AND DUP3 ADD DUP1 PUSH1 0x40 MSTORE POP DUP2 ADD SWAP1 PUSH2 0x1FB8 SWAP2 SWAP1 PUSH2 0x4D66 JUMP JUMPDEST SWAP8 POP POP POP POP POP POP JUMPDEST PUSH1 0x64 DUP9 PUSH1 0x80 ADD CALLDATALOAD EQ PUSH2 0x225E JUMPI PUSH1 0x0 PUSH1 0x20 DUP10 ADD CALLDATALOAD DUP7 SWAP1 SUB CALLVALUE DUP7 SWAP1 SUB DUP3 PUSH1 0x40 DUP13 ADD CALLDATALOAD PUSH2 0x1FEB JUMPI PUSH1 0x0 PUSH2 0x1FF3 JUMP JUMPDEST DUP9 DUP13 PUSH1 0x40 ADD CALLDATALOAD SUB JUMPDEST SWAP1 POP PUSH1 0x0 PUSH1 0x60 DUP14 ADD CALLDATALOAD PUSH2 0x2007 JUMPI PUSH1 0x0 PUSH2 0x200F JUMP JUMPDEST DUP9 DUP14 PUSH1 0x60 ADD CALLDATALOAD SUB JUMPDEST SWAP1 POP PUSH2 0x2048 PUSH32 0x0 DUP15 PUSH1 0x0 ADD PUSH1 0x20 DUP2 ADD SWAP1 PUSH2 0x1098 SWAP2 SWAP1 PUSH2 0x4A2D JUMP JUMPDEST SWAP7 POP SWAP5 POP SWAP3 POP PUSH2 0x205E PUSH2 0x10B7 PUSH1 0x20 DUP16 ADD DUP16 PUSH2 0x4A2D JUMP JUMPDEST PUSH32 0x0 PUSH20 0xFFFFFFFFFFFFFFFFFFFFFFFFFFFFFFFFFFFFFFFF AND PUSH4 0xD0E30DB0 DUP5 PUSH1 0x40 MLOAD DUP3 PUSH4 0xFFFFFFFF AND PUSH1 0xE0 SHL DUP2 MSTORE PUSH1 0x4 ADD PUSH1 0x0 PUSH1 0x40 MLOAD DUP1 DUP4 SUB DUP2 DUP6 DUP9 DUP1 EXTCODESIZE ISZERO DUP1 ISZERO PUSH2 0x20C6 JUMPI PUSH1 0x0 DUP1 REVERT JUMPDEST POP GAS CALL ISZERO DUP1 ISZERO PUSH2 0x20DA JUMPI RETURNDATASIZE PUSH1 0x0 DUP1 RETURNDATACOPY RETURNDATASIZE PUSH1 0x0 REVERT JUMPDEST POP POP PUSH1 0x40 MLOAD PUSH32 0xA9059CBB00000000000000000000000000000000000000000000000000000000 DUP2 MSTORE PUSH20 0xFFFFFFFFFFFFFFFFFFFFFFFFFFFFFFFFFFFFFFFF PUSH32 0x0 AND SWAP4 POP PUSH4 0xA9059CBB SWAP3 POP PUSH2 0x2153 SWAP2 POP DUP9 SWAP1 DUP8 SWAP1 PUSH1 0x4 ADD PUSH2 0x5119 JUMP JUMPDEST PUSH1 0x20 PUSH1 0x40 MLOAD DUP1 DUP4 SUB DUP2 PUSH1 0x0 DUP8 DUP1 EXTCODESIZE ISZERO DUP1 ISZERO PUSH2 0x216D JUMPI PUSH1 0x0 DUP1 REVERT JUMPDEST POP GAS CALL ISZERO DUP1 ISZERO PUSH2 0x2181 JUMPI RETURNDATASIZE PUSH1 0x0 DUP1 RETURNDATACOPY RETURNDATASIZE PUSH1 0x0 REVERT JUMPDEST POP POP POP POP PUSH1 0x40 MLOAD RETURNDATASIZE PUSH1 0x1F NOT PUSH1 0x1F DUP3 ADD AND DUP3 ADD DUP1 PUSH1 0x40 MSTORE POP DUP2 ADD SWAP1 PUSH2 0x21A5 SWAP2 SWAP1 PUSH2 0x4B83 JUMP JUMPDEST PUSH2 0x21AB JUMPI INVALID JUMPDEST PUSH1 0x40 MLOAD PUSH32 0x6A62784200000000000000000000000000000000000000000000000000000000 DUP2 MSTORE PUSH20 0xFFFFFFFFFFFFFFFFFFFFFFFFFFFFFFFFFFFFFFFF DUP7 AND SWAP1 PUSH4 0x6A627842 SWAP1 PUSH2 0x21FD SWAP1 DUP16 SWAP1 PUSH1 0x4 ADD PUSH2 0x501B JUMP JUMPDEST PUSH1 0x20 PUSH1 0x40 MLOAD DUP1 DUP4 SUB DUP2 PUSH1 0x0 DUP8 DUP1 EXTCODESIZE ISZERO DUP1 ISZERO PUSH2 0x2217 JUMPI PUSH1 0x0 DUP1 REVERT JUMPDEST POP GAS CALL ISZERO DUP1 ISZERO PUSH2 0x222B JUMPI RETURNDATASIZE PUSH1 0x0 DUP1 RETURNDATACOPY RETURNDATASIZE PUSH1 0x0 REVERT JUMPDEST POP POP POP POP PUSH1 0x40 MLOAD RETURNDATASIZE PUSH1 0x1F NOT PUSH1 0x1F DUP3 ADD AND DUP3 ADD DUP1 PUSH1 0x40 MSTORE POP DUP2 ADD SWAP1 PUSH2 0x224F SWAP2 SWAP1 PUSH2 0x4D66 JUMP JUMPDEST SWAP4 SWAP1 SWAP10 ADD SWAP9 POP POP SWAP1 SWAP6 ADD SWAP5 SWAP3 POP POP JUMPDEST DUP4 CALLVALUE GT ISZERO PUSH2 0x1190 JUMPI PUSH2 0x1190 CALLER DUP6 CALLVALUE SUB PUSH2 0x36CF JUMP JUMPDEST DUP1 TIMESTAMP DUP2 LT ISZERO PUSH2 0x22AD JUMPI PUSH1 0x40 MLOAD PUSH32 0x8C379A000000000000000000000000000000000000000000000000000000000 DUP2 MSTORE PUSH1 0x4 ADD PUSH2 0x589 SWAP1 PUSH2 0x5228 JUMP JUMPDEST PUSH20 0xFFFFFFFFFFFFFFFFFFFFFFFFFFFFFFFFFFFFFFFF PUSH32 0x0 AND DUP6 DUP6 PUSH32 0xFFFFFFFFFFFFFFFFFFFFFFFFFFFFFFFFFFFFFFFFFFFFFFFFFFFFFFFFFFFFFFFF DUP2 ADD DUP2 DUP2 LT PUSH2 0x2312 JUMPI INVALID JUMPDEST SWAP1 POP PUSH1 0x20 MUL ADD PUSH1 0x20 DUP2 ADD SWAP1 PUSH2 0x2327 SWAP2 SWAP1 PUSH2 0x4A2D JUMP JUMPDEST PUSH20 0xFFFFFFFFFFFFFFFFFFFFFFFFFFFFFFFFFFFFFFFF AND EQ PUSH2 0x2374 JUMPI PUSH1 0x40 MLOAD PUSH32 0x8C379A000000000000000000000000000000000000000000000000000000000 DUP2 MSTORE PUSH1 0x4 ADD PUSH2 0x589 SWAP1 PUSH2 0x51F1 JUMP JUMPDEST PUSH2 0x2384 DUP6 DUP6 PUSH1 0x0 DUP2 DUP2 LT PUSH2 0x9BB JUMPI INVALID JUMPDEST PUSH2 0x23C2 DUP6 DUP6 DUP1 DUP1 PUSH1 0x20 MUL PUSH1 0x20 ADD PUSH1 0x40 MLOAD SWAP1 DUP2 ADD PUSH1 0x40 MSTORE DUP1 SWAP4 SWAP3 SWAP2 SWAP1 DUP2 DUP2 MSTORE PUSH1 0x20 ADD DUP4 DUP4 PUSH1 0x20 MUL DUP1 DUP3 DUP5 CALLDATACOPY PUSH1 0x0 SWAP3 ADD SWAP2 SWAP1 SWAP2 MSTORE POP ADDRESS SWAP3 POP PUSH2 0x398B SWAP2 POP POP JUMP JUMPDEST PUSH1 0x40 MLOAD PUSH32 0x70A0823100000000000000000000000000000000000000000000000000000000 DUP2 MSTORE PUSH1 0x0 SWAP1 PUSH20 0xFFFFFFFFFFFFFFFFFFFFFFFFFFFFFFFFFFFFFFFF PUSH32 0x0 AND SWAP1 PUSH4 0x70A08231 SWAP1 PUSH2 0x2437 SWAP1 ADDRESS SWAP1 PUSH1 0x4 ADD PUSH2 0x501B JUMP JUMPDEST PUSH1 0x20 PUSH1 0x40 MLOAD DUP1 DUP4 SUB DUP2 DUP7 DUP1 EXTCODESIZE ISZERO DUP1 ISZERO PUSH2 0x244F JUMPI PUSH1 0x0 DUP1 REVERT JUMPDEST POP GAS STATICCALL ISZERO DUP1 ISZERO PUSH2 0x2463 JUMPI RETURNDATASIZE PUSH1 0x0 DUP1 RETURNDATACOPY RETURNDATASIZE PUSH1 0x0 REVERT JUMPDEST POP POP POP POP PUSH1 0x40 MLOAD RETURNDATASIZE PUSH1 0x1F NOT PUSH1 0x1F DUP3 ADD AND DUP3 ADD DUP1 PUSH1 0x40 MSTORE POP DUP2 ADD SWAP1 PUSH2 0x2487 SWAP2 SWAP1 PUSH2 0x4D66 JUMP JUMPDEST SWAP1 POP DUP7 DUP2 LT ISZERO PUSH2 0x24C3 JUMPI PUSH1 0x40 MLOAD PUSH32 0x8C379A000000000000000000000000000000000000000000000000000000000 DUP2 MSTORE PUSH1 0x4 ADD PUSH2 0x589 SWAP1 PUSH2 0x53F5 JUMP JUMPDEST PUSH1 0x40 MLOAD PUSH32 0x2E1A7D4D00000000000000000000000000000000000000000000000000000000 DUP2 MSTORE PUSH20 0xFFFFFFFFFFFFFFFFFFFFFFFFFFFFFFFFFFFFFFFF PUSH32 0x0 AND SWAP1 PUSH4 0x2E1A7D4D SWAP1 PUSH2 0x2535 SWAP1 DUP5 SWAP1 PUSH1 0x4 ADD PUSH2 0x5827 JUMP JUMPDEST PUSH1 0x0 PUSH1 0x40 MLOAD DUP1 DUP4 SUB DUP2 PUSH1 0x0 DUP8 DUP1 EXTCODESIZE ISZERO DUP1 ISZERO PUSH2 0x254F JUMPI PUSH1 0x0 DUP1 REVERT JUMPDEST POP GAS CALL ISZERO DUP1 ISZERO PUSH2 0x2563 JUMPI RETURNDATASIZE PUSH1 0x0 DUP1 RETURNDATACOPY RETURNDATASIZE PUSH1 0x0 REVERT JUMPDEST POP POP POP POP PUSH2 0xC5F DUP5 DUP3 PUSH2 0x36CF JUMP JUMPDEST PUSH1 0x0 DUP1 DUP3 TIMESTAMP DUP2 LT ISZERO PUSH2 0x25AF JUMPI PUSH1 0x40 MLOAD PUSH32 0x8C379A000000000000000000000000000000000000000000000000000000000 DUP2 MSTORE PUSH1 0x4 ADD PUSH2 0x589 SWAP1 PUSH2 0x5228 JUMP JUMPDEST PUSH20 0xFFFFFFFFFFFFFFFFFFFFFFFFFFFFFFFFFFFFFFFF PUSH32 0x0 AND PUSH2 0x25F6 PUSH1 0x40 DUP9 ADD PUSH1 0x20 DUP10 ADD PUSH2 0x4A2D JUMP JUMPDEST PUSH20 0xFFFFFFFFFFFFFFFFFFFFFFFFFFFFFFFFFFFFFFFF AND EQ PUSH2 0x2643 JUMPI PUSH1 0x40 MLOAD PUSH32 0x8C379A000000000000000000000000000000000000000000000000000000000 DUP2 MSTORE PUSH1 0x4 ADD PUSH2 0x589 SWAP1 PUSH2 0x532A JUMP JUMPDEST PUSH2 0x264E DUP7 ADDRESS DUP7 PUSH2 0x14A0 JUMP JUMPDEST SWAP1 SWAP4 POP SWAP2 POP PUSH2 0x266A PUSH2 0x2663 PUSH1 0x20 DUP9 ADD DUP9 PUSH2 0x4A2D JUMP JUMPDEST DUP7 DUP6 PUSH2 0x4350 JUMP JUMPDEST PUSH1 0x40 MLOAD PUSH32 0x2E1A7D4D00000000000000000000000000000000000000000000000000000000 DUP2 MSTORE PUSH20 0xFFFFFFFFFFFFFFFFFFFFFFFFFFFFFFFFFFFFFFFF PUSH32 0x0 AND SWAP1 PUSH4 0x2E1A7D4D SWAP1 PUSH2 0x26DC SWAP1 DUP6 SWAP1 PUSH1 0x4 ADD PUSH2 0x5827 JUMP JUMPDEST PUSH1 0x0 PUSH1 0x40 MLOAD DUP1 DUP4 SUB DUP2 PUSH1 0x0 DUP8 DUP1 EXTCODESIZE ISZERO DUP1 ISZERO PUSH2 0x26F6 JUMPI PUSH1 0x0 DUP1 REVERT JUMPDEST POP GAS CALL ISZERO DUP1 ISZERO PUSH2 0x270A JUMPI RETURNDATASIZE PUSH1 0x0 DUP1 RETURNDATACOPY RETURNDATASIZE PUSH1 0x0 REVERT JUMPDEST POP POP POP POP PUSH2 0x187F DUP6 DUP4 PUSH2 0x36CF JUMP JUMPDEST PUSH32 0x0 DUP2 JUMP JUMPDEST PUSH1 0x0 PUSH2 0x544 DUP5 DUP5 DUP5 PUSH2 0x4473 JUMP JUMPDEST PUSH1 0x0 DUP1 PUSH2 0x2759 DUP9 DUP8 DUP8 DUP8 DUP8 PUSH2 0x4076 JUMP JUMPDEST PUSH2 0x2764 DUP9 DUP9 DUP9 PUSH2 0x14A0 JUMP JUMPDEST SWAP1 SWAP10 SWAP1 SWAP9 POP SWAP7 POP POP POP POP POP POP POP JUMP JUMPDEST PUSH32 0x0 DUP2 JUMP JUMPDEST DUP1 TIMESTAMP DUP2 LT ISZERO PUSH2 0x27D2 JUMPI PUSH1 0x40 MLOAD PUSH32 0x8C379A000000000000000000000000000000000000000000000000000000000 DUP2 MSTORE PUSH1 0x4 ADD PUSH2 0x589 SWAP1 PUSH2 0x5228 JUMP JUMPDEST PUSH32 0x0 PUSH20 0xFFFFFFFFFFFFFFFFFFFFFFFFFFFFFFFFFFFFFFFF AND DUP6 DUP6 PUSH1 0x0 DUP2 DUP2 LT PUSH2 0x2816 JUMPI INVALID JUMPDEST SWAP1 POP PUSH1 0x20 MUL ADD PUSH1 0x20 DUP2 ADD SWAP1 PUSH2 0x282B SWAP2 SWAP1 PUSH2 0x4A2D JUMP JUMPDEST PUSH20 0xFFFFFFFFFFFFFFFFFFFFFFFFFFFFFFFFFFFFFFFF AND EQ PUSH2 0x2878 JUMPI PUSH1 0x40 MLOAD PUSH32 0x8C379A000000000000000000000000000000000000000000000000000000000 DUP2 MSTORE PUSH1 0x4 ADD PUSH2 0x589 SWAP1 PUSH2 0x51F1 JUMP JUMPDEST PUSH1 0x0 CALLVALUE SWAP1 POP PUSH32 0x0 PUSH20 0xFFFFFFFFFFFFFFFFFFFFFFFFFFFFFFFFFFFFFFFF AND PUSH4 0xD0E30DB0 DUP3 PUSH1 0x40 MLOAD DUP3 PUSH4 0xFFFFFFFF AND PUSH1 0xE0 SHL DUP2 MSTORE PUSH1 0x4 ADD PUSH1 0x0 PUSH1 0x40 MLOAD DUP1 DUP4 SUB DUP2 DUP6 DUP9 DUP1 EXTCODESIZE ISZERO DUP1 ISZERO PUSH2 0x28E5 JUMPI PUSH1 0x0 DUP1 REVERT JUMPDEST POP GAS CALL ISZERO DUP1 ISZERO PUSH2 0x28F9 JUMPI RETURNDATASIZE PUSH1 0x0 DUP1 RETURNDATACOPY RETURNDATASIZE PUSH1 0x0 REVERT JUMPDEST POP POP POP POP POP PUSH32 0x0 PUSH20 0xFFFFFFFFFFFFFFFFFFFFFFFFFFFFFFFFFFFFFFFF AND PUSH4 0xA9059CBB PUSH2 0x296B PUSH32 0x0 DUP10 DUP10 PUSH1 0x0 DUP2 DUP2 LT PUSH2 0xA02 JUMPI INVALID JUMPDEST DUP4 PUSH1 0x40 MLOAD DUP4 PUSH4 0xFFFFFFFF AND PUSH1 0xE0 SHL DUP2 MSTORE PUSH1 0x4 ADD PUSH2 0x2989 SWAP3 SWAP2 SWAP1 PUSH2 0x5119 JUMP JUMPDEST PUSH1 0x20 PUSH1 0x40 MLOAD DUP1 DUP4 SUB DUP2 PUSH1 0x0 DUP8 DUP1 EXTCODESIZE ISZERO DUP1 ISZERO PUSH2 0x29A3 JUMPI PUSH1 0x0 DUP1 REVERT JUMPDEST POP GAS CALL ISZERO DUP1 ISZERO PUSH2 0x29B7 JUMPI RETURNDATASIZE PUSH1 0x0 DUP1 RETURNDATACOPY RETURNDATASIZE PUSH1 0x0 REVERT JUMPDEST POP POP POP POP PUSH1 0x40 MLOAD RETURNDATASIZE PUSH1 0x1F NOT PUSH1 0x1F DUP3 ADD AND DUP3 ADD DUP1 PUSH1 0x40 MSTORE POP DUP2 ADD SWAP1 PUSH2 0x29DB SWAP2 SWAP1 PUSH2 0x4B83 JUMP JUMPDEST PUSH2 0x29E1 JUMPI INVALID JUMPDEST PUSH1 0x0 DUP7 DUP7 PUSH32 0xFFFFFFFFFFFFFFFFFFFFFFFFFFFFFFFFFFFFFFFFFFFFFFFFFFFFFFFFFFFFFFFF DUP2 ADD DUP2 DUP2 LT PUSH2 0x2A11 JUMPI INVALID JUMPDEST SWAP1 POP PUSH1 0x20 MUL ADD PUSH1 0x20 DUP2 ADD SWAP1 PUSH2 0x2A26 SWAP2 SWAP1 PUSH2 0x4A2D JUMP JUMPDEST PUSH20 0xFFFFFFFFFFFFFFFFFFFFFFFFFFFFFFFFFFFFFFFF AND PUSH4 0x70A08231 DUP7 PUSH1 0x40 MLOAD DUP3 PUSH4 0xFFFFFFFF AND PUSH1 0xE0 SHL DUP2 MSTORE PUSH1 0x4 ADD PUSH2 0x2A5E SWAP2 SWAP1 PUSH2 0x501B JUMP JUMPDEST PUSH1 0x20 PUSH1 0x40 MLOAD DUP1 DUP4 SUB DUP2 DUP7 DUP1 EXTCODESIZE ISZERO DUP1 ISZERO PUSH2 0x2A76 JUMPI PUSH1 0x0 DUP1 REVERT JUMPDEST POP GAS STATICCALL ISZERO DUP1 ISZERO PUSH2 0x2A8A JUMPI RETURNDATASIZE PUSH1 0x0 DUP1 RETURNDATACOPY RETURNDATASIZE PUSH1 0x0 REVERT JUMPDEST POP POP POP POP PUSH1 0x40 MLOAD RETURNDATASIZE PUSH1 0x1F NOT PUSH1 0x1F DUP3 ADD AND DUP3 ADD DUP1 PUSH1 0x40 MSTORE POP DUP2 ADD SWAP1 PUSH2 0x2AAE SWAP2 SWAP1 PUSH2 0x4D66 JUMP JUMPDEST SWAP1 POP PUSH2 0x2AEE DUP8 DUP8 DUP1 DUP1 PUSH1 0x20 MUL PUSH1 0x20 ADD PUSH1 0x40 MLOAD SWAP1 DUP2 ADD PUSH1 0x40 MSTORE DUP1 SWAP4 SWAP3 SWAP2 SWAP1 DUP2 DUP2 MSTORE PUSH1 0x20 ADD DUP4 DUP4 PUSH1 0x20 MUL DUP1 DUP3 DUP5 CALLDATACOPY PUSH1 0x0 SWAP3 ADD SWAP2 SWAP1 SWAP2 MSTORE POP DUP10 SWAP3 POP PUSH2 0x398B SWAP2 POP POP JUMP JUMPDEST DUP8 PUSH2 0xC27 DUP3 DUP10 DUP10 PUSH32 0xFFFFFFFFFFFFFFFFFFFFFFFFFFFFFFFFFFFFFFFFFFFFFFFFFFFFFFFFFFFFFFFF DUP2 ADD DUP2 DUP2 LT PUSH2 0x2B21 JUMPI INVALID JUMPDEST SWAP1 POP PUSH1 0x20 MUL ADD PUSH1 0x20 DUP2 ADD SWAP1 PUSH2 0x2B36 SWAP2 SWAP1 PUSH2 0x4A2D JUMP JUMPDEST PUSH20 0xFFFFFFFFFFFFFFFFFFFFFFFFFFFFFFFFFFFFFFFF AND PUSH4 0x70A08231 DUP10 PUSH1 0x40 MLOAD DUP3 PUSH4 0xFFFFFFFF AND PUSH1 0xE0 SHL DUP2 MSTORE PUSH1 0x4 ADD PUSH2 0xBD1 SWAP2 SWAP1 PUSH2 0x501B JUMP JUMPDEST PUSH1 0x0 DUP2 TIMESTAMP DUP2 LT ISZERO PUSH2 0x2BAB JUMPI PUSH1 0x40 MLOAD PUSH32 0x8C379A000000000000000000000000000000000000000000000000000000000 DUP2 MSTORE PUSH1 0x4 ADD PUSH2 0x589 SWAP1 PUSH2 0x5228 JUMP JUMPDEST PUSH20 0xFFFFFFFFFFFFFFFFFFFFFFFFFFFFFFFFFFFFFFFF PUSH32 0x0 AND PUSH2 0x2BF2 PUSH1 0x40 DUP8 ADD PUSH1 0x20 DUP9 ADD PUSH2 0x4A2D JUMP JUMPDEST PUSH20 0xFFFFFFFFFFFFFFFFFFFFFFFFFFFFFFFFFFFFFFFF AND EQ PUSH2 0x2C3F JUMPI PUSH1 0x40 MLOAD PUSH32 0x8C379A000000000000000000000000000000000000000000000000000000000 DUP2 MSTORE PUSH1 0x4 ADD PUSH2 0x589 SWAP1 PUSH2 0x532A JUMP JUMPDEST PUSH2 0x2C4A DUP6 ADDRESS DUP6 PUSH2 0x14A0 JUMP JUMPDEST SWAP3 POP PUSH2 0x2CF9 SWAP1 POP PUSH2 0x2C5E PUSH1 0x20 DUP8 ADD DUP8 PUSH2 0x4A2D JUMP JUMPDEST DUP6 PUSH2 0x2C6C PUSH1 0x20 DUP10 ADD DUP10 PUSH2 0x4A2D JUMP JUMPDEST PUSH20 0xFFFFFFFFFFFFFFFFFFFFFFFFFFFFFFFFFFFFFFFF AND PUSH4 0x70A08231 ADDRESS PUSH1 0x40 MLOAD DUP3 PUSH4 0xFFFFFFFF AND PUSH1 0xE0 SHL DUP2 MSTORE PUSH1 0x4 ADD PUSH2 0x2CA4 SWAP2 SWAP1 PUSH2 0x501B JUMP JUMPDEST PUSH1 0x20 PUSH1 0x40 MLOAD DUP1 DUP4 SUB DUP2 DUP7 DUP1 EXTCODESIZE ISZERO DUP1 ISZERO PUSH2 0x2CBC JUMPI PUSH1 0x0 DUP1 REVERT JUMPDEST POP GAS STATICCALL ISZERO DUP1 ISZERO PUSH2 0x2CD0 JUMPI RETURNDATASIZE PUSH1 0x0 DUP1 RETURNDATACOPY RETURNDATASIZE PUSH1 0x0 REVERT JUMPDEST POP POP POP POP PUSH1 0x40 MLOAD RETURNDATASIZE PUSH1 0x1F NOT PUSH1 0x1F DUP3 ADD AND DUP3 ADD DUP1 PUSH1 0x40 MSTORE POP DUP2 ADD SWAP1 PUSH2 0x2CF4 SWAP2 SWAP1 PUSH2 0x4D66 JUMP JUMPDEST PUSH2 0x4350 JUMP JUMPDEST PUSH1 0x40 MLOAD PUSH32 0x2E1A7D4D00000000000000000000000000000000000000000000000000000000 DUP2 MSTORE PUSH20 0xFFFFFFFFFFFFFFFFFFFFFFFFFFFFFFFFFFFFFFFF PUSH32 0x0 AND SWAP1 PUSH4 0x2E1A7D4D SWAP1 PUSH2 0x2D6B SWAP1 DUP6 SWAP1 PUSH1 0x4 ADD PUSH2 0x5827 JUMP JUMPDEST PUSH1 0x0 PUSH1 0x40 MLOAD DUP1 DUP4 SUB DUP2 PUSH1 0x0 DUP8 DUP1 EXTCODESIZE ISZERO DUP1 ISZERO PUSH2 0x2D85 JUMPI PUSH1 0x0 DUP1 REVERT JUMPDEST POP GAS CALL ISZERO DUP1 ISZERO PUSH2 0x2D99 JUMPI RETURNDATASIZE PUSH1 0x0 DUP1 RETURNDATACOPY RETURNDATASIZE PUSH1 0x0 REVERT JUMPDEST POP POP POP POP PUSH2 0x2DA7 DUP5 DUP4 PUSH2 0x36CF JUMP JUMPDEST POP SWAP4 SWAP3 POP POP POP JUMP JUMPDEST PUSH1 0x0 DUP1 PUSH20 0xFFFFFFFFFFFFFFFFFFFFFFFFFFFFFFFFFFFFFFFF PUSH32 0x0 AND PUSH2 0x2DF9 PUSH1 0x40 DUP11 ADD PUSH1 0x20 DUP12 ADD PUSH2 0x4A2D JUMP JUMPDEST PUSH20 0xFFFFFFFFFFFFFFFFFFFFFFFFFFFFFFFFFFFFFFFF AND EQ PUSH2 0x2E46 JUMPI PUSH1 0x40 MLOAD PUSH32 0x8C379A000000000000000000000000000000000000000000000000000000000 DUP2 MSTORE PUSH1 0x4 ADD PUSH2 0x589 SWAP1 PUSH2 0x532A JUMP JUMPDEST PUSH2 0x2E53 DUP9 DUP8 DUP8 DUP8 DUP8 PUSH2 0x4076 JUMP JUMPDEST PUSH2 0x2764 DUP9 DUP9 DUP9 PUSH2 0x2571 JUMP JUMPDEST PUSH32 0x0 DUP2 JUMP JUMPDEST PUSH1 0x60 PUSH2 0x544 PUSH32 0x0 DUP6 DUP6 DUP6 PUSH2 0x450F JUMP JUMPDEST PUSH1 0x60 DUP2 TIMESTAMP DUP2 LT ISZERO PUSH2 0x2EED JUMPI PUSH1 0x40 MLOAD PUSH32 0x8C379A000000000000000000000000000000000000000000000000000000000 DUP2 MSTORE PUSH1 0x4 ADD PUSH2 0x589 SWAP1 PUSH2 0x5228 JUMP JUMPDEST PUSH32 0x0 PUSH20 0xFFFFFFFFFFFFFFFFFFFFFFFFFFFFFFFFFFFFFFFF AND DUP7 DUP7 PUSH1 0x0 DUP2 DUP2 LT PUSH2 0x2F31 JUMPI INVALID JUMPDEST SWAP1 POP PUSH1 0x20 MUL ADD PUSH1 0x20 DUP2 ADD SWAP1 PUSH2 0x2F46 SWAP2 SWAP1 PUSH2 0x4A2D JUMP JUMPDEST PUSH20 0xFFFFFFFFFFFFFFFFFFFFFFFFFFFFFFFFFFFFFFFF AND EQ PUSH2 0x2F93 JUMPI PUSH1 0x40 MLOAD PUSH32 0x8C379A000000000000000000000000000000000000000000000000000000000 DUP2 MSTORE PUSH1 0x4 ADD PUSH2 0x589 SWAP1 PUSH2 0x51F1 JUMP JUMPDEST PUSH1 0x0 PUSH2 0x2FC1 PUSH32 0x0 DUP10 DUP10 DUP10 PUSH2 0x3C27 JUMP JUMPDEST DUP1 SWAP5 POP DUP2 SWAP3 POP POP POP CALLVALUE DUP4 PUSH1 0x0 DUP2 MLOAD DUP2 LT PUSH2 0x2FD7 JUMPI INVALID JUMPDEST PUSH1 0x20 MUL PUSH1 0x20 ADD ADD MLOAD GT ISZERO PUSH2 0x3017 JUMPI PUSH1 0x40 MLOAD PUSH32 0x8C379A000000000000000000000000000000000000000000000000000000000 DUP2 MSTORE PUSH1 0x4 ADD PUSH2 0x589 SWAP1 PUSH2 0x54E6 JUMP JUMPDEST PUSH32 0x0 PUSH20 0xFFFFFFFFFFFFFFFFFFFFFFFFFFFFFFFFFFFFFFFF AND PUSH4 0xD0E30DB0 DUP5 PUSH1 0x0 DUP2 MLOAD DUP2 LT PUSH2 0x3060 JUMPI INVALID JUMPDEST PUSH1 0x20 MUL PUSH1 0x20 ADD ADD MLOAD PUSH1 0x40 MLOAD DUP3 PUSH4 0xFFFFFFFF AND PUSH1 0xE0 SHL DUP2 MSTORE PUSH1 0x4 ADD PUSH1 0x0 PUSH1 0x40 MLOAD DUP1 DUP4 SUB DUP2 DUP6 DUP9 DUP1 EXTCODESIZE ISZERO DUP1 ISZERO PUSH2 0x3093 JUMPI PUSH1 0x0 DUP1 REVERT JUMPDEST POP GAS CALL ISZERO DUP1 ISZERO PUSH2 0x30A7 JUMPI RETURNDATASIZE PUSH1 0x0 DUP1 RETURNDATACOPY RETURNDATASIZE PUSH1 0x0 REVERT JUMPDEST POP POP POP POP POP PUSH32 0x0 PUSH20 0xFFFFFFFFFFFFFFFFFFFFFFFFFFFFFFFFFFFFFFFF AND PUSH4 0xA9059CBB DUP3 DUP6 PUSH1 0x0 DUP2 MLOAD DUP2 LT PUSH2 0x30F6 JUMPI INVALID JUMPDEST PUSH1 0x20 MUL PUSH1 0x20 ADD ADD MLOAD PUSH1 0x40 MLOAD DUP4 PUSH4 0xFFFFFFFF AND PUSH1 0xE0 SHL DUP2 MSTORE PUSH1 0x4 ADD PUSH2 0x311B SWAP3 SWAP2 SWAP1 PUSH2 0x5119 JUMP JUMPDEST PUSH1 0x20 PUSH1 0x40 MLOAD DUP1 DUP4 SUB DUP2 PUSH1 0x0 DUP8 DUP1 EXTCODESIZE ISZERO DUP1 ISZERO PUSH2 0x3135 JUMPI PUSH1 0x0 DUP1 REVERT JUMPDEST POP GAS CALL ISZERO DUP1 ISZERO PUSH2 0x3149 JUMPI RETURNDATASIZE PUSH1 0x0 DUP1 RETURNDATACOPY RETURNDATASIZE PUSH1 0x0 REVERT JUMPDEST POP POP POP POP PUSH1 0x40 MLOAD RETURNDATASIZE PUSH1 0x1F NOT PUSH1 0x1F DUP3 ADD AND DUP3 ADD DUP1 PUSH1 0x40 MSTORE POP DUP2 ADD SWAP1 PUSH2 0x316D SWAP2 SWAP1 PUSH2 0x4B83 JUMP JUMPDEST PUSH2 0x3173 JUMPI INVALID JUMPDEST PUSH2 0x31B2 DUP4 DUP9 DUP9 DUP1 DUP1 PUSH1 0x20 MUL PUSH1 0x20 ADD PUSH1 0x40 MLOAD SWAP1 DUP2 ADD PUSH1 0x40 MSTORE DUP1 SWAP4 SWAP3 SWAP2 SWAP1 DUP2 DUP2 MSTORE PUSH1 0x20 ADD DUP4 DUP4 PUSH1 0x20 MUL DUP1 DUP3 DUP5 CALLDATACOPY PUSH1 0x0 SWAP3 ADD SWAP2 SWAP1 SWAP2 MSTORE POP DUP11 SWAP3 POP PUSH2 0x3545 SWAP2 POP POP JUMP JUMPDEST DUP3 PUSH1 0x0 DUP2 MLOAD DUP2 LT PUSH2 0x31BF JUMPI INVALID JUMPDEST PUSH1 0x20 MUL PUSH1 0x20 ADD ADD MLOAD CALLVALUE GT ISZERO PUSH2 0x1B8D JUMPI PUSH2 0x1B8D CALLER DUP5 PUSH1 0x0 DUP2 MLOAD DUP2 LT PUSH2 0x31DF JUMPI INVALID JUMPDEST PUSH1 0x20 MUL PUSH1 0x20 ADD ADD MLOAD CALLVALUE SUB PUSH2 0x36CF JUMP JUMPDEST PUSH1 0x0 DUP1 DUP5 GT PUSH2 0x3229 JUMPI PUSH1 0x40 MLOAD PUSH32 0x8C379A000000000000000000000000000000000000000000000000000000000 DUP2 MSTORE PUSH1 0x4 ADD PUSH2 0x589 SWAP1 PUSH2 0x5398 JUMP JUMPDEST PUSH1 0x0 DUP4 GT DUP1 ISZERO PUSH2 0x3239 JUMPI POP PUSH1 0x0 DUP3 GT JUMPDEST PUSH2 0x326F JUMPI PUSH1 0x40 MLOAD PUSH32 0x8C379A000000000000000000000000000000000000000000000000000000000 DUP2 MSTORE PUSH1 0x4 ADD PUSH2 0x589 SWAP1 PUSH2 0x52CD JUMP JUMPDEST PUSH1 0x0 PUSH2 0x327B DUP6 DUP5 PUSH2 0x3D9D JUMP JUMPDEST SWAP1 POP PUSH1 0x0 PUSH2 0x3289 DUP6 DUP8 PUSH2 0x4656 JUMP JUMPDEST SWAP1 POP DUP1 DUP3 DUP2 PUSH2 0x3294 JUMPI INVALID JUMPDEST DIV SWAP7 SWAP6 POP POP POP POP POP POP JUMP JUMPDEST PUSH1 0x0 PUSH1 0x60 PUSH1 0x2 DUP4 LT ISZERO PUSH2 0x32DE JUMPI PUSH1 0x40 MLOAD PUSH32 0x8C379A000000000000000000000000000000000000000000000000000000000 DUP2 MSTORE PUSH1 0x4 ADD PUSH2 0x589 SWAP1 PUSH2 0x54AF JUMP JUMPDEST DUP3 PUSH8 0xFFFFFFFFFFFFFFFF DUP2 GT DUP1 ISZERO PUSH2 0x32F5 JUMPI PUSH1 0x0 DUP1 REVERT JUMPDEST POP PUSH1 0x40 MLOAD SWAP1 DUP1 DUP3 MSTORE DUP1 PUSH1 0x20 MUL PUSH1 0x20 ADD DUP3 ADD PUSH1 0x40 MSTORE DUP1 ISZERO PUSH2 0x331F JUMPI DUP2 PUSH1 0x20 ADD PUSH1 0x20 DUP3 MUL DUP1 CALLDATASIZE DUP4 CALLDATACOPY ADD SWAP1 POP JUMPDEST POP SWAP1 POP DUP5 DUP2 PUSH1 0x0 DUP2 MLOAD DUP2 LT PUSH2 0x3330 JUMPI INVALID JUMPDEST PUSH1 0x20 MUL PUSH1 0x20 ADD ADD DUP2 DUP2 MSTORE POP POP PUSH1 0x0 JUMPDEST PUSH32 0xFFFFFFFFFFFFFFFFFFFFFFFFFFFFFFFFFFFFFFFFFFFFFFFFFFFFFFFFFFFFFFFF DUP5 ADD DUP2 LT ISZERO PUSH2 0x340E JUMPI PUSH1 0x0 DUP1 PUSH1 0x0 PUSH2 0x33BC DUP11 DUP10 DUP10 DUP8 DUP2 DUP2 LT PUSH2 0x337E JUMPI INVALID JUMPDEST SWAP1 POP PUSH1 0x20 MUL ADD PUSH1 0x20 DUP2 ADD SWAP1 PUSH2 0x3393 SWAP2 SWAP1 PUSH2 0x4A2D JUMP JUMPDEST DUP11 DUP11 DUP9 PUSH1 0x1 ADD DUP2 DUP2 LT PUSH2 0x33A2 JUMPI INVALID JUMPDEST SWAP1 POP PUSH1 0x20 MUL ADD PUSH1 0x20 DUP2 ADD SWAP1 PUSH2 0x33B7 SWAP2 SWAP1 PUSH2 0x4A2D JUMP JUMPDEST PUSH2 0x4693 JUMP JUMPDEST SWAP3 POP SWAP3 POP SWAP3 POP PUSH2 0x33E0 DUP6 DUP6 DUP2 MLOAD DUP2 LT PUSH2 0x33D1 JUMPI INVALID JUMPDEST PUSH1 0x20 MUL PUSH1 0x20 ADD ADD MLOAD DUP5 DUP5 PUSH2 0x31EE JUMP JUMPDEST DUP6 DUP6 PUSH1 0x1 ADD DUP2 MLOAD DUP2 LT PUSH2 0x33EF JUMPI INVALID JUMPDEST PUSH1 0x20 SWAP1 DUP2 MUL SWAP2 SWAP1 SWAP2 ADD ADD MSTORE DUP4 PUSH2 0x3403 JUMPI DUP1 SWAP6 POP JUMPDEST POP POP POP PUSH1 0x1 ADD PUSH2 0x333F JUMP JUMPDEST POP SWAP5 POP SWAP5 SWAP3 POP POP POP JUMP JUMPDEST PUSH1 0x0 PUSH1 0x60 DUP6 PUSH20 0xFFFFFFFFFFFFFFFFFFFFFFFFFFFFFFFFFFFFFFFF AND PUSH4 0x23B872DD DUP7 DUP7 DUP7 PUSH1 0x40 MLOAD PUSH1 0x24 ADD PUSH2 0x344D SWAP4 SWAP3 SWAP2 SWAP1 PUSH2 0x508A JUMP JUMPDEST PUSH1 0x40 MLOAD PUSH1 0x20 DUP2 DUP4 SUB SUB DUP2 MSTORE SWAP1 PUSH1 0x40 MSTORE SWAP1 PUSH1 0xE0 SHL PUSH1 0x20 DUP3 ADD DUP1 MLOAD PUSH28 0xFFFFFFFFFFFFFFFFFFFFFFFFFFFFFFFFFFFFFFFFFFFFFFFFFFFFFFFF DUP4 DUP2 DUP4 AND OR DUP4 MSTORE POP POP POP POP PUSH1 0x40 MLOAD PUSH2 0x349B SWAP2 SWAP1 PUSH2 0x4F7E JUMP JUMPDEST PUSH1 0x0 PUSH1 0x40 MLOAD DUP1 DUP4 SUB DUP2 PUSH1 0x0 DUP7 GAS CALL SWAP2 POP POP RETURNDATASIZE DUP1 PUSH1 0x0 DUP2 EQ PUSH2 0x34D8 JUMPI PUSH1 0x40 MLOAD SWAP2 POP PUSH1 0x1F NOT PUSH1 0x3F RETURNDATASIZE ADD AND DUP3 ADD PUSH1 0x40 MSTORE RETURNDATASIZE DUP3 MSTORE RETURNDATASIZE PUSH1 0x0 PUSH1 0x20 DUP5 ADD RETURNDATACOPY PUSH2 0x34DD JUMP JUMPDEST PUSH1 0x60 SWAP2 POP JUMPDEST POP SWAP2 POP SWAP2 POP DUP2 DUP1 ISZERO PUSH2 0x3507 JUMPI POP DUP1 MLOAD ISZERO DUP1 PUSH2 0x3507 JUMPI POP DUP1 DUP1 PUSH1 0x20 ADD SWAP1 MLOAD DUP2 ADD SWAP1 PUSH2 0x3507 SWAP2 SWAP1 PUSH2 0x4B83 JUMP JUMPDEST PUSH2 0x353D JUMPI PUSH1 0x40 MLOAD PUSH32 0x8C379A000000000000000000000000000000000000000000000000000000000 DUP2 MSTORE PUSH1 0x4 ADD PUSH2 0x589 SWAP1 PUSH2 0x575C JUMP JUMPDEST POP POP POP POP POP POP JUMP JUMPDEST PUSH1 0x0 JUMPDEST PUSH1 0x1 DUP4 MLOAD SUB DUP2 LT ISZERO PUSH2 0x36C9 JUMPI PUSH1 0x0 DUP1 DUP5 DUP4 DUP2 MLOAD DUP2 LT PUSH2 0x3563 JUMPI INVALID JUMPDEST PUSH1 0x20 MUL PUSH1 0x20 ADD ADD MLOAD DUP6 DUP5 PUSH1 0x1 ADD DUP2 MLOAD DUP2 LT PUSH2 0x357A JUMPI INVALID JUMPDEST PUSH1 0x20 MUL PUSH1 0x20 ADD ADD MLOAD SWAP2 POP SWAP2 POP PUSH1 0x0 DUP7 DUP5 PUSH1 0x1 ADD DUP2 MLOAD DUP2 LT PUSH2 0x3597 JUMPI INVALID JUMPDEST PUSH1 0x20 MUL PUSH1 0x20 ADD ADD MLOAD SWAP1 POP PUSH1 0x0 PUSH1 0x2 DUP8 MLOAD SUB DUP6 LT PUSH2 0x35B4 JUMPI DUP6 PUSH2 0x35F5 JUMP JUMPDEST PUSH2 0x35F5 PUSH32 0x0 DUP5 DUP10 DUP9 PUSH1 0x2 ADD DUP2 MLOAD DUP2 LT PUSH2 0x35E8 JUMPI INVALID JUMPDEST PUSH1 0x20 MUL PUSH1 0x20 ADD ADD MLOAD PUSH2 0x3910 JUMP JUMPDEST SWAP1 POP PUSH2 0x3622 PUSH32 0x0 DUP6 DUP6 PUSH2 0x3910 JUMP JUMPDEST PUSH1 0x40 DUP1 MLOAD PUSH1 0x0 DUP2 MSTORE PUSH1 0x20 DUP2 ADD SWAP2 DUP3 SWAP1 MSTORE PUSH32 0x1C6DA72400000000000000000000000000000000000000000000000000000000 SWAP1 SWAP2 MSTORE PUSH20 0xFFFFFFFFFFFFFFFFFFFFFFFFFFFFFFFFFFFFFFFF SWAP2 SWAP1 SWAP2 AND SWAP1 PUSH4 0x1C6DA724 SWAP1 PUSH2 0x3687 SWAP1 DUP6 SWAP1 DUP6 SWAP1 PUSH1 0x24 DUP2 ADD PUSH2 0x5830 JUMP JUMPDEST PUSH1 0x0 PUSH1 0x40 MLOAD DUP1 DUP4 SUB DUP2 PUSH1 0x0 DUP8 DUP1 EXTCODESIZE ISZERO DUP1 ISZERO PUSH2 0x36A1 JUMPI PUSH1 0x0 DUP1 REVERT JUMPDEST POP GAS CALL ISZERO DUP1 ISZERO PUSH2 0x36B5 JUMPI RETURNDATASIZE PUSH1 0x0 DUP1 RETURNDATACOPY RETURNDATASIZE PUSH1 0x0 REVERT JUMPDEST POP POP PUSH1 0x1 SWAP1 SWAP7 ADD SWAP6 POP PUSH2 0x3548 SWAP5 POP POP POP POP POP JUMP JUMPDEST POP POP POP POP JUMP JUMPDEST PUSH1 0x40 DUP1 MLOAD PUSH1 0x0 DUP1 DUP3 MSTORE PUSH1 0x20 DUP3 ADD SWAP1 SWAP3 MSTORE PUSH20 0xFFFFFFFFFFFFFFFFFFFFFFFFFFFFFFFFFFFFFFFF DUP5 AND SWAP1 DUP4 SWAP1 PUSH1 0x40 MLOAD PUSH2 0x3706 SWAP2 SWAP1 PUSH2 0x4F7E JUMP JUMPDEST PUSH1 0x0 PUSH1 0x40 MLOAD DUP1 DUP4 SUB DUP2 DUP6 DUP8 GAS CALL SWAP3 POP POP POP RETURNDATASIZE DUP1 PUSH1 0x0 DUP2 EQ PUSH2 0x3743 JUMPI PUSH1 0x40 MLOAD SWAP2 POP PUSH1 0x1F NOT PUSH1 0x3F RETURNDATASIZE ADD AND DUP3 ADD PUSH1 0x40 MSTORE RETURNDATASIZE DUP3 MSTORE RETURNDATASIZE PUSH1 0x0 PUSH1 0x20 DUP5 ADD RETURNDATACOPY PUSH2 0x3748 JUMP JUMPDEST PUSH1 0x60 SWAP2 POP JUMPDEST POP POP SWAP1 POP DUP1 PUSH2 0x3783 JUMPI PUSH1 0x40 MLOAD PUSH32 0x8C379A000000000000000000000000000000000000000000000000000000000 DUP2 MSTORE PUSH1 0x4 ADD PUSH2 0x589 SWAP1 PUSH2 0x560E JUMP JUMPDEST POP POP POP JUMP JUMPDEST PUSH1 0x60 PUSH1 0x2 DUP3 LT ISZERO PUSH2 0x37C5 JUMPI PUSH1 0x40 MLOAD PUSH32 0x8C379A000000000000000000000000000000000000000000000000000000000 DUP2 MSTORE PUSH1 0x4 ADD PUSH2 0x589 SWAP1 PUSH2 0x54AF JUMP JUMPDEST DUP2 PUSH8 0xFFFFFFFFFFFFFFFF DUP2 GT DUP1 ISZERO PUSH2 0x37DC JUMPI PUSH1 0x0 DUP1 REVERT JUMPDEST POP PUSH1 0x40 MLOAD SWAP1 DUP1 DUP3 MSTORE DUP1 PUSH1 0x20 MUL PUSH1 0x20 ADD DUP3 ADD PUSH1 0x40 MSTORE DUP1 ISZERO PUSH2 0x3806 JUMPI DUP2 PUSH1 0x20 ADD PUSH1 0x20 DUP3 MUL DUP1 CALLDATASIZE DUP4 CALLDATACOPY ADD SWAP1 POP JUMPDEST POP SWAP1 POP DUP4 DUP2 PUSH1 0x1 DUP4 MLOAD SUB DUP2 MLOAD DUP2 LT PUSH2 0x381A JUMPI INVALID JUMPDEST PUSH1 0x20 SWAP1 DUP2 MUL SWAP2 SWAP1 SWAP2 ADD ADD MSTORE PUSH32 0xFFFFFFFFFFFFFFFFFFFFFFFFFFFFFFFFFFFFFFFFFFFFFFFFFFFFFFFFFFFFFFFF DUP3 ADD JUMPDEST DUP1 ISZERO PUSH2 0x3907 JUMPI PUSH1 0x0 DUP1 PUSH2 0x38A0 DUP9 DUP8 DUP8 PUSH1 0x1 DUP8 SUB DUP2 DUP2 LT PUSH2 0x3865 JUMPI INVALID JUMPDEST SWAP1 POP PUSH1 0x20 MUL ADD PUSH1 0x20 DUP2 ADD SWAP1 PUSH2 0x387A SWAP2 SWAP1 PUSH2 0x4A2D JUMP JUMPDEST DUP9 DUP9 DUP8 DUP2 DUP2 LT PUSH2 0x3886 JUMPI INVALID JUMPDEST SWAP1 POP PUSH1 0x20 MUL ADD PUSH1 0x20 DUP2 ADD SWAP1 PUSH2 0x389B SWAP2 SWAP1 PUSH2 0x4A2D JUMP JUMPDEST PUSH2 0x4882 JUMP JUMPDEST POP POP SWAP2 POP SWAP2 POP PUSH2 0x38C4 DUP5 DUP5 DUP2 MLOAD DUP2 LT PUSH2 0x38B5 JUMPI INVALID JUMPDEST PUSH1 0x20 MUL PUSH1 0x20 ADD ADD MLOAD DUP4 DUP4 PUSH2 0x42A1 JUMP JUMPDEST DUP5 PUSH1 0x1 DUP6 SUB DUP2 MLOAD DUP2 LT PUSH2 0x38D3 JUMPI INVALID JUMPDEST PUSH1 0x20 SWAP1 DUP2 MUL SWAP2 SWAP1 SWAP2 ADD ADD MSTORE POP POP PUSH32 0xFFFFFFFFFFFFFFFFFFFFFFFFFFFFFFFFFFFFFFFFFFFFFFFFFFFFFFFFFFFFFFFF ADD PUSH2 0x3849 JUMP JUMPDEST POP SWAP5 SWAP4 POP POP POP POP JUMP JUMPDEST PUSH1 0x0 DUP4 DUP4 DUP4 PUSH1 0x40 MLOAD PUSH1 0x20 ADD PUSH2 0x3926 SWAP3 SWAP2 SWAP1 PUSH2 0x4F44 JUMP JUMPDEST PUSH1 0x40 MLOAD PUSH1 0x20 DUP2 DUP4 SUB SUB DUP2 MSTORE SWAP1 PUSH1 0x40 MSTORE DUP1 MLOAD SWAP1 PUSH1 0x20 ADD KECCAK256 PUSH1 0x40 MLOAD PUSH1 0x20 ADD PUSH2 0x394D SWAP3 SWAP2 SWAP1 PUSH2 0x4F9A JUMP JUMPDEST PUSH1 0x40 DUP1 MLOAD PUSH32 0xFFFFFFFFFFFFFFFFFFFFFFFFFFFFFFFFFFFFFFFFFFFFFFFFFFFFFFFFFFFFFFE0 DUP2 DUP5 SUB ADD DUP2 MSTORE SWAP2 SWAP1 MSTORE DUP1 MLOAD PUSH1 0x20 SWAP1 SWAP2 ADD KECCAK256 SWAP5 SWAP4 POP POP POP POP JUMP JUMPDEST PUSH1 0x0 JUMPDEST PUSH1 0x1 DUP4 MLOAD SUB DUP2 LT ISZERO PUSH2 0x3783 JUMPI PUSH1 0x0 DUP1 DUP5 DUP4 DUP2 MLOAD DUP2 LT PUSH2 0x39A9 JUMPI INVALID JUMPDEST PUSH1 0x20 MUL PUSH1 0x20 ADD ADD MLOAD DUP6 DUP5 PUSH1 0x1 ADD DUP2 MLOAD DUP2 LT PUSH2 0x39C0 JUMPI INVALID JUMPDEST PUSH1 0x20 MUL PUSH1 0x20 ADD ADD MLOAD SWAP2 POP SWAP2 POP PUSH1 0x0 PUSH2 0x39F9 PUSH32 0x0 DUP5 DUP5 PUSH2 0x3910 JUMP JUMPDEST SWAP1 POP PUSH1 0x0 DUP1 PUSH1 0x0 DUP1 DUP5 PUSH20 0xFFFFFFFFFFFFFFFFFFFFFFFFFFFFFFFFFFFFFFFF AND PUSH4 0x902F1AC PUSH1 0x40 MLOAD DUP2 PUSH4 0xFFFFFFFF AND PUSH1 0xE0 SHL DUP2 MSTORE PUSH1 0x4 ADD PUSH1 0x80 PUSH1 0x40 MLOAD DUP1 DUP4 SUB DUP2 DUP7 DUP1 EXTCODESIZE ISZERO DUP1 ISZERO PUSH2 0x3A47 JUMPI PUSH1 0x0 DUP1 REVERT JUMPDEST POP GAS STATICCALL ISZERO DUP1 ISZERO PUSH2 0x3A5B JUMPI RETURNDATASIZE PUSH1 0x0 DUP1 RETURNDATACOPY RETURNDATASIZE PUSH1 0x0 REVERT JUMPDEST POP POP POP POP PUSH1 0x40 MLOAD RETURNDATASIZE PUSH1 0x1F NOT PUSH1 0x1F DUP3 ADD AND DUP3 ADD DUP1 PUSH1 0x40 MSTORE POP DUP2 ADD SWAP1 PUSH2 0x3A7F SWAP2 SWAP1 PUSH2 0x4D10 JUMP JUMPDEST POP POP PUSH14 0xFFFFFFFFFFFFFFFFFFFFFFFFFFFF AND SWAP2 POP PUSH14 0xFFFFFFFFFFFFFFFFFFFFFFFFFFFF AND SWAP2 POP PUSH2 0x3AE2 DUP3 DUP9 PUSH20 0xFFFFFFFFFFFFFFFFFFFFFFFFFFFFFFFFFFFFFFFF AND PUSH4 0x70A08231 DUP9 PUSH1 0x40 MLOAD DUP3 PUSH4 0xFFFFFFFF AND PUSH1 0xE0 SHL DUP2 MSTORE PUSH1 0x4 ADD PUSH2 0xBD1 SWAP2 SWAP1 PUSH2 0x501B JUMP JUMPDEST SWAP4 POP PUSH2 0x3AEF DUP5 DUP4 DUP4 PUSH2 0x31EE JUMP JUMPDEST SWAP3 POP POP POP PUSH1 0x0 PUSH1 0x2 DUP10 MLOAD SUB DUP8 LT PUSH2 0x3B06 JUMPI DUP8 PUSH2 0x3B3A JUMP JUMPDEST PUSH2 0x3B3A PUSH32 0x0 DUP7 DUP12 DUP11 PUSH1 0x2 ADD DUP2 MLOAD DUP2 LT PUSH2 0x35E8 JUMPI INVALID JUMPDEST PUSH1 0x40 DUP1 MLOAD PUSH1 0x0 DUP2 MSTORE PUSH1 0x20 DUP2 ADD SWAP2 DUP3 SWAP1 MSTORE PUSH32 0x1C6DA72400000000000000000000000000000000000000000000000000000000 SWAP1 SWAP2 MSTORE SWAP1 SWAP2 POP PUSH20 0xFFFFFFFFFFFFFFFFFFFFFFFFFFFFFFFFFFFFFFFF DUP6 AND SWAP1 PUSH4 0x1C6DA724 SWAP1 PUSH2 0x3BA0 SWAP1 DUP6 SWAP1 DUP6 SWAP1 PUSH1 0x24 DUP2 ADD PUSH2 0x5830 JUMP JUMPDEST PUSH1 0x0 PUSH1 0x40 MLOAD DUP1 DUP4 SUB DUP2 PUSH1 0x0 DUP8 DUP1 EXTCODESIZE ISZERO DUP1 ISZERO PUSH2 0x3BBA JUMPI PUSH1 0x0 DUP1 REVERT JUMPDEST POP GAS CALL ISZERO DUP1 ISZERO PUSH2 0x3BCE JUMPI RETURNDATASIZE PUSH1 0x0 DUP1 RETURNDATACOPY RETURNDATASIZE PUSH1 0x0 REVERT JUMPDEST POP POP PUSH1 0x1 SWAP1 SWAP9 ADD SWAP8 POP PUSH2 0x398E SWAP7 POP POP POP POP POP POP POP JUMP JUMPDEST DUP1 DUP3 SUB DUP3 DUP2 GT ISZERO PUSH2 0x3C21 JUMPI PUSH1 0x40 MLOAD PUSH32 0x8C379A000000000000000000000000000000000000000000000000000000000 DUP2 MSTORE PUSH1 0x4 ADD PUSH2 0x589 SWAP1 PUSH2 0x5183 JUMP JUMPDEST SWAP3 SWAP2 POP POP JUMP JUMPDEST PUSH1 0x0 PUSH1 0x60 PUSH1 0x2 DUP4 LT ISZERO PUSH2 0x3C66 JUMPI PUSH1 0x40 MLOAD PUSH32 0x8C379A000000000000000000000000000000000000000000000000000000000 DUP2 MSTORE PUSH1 0x4 ADD PUSH2 0x589 SWAP1 PUSH2 0x54AF JUMP JUMPDEST DUP3 PUSH8 0xFFFFFFFFFFFFFFFF DUP2 GT DUP1 ISZERO PUSH2 0x3C7D JUMPI PUSH1 0x0 DUP1 REVERT JUMPDEST POP PUSH1 0x40 MLOAD SWAP1 DUP1 DUP3 MSTORE DUP1 PUSH1 0x20 MUL PUSH1 0x20 ADD DUP3 ADD PUSH1 0x40 MSTORE DUP1 ISZERO PUSH2 0x3CA7 JUMPI DUP2 PUSH1 0x20 ADD PUSH1 0x20 DUP3 MUL DUP1 CALLDATASIZE DUP4 CALLDATACOPY ADD SWAP1 POP JUMPDEST POP SWAP1 POP DUP5 DUP2 PUSH1 0x1 DUP4 MLOAD SUB DUP2 MLOAD DUP2 LT PUSH2 0x3CBB JUMPI INVALID JUMPDEST PUSH1 0x20 SWAP1 DUP2 MUL SWAP2 SWAP1 SWAP2 ADD ADD MSTORE PUSH1 0x0 DUP1 PUSH32 0xFFFFFFFFFFFFFFFFFFFFFFFFFFFFFFFFFFFFFFFFFFFFFFFFFFFFFFFFFFFFFFFF DUP6 ADD JUMPDEST DUP1 ISZERO PUSH2 0x3D91 JUMPI PUSH2 0x3D27 DUP10 DUP9 DUP9 PUSH1 0x1 DUP6 SUB DUP2 DUP2 LT PUSH2 0x3D06 JUMPI INVALID JUMPDEST SWAP1 POP PUSH1 0x20 MUL ADD PUSH1 0x20 DUP2 ADD SWAP1 PUSH2 0x3D1B SWAP2 SWAP1 PUSH2 0x4A2D JUMP JUMPDEST DUP10 DUP10 DUP6 DUP2 DUP2 LT PUSH2 0x33A2 JUMPI INVALID JUMPDEST DUP7 MLOAD SWAP1 SWAP8 POP SWAP2 SWAP5 POP SWAP3 POP PUSH2 0x3D50 SWAP1 DUP6 SWAP1 DUP4 SWAP1 DUP2 LT PUSH2 0x3D41 JUMPI INVALID JUMPDEST PUSH1 0x20 MUL PUSH1 0x20 ADD ADD MLOAD DUP5 DUP5 PUSH2 0x42A1 JUMP JUMPDEST DUP5 PUSH1 0x1 DUP4 SUB DUP2 MLOAD DUP2 LT PUSH2 0x3D5F JUMPI INVALID JUMPDEST PUSH1 0x20 SWAP1 DUP2 MUL SWAP2 SWAP1 SWAP2 ADD ADD MSTORE PUSH32 0xFFFFFFFFFFFFFFFFFFFFFFFFFFFFFFFFFFFFFFFFFFFFFFFFFFFFFFFFFFFFFFFF ADD PUSH2 0x3CED JUMP JUMPDEST POP POP POP SWAP5 POP SWAP5 SWAP3 POP POP POP JUMP JUMPDEST PUSH1 0x0 DUP2 ISZERO DUP1 PUSH2 0x3DB8 JUMPI POP POP DUP1 DUP3 MUL DUP3 DUP3 DUP3 DUP2 PUSH2 0x3DB5 JUMPI INVALID JUMPDEST DIV EQ JUMPDEST PUSH2 0x3C21 JUMPI PUSH1 0x40 MLOAD PUSH32 0x8C379A000000000000000000000000000000000000000000000000000000000 DUP2 MSTORE PUSH1 0x4 ADD PUSH2 0x589 SWAP1 PUSH2 0x5296 JUMP JUMPDEST PUSH1 0x0 DUP1 PUSH1 0x0 PUSH32 0x0 PUSH20 0xFFFFFFFFFFFFFFFFFFFFFFFFFFFFFFFFFFFFFFFF AND PUSH4 0xE6A43905 DUP11 DUP11 PUSH1 0x40 MLOAD DUP4 PUSH4 0xFFFFFFFF AND PUSH1 0xE0 SHL DUP2 MSTORE PUSH1 0x4 ADD PUSH2 0x3E4E SWAP3 SWAP2 SWAP1 PUSH2 0x50BB JUMP JUMPDEST PUSH1 0x20 PUSH1 0x40 MLOAD DUP1 DUP4 SUB DUP2 DUP7 DUP1 EXTCODESIZE ISZERO DUP1 ISZERO PUSH2 0x3E66 JUMPI PUSH1 0x0 DUP1 REVERT JUMPDEST POP GAS STATICCALL ISZERO DUP1 ISZERO PUSH2 0x3E7A JUMPI RETURNDATASIZE PUSH1 0x0 DUP1 RETURNDATACOPY RETURNDATASIZE PUSH1 0x0 REVERT JUMPDEST POP POP POP POP PUSH1 0x40 MLOAD RETURNDATASIZE PUSH1 0x1F NOT PUSH1 0x1F DUP3 ADD AND DUP3 ADD DUP1 PUSH1 0x40 MSTORE POP DUP2 ADD SWAP1 PUSH2 0x3E9E SWAP2 SWAP1 PUSH2 0x4A50 JUMP JUMPDEST SWAP1 POP PUSH20 0xFFFFFFFFFFFFFFFFFFFFFFFFFFFFFFFFFFFFFFFF DUP2 AND PUSH2 0x3EED JUMPI PUSH1 0x40 MLOAD PUSH32 0x8C379A000000000000000000000000000000000000000000000000000000000 DUP2 MSTORE PUSH1 0x4 ADD PUSH2 0x589 SWAP1 PUSH2 0x57B9 JUMP JUMPDEST PUSH1 0x0 DUP1 DUP3 PUSH20 0xFFFFFFFFFFFFFFFFFFFFFFFFFFFFFFFFFFFFFFFF AND PUSH4 0x902F1AC PUSH1 0x40 MLOAD DUP2 PUSH4 0xFFFFFFFF AND PUSH1 0xE0 SHL DUP2 MSTORE PUSH1 0x4 ADD PUSH1 0x80 PUSH1 0x40 MLOAD DUP1 DUP4 SUB DUP2 DUP7 DUP1 EXTCODESIZE ISZERO DUP1 ISZERO PUSH2 0x3F36 JUMPI PUSH1 0x0 DUP1 REVERT JUMPDEST POP GAS STATICCALL ISZERO DUP1 ISZERO PUSH2 0x3F4A JUMPI RETURNDATASIZE PUSH1 0x0 DUP1 RETURNDATACOPY RETURNDATASIZE PUSH1 0x0 REVERT JUMPDEST POP POP POP POP PUSH1 0x40 MLOAD RETURNDATASIZE PUSH1 0x1F NOT PUSH1 0x1F DUP3 ADD AND DUP3 ADD DUP1 PUSH1 0x40 MSTORE POP DUP2 ADD SWAP1 PUSH2 0x3F6E SWAP2 SWAP1 PUSH2 0x4D10 JUMP JUMPDEST POP POP PUSH14 0xFFFFFFFFFFFFFFFFFFFFFFFFFFFF AND SWAP2 POP PUSH14 0xFFFFFFFFFFFFFFFFFFFFFFFFFFFF AND SWAP2 POP DUP2 PUSH1 0x0 EQ DUP1 ISZERO PUSH2 0x3FA2 JUMPI POP DUP1 ISZERO JUMPDEST ISZERO PUSH2 0x3FB2 JUMPI DUP9 SWAP5 POP DUP8 SWAP4 POP PUSH2 0x4068 JUMP JUMPDEST PUSH1 0x0 PUSH2 0x3FBF DUP11 DUP5 DUP5 PUSH2 0x4473 JUMP JUMPDEST SWAP1 POP DUP9 DUP2 GT PUSH2 0x400D JUMPI DUP7 DUP2 LT ISZERO PUSH2 0x4002 JUMPI PUSH1 0x40 MLOAD PUSH32 0x8C379A000000000000000000000000000000000000000000000000000000000 DUP2 MSTORE PUSH1 0x4 ADD PUSH2 0x589 SWAP1 PUSH2 0x57F0 JUMP JUMPDEST DUP10 SWAP6 POP SWAP4 POP DUP4 PUSH2 0x4066 JUMP JUMPDEST PUSH1 0x0 PUSH2 0x401A DUP11 DUP5 DUP7 PUSH2 0x4473 JUMP JUMPDEST SWAP1 POP DUP11 DUP2 GT ISZERO PUSH2 0x4026 JUMPI INVALID JUMPDEST DUP9 DUP2 LT ISZERO PUSH2 0x4060 JUMPI PUSH1 0x40 MLOAD PUSH32 0x8C379A000000000000000000000000000000000000000000000000000000000 DUP2 MSTORE PUSH1 0x4 ADD PUSH2 0x589 SWAP1 PUSH2 0x5725 JUMP JUMPDEST SWAP6 POP DUP9 SWAP5 POP JUMPDEST POP JUMPDEST POP POP SWAP7 POP SWAP7 POP SWAP7 SWAP4 POP POP POP POP JUMP JUMPDEST PUSH1 0x20 DUP3 ADD CALLDATALOAD ISZERO PUSH2 0x4188 JUMPI PUSH1 0x0 PUSH2 0x40C3 PUSH32 0x0 PUSH2 0x40B3 PUSH1 0x20 DUP10 ADD DUP10 PUSH2 0x4A2D JUMP JUMPDEST PUSH2 0xA39 PUSH1 0x40 DUP11 ADD PUSH1 0x20 DUP12 ADD PUSH2 0x4A2D JUMP JUMPDEST SWAP1 POP PUSH1 0x0 DUP5 PUSH2 0x40D6 JUMPI DUP7 PUSH1 0x40 ADD CALLDATALOAD PUSH2 0x40F8 JUMP JUMPDEST PUSH32 0xFFFFFFFFFFFFFFFFFFFFFFFFFFFFFFFFFFFFFFFFFFFFFFFFFFFFFFFFFFFFFFFF JUMPDEST SWAP1 POP PUSH20 0xFFFFFFFFFFFFFFFFFFFFFFFFFFFFFFFFFFFFFFFF DUP3 AND PUSH4 0xD505ACCF CALLER ADDRESS DUP5 DUP11 PUSH2 0x4127 PUSH1 0x20 DUP12 ADD DUP12 PUSH2 0x4F23 JUMP JUMPDEST DUP11 PUSH1 0x20 ADD CALLDATALOAD DUP12 PUSH1 0x40 ADD CALLDATALOAD PUSH1 0x40 MLOAD DUP9 PUSH4 0xFFFFFFFF AND PUSH1 0xE0 SHL DUP2 MSTORE PUSH1 0x4 ADD PUSH2 0x4153 SWAP8 SWAP7 SWAP6 SWAP5 SWAP4 SWAP3 SWAP2 SWAP1 PUSH2 0x503C JUMP JUMPDEST PUSH1 0x0 PUSH1 0x40 MLOAD DUP1 DUP4 SUB DUP2 PUSH1 0x0 DUP8 DUP1 EXTCODESIZE ISZERO DUP1 ISZERO PUSH2 0x416D JUMPI PUSH1 0x0 DUP1 REVERT JUMPDEST POP GAS CALL ISZERO DUP1 ISZERO PUSH2 0x4181 JUMPI RETURNDATASIZE PUSH1 0x0 DUP1 RETURNDATACOPY RETURNDATASIZE PUSH1 0x0 REVERT JUMPDEST POP POP POP POP POP POP JUMPDEST PUSH1 0x20 DUP2 ADD CALLDATALOAD ISZERO PUSH2 0x429A JUMPI PUSH1 0x0 PUSH2 0x41D5 PUSH32 0x0 PUSH2 0x41C8 PUSH1 0x40 DUP10 ADD PUSH1 0x20 DUP11 ADD PUSH2 0x4A2D JUMP JUMPDEST PUSH2 0xA39 PUSH1 0x20 DUP11 ADD DUP11 PUSH2 0x4A2D JUMP JUMPDEST SWAP1 POP PUSH1 0x0 DUP5 PUSH2 0x41E8 JUMPI DUP7 PUSH1 0x60 ADD CALLDATALOAD PUSH2 0x420A JUMP JUMPDEST PUSH32 0xFFFFFFFFFFFFFFFFFFFFFFFFFFFFFFFFFFFFFFFFFFFFFFFFFFFFFFFFFFFFFFFF JUMPDEST SWAP1 POP PUSH20 0xFFFFFFFFFFFFFFFFFFFFFFFFFFFFFFFFFFFFFFFF DUP3 AND PUSH4 0xD505ACCF CALLER ADDRESS DUP5 DUP11 PUSH2 0x4239 PUSH1 0x20 DUP11 ADD DUP11 PUSH2 0x4F23 JUMP JUMPDEST DUP10 PUSH1 0x20 ADD CALLDATALOAD DUP11 PUSH1 0x40 ADD CALLDATALOAD PUSH1 0x40 MLOAD DUP9 PUSH4 0xFFFFFFFF AND PUSH1 0xE0 SHL DUP2 MSTORE PUSH1 0x4 ADD PUSH2 0x4265 SWAP8 SWAP7 SWAP6 SWAP5 SWAP4 SWAP3 SWAP2 SWAP1 PUSH2 0x503C JUMP JUMPDEST PUSH1 0x0 PUSH1 0x40 MLOAD DUP1 DUP4 SUB DUP2 PUSH1 0x0 DUP8 DUP1 EXTCODESIZE ISZERO DUP1 ISZERO PUSH2 0x427F JUMPI PUSH1 0x0 DUP1 REVERT JUMPDEST POP GAS CALL ISZERO DUP1 ISZERO PUSH2 0x4293 JUMPI RETURNDATASIZE PUSH1 0x0 DUP1 RETURNDATACOPY RETURNDATASIZE PUSH1 0x0 REVERT JUMPDEST POP POP POP POP POP POP JUMPDEST POP POP POP POP POP JUMP JUMPDEST PUSH1 0x0 DUP1 DUP5 GT PUSH2 0x42DC JUMPI PUSH1 0x40 MLOAD PUSH32 0x8C379A000000000000000000000000000000000000000000000000000000000 DUP2 MSTORE PUSH1 0x4 ADD PUSH2 0x589 SWAP1 PUSH2 0x566B JUMP JUMPDEST PUSH1 0x0 DUP4 GT DUP1 ISZERO PUSH2 0x42EC JUMPI POP PUSH1 0x0 DUP3 GT JUMPDEST PUSH2 0x4322 JUMPI PUSH1 0x40 MLOAD PUSH32 0x8C379A000000000000000000000000000000000000000000000000000000000 DUP2 MSTORE PUSH1 0x4 ADD PUSH2 0x589 SWAP1 PUSH2 0x52CD JUMP JUMPDEST PUSH1 0x0 PUSH2 0x432E DUP5 DUP7 PUSH2 0x3D9D JUMP JUMPDEST SWAP1 POP PUSH1 0x0 PUSH2 0x433C DUP5 DUP8 PUSH2 0x3BE4 JUMP JUMPDEST SWAP1 POP DUP1 PUSH2 0x4349 DUP4 DUP3 PUSH2 0x4656 JUMP JUMPDEST DUP2 PUSH2 0x3294 JUMPI INVALID JUMPDEST PUSH1 0x0 PUSH1 0x60 DUP5 PUSH20 0xFFFFFFFFFFFFFFFFFFFFFFFFFFFFFFFFFFFFFFFF AND PUSH4 0xA9059CBB DUP6 DUP6 PUSH1 0x40 MLOAD PUSH1 0x24 ADD PUSH2 0x4383 SWAP3 SWAP2 SWAP1 PUSH2 0x5119 JUMP JUMPDEST PUSH1 0x40 MLOAD PUSH1 0x20 DUP2 DUP4 SUB SUB DUP2 MSTORE SWAP1 PUSH1 0x40 MSTORE SWAP1 PUSH1 0xE0 SHL PUSH1 0x20 DUP3 ADD DUP1 MLOAD PUSH28 0xFFFFFFFFFFFFFFFFFFFFFFFFFFFFFFFFFFFFFFFFFFFFFFFFFFFFFFFF DUP4 DUP2 DUP4 AND OR DUP4 MSTORE POP POP POP POP PUSH1 0x40 MLOAD PUSH2 0x43D1 SWAP2 SWAP1 PUSH2 0x4F7E JUMP JUMPDEST PUSH1 0x0 PUSH1 0x40 MLOAD DUP1 DUP4 SUB DUP2 PUSH1 0x0 DUP7 GAS CALL SWAP2 POP POP RETURNDATASIZE DUP1 PUSH1 0x0 DUP2 EQ PUSH2 0x440E JUMPI PUSH1 0x40 MLOAD SWAP2 POP PUSH1 0x1F NOT PUSH1 0x3F RETURNDATASIZE ADD AND DUP3 ADD PUSH1 0x40 MSTORE RETURNDATASIZE DUP3 MSTORE RETURNDATASIZE PUSH1 0x0 PUSH1 0x20 DUP5 ADD RETURNDATACOPY PUSH2 0x4413 JUMP JUMPDEST PUSH1 0x60 SWAP2 POP JUMPDEST POP SWAP2 POP SWAP2 POP DUP2 DUP1 ISZERO PUSH2 0x443D JUMPI POP DUP1 MLOAD ISZERO DUP1 PUSH2 0x443D JUMPI POP DUP1 DUP1 PUSH1 0x20 ADD SWAP1 MLOAD DUP2 ADD SWAP1 PUSH2 0x443D SWAP2 SWAP1 PUSH2 0x4B83 JUMP JUMPDEST PUSH2 0x429A JUMPI PUSH1 0x40 MLOAD PUSH32 0x8C379A000000000000000000000000000000000000000000000000000000000 DUP2 MSTORE PUSH1 0x4 ADD PUSH2 0x589 SWAP1 PUSH2 0x51BA JUMP JUMPDEST PUSH1 0x0 DUP1 DUP5 GT PUSH2 0x44AE JUMPI PUSH1 0x40 MLOAD PUSH32 0x8C379A000000000000000000000000000000000000000000000000000000000 DUP2 MSTORE PUSH1 0x4 ADD PUSH2 0x589 SWAP1 PUSH2 0x5452 JUMP JUMPDEST PUSH1 0x0 DUP4 GT DUP1 ISZERO PUSH2 0x44BE JUMPI POP PUSH1 0x0 DUP3 GT JUMPDEST PUSH2 0x44F4 JUMPI PUSH1 0x40 MLOAD PUSH32 0x8C379A000000000000000000000000000000000000000000000000000000000 DUP2 MSTORE PUSH1 0x4 ADD PUSH2 0x589 SWAP1 PUSH2 0x52CD JUMP JUMPDEST DUP3 PUSH2 0x44FF DUP6 DUP5 PUSH2 0x3D9D JUMP JUMPDEST DUP2 PUSH2 0x4506 JUMPI INVALID JUMPDEST DIV SWAP5 SWAP4 POP POP POP POP JUMP JUMPDEST PUSH1 0x60 PUSH1 0x2 DUP3 LT ISZERO PUSH2 0x454C JUMPI PUSH1 0x40 MLOAD PUSH32 0x8C379A000000000000000000000000000000000000000000000000000000000 DUP2 MSTORE PUSH1 0x4 ADD PUSH2 0x589 SWAP1 PUSH2 0x54AF JUMP JUMPDEST DUP2 PUSH8 0xFFFFFFFFFFFFFFFF DUP2 GT DUP1 ISZERO PUSH2 0x4563 JUMPI PUSH1 0x0 DUP1 REVERT JUMPDEST POP PUSH1 0x40 MLOAD SWAP1 DUP1 DUP3 MSTORE DUP1 PUSH1 0x20 MUL PUSH1 0x20 ADD DUP3 ADD PUSH1 0x40 MSTORE DUP1 ISZERO PUSH2 0x458D JUMPI DUP2 PUSH1 0x20 ADD PUSH1 0x20 DUP3 MUL DUP1 CALLDATASIZE DUP4 CALLDATACOPY ADD SWAP1 POP JUMPDEST POP SWAP1 POP DUP4 DUP2 PUSH1 0x0 DUP2 MLOAD DUP2 LT PUSH2 0x459E JUMPI INVALID JUMPDEST PUSH1 0x20 MUL PUSH1 0x20 ADD ADD DUP2 DUP2 MSTORE POP POP PUSH1 0x0 JUMPDEST PUSH32 0xFFFFFFFFFFFFFFFFFFFFFFFFFFFFFFFFFFFFFFFFFFFFFFFFFFFFFFFFFFFFFFFF DUP4 ADD DUP2 LT ISZERO PUSH2 0x3907 JUMPI PUSH1 0x0 DUP1 PUSH2 0x460E DUP9 DUP8 DUP8 DUP7 DUP2 DUP2 LT PUSH2 0x45EA JUMPI INVALID JUMPDEST SWAP1 POP PUSH1 0x20 MUL ADD PUSH1 0x20 DUP2 ADD SWAP1 PUSH2 0x45FF SWAP2 SWAP1 PUSH2 0x4A2D JUMP JUMPDEST DUP9 DUP9 DUP8 PUSH1 0x1 ADD DUP2 DUP2 LT PUSH2 0x3886 JUMPI INVALID JUMPDEST POP POP SWAP2 POP SWAP2 POP PUSH2 0x4632 DUP5 DUP5 DUP2 MLOAD DUP2 LT PUSH2 0x4623 JUMPI INVALID JUMPDEST PUSH1 0x20 MUL PUSH1 0x20 ADD ADD MLOAD DUP4 DUP4 PUSH2 0x31EE JUMP JUMPDEST DUP5 DUP5 PUSH1 0x1 ADD DUP2 MLOAD DUP2 LT PUSH2 0x4641 JUMPI INVALID JUMPDEST PUSH1 0x20 SWAP1 DUP2 MUL SWAP2 SWAP1 SWAP2 ADD ADD MSTORE POP POP PUSH1 0x1 ADD PUSH2 0x45AD JUMP JUMPDEST DUP1 DUP3 ADD DUP3 DUP2 LT ISZERO PUSH2 0x3C21 JUMPI PUSH1 0x40 MLOAD PUSH32 0x8C379A000000000000000000000000000000000000000000000000000000000 DUP2 MSTORE PUSH1 0x4 ADD PUSH2 0x589 SWAP1 PUSH2 0x5361 JUMP JUMPDEST PUSH1 0x0 DUP1 PUSH1 0x0 PUSH2 0x46A3 DUP7 DUP7 DUP7 PUSH2 0x4882 JUMP JUMPDEST POP SWAP2 SWAP5 POP SWAP3 POP SWAP1 POP PUSH1 0x0 DUP1 DUP1 DUP1 PUSH2 0x46BB DUP11 DUP10 DUP12 PUSH2 0x4882 JUMP JUMPDEST SWAP3 SWAP7 POP SWAP1 SWAP5 POP SWAP3 POP SWAP1 POP PUSH1 0x0 PUSH2 0x46D1 DUP9 DUP7 PUSH2 0x3D9D JUMP JUMPDEST SWAP1 POP PUSH1 0x0 PUSH2 0x46DF DUP9 DUP7 PUSH2 0x3D9D JUMP JUMPDEST SWAP1 POP PUSH2 0x46EB DUP2 DUP5 PUSH2 0x3D9D JUMP JUMPDEST PUSH2 0x46F7 DUP4 PUSH2 0x2710 PUSH2 0x3D9D JUMP JUMPDEST GT ISZERO PUSH2 0x4873 JUMPI PUSH1 0x0 PUSH2 0x4709 DUP4 DUP4 PUSH2 0x3BE4 JUMP JUMPDEST SWAP1 POP PUSH1 0x0 PUSH2 0x4722 PUSH1 0x2 PUSH2 0x471C DUP14 DUP11 PUSH2 0x4656 JUMP JUMPDEST SWAP1 PUSH2 0x3D9D JUMP JUMPDEST SWAP1 POP PUSH1 0x0 PUSH2 0x4735 PUSH1 0x2 PUSH2 0x471C DUP14 DUP13 PUSH2 0x4656 JUMP JUMPDEST SWAP1 POP PUSH2 0x474C DUP15 DUP12 DUP10 DUP5 DUP8 DUP2 PUSH2 0x4746 JUMPI INVALID JUMPDEST DIV PUSH2 0x3418 JUMP JUMPDEST PUSH2 0x475B DUP14 DUP9 DUP13 DUP6 DUP8 DUP2 PUSH2 0x4746 JUMPI INVALID JUMPDEST DUP10 PUSH20 0xFFFFFFFFFFFFFFFFFFFFFFFFFFFFFFFFFFFFFFFF AND PUSH4 0xFFF6CAE9 PUSH1 0x40 MLOAD DUP2 PUSH4 0xFFFFFFFF AND PUSH1 0xE0 SHL DUP2 MSTORE PUSH1 0x4 ADD PUSH1 0x40 DUP1 MLOAD DUP1 DUP4 SUB DUP2 PUSH1 0x0 DUP8 DUP1 EXTCODESIZE ISZERO DUP1 ISZERO PUSH2 0x47A2 JUMPI PUSH1 0x0 DUP1 REVERT JUMPDEST POP GAS CALL ISZERO DUP1 ISZERO PUSH2 0x47B6 JUMPI RETURNDATASIZE PUSH1 0x0 DUP1 RETURNDATACOPY RETURNDATASIZE PUSH1 0x0 REVERT JUMPDEST POP POP POP POP PUSH1 0x40 MLOAD RETURNDATASIZE PUSH1 0x1F NOT PUSH1 0x1F DUP3 ADD AND DUP3 ADD DUP1 PUSH1 0x40 MSTORE POP DUP2 ADD SWAP1 PUSH2 0x47DA SWAP2 SWAP1 PUSH2 0x4CE2 JUMP JUMPDEST POP POP DUP7 PUSH20 0xFFFFFFFFFFFFFFFFFFFFFFFFFFFFFFFFFFFFFFFF AND PUSH4 0xFFF6CAE9 PUSH1 0x40 MLOAD DUP2 PUSH4 0xFFFFFFFF AND PUSH1 0xE0 SHL DUP2 MSTORE PUSH1 0x4 ADD PUSH1 0x40 DUP1 MLOAD DUP1 DUP4 SUB DUP2 PUSH1 0x0 DUP8 DUP1 EXTCODESIZE ISZERO DUP1 ISZERO PUSH2 0x4823 JUMPI PUSH1 0x0 DUP1 REVERT JUMPDEST POP GAS CALL ISZERO DUP1 ISZERO PUSH2 0x4837 JUMPI RETURNDATASIZE PUSH1 0x0 DUP1 RETURNDATACOPY RETURNDATASIZE PUSH1 0x0 REVERT JUMPDEST POP POP POP POP PUSH1 0x40 MLOAD RETURNDATASIZE PUSH1 0x1F NOT PUSH1 0x1F DUP3 ADD AND DUP3 ADD DUP1 PUSH1 0x40 MSTORE POP DUP2 ADD SWAP1 PUSH2 0x485B SWAP2 SWAP1 PUSH2 0x4CE2 JUMP JUMPDEST POP POP PUSH2 0x4868 DUP16 DUP16 DUP16 PUSH2 0x4882 JUMP JUMPDEST POP SWAP2 SWAP14 POP SWAP12 POP POP POP POP POP JUMPDEST POP POP POP POP POP POP SWAP4 POP SWAP4 POP SWAP4 SWAP1 POP JUMP JUMPDEST PUSH1 0x0 DUP1 PUSH1 0x0 DUP1 PUSH2 0x4893 DUP8 DUP8 DUP8 PUSH2 0x3910 JUMP JUMPDEST SWAP2 POP DUP2 PUSH20 0xFFFFFFFFFFFFFFFFFFFFFFFFFFFFFFFFFFFFFFFF AND PUSH4 0x902F1AC PUSH1 0x40 MLOAD DUP2 PUSH4 0xFFFFFFFF AND PUSH1 0xE0 SHL DUP2 MSTORE PUSH1 0x4 ADD PUSH1 0x80 PUSH1 0x40 MLOAD DUP1 DUP4 SUB DUP2 DUP7 DUP1 EXTCODESIZE ISZERO DUP1 ISZERO PUSH2 0x48DB JUMPI PUSH1 0x0 DUP1 REVERT JUMPDEST POP GAS STATICCALL ISZERO DUP1 ISZERO PUSH2 0x48EF JUMPI RETURNDATASIZE PUSH1 0x0 DUP1 RETURNDATACOPY RETURNDATASIZE PUSH1 0x0 REVERT JUMPDEST POP POP POP POP PUSH1 0x40 MLOAD RETURNDATASIZE PUSH1 0x1F NOT PUSH1 0x1F DUP3 ADD AND DUP3 ADD DUP1 PUSH1 0x40 MSTORE POP DUP2 ADD SWAP1 PUSH2 0x4913 SWAP2 SWAP1 PUSH2 0x4D10 JUMP JUMPDEST PUSH14 0xFFFFFFFFFFFFFFFFFFFFFFFFFFFF SWAP4 DUP5 AND SWAP12 SWAP3 SWAP1 SWAP4 AND SWAP10 POP SWAP4 SWAP8 POP SWAP1 SWAP6 POP SWAP4 POP POP POP POP JUMP JUMPDEST PUSH1 0x40 DUP1 MLOAD PUSH1 0xC0 DUP2 ADD DUP3 MSTORE PUSH1 0x0 DUP1 DUP3 MSTORE PUSH1 0x20 DUP3 ADD DUP2 SWAP1 MSTORE SWAP2 DUP2 ADD DUP3 SWAP1 MSTORE PUSH1 0x60 DUP2 ADD DUP3 SWAP1 MSTORE PUSH1 0x80 DUP2 ADD DUP3 SWAP1 MSTORE SWAP1 PUSH1 0xA0 DUP3 ADD MSTORE SWAP1 JUMP JUMPDEST DUP1 MLOAD PUSH2 0x3C21 DUP2 PUSH2 0x58FA JUMP JUMPDEST PUSH1 0x0 DUP1 DUP4 PUSH1 0x1F DUP5 ADD SLT PUSH2 0x4988 JUMPI DUP2 DUP3 REVERT JUMPDEST POP DUP2 CALLDATALOAD PUSH8 0xFFFFFFFFFFFFFFFF DUP2 GT ISZERO PUSH2 0x499F JUMPI DUP2 DUP3 REVERT JUMPDEST PUSH1 0x20 DUP4 ADD SWAP2 POP DUP4 PUSH1 0x20 DUP1 DUP4 MUL DUP6 ADD ADD GT ISZERO PUSH2 0x49B9 JUMPI PUSH1 0x0 DUP1 REVERT JUMPDEST SWAP3 POP SWAP3 SWAP1 POP JUMP JUMPDEST DUP1 MLOAD PUSH1 0x6 DUP2 LT PUSH2 0x3C21 JUMPI PUSH1 0x0 DUP1 REVERT JUMPDEST PUSH1 0x0 PUSH1 0xC0 DUP3 DUP5 SUB SLT ISZERO PUSH2 0x49E0 JUMPI DUP1 DUP2 REVERT JUMPDEST POP SWAP2 SWAP1 POP JUMP JUMPDEST PUSH1 0x0 PUSH1 0x60 DUP3 DUP5 SUB SLT ISZERO PUSH2 0x49E0 JUMPI DUP1 DUP2 REVERT JUMPDEST DUP1 MLOAD PUSH14 0xFFFFFFFFFFFFFFFFFFFFFFFFFFFF DUP2 AND DUP2 EQ PUSH2 0x3C21 JUMPI PUSH1 0x0 DUP1 REVERT JUMPDEST DUP1 MLOAD PUSH8 0xFFFFFFFFFFFFFFFF DUP2 AND DUP2 EQ PUSH2 0x3C21 JUMPI PUSH1 0x0 DUP1 REVERT JUMPDEST PUSH1 0x0 PUSH1 0x20 DUP3 DUP5 SUB SLT ISZERO PUSH2 0x4A3E JUMPI DUP1 DUP2 REVERT JUMPDEST DUP2 CALLDATALOAD PUSH2 0x4A49 DUP2 PUSH2 0x58FA JUMP JUMPDEST SWAP4 SWAP3 POP POP POP JUMP JUMPDEST PUSH1 0x0 PUSH1 0x20 DUP3 DUP5 SUB SLT ISZERO PUSH2 0x4A61 JUMPI DUP1 DUP2 REVERT JUMPDEST DUP2 MLOAD PUSH2 0x4A49 DUP2 PUSH2 0x58FA JUMP JUMPDEST PUSH1 0x0 DUP1 PUSH1 0x40 DUP4 DUP6 SUB SLT ISZERO PUSH2 0x4A7E JUMPI DUP1 DUP2 REVERT JUMPDEST DUP3 MLOAD PUSH2 0x4A89 DUP2 PUSH2 0x58FA JUMP JUMPDEST PUSH1 0x20 DUP5 ADD MLOAD SWAP1 SWAP3 POP PUSH2 0x4A9A DUP2 PUSH2 0x58FA JUMP JUMPDEST DUP1 SWAP2 POP POP SWAP3 POP SWAP3 SWAP1 POP JUMP JUMPDEST PUSH1 0x0 DUP1 DUP3 DUP5 SUB PUSH1 0xE0 DUP2 SLT ISZERO PUSH2 0x4AB8 JUMPI DUP3 DUP4 REVERT JUMPDEST DUP4 MLOAD PUSH2 0x4AC3 DUP2 PUSH2 0x58FA JUMP JUMPDEST SWAP3 POP PUSH1 0xC0 PUSH32 0xFFFFFFFFFFFFFFFFFFFFFFFFFFFFFFFFFFFFFFFFFFFFFFFFFFFFFFFFFFFFFFE0 DUP3 ADD SLT ISZERO PUSH2 0x4AF4 JUMPI DUP2 DUP3 REVERT JUMPDEST POP PUSH1 0x40 MLOAD PUSH1 0xC0 DUP2 ADD DUP2 DUP2 LT PUSH8 0xFFFFFFFFFFFFFFFF DUP3 GT OR ISZERO PUSH2 0x4B14 JUMPI DUP3 DUP4 REVERT JUMPDEST PUSH1 0x40 MSTORE PUSH2 0x4B24 DUP6 PUSH1 0x20 DUP7 ADD PUSH2 0x496C JUMP JUMPDEST DUP2 MSTORE PUSH2 0x4B33 DUP6 PUSH1 0x40 DUP7 ADD PUSH2 0x496C JUMP JUMPDEST PUSH1 0x20 DUP3 ADD MSTORE PUSH1 0x60 DUP5 ADD MLOAD PUSH1 0x40 DUP3 ADD MSTORE PUSH2 0x4B4F DUP6 PUSH1 0x80 DUP7 ADD PUSH2 0x4A15 JUMP JUMPDEST PUSH1 0x60 DUP3 ADD MSTORE PUSH2 0x4B61 DUP6 PUSH1 0xA0 DUP7 ADD PUSH2 0x4A15 JUMP JUMPDEST PUSH1 0x80 DUP3 ADD MSTORE PUSH2 0x4B73 DUP6 PUSH1 0xC0 DUP7 ADD PUSH2 0x49C0 JUMP JUMPDEST PUSH1 0xA0 DUP3 ADD MSTORE DUP1 SWAP2 POP POP SWAP3 POP SWAP3 SWAP1 POP JUMP JUMPDEST PUSH1 0x0 PUSH1 0x20 DUP3 DUP5 SUB SLT ISZERO PUSH2 0x4B94 JUMPI DUP1 DUP2 REVERT JUMPDEST DUP2 MLOAD PUSH2 0x4A49 DUP2 PUSH2 0x591F JUMP JUMPDEST PUSH1 0x0 DUP1 PUSH1 0x0 DUP4 DUP6 SUB PUSH1 0xE0 DUP2 SLT ISZERO PUSH2 0x4BB4 JUMPI DUP2 DUP3 REVERT JUMPDEST PUSH1 0xA0 DUP2 SLT ISZERO PUSH2 0x4BC1 JUMPI DUP2 DUP3 REVERT JUMPDEST POP DUP4 SWAP3 POP PUSH1 0xA0 DUP5 ADD CALLDATALOAD PUSH2 0x4BD3 DUP2 PUSH2 0x58FA JUMP JUMPDEST SWAP3 SWAP6 SWAP3 SWAP5 POP POP POP PUSH1 0xC0 SWAP2 SWAP1 SWAP2 ADD CALLDATALOAD SWAP1 JUMP JUMPDEST PUSH1 0x0 DUP1 PUSH1 0x0 DUP4 DUP6 SUB PUSH2 0x120 DUP2 SLT ISZERO PUSH2 0x4BFA JUMPI DUP4 DUP5 REVERT JUMPDEST PUSH1 0xE0 DUP2 SLT ISZERO PUSH2 0x4C07 JUMPI DUP4 DUP5 REVERT JUMPDEST POP DUP4 SWAP3 POP PUSH1 0xE0 DUP5 ADD CALLDATALOAD PUSH2 0x4C19 DUP2 PUSH2 0x58FA JUMP JUMPDEST SWAP3 SWAP6 SWAP3 SWAP5 POP POP POP PUSH2 0x100 SWAP2 SWAP1 SWAP2 ADD CALLDATALOAD SWAP1 JUMP JUMPDEST PUSH1 0x0 DUP1 PUSH1 0x0 PUSH2 0x100 DUP5 DUP7 SUB SLT ISZERO PUSH2 0x4C40 JUMPI DUP3 DUP4 REVERT JUMPDEST PUSH2 0x4C4A DUP6 DUP6 PUSH2 0x49CF JUMP JUMPDEST SWAP3 POP PUSH1 0xC0 DUP5 ADD CALLDATALOAD PUSH2 0x4C5A DUP2 PUSH2 0x58FA JUMP JUMPDEST SWAP3 SWAP6 SWAP3 SWAP5 POP POP POP PUSH1 0xE0 SWAP2 SWAP1 SWAP2 ADD CALLDATALOAD SWAP1 JUMP JUMPDEST PUSH1 0x0 DUP1 PUSH1 0x0 DUP1 PUSH1 0x0 DUP1 PUSH2 0x1E0 DUP8 DUP10 SUB SLT ISZERO PUSH2 0x4C84 JUMPI DUP4 DUP5 REVERT JUMPDEST PUSH2 0x4C8E DUP9 DUP9 PUSH2 0x49CF JUMP JUMPDEST SWAP6 POP PUSH1 0xC0 DUP8 ADD CALLDATALOAD PUSH2 0x4C9E DUP2 PUSH2 0x58FA JUMP JUMPDEST SWAP5 POP PUSH1 0xE0 DUP8 ADD CALLDATALOAD SWAP4 POP PUSH2 0x100 DUP8 ADD CALLDATALOAD PUSH2 0x4CB6 DUP2 PUSH2 0x591F JUMP JUMPDEST SWAP3 POP PUSH2 0x4CC6 DUP9 PUSH2 0x120 DUP10 ADD PUSH2 0x49E6 JUMP JUMPDEST SWAP2 POP PUSH2 0x4CD6 DUP9 PUSH2 0x180 DUP10 ADD PUSH2 0x49E6 JUMP JUMPDEST SWAP1 POP SWAP3 SWAP6 POP SWAP3 SWAP6 POP SWAP3 SWAP6 JUMP JUMPDEST PUSH1 0x0 DUP1 PUSH1 0x40 DUP4 DUP6 SUB SLT ISZERO PUSH2 0x4CF4 JUMPI DUP2 DUP3 REVERT JUMPDEST DUP3 MLOAD PUSH2 0x4CFF DUP2 PUSH2 0x592D JUMP JUMPDEST PUSH1 0x20 DUP5 ADD MLOAD SWAP1 SWAP3 POP PUSH2 0x4A9A DUP2 PUSH2 0x592D JUMP JUMPDEST PUSH1 0x0 DUP1 PUSH1 0x0 DUP1 PUSH1 0x80 DUP6 DUP8 SUB SLT ISZERO PUSH2 0x4D25 JUMPI DUP2 DUP3 REVERT JUMPDEST PUSH2 0x4D2F DUP7 DUP7 PUSH2 0x49F7 JUMP JUMPDEST SWAP4 POP PUSH2 0x4D3E DUP7 PUSH1 0x20 DUP8 ADD PUSH2 0x49F7 JUMP JUMPDEST SWAP3 POP PUSH1 0x40 DUP6 ADD MLOAD PUSH4 0xFFFFFFFF DUP2 AND DUP2 EQ PUSH2 0x4D56 JUMPI DUP3 DUP4 REVERT JUMPDEST PUSH1 0x60 SWAP6 SWAP1 SWAP6 ADD MLOAD SWAP4 SWAP7 SWAP3 SWAP6 POP POP POP JUMP JUMPDEST PUSH1 0x0 PUSH1 0x20 DUP3 DUP5 SUB SLT ISZERO PUSH2 0x4D77 JUMPI DUP1 DUP2 REVERT JUMPDEST POP MLOAD SWAP2 SWAP1 POP JUMP JUMPDEST PUSH1 0x0 DUP1 PUSH1 0x0 PUSH1 0x60 DUP5 DUP7 SUB SLT ISZERO PUSH2 0x4D92 JUMPI DUP1 DUP2 REVERT JUMPDEST DUP4 CALLDATALOAD SWAP3 POP PUSH1 0x20 DUP5 ADD CALLDATALOAD PUSH2 0x4DA4 DUP2 PUSH2 0x58FA JUMP JUMPDEST SWAP3 SWAP6 SWAP3 SWAP5 POP POP POP PUSH1 0x40 SWAP2 SWAP1 SWAP2 ADD CALLDATALOAD SWAP1 JUMP JUMPDEST PUSH1 0x0 DUP1 PUSH1 0x0 PUSH1 0x40 DUP5 DUP7 SUB SLT ISZERO PUSH2 0x4DC9 JUMPI DUP1 DUP2 REVERT JUMPDEST DUP4 CALLDATALOAD SWAP3 POP PUSH1 0x20 DUP5 ADD CALLDATALOAD PUSH8 0xFFFFFFFFFFFFFFFF DUP2 GT ISZERO PUSH2 0x4DE6 JUMPI DUP2 DUP3 REVERT JUMPDEST PUSH2 0x4DF2 DUP7 DUP3 DUP8 ADD PUSH2 0x4977 JUMP JUMPDEST SWAP5 SWAP8 SWAP1 SWAP7 POP SWAP4 SWAP5 POP POP POP POP JUMP JUMPDEST PUSH1 0x0 DUP1 PUSH1 0x0 DUP1 PUSH1 0x0 PUSH1 0x80 DUP7 DUP9 SUB SLT ISZERO PUSH2 0x4E16 JUMPI DUP3 DUP4 REVERT JUMPDEST DUP6 CALLDATALOAD SWAP5 POP PUSH1 0x20 DUP7 ADD CALLDATALOAD PUSH8 0xFFFFFFFFFFFFFFFF DUP2 GT ISZERO PUSH2 0x4E33 JUMPI DUP4 DUP5 REVERT JUMPDEST PUSH2 0x4E3F DUP9 DUP3 DUP10 ADD PUSH2 0x4977 JUMP JUMPDEST SWAP1 SWAP6 POP SWAP4 POP POP PUSH1 0x40 DUP7 ADD CALLDATALOAD PUSH2 0x4E53 DUP2 PUSH2 0x58FA JUMP JUMPDEST SWAP5 SWAP8 SWAP4 SWAP7 POP SWAP2 SWAP5 PUSH1 0x60 ADD CALLDATALOAD SWAP3 SWAP2 POP POP JUMP JUMPDEST PUSH1 0x0 DUP1 PUSH1 0x40 DUP4 DUP6 SUB SLT ISZERO PUSH2 0x4E76 JUMPI DUP2 DUP3 REVERT JUMPDEST POP POP DUP1 MLOAD PUSH1 0x20 SWAP1 SWAP2 ADD MLOAD SWAP1 SWAP3 SWAP1 SWAP2 POP JUMP JUMPDEST PUSH1 0x0 DUP1 PUSH1 0x0 DUP1 PUSH1 0x0 DUP1 PUSH1 0xA0 DUP8 DUP10 SUB SLT ISZERO PUSH2 0x4E9F JUMPI DUP4 DUP5 REVERT JUMPDEST DUP7 CALLDATALOAD SWAP6 POP PUSH1 0x20 DUP8 ADD CALLDATALOAD SWAP5 POP PUSH1 0x40 DUP8 ADD CALLDATALOAD PUSH8 0xFFFFFFFFFFFFFFFF DUP2 GT ISZERO PUSH2 0x4EC3 JUMPI DUP5 DUP6 REVERT JUMPDEST PUSH2 0x4ECF DUP10 DUP3 DUP11 ADD PUSH2 0x4977 JUMP JUMPDEST SWAP1 SWAP6 POP SWAP4 POP POP PUSH1 0x60 DUP8 ADD CALLDATALOAD PUSH2 0x4EE3 DUP2 PUSH2 0x58FA JUMP JUMPDEST DUP1 SWAP3 POP POP PUSH1 0x80 DUP8 ADD CALLDATALOAD SWAP1 POP SWAP3 SWAP6 POP SWAP3 SWAP6 POP SWAP3 SWAP6 JUMP JUMPDEST PUSH1 0x0 DUP1 PUSH1 0x0 PUSH1 0x60 DUP5 DUP7 SUB SLT ISZERO PUSH2 0x4F0C JUMPI DUP1 DUP2 REVERT JUMPDEST POP POP DUP2 CALLDATALOAD SWAP4 PUSH1 0x20 DUP4 ADD CALLDATALOAD SWAP4 POP PUSH1 0x40 SWAP1 SWAP3 ADD CALLDATALOAD SWAP2 SWAP1 POP JUMP JUMPDEST PUSH1 0x0 PUSH1 0x20 DUP3 DUP5 SUB SLT ISZERO PUSH2 0x4F34 JUMPI DUP1 DUP2 REVERT JUMPDEST DUP2 CALLDATALOAD PUSH1 0xFF DUP2 AND DUP2 EQ PUSH2 0x4A49 JUMPI DUP2 DUP3 REVERT JUMPDEST PUSH32 0xFFFFFFFFFFFFFFFFFFFFFFFFFFFFFFFFFFFFFFFF000000000000000000000000 PUSH1 0x60 SWAP4 DUP5 SHL DUP2 AND DUP3 MSTORE SWAP2 SWAP1 SWAP3 SHL AND PUSH1 0x14 DUP3 ADD MSTORE PUSH1 0x28 ADD SWAP1 JUMP JUMPDEST PUSH1 0x0 DUP3 MLOAD PUSH2 0x4F90 DUP2 DUP5 PUSH1 0x20 DUP8 ADD PUSH2 0x58CE JUMP JUMPDEST SWAP2 SWAP1 SWAP2 ADD SWAP3 SWAP2 POP POP JUMP JUMPDEST PUSH32 0xFF00000000000000000000000000000000000000000000000000000000000000 DUP2 MSTORE PUSH1 0x60 SWAP3 SWAP1 SWAP3 SHL PUSH32 0xFFFFFFFFFFFFFFFFFFFFFFFFFFFFFFFFFFFFFFFF000000000000000000000000 AND PUSH1 0x1 DUP4 ADD MSTORE PUSH1 0x15 DUP3 ADD MSTORE PUSH32 0xBAEAE6B526D52AB9EDEA88A8A5991ED61443A0C4D6BEA03DC99971664961F4B7 PUSH1 0x35 DUP3 ADD MSTORE PUSH1 0x55 ADD SWAP1 JUMP JUMPDEST PUSH20 0xFFFFFFFFFFFFFFFFFFFFFFFFFFFFFFFFFFFFFFFF SWAP2 SWAP1 SWAP2 AND DUP2 MSTORE PUSH1 0x20 ADD SWAP1 JUMP JUMPDEST PUSH20 0xFFFFFFFFFFFFFFFFFFFFFFFFFFFFFFFFFFFFFFFF SWAP8 DUP9 AND DUP2 MSTORE SWAP6 SWAP1 SWAP7 AND PUSH1 0x20 DUP7 ADD MSTORE PUSH1 0x40 DUP6 ADD SWAP4 SWAP1 SWAP4 MSTORE PUSH1 0x60 DUP5 ADD SWAP2 SWAP1 SWAP2 MSTORE PUSH1 0xFF AND PUSH1 0x80 DUP4 ADD MSTORE PUSH1 0xA0 DUP3 ADD MSTORE PUSH1 0xC0 DUP2 ADD SWAP2 SWAP1 SWAP2 MSTORE PUSH1 0xE0 ADD SWAP1 JUMP JUMPDEST PUSH20 0xFFFFFFFFFFFFFFFFFFFFFFFFFFFFFFFFFFFFFFFF SWAP4 DUP5 AND DUP2 MSTORE SWAP2 SWAP1 SWAP3 AND PUSH1 0x20 DUP3 ADD MSTORE PUSH1 0x40 DUP2 ADD SWAP2 SWAP1 SWAP2 MSTORE PUSH1 0x60 ADD SWAP1 JUMP JUMPDEST PUSH20 0xFFFFFFFFFFFFFFFFFFFFFFFFFFFFFFFFFFFFFFFF SWAP3 DUP4 AND DUP2 MSTORE SWAP2 AND PUSH1 0x20 DUP3 ADD MSTORE PUSH1 0x40 ADD SWAP1 JUMP JUMPDEST PUSH20 0xFFFFFFFFFFFFFFFFFFFFFFFFFFFFFFFFFFFFFFFF SWAP5 DUP6 AND DUP2 MSTORE SWAP3 DUP5 AND PUSH1 0x20 DUP5 ADD MSTORE SWAP3 AND PUSH1 0x40 DUP3 ADD MSTORE PUSH1 0x60 DUP2 ADD SWAP2 SWAP1 SWAP2 MSTORE PUSH1 0x80 ADD SWAP1 JUMP JUMPDEST PUSH20 0xFFFFFFFFFFFFFFFFFFFFFFFFFFFFFFFFFFFFFFFF SWAP3 SWAP1 SWAP3 AND DUP3 MSTORE PUSH1 0x20 DUP3 ADD MSTORE PUSH1 0x40 ADD SWAP1 JUMP JUMPDEST PUSH1 0x20 DUP1 DUP3 MSTORE DUP3 MLOAD DUP3 DUP3 ADD DUP2 SWAP1 MSTORE PUSH1 0x0 SWAP2 SWAP1 DUP5 DUP3 ADD SWAP1 PUSH1 0x40 DUP6 ADD SWAP1 DUP5 JUMPDEST DUP2 DUP2 LT ISZERO PUSH2 0x5177 JUMPI DUP4 MLOAD DUP4 MSTORE SWAP3 DUP5 ADD SWAP3 SWAP2 DUP5 ADD SWAP2 PUSH1 0x1 ADD PUSH2 0x515B JUMP JUMPDEST POP SWAP1 SWAP7 SWAP6 POP POP POP POP POP POP JUMP JUMPDEST PUSH1 0x20 DUP1 DUP3 MSTORE PUSH1 0x15 SWAP1 DUP3 ADD MSTORE PUSH32 0x64732D6D6174682D7375622D756E646572666C6F770000000000000000000000 PUSH1 0x40 DUP3 ADD MSTORE PUSH1 0x60 ADD SWAP1 JUMP JUMPDEST PUSH1 0x20 DUP1 DUP3 MSTORE PUSH1 0x1F SWAP1 DUP3 ADD MSTORE PUSH32 0x5472616E7366657248656C7065723A205452414E534645525F4641494C454400 PUSH1 0x40 DUP3 ADD MSTORE PUSH1 0x60 ADD SWAP1 JUMP JUMPDEST PUSH1 0x20 DUP1 DUP3 MSTORE PUSH1 0x1A SWAP1 DUP3 ADD MSTORE PUSH32 0x466553776170526F757465723A20494E56414C49445F50415448000000000000 PUSH1 0x40 DUP3 ADD MSTORE PUSH1 0x60 ADD SWAP1 JUMP JUMPDEST PUSH1 0x20 DUP1 DUP3 MSTORE PUSH1 0x15 SWAP1 DUP3 ADD MSTORE PUSH32 0x466553776170526F757465723A20455850495245440000000000000000000000 PUSH1 0x40 DUP3 ADD MSTORE PUSH1 0x60 ADD SWAP1 JUMP JUMPDEST PUSH1 0x20 DUP1 DUP3 MSTORE PUSH1 0x13 SWAP1 DUP3 ADD MSTORE PUSH32 0x4665537761703A204E4F5420414C4C4F57454400000000000000000000000000 PUSH1 0x40 DUP3 ADD MSTORE PUSH1 0x60 ADD SWAP1 JUMP JUMPDEST PUSH1 0x20 DUP1 DUP3 MSTORE PUSH1 0x14 SWAP1 DUP3 ADD MSTORE PUSH32 0x64732D6D6174682D6D756C2D6F766572666C6F77000000000000000000000000 PUSH1 0x40 DUP3 ADD MSTORE PUSH1 0x60 ADD SWAP1 JUMP JUMPDEST PUSH1 0x20 DUP1 DUP3 MSTORE PUSH1 0x25 SWAP1 DUP3 ADD MSTORE PUSH32 0x4665537761704C6962726172793A20494E53554646494349454E545F4C495155 PUSH1 0x40 DUP3 ADD MSTORE PUSH32 0x4944495459000000000000000000000000000000000000000000000000000000 PUSH1 0x60 DUP3 ADD MSTORE PUSH1 0x80 ADD SWAP1 JUMP JUMPDEST PUSH1 0x20 DUP1 DUP3 MSTORE PUSH1 0x12 SWAP1 DUP3 ADD MSTORE PUSH32 0x4665537761703A2057524F4E4720574554480000000000000000000000000000 PUSH1 0x40 DUP3 ADD MSTORE PUSH1 0x60 ADD SWAP1 JUMP JUMPDEST PUSH1 0x20 DUP1 DUP3 MSTORE PUSH1 0x14 SWAP1 DUP3 ADD MSTORE PUSH32 0x64732D6D6174682D6164642D6F766572666C6F77000000000000000000000000 PUSH1 0x40 DUP3 ADD MSTORE PUSH1 0x60 ADD SWAP1 JUMP JUMPDEST PUSH1 0x20 DUP1 DUP3 MSTORE PUSH1 0x28 SWAP1 DUP3 ADD MSTORE PUSH32 0x4665537761704C6962726172793A20494E53554646494349454E545F494E5055 PUSH1 0x40 DUP3 ADD MSTORE PUSH32 0x545F414D4F554E54000000000000000000000000000000000000000000000000 PUSH1 0x60 DUP3 ADD MSTORE PUSH1 0x80 ADD SWAP1 JUMP JUMPDEST PUSH1 0x20 DUP1 DUP3 MSTORE PUSH1 0x28 SWAP1 DUP3 ADD MSTORE PUSH32 0x466553776170526F757465723A20494E53554646494349454E545F4F55545055 PUSH1 0x40 DUP3 ADD MSTORE PUSH32 0x545F414D4F554E54000000000000000000000000000000000000000000000000 PUSH1 0x60 DUP3 ADD MSTORE PUSH1 0x80 ADD SWAP1 JUMP JUMPDEST PUSH1 0x20 DUP1 DUP3 MSTORE PUSH1 0x22 SWAP1 DUP3 ADD MSTORE PUSH32 0x4665537761704C6962726172793A20494E53554646494349454E545F414D4F55 PUSH1 0x40 DUP3 ADD MSTORE PUSH32 0x4E54000000000000000000000000000000000000000000000000000000000000 PUSH1 0x60 DUP3 ADD MSTORE PUSH1 0x80 ADD SWAP1 JUMP JUMPDEST PUSH1 0x20 DUP1 DUP3 MSTORE PUSH1 0x1B SWAP1 DUP3 ADD MSTORE PUSH32 0x4665537761704C6962726172793A20494E56414C49445F504154480000000000 PUSH1 0x40 DUP3 ADD MSTORE PUSH1 0x60 ADD SWAP1 JUMP JUMPDEST PUSH1 0x20 DUP1 DUP3 MSTORE PUSH1 0x24 SWAP1 DUP3 ADD MSTORE PUSH32 0x466553776170526F757465723A204558434553534956455F494E5055545F414D PUSH1 0x40 DUP3 ADD MSTORE PUSH32 0x4F554E5400000000000000000000000000000000000000000000000000000000 PUSH1 0x60 DUP3 ADD MSTORE PUSH1 0x80 ADD SWAP1 JUMP JUMPDEST PUSH1 0x20 DUP1 DUP3 MSTORE PUSH1 0x17 SWAP1 DUP3 ADD MSTORE PUSH32 0x4665537761703A204E4F5420544F4B454E204F574E4552000000000000000000 PUSH1 0x40 DUP3 ADD MSTORE PUSH1 0x60 ADD SWAP1 JUMP JUMPDEST PUSH1 0x20 DUP1 DUP3 MSTORE PUSH1 0x23 SWAP1 DUP3 ADD MSTORE PUSH32 0x466553776170526F757465723A20494E53554646494349454E545F425F414D4F PUSH1 0x40 DUP3 ADD MSTORE PUSH32 0x554E540000000000000000000000000000000000000000000000000000000000 PUSH1 0x60 DUP3 ADD MSTORE PUSH1 0x80 ADD SWAP1 JUMP JUMPDEST PUSH1 0x20 DUP1 DUP3 MSTORE PUSH1 0x11 SWAP1 DUP3 ADD MSTORE PUSH32 0x4665537761703A20524154494F20454552000000000000000000000000000000 PUSH1 0x40 DUP3 ADD MSTORE PUSH1 0x60 ADD SWAP1 JUMP JUMPDEST PUSH1 0x20 DUP1 DUP3 MSTORE PUSH1 0x23 SWAP1 DUP3 ADD MSTORE PUSH32 0x5472616E7366657248656C7065723A204554485F5452414E534645525F464149 PUSH1 0x40 DUP3 ADD MSTORE PUSH32 0x4C45440000000000000000000000000000000000000000000000000000000000 PUSH1 0x60 DUP3 ADD MSTORE PUSH1 0x80 ADD SWAP1 JUMP JUMPDEST PUSH1 0x20 DUP1 DUP3 MSTORE PUSH1 0x29 SWAP1 DUP3 ADD MSTORE PUSH32 0x4665537761704C6962726172793A20494E53554646494349454E545F4F555450 PUSH1 0x40 DUP3 ADD MSTORE PUSH32 0x55545F414D4F554E540000000000000000000000000000000000000000000000 PUSH1 0x60 DUP3 ADD MSTORE PUSH1 0x80 ADD SWAP1 JUMP JUMPDEST PUSH1 0x20 DUP1 DUP3 MSTORE PUSH1 0x23 SWAP1 DUP3 ADD MSTORE PUSH32 0x466553776170526F757465723A20494E53554646494349454E545F415F414D4F PUSH1 0x40 DUP3 ADD MSTORE PUSH32 0x554E540000000000000000000000000000000000000000000000000000000000 PUSH1 0x60 DUP3 ADD MSTORE PUSH1 0x80 ADD SWAP1 JUMP JUMPDEST PUSH1 0x20 DUP1 DUP3 MSTORE PUSH1 0x16 SWAP1 DUP3 ADD MSTORE PUSH32 0x4665537761703A204C4553535F494E5F414D4F554E5400000000000000000000 PUSH1 0x40 DUP3 ADD MSTORE PUSH1 0x60 ADD SWAP1 JUMP JUMPDEST PUSH1 0x20 DUP1 DUP3 MSTORE PUSH1 0x24 SWAP1 DUP3 ADD MSTORE PUSH32 0x5472616E7366657248656C7065723A205452414E534645525F46524F4D5F4641 PUSH1 0x40 DUP3 ADD MSTORE PUSH32 0x494C454400000000000000000000000000000000000000000000000000000000 PUSH1 0x60 DUP3 ADD MSTORE PUSH1 0x80 ADD SWAP1 JUMP JUMPDEST PUSH1 0x20 DUP1 DUP3 MSTORE PUSH1 0x13 SWAP1 DUP3 ADD MSTORE PUSH32 0x4665537761703A204E4F54204352454154454400000000000000000000000000 PUSH1 0x40 DUP3 ADD MSTORE PUSH1 0x60 ADD SWAP1 JUMP JUMPDEST PUSH1 0x20 DUP1 DUP3 MSTORE PUSH1 0x17 SWAP1 DUP3 ADD MSTORE PUSH32 0x4665537761703A204C4553535F4F55545F414D4F554E54000000000000000000 PUSH1 0x40 DUP3 ADD MSTORE PUSH1 0x60 ADD SWAP1 JUMP JUMPDEST SWAP1 DUP2 MSTORE PUSH1 0x20 ADD SWAP1 JUMP JUMPDEST PUSH1 0x0 DUP5 DUP3 MSTORE PUSH20 0xFFFFFFFFFFFFFFFFFFFFFFFFFFFFFFFFFFFFFFFF DUP5 AND PUSH1 0x20 DUP4 ADD MSTORE PUSH1 0x60 PUSH1 0x40 DUP4 ADD MSTORE DUP3 MLOAD DUP1 PUSH1 0x60 DUP5 ADD MSTORE PUSH2 0x5871 DUP2 PUSH1 0x80 DUP6 ADD PUSH1 0x20 DUP8 ADD PUSH2 0x58CE JUMP JUMPDEST PUSH1 0x1F ADD PUSH32 0xFFFFFFFFFFFFFFFFFFFFFFFFFFFFFFFFFFFFFFFFFFFFFFFFFFFFFFFFFFFFFFE0 AND SWAP2 SWAP1 SWAP2 ADD PUSH1 0x80 ADD SWAP5 SWAP4 POP POP POP POP JUMP JUMPDEST SWAP2 DUP3 MSTORE PUSH1 0x20 DUP3 ADD MSTORE PUSH1 0x40 ADD SWAP1 JUMP JUMPDEST SWAP4 DUP5 MSTORE PUSH1 0x20 DUP5 ADD SWAP3 SWAP1 SWAP3 MSTORE PUSH1 0x40 DUP4 ADD MSTORE PUSH1 0x60 DUP3 ADD MSTORE PUSH1 0x80 ADD SWAP1 JUMP JUMPDEST PUSH1 0x0 JUMPDEST DUP4 DUP2 LT ISZERO PUSH2 0x58E9 JUMPI DUP2 DUP2 ADD MLOAD DUP4 DUP3 ADD MSTORE PUSH1 0x20 ADD PUSH2 0x58D1 JUMP JUMPDEST DUP4 DUP2 GT ISZERO PUSH2 0x36C9 JUMPI POP POP PUSH1 0x0 SWAP2 ADD MSTORE JUMP JUMPDEST PUSH20 0xFFFFFFFFFFFFFFFFFFFFFFFFFFFFFFFFFFFFFFFF DUP2 AND DUP2 EQ PUSH2 0x591C JUMPI PUSH1 0x0 DUP1 REVERT JUMPDEST POP JUMP JUMPDEST DUP1 ISZERO ISZERO DUP2 EQ PUSH2 0x591C JUMPI PUSH1 0x0 DUP1 REVERT JUMPDEST PUSH14 0xFFFFFFFFFFFFFFFFFFFFFFFFFFFF DUP2 AND DUP2 EQ PUSH2 0x591C JUMPI PUSH1 0x0 DUP1 REVERT INVALID LOG2 PUSH5 0x6970667358 0x22 SLT KECCAK256 PUSH27 0xDD533BED96AA9DA9F8E4ED7C58E5CFCA09A13429F8432E676D2A93 MULMOD 0xF8 0xFB 0xE1 PUSH5 0x736F6C6343 STOP MOD 0xC STOP CALLER "
    }
  }
}