{
  "abi": [
    {
      "inputs": [
        {
          "internalType": "address",
          "name": "feswapToken",
          "type": "address"
        },
        {
          "internalType": "address",
          "name": "feswapFund",
          "type": "address"
        },
        {
          "internalType": "address",
          "name": "feswapBurner",
          "type": "address"
        },
        {
          "internalType": "uint256",
          "name": "sponsorStartTime",
          "type": "uint256"
        }
      ],
      "stateMutability": "nonpayable",
      "type": "constructor"
    },
    {
      "anonymous": false,
      "inputs": [
        {
          "indexed": true,
          "internalType": "address",
          "name": "to",
          "type": "address"
        },
        {
          "indexed": false,
          "internalType": "uint256",
          "name": "ethValue",
          "type": "uint256"
        }
      ],
      "name": "EvtSponsorFinalized",
      "type": "event"
    },
    {
      "anonymous": false,
      "inputs": [
        {
          "indexed": true,
          "internalType": "address",
          "name": "from",
          "type": "address"
        },
        {
          "indexed": true,
          "internalType": "address",
          "name": "to",
          "type": "address"
        },
        {
          "indexed": false,
          "internalType": "uint256",
          "name": "ethValue",
          "type": "uint256"
        }
      ],
      "name": "EvtSponsorReceived",
      "type": "event"
    },
    {
      "inputs": [],
      "name": "CAP_RAISING_ETH",
      "outputs": [
        {
          "internalType": "uint256",
          "name": "",
          "type": "uint256"
        }
      ],
      "stateMutability": "view",
      "type": "function"
    },
    {
      "inputs": [],
      "name": "CurrentGiveRate",
      "outputs": [
        {
          "internalType": "uint256",
          "name": "",
          "type": "uint256"
        }
      ],
      "stateMutability": "view",
      "type": "function"
    },
    {
      "inputs": [],
      "name": "FESW_CHANGE_RATE_VERSUS_ETH",
      "outputs": [
        {
          "internalType": "uint256",
          "name": "",
          "type": "uint256"
        }
      ],
      "stateMutability": "view",
      "type": "function"
    },
    {
      "inputs": [],
      "name": "FeswapBurner",
      "outputs": [
        {
          "internalType": "address",
          "name": "",
          "type": "address"
        }
      ],
      "stateMutability": "view",
      "type": "function"
    },
    {
      "inputs": [],
      "name": "FeswapFund",
      "outputs": [
        {
          "internalType": "address",
          "name": "",
          "type": "address"
        }
      ],
      "stateMutability": "view",
      "type": "function"
    },
    {
      "inputs": [],
      "name": "FeswapToken",
      "outputs": [
        {
          "internalType": "address",
          "name": "",
          "type": "address"
        }
      ],
      "stateMutability": "view",
      "type": "function"
    },
    {
      "inputs": [],
      "name": "INITIAL_FESW_RATE_PER_ETH",
      "outputs": [
        {
          "internalType": "uint256",
          "name": "",
          "type": "uint256"
        }
      ],
      "stateMutability": "view",
      "type": "function"
    },
    {
      "inputs": [],
      "name": "LastBlockTime",
      "outputs": [
        {
          "internalType": "uint64",
          "name": "",
          "type": "uint64"
        }
      ],
      "stateMutability": "view",
      "type": "function"
    },
    {
      "inputs": [],
      "name": "SPONSOR_DURATION",
      "outputs": [
        {
          "internalType": "uint256",
          "name": "",
          "type": "uint256"
        }
      ],
      "stateMutability": "view",
      "type": "function"
    },
    {
      "inputs": [
        {
          "internalType": "address",
          "name": "feswapReceiver",
          "type": "address"
        }
      ],
      "name": "Sponsor",
      "outputs": [
        {
          "internalType": "uint256",
          "name": "sponsorAccepted",
          "type": "uint256"
        }
      ],
      "stateMutability": "payable",
      "type": "function"
    },
    {
      "inputs": [],
      "name": "SponsorFinalized",
      "outputs": [
        {
          "internalType": "uint64",
          "name": "",
          "type": "uint64"
        }
      ],
      "stateMutability": "view",
      "type": "function"
    },
    {
      "inputs": [],
      "name": "SponsorStartTime",
      "outputs": [
        {
          "internalType": "uint64",
          "name": "",
          "type": "uint64"
        }
      ],
      "stateMutability": "view",
      "type": "function"
    },
    {
      "inputs": [],
      "name": "TARGET_RAISING_ETH",
      "outputs": [
        {
          "internalType": "uint256",
          "name": "",
          "type": "uint256"
        }
      ],
      "stateMutability": "view",
      "type": "function"
    },
    {
      "inputs": [],
      "name": "TotalETHReceived",
      "outputs": [
        {
          "internalType": "uint256",
          "name": "",
          "type": "uint256"
        }
      ],
      "stateMutability": "view",
      "type": "function"
    },
    {
      "inputs": [],
      "name": "finalizeSponsor",
      "outputs": [],
      "stateMutability": "nonpayable",
      "type": "function"
    }
  ],
  "evm": {
    "bytecode": {
      "linkReferences": {},
      "object": "608060405234801561001057600080fd5b5060405161101a38038061101a83398101604081905261002f916100ad565b600080546001600160a01b03199081166001600160a01b0396871617909155600180548216948616949094179093556002805490931691909316179055600580546001600160401b0319166001600160401b039092169190911790556100fa565b80516001600160a01b03811681146100a757600080fd5b92915050565b600080600080608085870312156100c2578384fd5b6100cc8686610090565b93506100db8660208701610090565b92506100ea8660408701610090565b6060959095015193969295505050565b610f11806101096000396000f3fe6080604052600436106100e85760003560e01c8063473e2e201161008a578063795c3d2a11610059578063795c3d2a1461020457806393e0b21e14610219578063ab1d34011461022e578063d07a026314610243576100e8565b8063473e2e20146101b0578063616b952f146101c55780636d963dbe146101da578063775f0da2146101ef576100e8565b806328b5c19d116100c657806328b5c19d1461015157806334273fbf146101665780633ebf48331461017b57806345731ed81461019d576100e8565b8063083702da146100ed578063125793ee14610104578063239296e01461012f575b600080fd5b3480156100f957600080fd5b50610102610258565b005b34801561011057600080fd5b50610119610539565b6040516101269190610e8d565b60405180910390f35b34801561013b57600080fd5b50610144610546565b6040516101269190610e96565b34801561015d57600080fd5b50610119610562565b34801561017257600080fd5b50610144610569565b34801561018757600080fd5b5061019061058d565b6040516101269190610bba565b6101196101ab366004610b32565b6105a9565b3480156101bc57600080fd5b506101906107f7565b3480156101d157600080fd5b50610119610813565b3480156101e657600080fd5b50610190610819565b3480156101fb57600080fd5b50610119610835565b34801561021057600080fd5b5061011961083b565b34801561022557600080fd5b50610119610842565b34801561023a57600080fd5b50610119610847565b34801561024f57600080fd5b50610144610854565b600554700100000000000000000000000000000000900467ffffffffffffffff16156102b9576040517f08c379a00000000000000000000000000000000000000000000000000000000081526004016102b090610c89565b60405180910390fd5b60015473ffffffffffffffffffffffffffffffffffffffff16331461030a576040517f08c379a00000000000000000000000000000000000000000000000000000000081526004016102b090610d8b565b60055467ffffffffffffffff1662278d0001421015806103345750683635c9adc5dea00000600354115b61036a576040517f08c379a00000000000000000000000000000000000000000000000000000000081526004016102b090610cf7565b60025460035473ffffffffffffffffffffffffffffffffffffffff90911690683635c9adc5dea0000011156103b4575060015473ffffffffffffffffffffffffffffffffffffffff165b600080546040517f70a0823100000000000000000000000000000000000000000000000000000000815273ffffffffffffffffffffffffffffffffffffffff909116906370a082319061040b903090600401610bba565b60206040518083038186803b15801561042357600080fd5b505afa158015610437573d6000803e3d6000fd5b505050506040513d601f19601f8201168201806040525081019061045b9190610b86565b6000549091506104829073ffffffffffffffffffffffffffffffffffffffff168383610864565b6001546104a59073ffffffffffffffffffffffffffffffffffffffff164761098e565b600580547fffffffffffffffff0000000000000000ffffffffffffffffffffffffffffffff1670a50000000000000000000000000000000017905560015460035460405173ffffffffffffffffffffffffffffffffffffffff909216917f364dbd3941858b34f6354889abb84ff9ce02fed0edfb1621aa8ccb528a0d8d889161052d91610e8d565b60405180910390a25050565b683643aa64798604000081565b60055468010000000000000000900467ffffffffffffffff1681565b620186a081565b600554700100000000000000000000000000000000900467ffffffffffffffff1681565b60025473ffffffffffffffffffffffffffffffffffffffff1681565b60055460009067ffffffffffffffff164210156105f2576040517f08c379a00000000000000000000000000000000000000000000000000000000081526004016102b090610dc2565b60055467ffffffffffffffff1662278d0001421061063c576040517f08c379a00000000000000000000000000000000000000000000000000000000081526004016102b090610c52565b683635c9adc5dea0000060035410610680576040517f08c379a00000000000000000000000000000000000000000000000000000000081526004016102b090610e56565b60055460009068010000000000000000900467ffffffffffffffff1642111561071b576106cb670de0b6b3a76400006106c56014600354610a4790919063ffffffff16565b90610aa4565b620186a0036004819055600580547fffffffffffffffffffffffffffffffff0000000000000000ffffffffffffffff16680100000000000000004267ffffffffffffffff16021790559050610720565b506004545b600354683643aa6479860400000391508134101561073c573491505b600380548301905560006107508383610a47565b6000549091506107779073ffffffffffffffffffffffffffffffffffffffff168583610864565b8234111561078b5761078b3384340361098e565b8373ffffffffffffffffffffffffffffffffffffffff163373ffffffffffffffffffffffffffffffffffffffff167f350e4474372d22f1949bf2636a88bdd8fd3b8f14917512590b63993b05d86556856040516107e89190610e8d565b60405180910390a35050919050565b60005473ffffffffffffffffffffffffffffffffffffffff1681565b60035481565b60015473ffffffffffffffffffffffffffffffffffffffff1681565b60045481565b62278d0081565b601481565b683635c9adc5dea0000081565b60055467ffffffffffffffff1681565b600060608473ffffffffffffffffffffffffffffffffffffffff1663a9059cbb8585604051602401610897929190610bdb565b6040516020818303038152906040529060e01b6020820180517bffffffffffffffffffffffffffffffffffffffffffffffffffffffff83818316178352505050506040516108e59190610b9e565b6000604051808303816000865af19150503d8060008114610922576040519150601f19603f3d011682016040523d82523d6000602084013e610927565b606091505b50915091508180156109515750805115806109515750808060200190518101906109519190610b66565b610987576040517f08c379a00000000000000000000000000000000000000000000000000000000081526004016102b090610cc0565b5050505050565b6040805160008082526020820190925273ffffffffffffffffffffffffffffffffffffffff84169083906040516109c59190610b9e565b60006040518083038185875af1925050503d8060008114610a02576040519150601f19603f3d011682016040523d82523d6000602084013e610a07565b606091505b5050905080610a42576040517f08c379a00000000000000000000000000000000000000000000000000000000081526004016102b090610df9565b505050565b600082610a5657506000610a9e565b82820282848281610a6357fe5b0414610a9b576040517f08c379a00000000000000000000000000000000000000000000000000000000081526004016102b090610d2e565b90505b92915050565b6000610a9b83836040518060400160405280601a81526020017f536166654d6174683a206469766973696f6e206279207a65726f00000000000081525060008183610b1c576040517f08c379a00000000000000000000000000000000000000000000000000000000081526004016102b09190610c01565b506000838581610b2857fe5b0495945050505050565b600060208284031215610b43578081fd5b813573ffffffffffffffffffffffffffffffffffffffff81168114610a9b578182fd5b600060208284031215610b77578081fd5b81518015158114610a9b578182fd5b600060208284031215610b97578081fd5b5051919050565b60008251610bb0818460208701610eab565b9190910192915050565b73ffffffffffffffffffffffffffffffffffffffff91909116815260200190565b73ffffffffffffffffffffffffffffffffffffffff929092168252602082015260400190565b6000602082528251806020840152610c20816040850160208701610eab565b601f017fffffffffffffffffffffffffffffffffffffffffffffffffffffffffffffffe0169190910160400192915050565b60208082526013908201527f464553573a2053504f4e534f5220454e44454400000000000000000000000000604082015260600190565b60208082526017908201527f464553573a2053504f4e534f522046494e414c495a4544000000000000000000604082015260600190565b6020808252601f908201527f5472616e7366657248656c7065723a205452414e534645525f4641494c454400604082015260600190565b60208082526015908201527f464553573a2053504f4e534f52204f4e474f494e470000000000000000000000604082015260600190565b60208082526021908201527f536166654d6174683a206d756c7469706c69636174696f6e206f766572666c6f60408201527f7700000000000000000000000000000000000000000000000000000000000000606082015260800190565b60208082526011908201527f464553573a204e4f5420414c4c4f574544000000000000000000000000000000604082015260600190565b60208082526019908201527f464553573a2053504f4e534f52204e4f54205354415254454400000000000000604082015260600190565b60208082526023908201527f5472616e7366657248656c7065723a204554485f5452414e534645525f46414960408201527f4c45440000000000000000000000000000000000000000000000000000000000606082015260800190565b60208082526017908201527f464553573a2053504f4e534f5220434f4d504c45544544000000000000000000604082015260600190565b90815260200190565b67ffffffffffffffff91909116815260200190565b60005b83811015610ec6578181015183820152602001610eae565b83811115610ed5576000848401525b5050505056fea2646970667358221220947a75c783b296279cf7bc8efcafcf1c33b8e811712b36695d7fc2a334ce2fc864736f6c63430007000033",
      "opcodes": "PUSH1 0x80 PUSH1 0x40 MSTORE CALLVALUE DUP1 ISZERO PUSH2 0x10 JUMPI PUSH1 0x0 DUP1 REVERT JUMPDEST POP PUSH1 0x40 MLOAD PUSH2 0x101A CODESIZE SUB DUP1 PUSH2 0x101A DUP4 CODECOPY DUP2 ADD PUSH1 0x40 DUP2 SWAP1 MSTORE PUSH2 0x2F SWAP2 PUSH2 0xAD JUMP JUMPDEST PUSH1 0x0 DUP1 SLOAD PUSH1 0x1 PUSH1 0x1 PUSH1 0xA0 SHL SUB NOT SWAP1 DUP2 AND PUSH1 0x1 PUSH1 0x1 PUSH1 0xA0 SHL SUB SWAP7 DUP8 AND OR SWAP1 SWAP2 SSTORE PUSH1 0x1 DUP1 SLOAD DUP3 AND SWAP5 DUP7 AND SWAP5 SWAP1 SWAP5 OR SWAP1 SWAP4 SSTORE PUSH1 0x2 DUP1 SLOAD SWAP1 SWAP4 AND SWAP2 SWAP1 SWAP4 AND OR SWAP1 SSTORE PUSH1 0x5 DUP1 SLOAD PUSH1 0x1 PUSH1 0x1 PUSH1 0x40 SHL SUB NOT AND PUSH1 0x1 PUSH1 0x1 PUSH1 0x40 SHL SUB SWAP1 SWAP3 AND SWAP2 SWAP1 SWAP2 OR SWAP1 SSTORE PUSH2 0xFA JUMP JUMPDEST DUP1 MLOAD PUSH1 0x1 PUSH1 0x1 PUSH1 0xA0 SHL SUB DUP2 AND DUP2 EQ PUSH2 0xA7 JUMPI PUSH1 0x0 DUP1 REVERT JUMPDEST SWAP3 SWAP2 POP POP JUMP JUMPDEST PUSH1 0x0 DUP1 PUSH1 0x0 DUP1 PUSH1 0x80 DUP6 DUP8 SUB SLT ISZERO PUSH2 0xC2 JUMPI DUP4 DUP5 REVERT JUMPDEST PUSH2 0xCC DUP7 DUP7 PUSH2 0x90 JUMP JUMPDEST SWAP4 POP PUSH2 0xDB DUP7 PUSH1 0x20 DUP8 ADD PUSH2 0x90 JUMP JUMPDEST SWAP3 POP PUSH2 0xEA DUP7 PUSH1 0x40 DUP8 ADD PUSH2 0x90 JUMP JUMPDEST PUSH1 0x60 SWAP6 SWAP1 SWAP6 ADD MLOAD SWAP4 SWAP7 SWAP3 SWAP6 POP POP POP JUMP JUMPDEST PUSH2 0xF11 DUP1 PUSH2 0x109 PUSH1 0x0 CODECOPY PUSH1 0x0 RETURN INVALID PUSH1 0x80 PUSH1 0x40 MSTORE PUSH1 0x4 CALLDATASIZE LT PUSH2 0xE8 JUMPI PUSH1 0x0 CALLDATALOAD PUSH1 0xE0 SHR DUP1 PUSH4 0x473E2E20 GT PUSH2 0x8A JUMPI DUP1 PUSH4 0x795C3D2A GT PUSH2 0x59 JUMPI DUP1 PUSH4 0x795C3D2A EQ PUSH2 0x204 JUMPI DUP1 PUSH4 0x93E0B21E EQ PUSH2 0x219 JUMPI DUP1 PUSH4 0xAB1D3401 EQ PUSH2 0x22E JUMPI DUP1 PUSH4 0xD07A0263 EQ PUSH2 0x243 JUMPI PUSH2 0xE8 JUMP JUMPDEST DUP1 PUSH4 0x473E2E20 EQ PUSH2 0x1B0 JUMPI DUP1 PUSH4 0x616B952F EQ PUSH2 0x1C5 JUMPI DUP1 PUSH4 0x6D963DBE EQ PUSH2 0x1DA JUMPI DUP1 PUSH4 0x775F0DA2 EQ PUSH2 0x1EF JUMPI PUSH2 0xE8 JUMP JUMPDEST DUP1 PUSH4 0x28B5C19D GT PUSH2 0xC6 JUMPI DUP1 PUSH4 0x28B5C19D EQ PUSH2 0x151 JUMPI DUP1 PUSH4 0x34273FBF EQ PUSH2 0x166 JUMPI DUP1 PUSH4 0x3EBF4833 EQ PUSH2 0x17B JUMPI DUP1 PUSH4 0x45731ED8 EQ PUSH2 0x19D JUMPI PUSH2 0xE8 JUMP JUMPDEST DUP1 PUSH4 0x83702DA EQ PUSH2 0xED JUMPI DUP1 PUSH4 0x125793EE EQ PUSH2 0x104 JUMPI DUP1 PUSH4 0x239296E0 EQ PUSH2 0x12F JUMPI JUMPDEST PUSH1 0x0 DUP1 REVERT JUMPDEST CALLVALUE DUP1 ISZERO PUSH2 0xF9 JUMPI PUSH1 0x0 DUP1 REVERT JUMPDEST POP PUSH2 0x102 PUSH2 0x258 JUMP JUMPDEST STOP JUMPDEST CALLVALUE DUP1 ISZERO PUSH2 0x110 JUMPI PUSH1 0x0 DUP1 REVERT JUMPDEST POP PUSH2 0x119 PUSH2 0x539 JUMP JUMPDEST PUSH1 0x40 MLOAD PUSH2 0x126 SWAP2 SWAP1 PUSH2 0xE8D JUMP JUMPDEST PUSH1 0x40 MLOAD DUP1 SWAP2 SUB SWAP1 RETURN JUMPDEST CALLVALUE DUP1 ISZERO PUSH2 0x13B JUMPI PUSH1 0x0 DUP1 REVERT JUMPDEST POP PUSH2 0x144 PUSH2 0x546 JUMP JUMPDEST PUSH1 0x40 MLOAD PUSH2 0x126 SWAP2 SWAP1 PUSH2 0xE96 JUMP JUMPDEST CALLVALUE DUP1 ISZERO PUSH2 0x15D JUMPI PUSH1 0x0 DUP1 REVERT JUMPDEST POP PUSH2 0x119 PUSH2 0x562 JUMP JUMPDEST CALLVALUE DUP1 ISZERO PUSH2 0x172 JUMPI PUSH1 0x0 DUP1 REVERT JUMPDEST POP PUSH2 0x144 PUSH2 0x569 JUMP JUMPDEST CALLVALUE DUP1 ISZERO PUSH2 0x187 JUMPI PUSH1 0x0 DUP1 REVERT JUMPDEST POP PUSH2 0x190 PUSH2 0x58D JUMP JUMPDEST PUSH1 0x40 MLOAD PUSH2 0x126 SWAP2 SWAP1 PUSH2 0xBBA JUMP JUMPDEST PUSH2 0x119 PUSH2 0x1AB CALLDATASIZE PUSH1 0x4 PUSH2 0xB32 JUMP JUMPDEST PUSH2 0x5A9 JUMP JUMPDEST CALLVALUE DUP1 ISZERO PUSH2 0x1BC JUMPI PUSH1 0x0 DUP1 REVERT JUMPDEST POP PUSH2 0x190 PUSH2 0x7F7 JUMP JUMPDEST CALLVALUE DUP1 ISZERO PUSH2 0x1D1 JUMPI PUSH1 0x0 DUP1 REVERT JUMPDEST POP PUSH2 0x119 PUSH2 0x813 JUMP JUMPDEST CALLVALUE DUP1 ISZERO PUSH2 0x1E6 JUMPI PUSH1 0x0 DUP1 REVERT JUMPDEST POP PUSH2 0x190 PUSH2 0x819 JUMP JUMPDEST CALLVALUE DUP1 ISZERO PUSH2 0x1FB JUMPI PUSH1 0x0 DUP1 REVERT JUMPDEST POP PUSH2 0x119 PUSH2 0x835 JUMP JUMPDEST CALLVALUE DUP1 ISZERO PUSH2 0x210 JUMPI PUSH1 0x0 DUP1 REVERT JUMPDEST POP PUSH2 0x119 PUSH2 0x83B JUMP JUMPDEST CALLVALUE DUP1 ISZERO PUSH2 0x225 JUMPI PUSH1 0x0 DUP1 REVERT JUMPDEST POP PUSH2 0x119 PUSH2 0x842 JUMP JUMPDEST CALLVALUE DUP1 ISZERO PUSH2 0x23A JUMPI PUSH1 0x0 DUP1 REVERT JUMPDEST POP PUSH2 0x119 PUSH2 0x847 JUMP JUMPDEST CALLVALUE DUP1 ISZERO PUSH2 0x24F JUMPI PUSH1 0x0 DUP1 REVERT JUMPDEST POP PUSH2 0x144 PUSH2 0x854 JUMP JUMPDEST PUSH1 0x5 SLOAD PUSH17 0x100000000000000000000000000000000 SWAP1 DIV PUSH8 0xFFFFFFFFFFFFFFFF AND ISZERO PUSH2 0x2B9 JUMPI PUSH1 0x40 MLOAD PUSH32 0x8C379A000000000000000000000000000000000000000000000000000000000 DUP2 MSTORE PUSH1 0x4 ADD PUSH2 0x2B0 SWAP1 PUSH2 0xC89 JUMP JUMPDEST PUSH1 0x40 MLOAD DUP1 SWAP2 SUB SWAP1 REVERT JUMPDEST PUSH1 0x1 SLOAD PUSH20 0xFFFFFFFFFFFFFFFFFFFFFFFFFFFFFFFFFFFFFFFF AND CALLER EQ PUSH2 0x30A JUMPI PUSH1 0x40 MLOAD PUSH32 0x8C379A000000000000000000000000000000000000000000000000000000000 DUP2 MSTORE PUSH1 0x4 ADD PUSH2 0x2B0 SWAP1 PUSH2 0xD8B JUMP JUMPDEST PUSH1 0x5 SLOAD PUSH8 0xFFFFFFFFFFFFFFFF AND PUSH3 0x278D00 ADD TIMESTAMP LT ISZERO DUP1 PUSH2 0x334 JUMPI POP PUSH9 0x3635C9ADC5DEA00000 PUSH1 0x3 SLOAD GT JUMPDEST PUSH2 0x36A JUMPI PUSH1 0x40 MLOAD PUSH32 0x8C379A000000000000000000000000000000000000000000000000000000000 DUP2 MSTORE PUSH1 0x4 ADD PUSH2 0x2B0 SWAP1 PUSH2 0xCF7 JUMP JUMPDEST PUSH1 0x2 SLOAD PUSH1 0x3 SLOAD PUSH20 0xFFFFFFFFFFFFFFFFFFFFFFFFFFFFFFFFFFFFFFFF SWAP1 SWAP2 AND SWAP1 PUSH9 0x3635C9ADC5DEA00000 GT ISZERO PUSH2 0x3B4 JUMPI POP PUSH1 0x1 SLOAD PUSH20 0xFFFFFFFFFFFFFFFFFFFFFFFFFFFFFFFFFFFFFFFF AND JUMPDEST PUSH1 0x0 DUP1 SLOAD PUSH1 0x40 MLOAD PUSH32 0x70A0823100000000000000000000000000000000000000000000000000000000 DUP2 MSTORE PUSH20 0xFFFFFFFFFFFFFFFFFFFFFFFFFFFFFFFFFFFFFFFF SWAP1 SWAP2 AND SWAP1 PUSH4 0x70A08231 SWAP1 PUSH2 0x40B SWAP1 ADDRESS SWAP1 PUSH1 0x4 ADD PUSH2 0xBBA JUMP JUMPDEST PUSH1 0x20 PUSH1 0x40 MLOAD DUP1 DUP4 SUB DUP2 DUP7 DUP1 EXTCODESIZE ISZERO DUP1 ISZERO PUSH2 0x423 JUMPI PUSH1 0x0 DUP1 REVERT JUMPDEST POP GAS STATICCALL ISZERO DUP1 ISZERO PUSH2 0x437 JUMPI RETURNDATASIZE PUSH1 0x0 DUP1 RETURNDATACOPY RETURNDATASIZE PUSH1 0x0 REVERT JUMPDEST POP POP POP POP PUSH1 0x40 MLOAD RETURNDATASIZE PUSH1 0x1F NOT PUSH1 0x1F DUP3 ADD AND DUP3 ADD DUP1 PUSH1 0x40 MSTORE POP DUP2 ADD SWAP1 PUSH2 0x45B SWAP2 SWAP1 PUSH2 0xB86 JUMP JUMPDEST PUSH1 0x0 SLOAD SWAP1 SWAP2 POP PUSH2 0x482 SWAP1 PUSH20 0xFFFFFFFFFFFFFFFFFFFFFFFFFFFFFFFFFFFFFFFF AND DUP4 DUP4 PUSH2 0x864 JUMP JUMPDEST PUSH1 0x1 SLOAD PUSH2 0x4A5 SWAP1 PUSH20 0xFFFFFFFFFFFFFFFFFFFFFFFFFFFFFFFFFFFFFFFF AND SELFBALANCE PUSH2 0x98E JUMP JUMPDEST PUSH1 0x5 DUP1 SLOAD PUSH32 0xFFFFFFFFFFFFFFFF0000000000000000FFFFFFFFFFFFFFFFFFFFFFFFFFFFFFFF AND PUSH17 0xA500000000000000000000000000000000 OR SWAP1 SSTORE PUSH1 0x1 SLOAD PUSH1 0x3 SLOAD PUSH1 0x40 MLOAD PUSH20 0xFFFFFFFFFFFFFFFFFFFFFFFFFFFFFFFFFFFFFFFF SWAP1 SWAP3 AND SWAP2 PUSH32 0x364DBD3941858B34F6354889ABB84FF9CE02FED0EDFB1621AA8CCB528A0D8D88 SWAP2 PUSH2 0x52D SWAP2 PUSH2 0xE8D JUMP JUMPDEST PUSH1 0x40 MLOAD DUP1 SWAP2 SUB SWAP1 LOG2 POP POP JUMP JUMPDEST PUSH9 0x3643AA647986040000 DUP2 JUMP JUMPDEST PUSH1 0x5 SLOAD PUSH9 0x10000000000000000 SWAP1 DIV PUSH8 0xFFFFFFFFFFFFFFFF AND DUP2 JUMP JUMPDEST PUSH3 0x186A0 DUP2 JUMP JUMPDEST PUSH1 0x5 SLOAD PUSH17 0x100000000000000000000000000000000 SWAP1 DIV PUSH8 0xFFFFFFFFFFFFFFFF AND DUP2 JUMP JUMPDEST PUSH1 0x2 SLOAD PUSH20 0xFFFFFFFFFFFFFFFFFFFFFFFFFFFFFFFFFFFFFFFF AND DUP2 JUMP JUMPDEST PUSH1 0x5 SLOAD PUSH1 0x0 SWAP1 PUSH8 0xFFFFFFFFFFFFFFFF AND TIMESTAMP LT ISZERO PUSH2 0x5F2 JUMPI PUSH1 0x40 MLOAD PUSH32 0x8C379A000000000000000000000000000000000000000000000000000000000 DUP2 MSTORE PUSH1 0x4 ADD PUSH2 0x2B0 SWAP1 PUSH2 0xDC2 JUMP JUMPDEST PUSH1 0x5 SLOAD PUSH8 0xFFFFFFFFFFFFFFFF AND PUSH3 0x278D00 ADD TIMESTAMP LT PUSH2 0x63C JUMPI PUSH1 0x40 MLOAD PUSH32 0x8C379A000000000000000000000000000000000000000000000000000000000 DUP2 MSTORE PUSH1 0x4 ADD PUSH2 0x2B0 SWAP1 PUSH2 0xC52 JUMP JUMPDEST PUSH9 0x3635C9ADC5DEA00000 PUSH1 0x3 SLOAD LT PUSH2 0x680 JUMPI PUSH1 0x40 MLOAD PUSH32 0x8C379A000000000000000000000000000000000000000000000000000000000 DUP2 MSTORE PUSH1 0x4 ADD PUSH2 0x2B0 SWAP1 PUSH2 0xE56 JUMP JUMPDEST PUSH1 0x5 SLOAD PUSH1 0x0 SWAP1 PUSH9 0x10000000000000000 SWAP1 DIV PUSH8 0xFFFFFFFFFFFFFFFF AND TIMESTAMP GT ISZERO PUSH2 0x71B JUMPI PUSH2 0x6CB PUSH8 0xDE0B6B3A7640000 PUSH2 0x6C5 PUSH1 0x14 PUSH1 0x3 SLOAD PUSH2 0xA47 SWAP1 SWAP2 SWAP1 PUSH4 0xFFFFFFFF AND JUMP JUMPDEST SWAP1 PUSH2 0xAA4 JUMP JUMPDEST PUSH3 0x186A0 SUB PUSH1 0x4 DUP2 SWAP1 SSTORE PUSH1 0x5 DUP1 SLOAD PUSH32 0xFFFFFFFFFFFFFFFFFFFFFFFFFFFFFFFF0000000000000000FFFFFFFFFFFFFFFF AND PUSH9 0x10000000000000000 TIMESTAMP PUSH8 0xFFFFFFFFFFFFFFFF AND MUL OR SWAP1 SSTORE SWAP1 POP PUSH2 0x720 JUMP JUMPDEST POP PUSH1 0x4 SLOAD JUMPDEST PUSH1 0x3 SLOAD PUSH9 0x3643AA647986040000 SUB SWAP2 POP DUP2 CALLVALUE LT ISZERO PUSH2 0x73C JUMPI CALLVALUE SWAP2 POP JUMPDEST PUSH1 0x3 DUP1 SLOAD DUP4 ADD SWAP1 SSTORE PUSH1 0x0 PUSH2 0x750 DUP4 DUP4 PUSH2 0xA47 JUMP JUMPDEST PUSH1 0x0 SLOAD SWAP1 SWAP2 POP PUSH2 0x777 SWAP1 PUSH20 0xFFFFFFFFFFFFFFFFFFFFFFFFFFFFFFFFFFFFFFFF AND DUP6 DUP4 PUSH2 0x864 JUMP JUMPDEST DUP3 CALLVALUE GT ISZERO PUSH2 0x78B JUMPI PUSH2 0x78B CALLER DUP5 CALLVALUE SUB PUSH2 0x98E JUMP JUMPDEST DUP4 PUSH20 0xFFFFFFFFFFFFFFFFFFFFFFFFFFFFFFFFFFFFFFFF AND CALLER PUSH20 0xFFFFFFFFFFFFFFFFFFFFFFFFFFFFFFFFFFFFFFFF AND PUSH32 0x350E4474372D22F1949BF2636A88BDD8FD3B8F14917512590B63993B05D86556 DUP6 PUSH1 0x40 MLOAD PUSH2 0x7E8 SWAP2 SWAP1 PUSH2 0xE8D JUMP JUMPDEST PUSH1 0x40 MLOAD DUP1 SWAP2 SUB SWAP1 LOG3 POP POP SWAP2 SWAP1 POP JUMP JUMPDEST PUSH1 0x0 SLOAD PUSH20 0xFFFFFFFFFFFFFFFFFFFFFFFFFFFFFFFFFFFFFFFF AND DUP2 JUMP JUMPDEST PUSH1 0x3 SLOAD DUP2 JUMP JUMPDEST PUSH1 0x1 SLOAD PUSH20 0xFFFFFFFFFFFFFFFFFFFFFFFFFFFFFFFFFFFFFFFF AND DUP2 JUMP JUMPDEST PUSH1 0x4 SLOAD DUP2 JUMP JUMPDEST PUSH3 0x278D00 DUP2 JUMP JUMPDEST PUSH1 0x14 DUP2 JUMP JUMPDEST PUSH9 0x3635C9ADC5DEA00000 DUP2 JUMP JUMPDEST PUSH1 0x5 SLOAD PUSH8 0xFFFFFFFFFFFFFFFF AND DUP2 JUMP JUMPDEST PUSH1 0x0 PUSH1 0x60 DUP5 PUSH20 0xFFFFFFFFFFFFFFFFFFFFFFFFFFFFFFFFFFFFFFFF AND PUSH4 0xA9059CBB DUP6 DUP6 PUSH1 0x40 MLOAD PUSH1 0x24 ADD PUSH2 0x897 SWAP3 SWAP2 SWAP1 PUSH2 0xBDB JUMP JUMPDEST PUSH1 0x40 MLOAD PUSH1 0x20 DUP2 DUP4 SUB SUB DUP2 MSTORE SWAP1 PUSH1 0x40 MSTORE SWAP1 PUSH1 0xE0 SHL PUSH1 0x20 DUP3 ADD DUP1 MLOAD PUSH28 0xFFFFFFFFFFFFFFFFFFFFFFFFFFFFFFFFFFFFFFFFFFFFFFFFFFFFFFFF DUP4 DUP2 DUP4 AND OR DUP4 MSTORE POP POP POP POP PUSH1 0x40 MLOAD PUSH2 0x8E5 SWAP2 SWAP1 PUSH2 0xB9E JUMP JUMPDEST PUSH1 0x0 PUSH1 0x40 MLOAD DUP1 DUP4 SUB DUP2 PUSH1 0x0 DUP7 GAS CALL SWAP2 POP POP RETURNDATASIZE DUP1 PUSH1 0x0 DUP2 EQ PUSH2 0x922 JUMPI PUSH1 0x40 MLOAD SWAP2 POP PUSH1 0x1F NOT PUSH1 0x3F RETURNDATASIZE ADD AND DUP3 ADD PUSH1 0x40 MSTORE RETURNDATASIZE DUP3 MSTORE RETURNDATASIZE PUSH1 0x0 PUSH1 0x20 DUP5 ADD RETURNDATACOPY PUSH2 0x927 JUMP JUMPDEST PUSH1 0x60 SWAP2 POP JUMPDEST POP SWAP2 POP SWAP2 POP DUP2 DUP1 ISZERO PUSH2 0x951 JUMPI POP DUP1 MLOAD ISZERO DUP1 PUSH2 0x951 JUMPI POP DUP1 DUP1 PUSH1 0x20 ADD SWAP1 MLOAD DUP2 ADD SWAP1 PUSH2 0x951 SWAP2 SWAP1 PUSH2 0xB66 JUMP JUMPDEST PUSH2 0x987 JUMPI PUSH1 0x40 MLOAD PUSH32 0x8C379A000000000000000000000000000000000000000000000000000000000 DUP2 MSTORE PUSH1 0x4 ADD PUSH2 0x2B0 SWAP1 PUSH2 0xCC0 JUMP JUMPDEST POP POP POP POP POP JUMP JUMPDEST PUSH1 0x40 DUP1 MLOAD PUSH1 0x0 DUP1 DUP3 MSTORE PUSH1 0x20 DUP3 ADD SWAP1 SWAP3 MSTORE PUSH20 0xFFFFFFFFFFFFFFFFFFFFFFFFFFFFFFFFFFFFFFFF DUP5 AND SWAP1 DUP4 SWAP1 PUSH1 0x40 MLOAD PUSH2 0x9C5 SWAP2 SWAP1 PUSH2 0xB9E JUMP JUMPDEST PUSH1 0x0 PUSH1 0x40 MLOAD DUP1 DUP4 SUB DUP2 DUP6 DUP8 GAS CALL SWAP3 POP POP POP RETURNDATASIZE DUP1 PUSH1 0x0 DUP2 EQ PUSH2 0xA02 JUMPI PUSH1 0x40 MLOAD SWAP2 POP PUSH1 0x1F NOT PUSH1 0x3F RETURNDATASIZE ADD AND DUP3 ADD PUSH1 0x40 MSTORE RETURNDATASIZE DUP3 MSTORE RETURNDATASIZE PUSH1 0x0 PUSH1 0x20 DUP5 ADD RETURNDATACOPY PUSH2 0xA07 JUMP JUMPDEST PUSH1 0x60 SWAP2 POP JUMPDEST POP POP SWAP1 POP DUP1 PUSH2 0xA42 JUMPI PUSH1 0x40 MLOAD PUSH32 0x8C379A000000000000000000000000000000000000000000000000000000000 DUP2 MSTORE PUSH1 0x4 ADD PUSH2 0x2B0 SWAP1 PUSH2 0xDF9 JUMP JUMPDEST POP POP POP JUMP JUMPDEST PUSH1 0x0 DUP3 PUSH2 0xA56 JUMPI POP PUSH1 0x0 PUSH2 0xA9E JUMP JUMPDEST DUP3 DUP3 MUL DUP3 DUP5 DUP3 DUP2 PUSH2 0xA63 JUMPI INVALID JUMPDEST DIV EQ PUSH2 0xA9B JUMPI PUSH1 0x40 MLOAD PUSH32 0x8C379A000000000000000000000000000000000000000000000000000000000 DUP2 MSTORE PUSH1 0x4 ADD PUSH2 0x2B0 SWAP1 PUSH2 0xD2E JUMP JUMPDEST SWAP1 POP JUMPDEST SWAP3 SWAP2 POP POP JUMP JUMPDEST PUSH1 0x0 PUSH2 0xA9B DUP4 DUP4 PUSH1 0x40 MLOAD DUP1 PUSH1 0x40 ADD PUSH1 0x40 MSTORE DUP1 PUSH1 0x1A DUP2 MSTORE PUSH1 0x20 ADD PUSH32 0x536166654D6174683A206469766973696F6E206279207A65726F000000000000 DUP2 MSTORE POP PUSH1 0x0 DUP2 DUP4 PUSH2 0xB1C JUMPI PUSH1 0x40 MLOAD PUSH32 0x8C379A000000000000000000000000000000000000000000000000000000000 DUP2 MSTORE PUSH1 0x4 ADD PUSH2 0x2B0 SWAP2 SWAP1 PUSH2 0xC01 JUMP JUMPDEST POP PUSH1 0x0 DUP4 DUP6 DUP2 PUSH2 0xB28 JUMPI INVALID JUMPDEST DIV SWAP6 SWAP5 POP POP POP POP POP JUMP JUMPDEST PUSH1 0x0 PUSH1 0x20 DUP3 DUP5 SUB SLT ISZERO PUSH2 0xB43 JUMPI DUP1 DUP2 REVERT JUMPDEST DUP2 CALLDATALOAD PUSH20 0xFFFFFFFFFFFFFFFFFFFFFFFFFFFFFFFFFFFFFFFF DUP2 AND DUP2 EQ PUSH2 0xA9B JUMPI DUP2 DUP3 REVERT JUMPDEST PUSH1 0x0 PUSH1 0x20 DUP3 DUP5 SUB SLT ISZERO PUSH2 0xB77 JUMPI DUP1 DUP2 REVERT JUMPDEST DUP2 MLOAD DUP1 ISZERO ISZERO DUP2 EQ PUSH2 0xA9B JUMPI DUP2 DUP3 REVERT JUMPDEST PUSH1 0x0 PUSH1 0x20 DUP3 DUP5 SUB SLT ISZERO PUSH2 0xB97 JUMPI DUP1 DUP2 REVERT JUMPDEST POP MLOAD SWAP2 SWAP1 POP JUMP JUMPDEST PUSH1 0x0 DUP3 MLOAD PUSH2 0xBB0 DUP2 DUP5 PUSH1 0x20 DUP8 ADD PUSH2 0xEAB JUMP JUMPDEST SWAP2 SWAP1 SWAP2 ADD SWAP3 SWAP2 POP POP JUMP JUMPDEST PUSH20 0xFFFFFFFFFFFFFFFFFFFFFFFFFFFFFFFFFFFFFFFF SWAP2 SWAP1 SWAP2 AND DUP2 MSTORE PUSH1 0x20 ADD SWAP1 JUMP JUMPDEST PUSH20 0xFFFFFFFFFFFFFFFFFFFFFFFFFFFFFFFFFFFFFFFF SWAP3 SWAP1 SWAP3 AND DUP3 MSTORE PUSH1 0x20 DUP3 ADD MSTORE PUSH1 0x40 ADD SWAP1 JUMP JUMPDEST PUSH1 0x0 PUSH1 0x20 DUP3 MSTORE DUP3 MLOAD DUP1 PUSH1 0x20 DUP5 ADD MSTORE PUSH2 0xC20 DUP2 PUSH1 0x40 DUP6 ADD PUSH1 0x20 DUP8 ADD PUSH2 0xEAB JUMP JUMPDEST PUSH1 0x1F ADD PUSH32 0xFFFFFFFFFFFFFFFFFFFFFFFFFFFFFFFFFFFFFFFFFFFFFFFFFFFFFFFFFFFFFFE0 AND SWAP2 SWAP1 SWAP2 ADD PUSH1 0x40 ADD SWAP3 SWAP2 POP POP JUMP JUMPDEST PUSH1 0x20 DUP1 DUP3 MSTORE PUSH1 0x13 SWAP1 DUP3 ADD MSTORE PUSH32 0x464553573A2053504F4E534F5220454E44454400000000000000000000000000 PUSH1 0x40 DUP3 ADD MSTORE PUSH1 0x60 ADD SWAP1 JUMP JUMPDEST PUSH1 0x20 DUP1 DUP3 MSTORE PUSH1 0x17 SWAP1 DUP3 ADD MSTORE PUSH32 0x464553573A2053504F4E534F522046494E414C495A4544000000000000000000 PUSH1 0x40 DUP3 ADD MSTORE PUSH1 0x60 ADD SWAP1 JUMP JUMPDEST PUSH1 0x20 DUP1 DUP3 MSTORE PUSH1 0x1F SWAP1 DUP3 ADD MSTORE PUSH32 0x5472616E7366657248656C7065723A205452414E534645525F4641494C454400 PUSH1 0x40 DUP3 ADD MSTORE PUSH1 0x60 ADD SWAP1 JUMP JUMPDEST PUSH1 0x20 DUP1 DUP3 MSTORE PUSH1 0x15 SWAP1 DUP3 ADD MSTORE PUSH32 0x464553573A2053504F4E534F52204F4E474F494E470000000000000000000000 PUSH1 0x40 DUP3 ADD MSTORE PUSH1 0x60 ADD SWAP1 JUMP JUMPDEST PUSH1 0x20 DUP1 DUP3 MSTORE PUSH1 0x21 SWAP1 DUP3 ADD MSTORE PUSH32 0x536166654D6174683A206D756C7469706C69636174696F6E206F766572666C6F PUSH1 0x40 DUP3 ADD MSTORE PUSH32 0x7700000000000000000000000000000000000000000000000000000000000000 PUSH1 0x60 DUP3 ADD MSTORE PUSH1 0x80 ADD SWAP1 JUMP JUMPDEST PUSH1 0x20 DUP1 DUP3 MSTORE PUSH1 0x11 SWAP1 DUP3 ADD MSTORE PUSH32 0x464553573A204E4F5420414C4C4F574544000000000000000000000000000000 PUSH1 0x40 DUP3 ADD MSTORE PUSH1 0x60 ADD SWAP1 JUMP JUMPDEST PUSH1 0x20 DUP1 DUP3 MSTORE PUSH1 0x19 SWAP1 DUP3 ADD MSTORE PUSH32 0x464553573A2053504F4E534F52204E4F54205354415254454400000000000000 PUSH1 0x40 DUP3 ADD MSTORE PUSH1 0x60 ADD SWAP1 JUMP JUMPDEST PUSH1 0x20 DUP1 DUP3 MSTORE PUSH1 0x23 SWAP1 DUP3 ADD MSTORE PUSH32 0x5472616E7366657248656C7065723A204554485F5452414E534645525F464149 PUSH1 0x40 DUP3 ADD MSTORE PUSH32 0x4C45440000000000000000000000000000000000000000000000000000000000 PUSH1 0x60 DUP3 ADD MSTORE PUSH1 0x80 ADD SWAP1 JUMP JUMPDEST PUSH1 0x20 DUP1 DUP3 MSTORE PUSH1 0x17 SWAP1 DUP3 ADD MSTORE PUSH32 0x464553573A2053504F4E534F5220434F4D504C45544544000000000000000000 PUSH1 0x40 DUP3 ADD MSTORE PUSH1 0x60 ADD SWAP1 JUMP JUMPDEST SWAP1 DUP2 MSTORE PUSH1 0x20 ADD SWAP1 JUMP JUMPDEST PUSH8 0xFFFFFFFFFFFFFFFF SWAP2 SWAP1 SWAP2 AND DUP2 MSTORE PUSH1 0x20 ADD SWAP1 JUMP JUMPDEST PUSH1 0x0 JUMPDEST DUP4 DUP2 LT ISZERO PUSH2 0xEC6 JUMPI DUP2 DUP2 ADD MLOAD DUP4 DUP3 ADD MSTORE PUSH1 0x20 ADD PUSH2 0xEAE JUMP JUMPDEST DUP4 DUP2 GT ISZERO PUSH2 0xED5 JUMPI PUSH1 0x0 DUP5 DUP5 ADD MSTORE JUMPDEST POP POP POP POP JUMP INVALID LOG2 PUSH5 0x6970667358 0x22 SLT KECCAK256 SWAP5 PUSH27 0x75C783B296279CF7BC8EFCAFCF1C33B8E811712B36695D7FC2A334 0xCE 0x2F 0xC8 PUSH5 0x736F6C6343 STOP SMOD STOP STOP CALLER "
    }
  }
}