{
  "abi": [
    {
      "inputs": [
        {
          "internalType": "address",
          "name": "feswaToken",
          "type": "address"
        },
        {
          "internalType": "uint256",
          "name": "priceLowLimit",
          "type": "uint256"
        },
        {
          "internalType": "uint256",
          "name": "saleStartTime",
          "type": "uint256"
        }
      ],
      "stateMutability": "nonpayable",
      "type": "constructor"
    },
    {
      "anonymous": false,
      "inputs": [
        {
          "indexed": true,
          "internalType": "address",
          "name": "owner",
          "type": "address"
        },
        {
          "indexed": true,
          "internalType": "address",
          "name": "approved",
          "type": "address"
        },
        {
          "indexed": true,
          "internalType": "uint256",
          "name": "tokenId",
          "type": "uint256"
        }
      ],
      "name": "Approval",
      "type": "event"
    },
    {
      "anonymous": false,
      "inputs": [
        {
          "indexed": true,
          "internalType": "address",
          "name": "owner",
          "type": "address"
        },
        {
          "indexed": true,
          "internalType": "address",
          "name": "operator",
          "type": "address"
        },
        {
          "indexed": false,
          "internalType": "bool",
          "name": "approved",
          "type": "bool"
        }
      ],
      "name": "ApprovalForAll",
      "type": "event"
    },
    {
      "anonymous": false,
      "inputs": [
        {
          "indexed": true,
          "internalType": "address",
          "name": "previousOwner",
          "type": "address"
        },
        {
          "indexed": true,
          "internalType": "address",
          "name": "newOwner",
          "type": "address"
        }
      ],
      "name": "OwnershipTransferred",
      "type": "event"
    },
    {
      "anonymous": false,
      "inputs": [
        {
          "indexed": true,
          "internalType": "address",
          "name": "tokenA",
          "type": "address"
        },
        {
          "indexed": true,
          "internalType": "address",
          "name": "tokenB",
          "type": "address"
        },
        {
          "indexed": false,
          "internalType": "uint256",
          "name": "tokenID",
          "type": "uint256"
        }
      ],
      "name": "PairCreadted",
      "type": "event"
    },
    {
      "anonymous": false,
      "inputs": [
        {
          "indexed": true,
          "internalType": "address",
          "name": "from",
          "type": "address"
        },
        {
          "indexed": true,
          "internalType": "address",
          "name": "to",
          "type": "address"
        },
        {
          "indexed": true,
          "internalType": "uint256",
          "name": "tokenId",
          "type": "uint256"
        }
      ],
      "name": "Transfer",
      "type": "event"
    },
    {
      "inputs": [],
      "name": "AIRDROP_FOR_FIRST",
      "outputs": [
        {
          "internalType": "uint256",
          "name": "",
          "type": "uint256"
        }
      ],
      "stateMutability": "view",
      "type": "function"
    },
    {
      "inputs": [],
      "name": "AIRDROP_FOR_NEXT",
      "outputs": [
        {
          "internalType": "uint256",
          "name": "",
          "type": "uint256"
        }
      ],
      "stateMutability": "view",
      "type": "function"
    },
    {
      "inputs": [],
      "name": "AIRDROP_RATE_FOR_WINNER",
      "outputs": [
        {
          "internalType": "uint256",
          "name": "",
          "type": "uint256"
        }
      ],
      "stateMutability": "view",
      "type": "function"
    },
    {
      "inputs": [
        {
          "internalType": "address",
          "name": "tokenA",
          "type": "address"
        },
        {
          "internalType": "address",
          "name": "tokenB",
          "type": "address"
        },
        {
          "internalType": "address",
          "name": "to",
          "type": "address"
        }
      ],
      "name": "BidFeswaPair",
      "outputs": [
        {
          "internalType": "uint256",
          "name": "tokenID",
          "type": "uint256"
        }
      ],
      "stateMutability": "payable",
      "type": "function"
    },
    {
      "inputs": [],
      "name": "CLOSE_BID_DELAY",
      "outputs": [
        {
          "internalType": "uint256",
          "name": "",
          "type": "uint256"
        }
      ],
      "stateMutability": "view",
      "type": "function"
    },
    {
      "inputs": [
        {
          "internalType": "uint256",
          "name": "tokenID",
          "type": "uint256"
        },
        {
          "internalType": "uint256",
          "name": "newPrice",
          "type": "uint256"
        },
        {
          "internalType": "address",
          "name": "to",
          "type": "address"
        }
      ],
      "name": "FeswaPairBuyIn",
      "outputs": [
        {
          "internalType": "uint256",
          "name": "getPrice",
          "type": "uint256"
        }
      ],
      "stateMutability": "payable",
      "type": "function"
    },
    {
      "inputs": [
        {
          "internalType": "uint256",
          "name": "tokenID",
          "type": "uint256"
        },
        {
          "internalType": "uint256",
          "name": "pairPrice",
          "type": "uint256"
        }
      ],
      "name": "FeswaPairForSale",
      "outputs": [
        {
          "internalType": "uint256",
          "name": "newPrice",
          "type": "uint256"
        }
      ],
      "stateMutability": "nonpayable",
      "type": "function"
    },
    {
      "inputs": [
        {
          "internalType": "uint256",
          "name": "tokenID",
          "type": "uint256"
        }
      ],
      "name": "FeswaPairSettle",
      "outputs": [],
      "stateMutability": "nonpayable",
      "type": "function"
    },
    {
      "inputs": [],
      "name": "FeswapToken",
      "outputs": [
        {
          "internalType": "address",
          "name": "",
          "type": "address"
        }
      ],
      "stateMutability": "view",
      "type": "function"
    },
    {
      "inputs": [
        {
          "internalType": "uint256",
          "name": "",
          "type": "uint256"
        }
      ],
      "name": "ListPools",
      "outputs": [
        {
          "internalType": "address",
          "name": "tokenA",
          "type": "address"
        },
        {
          "internalType": "address",
          "name": "tokenB",
          "type": "address"
        },
        {
          "internalType": "uint256",
          "name": "currentPrice",
          "type": "uint256"
        },
        {
          "internalType": "uint64",
          "name": "timeCreated",
          "type": "uint64"
        },
        {
          "internalType": "uint64",
          "name": "lastBidTime",
          "type": "uint64"
        },
        {
          "internalType": "enum PoolRunningPhase",
          "name": "poolState",
          "type": "uint8"
        }
      ],
      "stateMutability": "view",
      "type": "function"
    },
    {
      "inputs": [],
      "name": "MINIMUM_PRICE_INCREACE",
      "outputs": [
        {
          "internalType": "uint256",
          "name": "",
          "type": "uint256"
        }
      ],
      "stateMutability": "view",
      "type": "function"
    },
    {
      "inputs": [],
      "name": "NAME",
      "outputs": [
        {
          "internalType": "string",
          "name": "",
          "type": "string"
        }
      ],
      "stateMutability": "view",
      "type": "function"
    },
    {
      "inputs": [],
      "name": "OPEN_BID_DURATION",
      "outputs": [
        {
          "internalType": "uint256",
          "name": "",
          "type": "uint256"
        }
      ],
      "stateMutability": "view",
      "type": "function"
    },
    {
      "inputs": [],
      "name": "PriceLowLimit",
      "outputs": [
        {
          "internalType": "uint256",
          "name": "",
          "type": "uint256"
        }
      ],
      "stateMutability": "view",
      "type": "function"
    },
    {
      "inputs": [],
      "name": "SYMBOL",
      "outputs": [
        {
          "internalType": "string",
          "name": "",
          "type": "string"
        }
      ],
      "stateMutability": "view",
      "type": "function"
    },
    {
      "inputs": [],
      "name": "SaleStartTime",
      "outputs": [
        {
          "internalType": "uint256",
          "name": "",
          "type": "uint256"
        }
      ],
      "stateMutability": "view",
      "type": "function"
    },
    {
      "inputs": [
        {
          "internalType": "address",
          "name": "to",
          "type": "address"
        },
        {
          "internalType": "uint256",
          "name": "tokenId",
          "type": "uint256"
        }
      ],
      "name": "approve",
      "outputs": [],
      "stateMutability": "nonpayable",
      "type": "function"
    },
    {
      "inputs": [
        {
          "internalType": "address",
          "name": "owner",
          "type": "address"
        }
      ],
      "name": "balanceOf",
      "outputs": [
        {
          "internalType": "uint256",
          "name": "",
          "type": "uint256"
        }
      ],
      "stateMutability": "view",
      "type": "function"
    },
    {
      "inputs": [],
      "name": "baseURI",
      "outputs": [
        {
          "internalType": "string",
          "name": "",
          "type": "string"
        }
      ],
      "stateMutability": "view",
      "type": "function"
    },
    {
      "inputs": [
        {
          "internalType": "uint256",
          "name": "tokenId",
          "type": "uint256"
        }
      ],
      "name": "getApproved",
      "outputs": [
        {
          "internalType": "address",
          "name": "",
          "type": "address"
        }
      ],
      "stateMutability": "view",
      "type": "function"
    },
    {
      "inputs": [
        {
          "internalType": "address",
          "name": "tokenA",
          "type": "address"
        },
        {
          "internalType": "address",
          "name": "tokenB",
          "type": "address"
        }
      ],
      "name": "getPoolInfoByTokens",
      "outputs": [
        {
          "internalType": "uint256",
          "name": "tokenID",
          "type": "uint256"
        },
        {
          "components": [
            {
              "internalType": "address",
              "name": "tokenA",
              "type": "address"
            },
            {
              "internalType": "address",
              "name": "tokenB",
              "type": "address"
            },
            {
              "internalType": "uint256",
              "name": "currentPrice",
              "type": "uint256"
            },
            {
              "internalType": "uint64",
              "name": "timeCreated",
              "type": "uint64"
            },
            {
              "internalType": "uint64",
              "name": "lastBidTime",
              "type": "uint64"
            },
            {
              "internalType": "enum PoolRunningPhase",
              "name": "poolState",
              "type": "uint8"
            }
          ],
          "internalType": "struct FeswaPair",
          "name": "pairInfo",
          "type": "tuple"
        }
      ],
      "stateMutability": "view",
      "type": "function"
    },
    {
      "inputs": [
        {
          "internalType": "uint256",
          "name": "tokenID",
          "type": "uint256"
        }
      ],
      "name": "getPoolTokens",
      "outputs": [
        {
          "internalType": "address",
          "name": "tokenA",
          "type": "address"
        },
        {
          "internalType": "address",
          "name": "tokenB",
          "type": "address"
        }
      ],
      "stateMutability": "view",
      "type": "function"
    },
    {
      "inputs": [
        {
          "internalType": "address",
          "name": "owner",
          "type": "address"
        },
        {
          "internalType": "address",
          "name": "operator",
          "type": "address"
        }
      ],
      "name": "isApprovedForAll",
      "outputs": [
        {
          "internalType": "bool",
          "name": "",
          "type": "bool"
        }
      ],
      "stateMutability": "view",
      "type": "function"
    },
    {
      "inputs": [],
      "name": "name",
      "outputs": [
        {
          "internalType": "string",
          "name": "",
          "type": "string"
        }
      ],
      "stateMutability": "view",
      "type": "function"
    },
    {
      "inputs": [],
      "name": "owner",
      "outputs": [
        {
          "internalType": "address",
          "name": "",
          "type": "address"
        }
      ],
      "stateMutability": "view",
      "type": "function"
    },
    {
      "inputs": [
        {
          "internalType": "uint256",
          "name": "tokenId",
          "type": "uint256"
        }
      ],
      "name": "ownerOf",
      "outputs": [
        {
          "internalType": "address",
          "name": "",
          "type": "address"
        }
      ],
      "stateMutability": "view",
      "type": "function"
    },
    {
      "inputs": [],
      "name": "renounceOwnership",
      "outputs": [],
      "stateMutability": "nonpayable",
      "type": "function"
    },
    {
      "inputs": [
        {
          "internalType": "address",
          "name": "from",
          "type": "address"
        },
        {
          "internalType": "address",
          "name": "to",
          "type": "address"
        },
        {
          "internalType": "uint256",
          "name": "tokenId",
          "type": "uint256"
        }
      ],
      "name": "safeTransferFrom",
      "outputs": [],
      "stateMutability": "nonpayable",
      "type": "function"
    },
    {
      "inputs": [
        {
          "internalType": "address",
          "name": "from",
          "type": "address"
        },
        {
          "internalType": "address",
          "name": "to",
          "type": "address"
        },
        {
          "internalType": "uint256",
          "name": "tokenId",
          "type": "uint256"
        },
        {
          "internalType": "bytes",
          "name": "_data",
          "type": "bytes"
        }
      ],
      "name": "safeTransferFrom",
      "outputs": [],
      "stateMutability": "nonpayable",
      "type": "function"
    },
    {
      "inputs": [
        {
          "internalType": "address",
          "name": "operator",
          "type": "address"
        },
        {
          "internalType": "bool",
          "name": "approved",
          "type": "bool"
        }
      ],
      "name": "setApprovalForAll",
      "outputs": [],
      "stateMutability": "nonpayable",
      "type": "function"
    },
    {
      "inputs": [
        {
          "internalType": "uint256",
          "name": "priceLowLimit",
          "type": "uint256"
        }
      ],
      "name": "setPriceLowLimit",
      "outputs": [],
      "stateMutability": "nonpayable",
      "type": "function"
    },
    {
      "inputs": [
        {
          "internalType": "bytes4",
          "name": "interfaceId",
          "type": "bytes4"
        }
      ],
      "name": "supportsInterface",
      "outputs": [
        {
          "internalType": "bool",
          "name": "",
          "type": "bool"
        }
      ],
      "stateMutability": "view",
      "type": "function"
    },
    {
      "inputs": [],
      "name": "symbol",
      "outputs": [
        {
          "internalType": "string",
          "name": "",
          "type": "string"
        }
      ],
      "stateMutability": "view",
      "type": "function"
    },
    {
      "inputs": [
        {
          "internalType": "uint256",
          "name": "index",
          "type": "uint256"
        }
      ],
      "name": "tokenByIndex",
      "outputs": [
        {
          "internalType": "uint256",
          "name": "",
          "type": "uint256"
        }
      ],
      "stateMutability": "view",
      "type": "function"
    },
    {
      "inputs": [
        {
          "internalType": "address",
          "name": "owner",
          "type": "address"
        },
        {
          "internalType": "uint256",
          "name": "index",
          "type": "uint256"
        }
      ],
      "name": "tokenOfOwnerByIndex",
      "outputs": [
        {
          "internalType": "uint256",
          "name": "",
          "type": "uint256"
        }
      ],
      "stateMutability": "view",
      "type": "function"
    },
    {
      "inputs": [
        {
          "internalType": "uint256",
          "name": "tokenId",
          "type": "uint256"
        }
      ],
      "name": "tokenURI",
      "outputs": [
        {
          "internalType": "string",
          "name": "",
          "type": "string"
        }
      ],
      "stateMutability": "view",
      "type": "function"
    },
    {
      "inputs": [],
      "name": "totalSupply",
      "outputs": [
        {
          "internalType": "uint256",
          "name": "",
          "type": "uint256"
        }
      ],
      "stateMutability": "view",
      "type": "function"
    },
    {
      "inputs": [
        {
          "internalType": "address",
          "name": "from",
          "type": "address"
        },
        {
          "internalType": "address",
          "name": "to",
          "type": "address"
        },
        {
          "internalType": "uint256",
          "name": "tokenId",
          "type": "uint256"
        }
      ],
      "name": "transferFrom",
      "outputs": [],
      "stateMutability": "nonpayable",
      "type": "function"
    },
    {
      "inputs": [
        {
          "internalType": "address",
          "name": "newOwner",
          "type": "address"
        }
      ],
      "name": "transferOwnership",
      "outputs": [],
      "stateMutability": "nonpayable",
      "type": "function"
    },
    {
      "inputs": [
        {
          "internalType": "address",
          "name": "to",
          "type": "address"
        },
        {
          "internalType": "uint256",
          "name": "value",
          "type": "uint256"
        }
      ],
      "name": "withdraw",
      "outputs": [],
      "stateMutability": "nonpayable",
      "type": "function"
    }
  ],
  "evm": {
    "bytecode": {
      "linkReferences": {},
      "object": "60806040523480156200001157600080fd5b50604051620044433803806200444383398101604081905262000034916200026f565b604080518082018252600f81526e11995cddd85c08141bdbdb08139195608a1b602080830191909152825180840190935260048352632322a9a760e11b9083015290620000886301ffc9a760e01b62000174565b81516200009d906006906020850190620001d3565b508051620000b3906007906020840190620001d3565b50620000c66380ac58cd60e01b62000174565b620000d8635b5e139f60e01b62000174565b620000ea63780e9d6360e01b62000174565b5060009050620000f9620001cf565b600a80546001600160a01b0319166001600160a01b038316908117909155604051919250906000907f8be0079c531659141344cd1fd0a4f28419497f9722a3daafe3b4186f6b6457e0908290a350600b80546001600160a01b0319166001600160a01b039490941693909317909255600c55600d55620002e9565b6001600160e01b03198082161415620001aa5760405162461bcd60e51b8152600401620001a190620002b2565b60405180910390fd5b6001600160e01b0319166000908152602081905260409020805460ff19166001179055565b3390565b828054600181600116156101000203166002900490600052602060002090601f016020900481019282601f106200021657805160ff191683800117855562000246565b8280016001018555821562000246579182015b828111156200024657825182559160200191906001019062000229565b506200025492915062000258565b5090565b5b8082111562000254576000815560010162000259565b60008060006060848603121562000284578283fd5b83516001600160a01b03811681146200029b578384fd5b602085015160409095015190969495509392505050565b6020808252601c908201527f4552433136353a20696e76616c696420696e7465726661636520696400000000604082015260600190565b61414a80620002f96000396000f3fe6080604052600436106102bb5760003560e01c806370a082311161016e578063b1259797116100cb578063d625c8ef1161007f578063f2fde38b11610064578063f2fde38b14610703578063f3fef3a314610723578063f76f8d7814610743576102bb565b8063d625c8ef146106c3578063e985e9c5146106e3576102bb565b8063b88d4fde116100b0578063b88d4fde1461066e578063c87b56dd1461068e578063c9334ba9146106ae576102bb565b8063b125979714610646578063b42f84a214610659576102bb565b806399c5e75c11610122578063a22cb46511610107578063a22cb465146105fc578063a3f4df7e1461061c578063aadbf1d114610631576102bb565b806399c5e75c146105b95780639f5f7461146105e7576102bb565b80638660a88b116101535780638660a88b1461056f5780638da5cb5b1461058f57806395d89b41146105a4576102bb565b806370a082311461053a578063715018a61461055a576102bb565b806327faba901161021c5780634f6ccce7116101d05780636352211e116101b55780636352211e146104f05780636c0360eb146105105780636f78112d14610525576102bb565b80634f6ccce7146104bb578063536022e2146104db576102bb565b8063407486bb11610201578063407486bb1461047157806342842e0e14610486578063473e2e20146104a6576102bb565b806327faba90146104315780632f745c5914610451576102bb565b8063095ea7b3116102735780631bf63d49116102585780631bf63d49146103e95780631e5cf5c6146103fe57806323b872dd14610411576102bb565b8063095ea7b3146103a557806318160ddd146103c7576102bb565b8063066e8f51116102a4578063066e8f511461032457806306fdde0314610356578063081812fc14610378576102bb565b806301c4f575146102c057806301ffc9a7146102f7575b600080fd5b3480156102cc57600080fd5b506102e06102db366004613150565b610758565b6040516102ee929190613fab565b60405180910390f35b34801561030357600080fd5b5061031761031236600461336a565b6108d9565b6040516102ee9190613600565b34801561033057600080fd5b5061034461033f3660046133a2565b610914565b6040516102ee9695949392919061357b565b34801561036257600080fd5b5061036b61098a565b6040516102ee919061360b565b34801561038457600080fd5b506103986103933660046133a2565b610a3e565b6040516102ee91906134ea565b3480156103b157600080fd5b506103c56103c0366004613324565b610aa8565b005b3480156103d357600080fd5b506103dc610ba8565b6040516102ee9190613fa2565b3480156103f557600080fd5b506103dc610bb9565b6103dc61040c3660046133db565b610bbf565b34801561041d57600080fd5b506103c561042c3660046131c9565b610d65565b34801561043d57600080fd5b506103c561044c3660046133a2565b610db7565b34801561045d57600080fd5b506103dc61046c366004613324565b610fe0565b34801561047d57600080fd5b506103dc611018565b34801561049257600080fd5b506103c56104a13660046131c9565b611025565b3480156104b257600080fd5b50610398611040565b3480156104c757600080fd5b506103dc6104d63660046133a2565b61105c565b3480156104e757600080fd5b506103dc611072565b3480156104fc57600080fd5b5061039861050b3660046133a2565b611078565b34801561051c57600080fd5b5061036b6110a0565b34801561053157600080fd5b506103dc61111f565b34801561054657600080fd5b506103dc610555366004613135565b611125565b34801561056657600080fd5b506103c56111a2565b34801561057b57600080fd5b506103c561058a3660046133a2565b611284565b34801561059b57600080fd5b506103986112fc565b3480156105b057600080fd5b5061036b611318565b3480156105c557600080fd5b506105d96105d43660046133a2565b611397565b6040516102ee929190613554565b3480156105f357600080fd5b506103dc611420565b34801561060857600080fd5b506103c56106173660046132ed565b61142c565b34801561062857600080fd5b5061036b611566565b34801561063d57600080fd5b506103dc61159f565b6103dc610654366004613184565b6115a6565b34801561066557600080fd5b506103dc611c1e565b34801561067a57600080fd5b506103c5610689366004613209565b611c24565b34801561069a57600080fd5b5061036b6106a93660046133a2565b611c7d565b3480156106ba57600080fd5b506103dc611dfb565b3480156106cf57600080fd5b506103dc6106de3660046133ba565b611e08565b3480156106ef57600080fd5b506103176106fe366004613150565b611fa1565b34801561070f57600080fd5b506103c561071e366004613135565b611fdc565b34801561072f57600080fd5b506103c561073e366004613324565b61212a565b34801561074f57600080fd5b5061036b6121e1565b60006107626130de565b6000808473ffffffffffffffffffffffffffffffffffffffff168673ffffffffffffffffffffffffffffffffffffffff161061079f5784866107a2565b85855b915091503082826040516020016107bb9392919061345d565b6040516020818303038152906040528051906020012060001c93506107df8461221a565b61081e576040517f08c379a0000000000000000000000000000000000000000000000000000000008152600401610815906137b4565b60405180910390fd5b6000848152600e6020908152604091829020825160c081018452815473ffffffffffffffffffffffffffffffffffffffff908116825260018301541692810192909252600281015492820192909252600382015467ffffffffffffffff808216606084015268010000000000000000820416608083015290919060a0830190700100000000000000000000000000000000900460ff1660048111156108bf57fe5b60048111156108ca57fe5b81525050925050509250929050565b7fffffffff00000000000000000000000000000000000000000000000000000000811660009081526020819052604090205460ff165b919050565b600e60205260009081526040902080546001820154600283015460039093015473ffffffffffffffffffffffffffffffffffffffff92831693919092169167ffffffffffffffff808216916801000000000000000081049091169060ff7001000000000000000000000000000000009091041686565b60068054604080516020601f60027fffffffffffffffffffffffffffffffffffffffffffffffffffffffffffffffff610100600188161502019095169490940493840181900481028201810190925282815260609390929091830182828015610a345780601f10610a0957610100808354040283529160200191610a34565b820191906000526020600020905b815481529060010190602001808311610a1757829003601f168201915b5050505050905090565b6000610a498261221a565b610a7f576040517f08c379a000000000000000000000000000000000000000000000000000000000815260040161081590613c2c565b5060009081526004602052604090205473ffffffffffffffffffffffffffffffffffffffff1690565b6000610ab382611078565b90508073ffffffffffffffffffffffffffffffffffffffff168373ffffffffffffffffffffffffffffffffffffffff161415610b1b576040517f08c379a000000000000000000000000000000000000000000000000000000000815260040161081590613daf565b8073ffffffffffffffffffffffffffffffffffffffff16610b3a612227565b73ffffffffffffffffffffffffffffffffffffffff161480610b635750610b63816106fe612227565b610b99576040517f08c379a000000000000000000000000000000000000000000000000000000000815260040161081590613a4c565b610ba3838361222b565b505050565b6000610bb460026122cb565b905090565b600c5481565b6000610bca8461221a565b610c00576040517f08c379a0000000000000000000000000000000000000000000000000000000008152600401610815906137b4565b6000848152600e6020526040902060046003820154700100000000000000000000000000000000900460ff166004811115610c3757fe5b14610c6e576040517f08c379a000000000000000000000000000000000000000000000000000000000815260040161081590613f6b565b600281015434811115610cad576040517f08c379a00000000000000000000000000000000000000000000000000000000081526004016108159061387f565b6000610cb887611078565b9050610cc58186896122d6565b8515610cd75760028301869055610d3b565b6003830180547fffffffffffffffffffffffffffffff00ffffffffffffffffffffffffffffffff167003000000000000000000000000000000001790557fffffffffffffffffffffffffffffffffffffffffffffffffffffffffffffffff60028401555b610d458183612473565b81341115610d5957610d5933833403612473565b509150505b9392505050565b610d76610d70612227565b82612527565b610dac576040517f08c379a000000000000000000000000000000000000000000000000000000000815260040161081590613e43565b610ba38383836122d6565b610dc081611078565b73ffffffffffffffffffffffffffffffffffffffff163373ffffffffffffffffffffffffffffffffffffffff1614610e24576040517f08c379a00000000000000000000000000000000000000000000000000000000081526004016108159061361e565b6000818152600e60205260408120906003820154700100000000000000000000000000000000900460ff166004811115610e5a57fe5b1415610eb157600381015467ffffffffffffffff1662127500014211610eac576040517f08c379a000000000000000000000000000000000000000000000000000000000815260040161081590613f34565b610f69565b60016003820154700100000000000000000000000000000000900460ff166004811115610eda57fe5b14610f11576040517f08c379a000000000000000000000000000000000000000000000000000000000815260040161081590613d78565b600381015467ffffffffffffffff6801000000000000000090910416611c20014211610f69576040517f08c379a000000000000000000000000000000000000000000000000000000000815260040161081590613f34565b6003810180547fffffffffffffffffffffffffffffff00ffffffffffffffffffffffffffffffff16700200000000000000000000000000000000179055600b546002820154610fdc9173ffffffffffffffffffffffffffffffffffffffff16903390610fd790614e206125fa565b61264e565b5050565b73ffffffffffffffffffffffffffffffffffffffff8216600090815260016020526040812061100f9083612778565b90505b92915050565b683635c9adc5dea0000081565b610ba383838360405180602001604052806000815250611c24565b600b5473ffffffffffffffffffffffffffffffffffffffff1681565b60008061106a600284612784565b509392505050565b611c2081565b6000611012826040518060600160405280602981526020016140ec60299139600291906127a0565b60098054604080516020601f60027fffffffffffffffffffffffffffffffffffffffffffffffffffffffffffffffff610100600188161502019095169490940493840181900481028201810190925282815260609390929091830182828015610a345780601f10610a0957610100808354040283529160200191610a34565b614e2081565b600073ffffffffffffffffffffffffffffffffffffffff8216611174576040517f08c379a000000000000000000000000000000000000000000000000000000000815260040161081590613aa9565b73ffffffffffffffffffffffffffffffffffffffff82166000908152600160205260409020611012906122cb565b6111aa612227565b73ffffffffffffffffffffffffffffffffffffffff166111c86112fc565b73ffffffffffffffffffffffffffffffffffffffff1614611215576040517f08c379a000000000000000000000000000000000000000000000000000000000815260040161081590613c89565b600a5460405160009173ffffffffffffffffffffffffffffffffffffffff16907f8be0079c531659141344cd1fd0a4f28419497f9722a3daafe3b4186f6b6457e0908390a3600a80547fffffffffffffffffffffffff0000000000000000000000000000000000000000169055565b61128c612227565b73ffffffffffffffffffffffffffffffffffffffff166112aa6112fc565b73ffffffffffffffffffffffffffffffffffffffff16146112f7576040517f08c379a000000000000000000000000000000000000000000000000000000000815260040161081590613c89565b600c55565b600a5473ffffffffffffffffffffffffffffffffffffffff1690565b60078054604080516020601f60027fffffffffffffffffffffffffffffffffffffffffffffffffffffffffffffffff610100600188161502019095169490940493840181900481028201810190925282815260609390929091830182828015610a345780601f10610a0957610100808354040283529160200191610a34565b6000818152600e60205260408120805482919073ffffffffffffffffffffffffffffffffffffffff166113f6576040517f08c379a00000000000000000000000000000000000000000000000000000000081526004016108159061361e565b805460019091015473ffffffffffffffffffffffffffffffffffffffff9182169350169050915091565b67016345785d8a000081565b611434612227565b73ffffffffffffffffffffffffffffffffffffffff168273ffffffffffffffffffffffffffffffffffffffff161415611499576040517f08c379a000000000000000000000000000000000000000000000000000000000815260040161081590613981565b80600560006114a6612227565b73ffffffffffffffffffffffffffffffffffffffff90811682526020808301939093526040918201600090812091871680825291909352912080547fffffffffffffffffffffffffffffffffffffffffffffffffffffffffffffff001692151592909217909155611515612227565b73ffffffffffffffffffffffffffffffffffffffff167f17307eab39ab6107e8899845ad3d59bd9653f200f220920489ca2b5937696c318360405161155a9190613600565b60405180910390a35050565b6040518060400160405280600f81526020017f46657377617020506f6f6c204e4654000000000000000000000000000000000081525081565b6212750081565b6000600d5442116115e3576040517f08c379a0000000000000000000000000000000000000000000000000000000008152600401610815906136e9565b8273ffffffffffffffffffffffffffffffffffffffff168473ffffffffffffffffffffffffffffffffffffffff161415611649576040517f08c379a000000000000000000000000000000000000000000000000000000000815260040161081590613720565b600c54341015611685576040517f08c379a00000000000000000000000000000000000000000000000000000000081526004016108159061387f565b6000808473ffffffffffffffffffffffffffffffffffffffff168673ffffffffffffffffffffffffffffffffffffffff1611156116c35784866116c6565b85855b915091503082826040516020016116df9392919061345d565b6040516020818303038152906040528051906020012060001c92506117038361221a565b15611a13576000838152600e60205260409020600281015461173390600a9061172d90600b6125fa565b906127ad565b34101561176c576040517f08c379a00000000000000000000000000000000000000000000000000000000081526004016108159061387f565b60028101546117839067016345785d8a00006127f9565b3410156117bc576040517f08c379a00000000000000000000000000000000000000000000000000000000081526004016108159061387f565b60006003820154700100000000000000000000000000000000900460ff1660048111156117e557fe5b141561189557600381015467ffffffffffffffff166212750001421115611838576040517f08c379a000000000000000000000000000000000000000000000000000000000815260040161081590613b98565b600381015467ffffffffffffffff16621258e0014210611890576003810180547fffffffffffffffffffffffffffffff00ffffffffffffffffffffffffffffffff167001000000000000000000000000000000001790555b61194e565b60016003820154700100000000000000000000000000000000900460ff1660048111156118be57fe5b146118f5576040517f08c379a000000000000000000000000000000000000000000000000000000000815260040161081590613d78565b600381015467ffffffffffffffff6801000000000000000090910416611c200142111561194e576040517f08c379a000000000000000000000000000000000000000000000000000000000815260040161081590613b98565b6003810180547fffffffffffffffffffffffffffffffff0000000000000000ffffffffffffffff16680100000000000000004267ffffffffffffffff160217905560028101546000906119b490600a9061172d906119ad9060096125fa565b34906127f9565b905060006119c186611078565b90506119ce8188886122d6565b3460028401556119de8183612473565b600b54611a0b9073ffffffffffffffffffffffffffffffffffffffff1688681b1ae4d6e2ef50000061264e565b505050611c15565b611a1d8484612838565b611a256130de565b73ffffffffffffffffffffffffffffffffffffffff8381168252828116602080840191825234604080860191825267ffffffffffffffff42811660608801908152600060a089018181528c8252600e90965292909220875181549088167fffffffffffffffffffffffff000000000000000000000000000000000000000091821617825595516001820180549190981696169590951790955590516002840155516003830180546080870151861668010000000000000000027fffffffffffffffffffffffffffffffff0000000000000000ffffffffffffffff939096167fffffffffffffffffffffffffffffffffffffffffffffffff00000000000000009091161791909116939093178084559051849390917fffffffffffffffffffffffffffffff00ffffffffffffffffffffffffffffffff16700100000000000000000000000000000000836004811115611b7957fe5b02179055509050508573ffffffffffffffffffffffffffffffffffffffff168773ffffffffffffffffffffffffffffffffffffffff167f0f8add6e61a4e95282cadc4338b757abf66daadd9fac5c3303cab67bbe40a12486604051611bde9190613fa2565b60405180910390a3600b54611c139073ffffffffffffffffffffffffffffffffffffffff1686683635c9adc5dea0000061264e565b505b50509392505050565b600d5481565b611c35611c2f612227565b83612527565b611c6b576040517f08c379a000000000000000000000000000000000000000000000000000000000815260040161081590613e43565b611c7784848484612957565b50505050565b6060611c888261221a565b611cbe576040517f08c379a000000000000000000000000000000000000000000000000000000000815260040161081590613d1b565b60008281526008602090815260409182902080548351601f60027fffffffffffffffffffffffffffffffffffffffffffffffffffffffffffffffff610100600186161502019093169290920491820184900484028101840190945280845260609392830182828015611d715780601f10611d4657610100808354040283529160200191611d71565b820191906000526020600020905b815481529060010190602001808311611d5457829003601f168201915b505050505090506060611d826110a0565b9050805160001415611d965750905061090f565b815115611dc8578082604051602001611db09291906134bb565b6040516020818303038152906040529250505061090f565b80611dd2856129a4565b604051602001611de39291906134bb565b60405160208183030381529060405292505050919050565b681b1ae4d6e2ef50000081565b6000611e1383611078565b73ffffffffffffffffffffffffffffffffffffffff163373ffffffffffffffffffffffffffffffffffffffff1614611e77576040517f08c379a00000000000000000000000000000000000000000000000000000000081526004016108159061361e565b6000838152600e6020526040902060026003820154700100000000000000000000000000000000900460ff166004811115611eae57fe5b1015611ee6576040517f08c379a0000000000000000000000000000000000000000000000000000000008152600401610815906138ed565b8215611f35576003810180547fffffffffffffffffffffffffffffff00ffffffffffffffffffffffffffffffff1670040000000000000000000000000000000017905560028101839055611f99565b6003810180547fffffffffffffffffffffffffffffff00ffffffffffffffffffffffffffffffff167003000000000000000000000000000000001790557fffffffffffffffffffffffffffffffffffffffffffffffffffffffffffffffff60028201555b509092915050565b73ffffffffffffffffffffffffffffffffffffffff918216600090815260056020908152604080832093909416825291909152205460ff1690565b611fe4612227565b73ffffffffffffffffffffffffffffffffffffffff166120026112fc565b73ffffffffffffffffffffffffffffffffffffffff161461204f576040517f08c379a000000000000000000000000000000000000000000000000000000000815260040161081590613c89565b73ffffffffffffffffffffffffffffffffffffffff811661209c576040517f08c379a0000000000000000000000000000000000000000000000000000000008152600401610815906137eb565b600a5460405173ffffffffffffffffffffffffffffffffffffffff8084169216907f8be0079c531659141344cd1fd0a4f28419497f9722a3daafe3b4186f6b6457e090600090a3600a80547fffffffffffffffffffffffff00000000000000000000000000000000000000001673ffffffffffffffffffffffffffffffffffffffff92909216919091179055565b612132612227565b73ffffffffffffffffffffffffffffffffffffffff166121506112fc565b73ffffffffffffffffffffffffffffffffffffffff161461219d576040517f08c379a000000000000000000000000000000000000000000000000000000000815260040161081590613c89565b804710156121d7576040517f08c379a000000000000000000000000000000000000000000000000000000000815260040161081590613e0c565b610fdc8282612473565b6040518060400160405280600481526020017f4645534e0000000000000000000000000000000000000000000000000000000081525081565b6000611012600283612ad1565b3390565b600081815260046020526040902080547fffffffffffffffffffffffff00000000000000000000000000000000000000001673ffffffffffffffffffffffffffffffffffffffff8416908117909155819061228582611078565b73ffffffffffffffffffffffffffffffffffffffff167f8c5be1e5ebec7d5bd14f71427d1e84f3dd0314c0f7b2291e5b200ac8c7c3b92560405160405180910390a45050565b600061101282612add565b8273ffffffffffffffffffffffffffffffffffffffff166122f682611078565b73ffffffffffffffffffffffffffffffffffffffff1614612343576040517f08c379a000000000000000000000000000000000000000000000000000000000815260040161081590613cbe565b73ffffffffffffffffffffffffffffffffffffffff8216612390576040517f08c379a000000000000000000000000000000000000000000000000000000000815260040161081590613924565b61239b838383610ba3565b6123a660008261222b565b73ffffffffffffffffffffffffffffffffffffffff831660009081526001602052604090206123d59082612ae1565b5073ffffffffffffffffffffffffffffffffffffffff821660009081526001602052604090206124059082612aed565b5061241260028284612af9565b50808273ffffffffffffffffffffffffffffffffffffffff168473ffffffffffffffffffffffffffffffffffffffff167fddf252ad1be2c89b69c2b068fc378daa952ba7f163c4a11628f55a4df523b3ef60405160405180910390a4505050565b6040805160008082526020820190925273ffffffffffffffffffffffffffffffffffffffff84169083906040516124aa919061349f565b60006040518083038185875af1925050503d80600081146124e7576040519150601f19603f3d011682016040523d82523d6000602084013e6124ec565b606091505b5050905080610ba3576040517f08c379a000000000000000000000000000000000000000000000000000000000815260040161081590613ed7565b60006125328261221a565b612568576040517f08c379a0000000000000000000000000000000000000000000000000000000008152600401610815906139b8565b600061257383611078565b90508073ffffffffffffffffffffffffffffffffffffffff168473ffffffffffffffffffffffffffffffffffffffff1614806125e257508373ffffffffffffffffffffffffffffffffffffffff166125ca84610a3e565b73ffffffffffffffffffffffffffffffffffffffff16145b806125f257506125f28185611fa1565b949350505050565b60008261260957506000611012565b8282028284828161261657fe5b041461100f576040517f08c379a000000000000000000000000000000000000000000000000000000000815260040161081590613bcf565b600060608473ffffffffffffffffffffffffffffffffffffffff1663a9059cbb85856040516024016126819291906135da565b6040516020818303038152906040529060e01b6020820180517bffffffffffffffffffffffffffffffffffffffffffffffffffffffff83818316178352505050506040516126cf919061349f565b6000604051808303816000865af19150503d806000811461270c576040519150601f19603f3d011682016040523d82523d6000602084013e612711565b606091505b509150915081801561273b57508051158061273b57508080602001905181019061273b919061334e565b612771576040517f08c379a0000000000000000000000000000000000000000000000000000000008152600401610815906136b2565b5050505050565b600061100f8383612b1c565b60008080806127938686612b7b565b9097909650945050505050565b60006125f2848484612bf1565b60008082116127e8576040517f08c379a000000000000000000000000000000000000000000000000000000000815260040161081590613a15565b8183816127f157fe5b049392505050565b60008282018381101561100f576040517f08c379a0000000000000000000000000000000000000000000000000000000008152600401610815906138b6565b73ffffffffffffffffffffffffffffffffffffffff8216612885576040517f08c379a000000000000000000000000000000000000000000000000000000000815260040161081590613b63565b61288e8161221a565b156128c5576040517f08c379a000000000000000000000000000000000000000000000000000000000815260040161081590613848565b6128d160008383610ba3565b73ffffffffffffffffffffffffffffffffffffffff821660009081526001602052604090206129009082612aed565b5061290d60028284612af9565b50604051819073ffffffffffffffffffffffffffffffffffffffff8416906000907fddf252ad1be2c89b69c2b068fc378daa952ba7f163c4a11628f55a4df523b3ef908290a45050565b6129628484846122d6565b61296e84848484612c6a565b611c77576040517f08c379a000000000000000000000000000000000000000000000000000000000815260040161081590613757565b6060816129e5575060408051808201909152600181527f3000000000000000000000000000000000000000000000000000000000000000602082015261090f565b8160005b81156129fd57600101600a820491506129e9565b60608167ffffffffffffffff81118015612a1657600080fd5b506040519080825280601f01601f191660200182016040528015612a41576020820181803683370190505b5085935090507fffffffffffffffffffffffffffffffffffffffffffffffffffffffffffffffff82015b8315612ac857600a840660300160f81b82828060019003935081518110612a8e57fe5b60200101907effffffffffffffffffffffffffffffffffffffffffffffffffffffffffffff1916908160001a905350600a84049350612a6b565b50949350505050565b600061100f8383612dd7565b5490565b600061100f8383612def565b600061100f8383612ed3565b60006125f2848473ffffffffffffffffffffffffffffffffffffffff8516612f1d565b81546000908210612b59576040517f08c379a000000000000000000000000000000000000000000000000000000000815260040161081590613655565b826000018281548110612b6857fe5b9060005260206000200154905092915050565b815460009081908310612bba576040517f08c379a000000000000000000000000000000000000000000000000000000000815260040161081590613b06565b6000846000018481548110612bcb57fe5b906000526020600020906002020190508060000154816001015492509250509250929050565b60008281526001840160205260408120548281612c3b576040517f08c379a0000000000000000000000000000000000000000000000000000000008152600401610815919061360b565b50846000016001820381548110612c4e57fe5b9060005260206000209060020201600101549150509392505050565b6000612c8b8473ffffffffffffffffffffffffffffffffffffffff16612fb4565b612c97575060016125f2565b6060612d6f7f150b7a0200000000000000000000000000000000000000000000000000000000612cc5612227565b888787604051602401612cdb949392919061350b565b604051602081830303815290604052907bffffffffffffffffffffffffffffffffffffffffffffffffffffffff19166020820180517bffffffffffffffffffffffffffffffffffffffffffffffffffffffff83818316178352505050506040518060600160405280603281526020016140ba6032913973ffffffffffffffffffffffffffffffffffffffff88169190612fba565b9050600081806020019051810190612d879190613386565b7fffffffff00000000000000000000000000000000000000000000000000000000167f150b7a02000000000000000000000000000000000000000000000000000000001492505050949350505050565b60009081526001919091016020526040902054151590565b60008181526001830160205260408120548015612ec95783547fffffffffffffffffffffffffffffffffffffffffffffffffffffffffffffffff8083019190810190600090879083908110612e4057fe5b9060005260206000200154905080876000018481548110612e5d57fe5b600091825260208083209091019290925582815260018981019092526040902090840190558654879080612e8d57fe5b60019003818190600052602060002001600090559055866001016000878152602001908152602001600020600090556001945050505050611012565b6000915050611012565b6000612edf8383612dd7565b612f1557508154600181810184556000848152602080822090930184905584548482528286019093526040902091909155611012565b506000611012565b600082815260018401602052604081205480612f82575050604080518082018252838152602080820184815286546001818101895560008981528481209551600290930290950191825591519082015586548684528188019092529290912055610d5e565b82856000016001830381548110612f9557fe5b9060005260206000209060020201600101819055506000915050610d5e565b3b151590565b60606125f2848460008585612fce85612fb4565b613004576040517f08c379a000000000000000000000000000000000000000000000000000000000815260040161081590613ea0565b600060608673ffffffffffffffffffffffffffffffffffffffff16858760405161302e919061349f565b60006040518083038185875af1925050503d806000811461306b576040519150601f19603f3d011682016040523d82523d6000602084013e613070565b606091505b509150915061308082828661308b565b979650505050505050565b6060831561309a575081610d5e565b8251156130aa5782518084602001fd5b816040517f08c379a0000000000000000000000000000000000000000000000000000000008152600401610815919061360b565b6040805160c08101825260008082526020820181905291810182905260608101829052608081018290529060a082015290565b803573ffffffffffffffffffffffffffffffffffffffff8116811461101257600080fd5b600060208284031215613146578081fd5b61100f8383613111565b60008060408385031215613162578081fd5b61316c8484613111565b915061317b8460208501613111565b90509250929050565b600080600060608486031215613198578081fd5b6131a28585613111565b92506131b18560208601613111565b91506131c08560408601613111565b90509250925092565b6000806000606084860312156131dd578283fd5b83356131e881614058565b925060208401356131f881614058565b929592945050506040919091013590565b6000806000806080858703121561321e578081fd5b6132288686613111565b9350602061323887828801613111565b935060408601359250606086013567ffffffffffffffff8082111561325b578384fd5b818801915088601f83011261326e578384fd5b81358181111561327c578485fd5b604051847fffffffffffffffffffffffffffffffffffffffffffffffffffffffffffffffe0601f84011682010181811084821117156132b9578687fd5b60405281815283820185018b10156132cf578586fd5b81858501868301379081019093019390935250939692955090935050565b600080604083850312156132ff578182fd5b6133098484613111565b915060208301356133198161407d565b809150509250929050565b60008060408385031215613336578182fd5b6133408484613111565b946020939093013593505050565b60006020828403121561335f578081fd5b815161100f8161407d565b60006020828403121561337b578081fd5b813561100f8161408b565b600060208284031215613397578081fd5b815161100f8161408b565b6000602082840312156133b3578081fd5b5035919050565b600080604083850312156133cc578182fd5b50508035926020909101359150565b6000806000606084860312156133ef578283fd5b8335925060208401359150604084013561340881614058565b809150509250925092565b6000815180845261342b81602086016020860161402c565b601f017fffffffffffffffffffffffffffffffffffffffffffffffffffffffffffffffe0169290920160200192915050565b7fffffffffffffffffffffffffffffffffffffffff000000000000000000000000606094851b8116825292841b83166014820152921b166028820152603c0190565b600082516134b181846020870161402c565b9190910192915050565b600083516134cd81846020880161402c565b8351908301906134e181836020880161402c565b01949350505050565b73ffffffffffffffffffffffffffffffffffffffff91909116815260200190565b600073ffffffffffffffffffffffffffffffffffffffff80871683528086166020840152508360408301526080606083015261354a6080830184613413565b9695505050505050565b73ffffffffffffffffffffffffffffffffffffffff92831681529116602082015260400190565b73ffffffffffffffffffffffffffffffffffffffff8781168252861660208201526040810185905267ffffffffffffffff84811660608301528316608082015260c08101600583106135c957fe5b8260a0830152979650505050505050565b73ffffffffffffffffffffffffffffffffffffffff929092168252602082015260400190565b901515815260200190565b60006020825261100f6020830184613413565b60208082526015908201527f4645534e3a204e4f5420544f4b454e204f574e45520000000000000000000000604082015260600190565b60208082526022908201527f456e756d657261626c655365743a20696e646578206f7574206f6620626f756e60408201527f6473000000000000000000000000000000000000000000000000000000000000606082015260800190565b6020808252601f908201527f5472616e7366657248656c7065723a205452414e534645525f4641494c454400604082015260600190565b60208082526015908201527f4645534e3a20424944204e4f5420535441525445440000000000000000000000604082015260600190565b60208082526019908201527f4645534e3a204944454e544943414c5f41444452455353455300000000000000604082015260600190565b60208082526032908201527f4552433732313a207472616e7366657220746f206e6f6e20455243373231526560408201527f63656976657220696d706c656d656e7465720000000000000000000000000000606082015260800190565b60208082526017908201527f4645534e3a20544f4b454e204e4f542043524541544544000000000000000000604082015260600190565b60208082526026908201527f4f776e61626c653a206e6577206f776e657220697320746865207a65726f206160408201527f6464726573730000000000000000000000000000000000000000000000000000606082015260800190565b6020808252601c908201527f4552433732313a20746f6b656e20616c7265616479206d696e74656400000000604082015260600190565b6020808252600e908201527f4645534e3a20504159204c455353000000000000000000000000000000000000604082015260600190565b6020808252601b908201527f536166654d6174683a206164646974696f6e206f766572666c6f770000000000604082015260600190565b60208082526015908201527f4645534e3a20424944204e4f5420534554544c45440000000000000000000000604082015260600190565b60208082526024908201527f4552433732313a207472616e7366657220746f20746865207a65726f2061646460408201527f7265737300000000000000000000000000000000000000000000000000000000606082015260800190565b60208082526019908201527f4552433732313a20617070726f766520746f2063616c6c657200000000000000604082015260600190565b6020808252602c908201527f4552433732313a206f70657261746f7220717565727920666f72206e6f6e657860408201527f697374656e7420746f6b656e0000000000000000000000000000000000000000606082015260800190565b6020808252601a908201527f536166654d6174683a206469766973696f6e206279207a65726f000000000000604082015260600190565b60208082526038908201527f4552433732313a20617070726f76652063616c6c6572206973206e6f74206f7760408201527f6e6572206e6f7220617070726f76656420666f7220616c6c0000000000000000606082015260800190565b6020808252602a908201527f4552433732313a2062616c616e636520717565727920666f7220746865207a6560408201527f726f206164647265737300000000000000000000000000000000000000000000606082015260800190565b60208082526022908201527f456e756d657261626c654d61703a20696e646578206f7574206f6620626f756e60408201527f6473000000000000000000000000000000000000000000000000000000000000606082015260800190565b6020808252818101527f4552433732313a206d696e7420746f20746865207a65726f2061646472657373604082015260600190565b60208082526012908201527f4645534e3a2042494420544f4f204c4154450000000000000000000000000000604082015260600190565b60208082526021908201527f536166654d6174683a206d756c7469706c69636174696f6e206f766572666c6f60408201527f7700000000000000000000000000000000000000000000000000000000000000606082015260800190565b6020808252602c908201527f4552433732313a20617070726f76656420717565727920666f72206e6f6e657860408201527f697374656e7420746f6b656e0000000000000000000000000000000000000000606082015260800190565b6020808252818101527f4f776e61626c653a2063616c6c6572206973206e6f7420746865206f776e6572604082015260600190565b60208082526029908201527f4552433732313a207472616e73666572206f6620746f6b656e2074686174206960408201527f73206e6f74206f776e0000000000000000000000000000000000000000000000606082015260800190565b6020808252602f908201527f4552433732314d657461646174613a2055524920717565727920666f72206e6f60408201527f6e6578697374656e7420746f6b656e0000000000000000000000000000000000606082015260800190565b60208082526013908201527f4645534e3a2042494420434f4d504c4554454400000000000000000000000000604082015260600190565b60208082526021908201527f4552433732313a20617070726f76616c20746f2063757272656e74206f776e6560408201527f7200000000000000000000000000000000000000000000000000000000000000606082015260800190565b6020808252601a908201527f4645534e3a20494e53554646494349454e542042414c414e4345000000000000604082015260600190565b60208082526031908201527f4552433732313a207472616e736665722063616c6c6572206973206e6f74206f60408201527f776e6572206e6f7220617070726f766564000000000000000000000000000000606082015260800190565b6020808252601d908201527f416464726573733a2063616c6c20746f206e6f6e2d636f6e7472616374000000604082015260600190565b60208082526023908201527f5472616e7366657248656c7065723a204554485f5452414e534645525f46414960408201527f4c45440000000000000000000000000000000000000000000000000000000000606082015260800190565b60208082526012908201527f4645534e3a20424944204f4e20474f494e470000000000000000000000000000604082015260600190565b60208082526012908201527f4645534e3a204e4f5420464f522053414c450000000000000000000000000000604082015260600190565b90815260200190565b600060e08201905083825273ffffffffffffffffffffffffffffffffffffffff8084511660208401528060208501511660408401525060408301516060830152606083015167ffffffffffffffff80821660808501528060808601511660a0850152505060a08301516005811061401e57fe5b8060c0840152509392505050565b60005b8381101561404757818101518382015260200161402f565b83811115611c775750506000910152565b73ffffffffffffffffffffffffffffffffffffffff8116811461407a57600080fd5b50565b801515811461407a57600080fd5b7fffffffff000000000000000000000000000000000000000000000000000000008116811461407a57600080fdfe4552433732313a207472616e7366657220746f206e6f6e20455243373231526563656976657220696d706c656d656e7465724552433732313a206f776e657220717565727920666f72206e6f6e6578697374656e7420746f6b656ea26469706673582212205701ab32c5df2896b1c7d5e403b799983b7095b535a21b04980a025b1576c83e64736f6c63430007000033",
      "opcodes": "PUSH1 0x80 PUSH1 0x40 MSTORE CALLVALUE DUP1 ISZERO PUSH3 0x11 JUMPI PUSH1 0x0 DUP1 REVERT JUMPDEST POP PUSH1 0x40 MLOAD PUSH3 0x4443 CODESIZE SUB DUP1 PUSH3 0x4443 DUP4 CODECOPY DUP2 ADD PUSH1 0x40 DUP2 SWAP1 MSTORE PUSH3 0x34 SWAP2 PUSH3 0x26F JUMP JUMPDEST PUSH1 0x40 DUP1 MLOAD DUP1 DUP3 ADD DUP3 MSTORE PUSH1 0xF DUP2 MSTORE PUSH15 0x11995CDDD85C08141BDBDB08139195 PUSH1 0x8A SHL PUSH1 0x20 DUP1 DUP4 ADD SWAP2 SWAP1 SWAP2 MSTORE DUP3 MLOAD DUP1 DUP5 ADD SWAP1 SWAP4 MSTORE PUSH1 0x4 DUP4 MSTORE PUSH4 0x2322A9A7 PUSH1 0xE1 SHL SWAP1 DUP4 ADD MSTORE SWAP1 PUSH3 0x88 PUSH4 0x1FFC9A7 PUSH1 0xE0 SHL PUSH3 0x174 JUMP JUMPDEST DUP2 MLOAD PUSH3 0x9D SWAP1 PUSH1 0x6 SWAP1 PUSH1 0x20 DUP6 ADD SWAP1 PUSH3 0x1D3 JUMP JUMPDEST POP DUP1 MLOAD PUSH3 0xB3 SWAP1 PUSH1 0x7 SWAP1 PUSH1 0x20 DUP5 ADD SWAP1 PUSH3 0x1D3 JUMP JUMPDEST POP PUSH3 0xC6 PUSH4 0x80AC58CD PUSH1 0xE0 SHL PUSH3 0x174 JUMP JUMPDEST PUSH3 0xD8 PUSH4 0x5B5E139F PUSH1 0xE0 SHL PUSH3 0x174 JUMP JUMPDEST PUSH3 0xEA PUSH4 0x780E9D63 PUSH1 0xE0 SHL PUSH3 0x174 JUMP JUMPDEST POP PUSH1 0x0 SWAP1 POP PUSH3 0xF9 PUSH3 0x1CF JUMP JUMPDEST PUSH1 0xA DUP1 SLOAD PUSH1 0x1 PUSH1 0x1 PUSH1 0xA0 SHL SUB NOT AND PUSH1 0x1 PUSH1 0x1 PUSH1 0xA0 SHL SUB DUP4 AND SWAP1 DUP2 OR SWAP1 SWAP2 SSTORE PUSH1 0x40 MLOAD SWAP2 SWAP3 POP SWAP1 PUSH1 0x0 SWAP1 PUSH32 0x8BE0079C531659141344CD1FD0A4F28419497F9722A3DAAFE3B4186F6B6457E0 SWAP1 DUP3 SWAP1 LOG3 POP PUSH1 0xB DUP1 SLOAD PUSH1 0x1 PUSH1 0x1 PUSH1 0xA0 SHL SUB NOT AND PUSH1 0x1 PUSH1 0x1 PUSH1 0xA0 SHL SUB SWAP5 SWAP1 SWAP5 AND SWAP4 SWAP1 SWAP4 OR SWAP1 SWAP3 SSTORE PUSH1 0xC SSTORE PUSH1 0xD SSTORE PUSH3 0x2E9 JUMP JUMPDEST PUSH1 0x1 PUSH1 0x1 PUSH1 0xE0 SHL SUB NOT DUP1 DUP3 AND EQ ISZERO PUSH3 0x1AA JUMPI PUSH1 0x40 MLOAD PUSH3 0x461BCD PUSH1 0xE5 SHL DUP2 MSTORE PUSH1 0x4 ADD PUSH3 0x1A1 SWAP1 PUSH3 0x2B2 JUMP JUMPDEST PUSH1 0x40 MLOAD DUP1 SWAP2 SUB SWAP1 REVERT JUMPDEST PUSH1 0x1 PUSH1 0x1 PUSH1 0xE0 SHL SUB NOT AND PUSH1 0x0 SWAP1 DUP2 MSTORE PUSH1 0x20 DUP2 SWAP1 MSTORE PUSH1 0x40 SWAP1 KECCAK256 DUP1 SLOAD PUSH1 0xFF NOT AND PUSH1 0x1 OR SWAP1 SSTORE JUMP JUMPDEST CALLER SWAP1 JUMP JUMPDEST DUP3 DUP1 SLOAD PUSH1 0x1 DUP2 PUSH1 0x1 AND ISZERO PUSH2 0x100 MUL SUB AND PUSH1 0x2 SWAP1 DIV SWAP1 PUSH1 0x0 MSTORE PUSH1 0x20 PUSH1 0x0 KECCAK256 SWAP1 PUSH1 0x1F ADD PUSH1 0x20 SWAP1 DIV DUP2 ADD SWAP3 DUP3 PUSH1 0x1F LT PUSH3 0x216 JUMPI DUP1 MLOAD PUSH1 0xFF NOT AND DUP4 DUP1 ADD OR DUP6 SSTORE PUSH3 0x246 JUMP JUMPDEST DUP3 DUP1 ADD PUSH1 0x1 ADD DUP6 SSTORE DUP3 ISZERO PUSH3 0x246 JUMPI SWAP2 DUP3 ADD JUMPDEST DUP3 DUP2 GT ISZERO PUSH3 0x246 JUMPI DUP3 MLOAD DUP3 SSTORE SWAP2 PUSH1 0x20 ADD SWAP2 SWAP1 PUSH1 0x1 ADD SWAP1 PUSH3 0x229 JUMP JUMPDEST POP PUSH3 0x254 SWAP3 SWAP2 POP PUSH3 0x258 JUMP JUMPDEST POP SWAP1 JUMP JUMPDEST JUMPDEST DUP1 DUP3 GT ISZERO PUSH3 0x254 JUMPI PUSH1 0x0 DUP2 SSTORE PUSH1 0x1 ADD PUSH3 0x259 JUMP JUMPDEST PUSH1 0x0 DUP1 PUSH1 0x0 PUSH1 0x60 DUP5 DUP7 SUB SLT ISZERO PUSH3 0x284 JUMPI DUP3 DUP4 REVERT JUMPDEST DUP4 MLOAD PUSH1 0x1 PUSH1 0x1 PUSH1 0xA0 SHL SUB DUP2 AND DUP2 EQ PUSH3 0x29B JUMPI DUP4 DUP5 REVERT JUMPDEST PUSH1 0x20 DUP6 ADD MLOAD PUSH1 0x40 SWAP1 SWAP6 ADD MLOAD SWAP1 SWAP7 SWAP5 SWAP6 POP SWAP4 SWAP3 POP POP POP JUMP JUMPDEST PUSH1 0x20 DUP1 DUP3 MSTORE PUSH1 0x1C SWAP1 DUP3 ADD MSTORE PUSH32 0x4552433136353A20696E76616C696420696E7465726661636520696400000000 PUSH1 0x40 DUP3 ADD MSTORE PUSH1 0x60 ADD SWAP1 JUMP JUMPDEST PUSH2 0x414A DUP1 PUSH3 0x2F9 PUSH1 0x0 CODECOPY PUSH1 0x0 RETURN INVALID PUSH1 0x80 PUSH1 0x40 MSTORE PUSH1 0x4 CALLDATASIZE LT PUSH2 0x2BB JUMPI PUSH1 0x0 CALLDATALOAD PUSH1 0xE0 SHR DUP1 PUSH4 0x70A08231 GT PUSH2 0x16E JUMPI DUP1 PUSH4 0xB1259797 GT PUSH2 0xCB JUMPI DUP1 PUSH4 0xD625C8EF GT PUSH2 0x7F JUMPI DUP1 PUSH4 0xF2FDE38B GT PUSH2 0x64 JUMPI DUP1 PUSH4 0xF2FDE38B EQ PUSH2 0x703 JUMPI DUP1 PUSH4 0xF3FEF3A3 EQ PUSH2 0x723 JUMPI DUP1 PUSH4 0xF76F8D78 EQ PUSH2 0x743 JUMPI PUSH2 0x2BB JUMP JUMPDEST DUP1 PUSH4 0xD625C8EF EQ PUSH2 0x6C3 JUMPI DUP1 PUSH4 0xE985E9C5 EQ PUSH2 0x6E3 JUMPI PUSH2 0x2BB JUMP JUMPDEST DUP1 PUSH4 0xB88D4FDE GT PUSH2 0xB0 JUMPI DUP1 PUSH4 0xB88D4FDE EQ PUSH2 0x66E JUMPI DUP1 PUSH4 0xC87B56DD EQ PUSH2 0x68E JUMPI DUP1 PUSH4 0xC9334BA9 EQ PUSH2 0x6AE JUMPI PUSH2 0x2BB JUMP JUMPDEST DUP1 PUSH4 0xB1259797 EQ PUSH2 0x646 JUMPI DUP1 PUSH4 0xB42F84A2 EQ PUSH2 0x659 JUMPI PUSH2 0x2BB JUMP JUMPDEST DUP1 PUSH4 0x99C5E75C GT PUSH2 0x122 JUMPI DUP1 PUSH4 0xA22CB465 GT PUSH2 0x107 JUMPI DUP1 PUSH4 0xA22CB465 EQ PUSH2 0x5FC JUMPI DUP1 PUSH4 0xA3F4DF7E EQ PUSH2 0x61C JUMPI DUP1 PUSH4 0xAADBF1D1 EQ PUSH2 0x631 JUMPI PUSH2 0x2BB JUMP JUMPDEST DUP1 PUSH4 0x99C5E75C EQ PUSH2 0x5B9 JUMPI DUP1 PUSH4 0x9F5F7461 EQ PUSH2 0x5E7 JUMPI PUSH2 0x2BB JUMP JUMPDEST DUP1 PUSH4 0x8660A88B GT PUSH2 0x153 JUMPI DUP1 PUSH4 0x8660A88B EQ PUSH2 0x56F JUMPI DUP1 PUSH4 0x8DA5CB5B EQ PUSH2 0x58F JUMPI DUP1 PUSH4 0x95D89B41 EQ PUSH2 0x5A4 JUMPI PUSH2 0x2BB JUMP JUMPDEST DUP1 PUSH4 0x70A08231 EQ PUSH2 0x53A JUMPI DUP1 PUSH4 0x715018A6 EQ PUSH2 0x55A JUMPI PUSH2 0x2BB JUMP JUMPDEST DUP1 PUSH4 0x27FABA90 GT PUSH2 0x21C JUMPI DUP1 PUSH4 0x4F6CCCE7 GT PUSH2 0x1D0 JUMPI DUP1 PUSH4 0x6352211E GT PUSH2 0x1B5 JUMPI DUP1 PUSH4 0x6352211E EQ PUSH2 0x4F0 JUMPI DUP1 PUSH4 0x6C0360EB EQ PUSH2 0x510 JUMPI DUP1 PUSH4 0x6F78112D EQ PUSH2 0x525 JUMPI PUSH2 0x2BB JUMP JUMPDEST DUP1 PUSH4 0x4F6CCCE7 EQ PUSH2 0x4BB JUMPI DUP1 PUSH4 0x536022E2 EQ PUSH2 0x4DB JUMPI PUSH2 0x2BB JUMP JUMPDEST DUP1 PUSH4 0x407486BB GT PUSH2 0x201 JUMPI DUP1 PUSH4 0x407486BB EQ PUSH2 0x471 JUMPI DUP1 PUSH4 0x42842E0E EQ PUSH2 0x486 JUMPI DUP1 PUSH4 0x473E2E20 EQ PUSH2 0x4A6 JUMPI PUSH2 0x2BB JUMP JUMPDEST DUP1 PUSH4 0x27FABA90 EQ PUSH2 0x431 JUMPI DUP1 PUSH4 0x2F745C59 EQ PUSH2 0x451 JUMPI PUSH2 0x2BB JUMP JUMPDEST DUP1 PUSH4 0x95EA7B3 GT PUSH2 0x273 JUMPI DUP1 PUSH4 0x1BF63D49 GT PUSH2 0x258 JUMPI DUP1 PUSH4 0x1BF63D49 EQ PUSH2 0x3E9 JUMPI DUP1 PUSH4 0x1E5CF5C6 EQ PUSH2 0x3FE JUMPI DUP1 PUSH4 0x23B872DD EQ PUSH2 0x411 JUMPI PUSH2 0x2BB JUMP JUMPDEST DUP1 PUSH4 0x95EA7B3 EQ PUSH2 0x3A5 JUMPI DUP1 PUSH4 0x18160DDD EQ PUSH2 0x3C7 JUMPI PUSH2 0x2BB JUMP JUMPDEST DUP1 PUSH4 0x66E8F51 GT PUSH2 0x2A4 JUMPI DUP1 PUSH4 0x66E8F51 EQ PUSH2 0x324 JUMPI DUP1 PUSH4 0x6FDDE03 EQ PUSH2 0x356 JUMPI DUP1 PUSH4 0x81812FC EQ PUSH2 0x378 JUMPI PUSH2 0x2BB JUMP JUMPDEST DUP1 PUSH4 0x1C4F575 EQ PUSH2 0x2C0 JUMPI DUP1 PUSH4 0x1FFC9A7 EQ PUSH2 0x2F7 JUMPI JUMPDEST PUSH1 0x0 DUP1 REVERT JUMPDEST CALLVALUE DUP1 ISZERO PUSH2 0x2CC JUMPI PUSH1 0x0 DUP1 REVERT JUMPDEST POP PUSH2 0x2E0 PUSH2 0x2DB CALLDATASIZE PUSH1 0x4 PUSH2 0x3150 JUMP JUMPDEST PUSH2 0x758 JUMP JUMPDEST PUSH1 0x40 MLOAD PUSH2 0x2EE SWAP3 SWAP2 SWAP1 PUSH2 0x3FAB JUMP JUMPDEST PUSH1 0x40 MLOAD DUP1 SWAP2 SUB SWAP1 RETURN JUMPDEST CALLVALUE DUP1 ISZERO PUSH2 0x303 JUMPI PUSH1 0x0 DUP1 REVERT JUMPDEST POP PUSH2 0x317 PUSH2 0x312 CALLDATASIZE PUSH1 0x4 PUSH2 0x336A JUMP JUMPDEST PUSH2 0x8D9 JUMP JUMPDEST PUSH1 0x40 MLOAD PUSH2 0x2EE SWAP2 SWAP1 PUSH2 0x3600 JUMP JUMPDEST CALLVALUE DUP1 ISZERO PUSH2 0x330 JUMPI PUSH1 0x0 DUP1 REVERT JUMPDEST POP PUSH2 0x344 PUSH2 0x33F CALLDATASIZE PUSH1 0x4 PUSH2 0x33A2 JUMP JUMPDEST PUSH2 0x914 JUMP JUMPDEST PUSH1 0x40 MLOAD PUSH2 0x2EE SWAP7 SWAP6 SWAP5 SWAP4 SWAP3 SWAP2 SWAP1 PUSH2 0x357B JUMP JUMPDEST CALLVALUE DUP1 ISZERO PUSH2 0x362 JUMPI PUSH1 0x0 DUP1 REVERT JUMPDEST POP PUSH2 0x36B PUSH2 0x98A JUMP JUMPDEST PUSH1 0x40 MLOAD PUSH2 0x2EE SWAP2 SWAP1 PUSH2 0x360B JUMP JUMPDEST CALLVALUE DUP1 ISZERO PUSH2 0x384 JUMPI PUSH1 0x0 DUP1 REVERT JUMPDEST POP PUSH2 0x398 PUSH2 0x393 CALLDATASIZE PUSH1 0x4 PUSH2 0x33A2 JUMP JUMPDEST PUSH2 0xA3E JUMP JUMPDEST PUSH1 0x40 MLOAD PUSH2 0x2EE SWAP2 SWAP1 PUSH2 0x34EA JUMP JUMPDEST CALLVALUE DUP1 ISZERO PUSH2 0x3B1 JUMPI PUSH1 0x0 DUP1 REVERT JUMPDEST POP PUSH2 0x3C5 PUSH2 0x3C0 CALLDATASIZE PUSH1 0x4 PUSH2 0x3324 JUMP JUMPDEST PUSH2 0xAA8 JUMP JUMPDEST STOP JUMPDEST CALLVALUE DUP1 ISZERO PUSH2 0x3D3 JUMPI PUSH1 0x0 DUP1 REVERT JUMPDEST POP PUSH2 0x3DC PUSH2 0xBA8 JUMP JUMPDEST PUSH1 0x40 MLOAD PUSH2 0x2EE SWAP2 SWAP1 PUSH2 0x3FA2 JUMP JUMPDEST CALLVALUE DUP1 ISZERO PUSH2 0x3F5 JUMPI PUSH1 0x0 DUP1 REVERT JUMPDEST POP PUSH2 0x3DC PUSH2 0xBB9 JUMP JUMPDEST PUSH2 0x3DC PUSH2 0x40C CALLDATASIZE PUSH1 0x4 PUSH2 0x33DB JUMP JUMPDEST PUSH2 0xBBF JUMP JUMPDEST CALLVALUE DUP1 ISZERO PUSH2 0x41D JUMPI PUSH1 0x0 DUP1 REVERT JUMPDEST POP PUSH2 0x3C5 PUSH2 0x42C CALLDATASIZE PUSH1 0x4 PUSH2 0x31C9 JUMP JUMPDEST PUSH2 0xD65 JUMP JUMPDEST CALLVALUE DUP1 ISZERO PUSH2 0x43D JUMPI PUSH1 0x0 DUP1 REVERT JUMPDEST POP PUSH2 0x3C5 PUSH2 0x44C CALLDATASIZE PUSH1 0x4 PUSH2 0x33A2 JUMP JUMPDEST PUSH2 0xDB7 JUMP JUMPDEST CALLVALUE DUP1 ISZERO PUSH2 0x45D JUMPI PUSH1 0x0 DUP1 REVERT JUMPDEST POP PUSH2 0x3DC PUSH2 0x46C CALLDATASIZE PUSH1 0x4 PUSH2 0x3324 JUMP JUMPDEST PUSH2 0xFE0 JUMP JUMPDEST CALLVALUE DUP1 ISZERO PUSH2 0x47D JUMPI PUSH1 0x0 DUP1 REVERT JUMPDEST POP PUSH2 0x3DC PUSH2 0x1018 JUMP JUMPDEST CALLVALUE DUP1 ISZERO PUSH2 0x492 JUMPI PUSH1 0x0 DUP1 REVERT JUMPDEST POP PUSH2 0x3C5 PUSH2 0x4A1 CALLDATASIZE PUSH1 0x4 PUSH2 0x31C9 JUMP JUMPDEST PUSH2 0x1025 JUMP JUMPDEST CALLVALUE DUP1 ISZERO PUSH2 0x4B2 JUMPI PUSH1 0x0 DUP1 REVERT JUMPDEST POP PUSH2 0x398 PUSH2 0x1040 JUMP JUMPDEST CALLVALUE DUP1 ISZERO PUSH2 0x4C7 JUMPI PUSH1 0x0 DUP1 REVERT JUMPDEST POP PUSH2 0x3DC PUSH2 0x4D6 CALLDATASIZE PUSH1 0x4 PUSH2 0x33A2 JUMP JUMPDEST PUSH2 0x105C JUMP JUMPDEST CALLVALUE DUP1 ISZERO PUSH2 0x4E7 JUMPI PUSH1 0x0 DUP1 REVERT JUMPDEST POP PUSH2 0x3DC PUSH2 0x1072 JUMP JUMPDEST CALLVALUE DUP1 ISZERO PUSH2 0x4FC JUMPI PUSH1 0x0 DUP1 REVERT JUMPDEST POP PUSH2 0x398 PUSH2 0x50B CALLDATASIZE PUSH1 0x4 PUSH2 0x33A2 JUMP JUMPDEST PUSH2 0x1078 JUMP JUMPDEST CALLVALUE DUP1 ISZERO PUSH2 0x51C JUMPI PUSH1 0x0 DUP1 REVERT JUMPDEST POP PUSH2 0x36B PUSH2 0x10A0 JUMP JUMPDEST CALLVALUE DUP1 ISZERO PUSH2 0x531 JUMPI PUSH1 0x0 DUP1 REVERT JUMPDEST POP PUSH2 0x3DC PUSH2 0x111F JUMP JUMPDEST CALLVALUE DUP1 ISZERO PUSH2 0x546 JUMPI PUSH1 0x0 DUP1 REVERT JUMPDEST POP PUSH2 0x3DC PUSH2 0x555 CALLDATASIZE PUSH1 0x4 PUSH2 0x3135 JUMP JUMPDEST PUSH2 0x1125 JUMP JUMPDEST CALLVALUE DUP1 ISZERO PUSH2 0x566 JUMPI PUSH1 0x0 DUP1 REVERT JUMPDEST POP PUSH2 0x3C5 PUSH2 0x11A2 JUMP JUMPDEST CALLVALUE DUP1 ISZERO PUSH2 0x57B JUMPI PUSH1 0x0 DUP1 REVERT JUMPDEST POP PUSH2 0x3C5 PUSH2 0x58A CALLDATASIZE PUSH1 0x4 PUSH2 0x33A2 JUMP JUMPDEST PUSH2 0x1284 JUMP JUMPDEST CALLVALUE DUP1 ISZERO PUSH2 0x59B JUMPI PUSH1 0x0 DUP1 REVERT JUMPDEST POP PUSH2 0x398 PUSH2 0x12FC JUMP JUMPDEST CALLVALUE DUP1 ISZERO PUSH2 0x5B0 JUMPI PUSH1 0x0 DUP1 REVERT JUMPDEST POP PUSH2 0x36B PUSH2 0x1318 JUMP JUMPDEST CALLVALUE DUP1 ISZERO PUSH2 0x5C5 JUMPI PUSH1 0x0 DUP1 REVERT JUMPDEST POP PUSH2 0x5D9 PUSH2 0x5D4 CALLDATASIZE PUSH1 0x4 PUSH2 0x33A2 JUMP JUMPDEST PUSH2 0x1397 JUMP JUMPDEST PUSH1 0x40 MLOAD PUSH2 0x2EE SWAP3 SWAP2 SWAP1 PUSH2 0x3554 JUMP JUMPDEST CALLVALUE DUP1 ISZERO PUSH2 0x5F3 JUMPI PUSH1 0x0 DUP1 REVERT JUMPDEST POP PUSH2 0x3DC PUSH2 0x1420 JUMP JUMPDEST CALLVALUE DUP1 ISZERO PUSH2 0x608 JUMPI PUSH1 0x0 DUP1 REVERT JUMPDEST POP PUSH2 0x3C5 PUSH2 0x617 CALLDATASIZE PUSH1 0x4 PUSH2 0x32ED JUMP JUMPDEST PUSH2 0x142C JUMP JUMPDEST CALLVALUE DUP1 ISZERO PUSH2 0x628 JUMPI PUSH1 0x0 DUP1 REVERT JUMPDEST POP PUSH2 0x36B PUSH2 0x1566 JUMP JUMPDEST CALLVALUE DUP1 ISZERO PUSH2 0x63D JUMPI PUSH1 0x0 DUP1 REVERT JUMPDEST POP PUSH2 0x3DC PUSH2 0x159F JUMP JUMPDEST PUSH2 0x3DC PUSH2 0x654 CALLDATASIZE PUSH1 0x4 PUSH2 0x3184 JUMP JUMPDEST PUSH2 0x15A6 JUMP JUMPDEST CALLVALUE DUP1 ISZERO PUSH2 0x665 JUMPI PUSH1 0x0 DUP1 REVERT JUMPDEST POP PUSH2 0x3DC PUSH2 0x1C1E JUMP JUMPDEST CALLVALUE DUP1 ISZERO PUSH2 0x67A JUMPI PUSH1 0x0 DUP1 REVERT JUMPDEST POP PUSH2 0x3C5 PUSH2 0x689 CALLDATASIZE PUSH1 0x4 PUSH2 0x3209 JUMP JUMPDEST PUSH2 0x1C24 JUMP JUMPDEST CALLVALUE DUP1 ISZERO PUSH2 0x69A JUMPI PUSH1 0x0 DUP1 REVERT JUMPDEST POP PUSH2 0x36B PUSH2 0x6A9 CALLDATASIZE PUSH1 0x4 PUSH2 0x33A2 JUMP JUMPDEST PUSH2 0x1C7D JUMP JUMPDEST CALLVALUE DUP1 ISZERO PUSH2 0x6BA JUMPI PUSH1 0x0 DUP1 REVERT JUMPDEST POP PUSH2 0x3DC PUSH2 0x1DFB JUMP JUMPDEST CALLVALUE DUP1 ISZERO PUSH2 0x6CF JUMPI PUSH1 0x0 DUP1 REVERT JUMPDEST POP PUSH2 0x3DC PUSH2 0x6DE CALLDATASIZE PUSH1 0x4 PUSH2 0x33BA JUMP JUMPDEST PUSH2 0x1E08 JUMP JUMPDEST CALLVALUE DUP1 ISZERO PUSH2 0x6EF JUMPI PUSH1 0x0 DUP1 REVERT JUMPDEST POP PUSH2 0x317 PUSH2 0x6FE CALLDATASIZE PUSH1 0x4 PUSH2 0x3150 JUMP JUMPDEST PUSH2 0x1FA1 JUMP JUMPDEST CALLVALUE DUP1 ISZERO PUSH2 0x70F JUMPI PUSH1 0x0 DUP1 REVERT JUMPDEST POP PUSH2 0x3C5 PUSH2 0x71E CALLDATASIZE PUSH1 0x4 PUSH2 0x3135 JUMP JUMPDEST PUSH2 0x1FDC JUMP JUMPDEST CALLVALUE DUP1 ISZERO PUSH2 0x72F JUMPI PUSH1 0x0 DUP1 REVERT JUMPDEST POP PUSH2 0x3C5 PUSH2 0x73E CALLDATASIZE PUSH1 0x4 PUSH2 0x3324 JUMP JUMPDEST PUSH2 0x212A JUMP JUMPDEST CALLVALUE DUP1 ISZERO PUSH2 0x74F JUMPI PUSH1 0x0 DUP1 REVERT JUMPDEST POP PUSH2 0x36B PUSH2 0x21E1 JUMP JUMPDEST PUSH1 0x0 PUSH2 0x762 PUSH2 0x30DE JUMP JUMPDEST PUSH1 0x0 DUP1 DUP5 PUSH20 0xFFFFFFFFFFFFFFFFFFFFFFFFFFFFFFFFFFFFFFFF AND DUP7 PUSH20 0xFFFFFFFFFFFFFFFFFFFFFFFFFFFFFFFFFFFFFFFF AND LT PUSH2 0x79F JUMPI DUP5 DUP7 PUSH2 0x7A2 JUMP JUMPDEST DUP6 DUP6 JUMPDEST SWAP2 POP SWAP2 POP ADDRESS DUP3 DUP3 PUSH1 0x40 MLOAD PUSH1 0x20 ADD PUSH2 0x7BB SWAP4 SWAP3 SWAP2 SWAP1 PUSH2 0x345D JUMP JUMPDEST PUSH1 0x40 MLOAD PUSH1 0x20 DUP2 DUP4 SUB SUB DUP2 MSTORE SWAP1 PUSH1 0x40 MSTORE DUP1 MLOAD SWAP1 PUSH1 0x20 ADD KECCAK256 PUSH1 0x0 SHR SWAP4 POP PUSH2 0x7DF DUP5 PUSH2 0x221A JUMP JUMPDEST PUSH2 0x81E JUMPI PUSH1 0x40 MLOAD PUSH32 0x8C379A000000000000000000000000000000000000000000000000000000000 DUP2 MSTORE PUSH1 0x4 ADD PUSH2 0x815 SWAP1 PUSH2 0x37B4 JUMP JUMPDEST PUSH1 0x40 MLOAD DUP1 SWAP2 SUB SWAP1 REVERT JUMPDEST PUSH1 0x0 DUP5 DUP2 MSTORE PUSH1 0xE PUSH1 0x20 SWAP1 DUP2 MSTORE PUSH1 0x40 SWAP2 DUP3 SWAP1 KECCAK256 DUP3 MLOAD PUSH1 0xC0 DUP2 ADD DUP5 MSTORE DUP2 SLOAD PUSH20 0xFFFFFFFFFFFFFFFFFFFFFFFFFFFFFFFFFFFFFFFF SWAP1 DUP2 AND DUP3 MSTORE PUSH1 0x1 DUP4 ADD SLOAD AND SWAP3 DUP2 ADD SWAP3 SWAP1 SWAP3 MSTORE PUSH1 0x2 DUP2 ADD SLOAD SWAP3 DUP3 ADD SWAP3 SWAP1 SWAP3 MSTORE PUSH1 0x3 DUP3 ADD SLOAD PUSH8 0xFFFFFFFFFFFFFFFF DUP1 DUP3 AND PUSH1 0x60 DUP5 ADD MSTORE PUSH9 0x10000000000000000 DUP3 DIV AND PUSH1 0x80 DUP4 ADD MSTORE SWAP1 SWAP2 SWAP1 PUSH1 0xA0 DUP4 ADD SWAP1 PUSH17 0x100000000000000000000000000000000 SWAP1 DIV PUSH1 0xFF AND PUSH1 0x4 DUP2 GT ISZERO PUSH2 0x8BF JUMPI INVALID JUMPDEST PUSH1 0x4 DUP2 GT ISZERO PUSH2 0x8CA JUMPI INVALID JUMPDEST DUP2 MSTORE POP POP SWAP3 POP POP POP SWAP3 POP SWAP3 SWAP1 POP JUMP JUMPDEST PUSH32 0xFFFFFFFF00000000000000000000000000000000000000000000000000000000 DUP2 AND PUSH1 0x0 SWAP1 DUP2 MSTORE PUSH1 0x20 DUP2 SWAP1 MSTORE PUSH1 0x40 SWAP1 KECCAK256 SLOAD PUSH1 0xFF AND JUMPDEST SWAP2 SWAP1 POP JUMP JUMPDEST PUSH1 0xE PUSH1 0x20 MSTORE PUSH1 0x0 SWAP1 DUP2 MSTORE PUSH1 0x40 SWAP1 KECCAK256 DUP1 SLOAD PUSH1 0x1 DUP3 ADD SLOAD PUSH1 0x2 DUP4 ADD SLOAD PUSH1 0x3 SWAP1 SWAP4 ADD SLOAD PUSH20 0xFFFFFFFFFFFFFFFFFFFFFFFFFFFFFFFFFFFFFFFF SWAP3 DUP4 AND SWAP4 SWAP2 SWAP1 SWAP3 AND SWAP2 PUSH8 0xFFFFFFFFFFFFFFFF DUP1 DUP3 AND SWAP2 PUSH9 0x10000000000000000 DUP2 DIV SWAP1 SWAP2 AND SWAP1 PUSH1 0xFF PUSH17 0x100000000000000000000000000000000 SWAP1 SWAP2 DIV AND DUP7 JUMP JUMPDEST PUSH1 0x6 DUP1 SLOAD PUSH1 0x40 DUP1 MLOAD PUSH1 0x20 PUSH1 0x1F PUSH1 0x2 PUSH32 0xFFFFFFFFFFFFFFFFFFFFFFFFFFFFFFFFFFFFFFFFFFFFFFFFFFFFFFFFFFFFFFFF PUSH2 0x100 PUSH1 0x1 DUP9 AND ISZERO MUL ADD SWAP1 SWAP6 AND SWAP5 SWAP1 SWAP5 DIV SWAP4 DUP5 ADD DUP2 SWAP1 DIV DUP2 MUL DUP3 ADD DUP2 ADD SWAP1 SWAP3 MSTORE DUP3 DUP2 MSTORE PUSH1 0x60 SWAP4 SWAP1 SWAP3 SWAP1 SWAP2 DUP4 ADD DUP3 DUP3 DUP1 ISZERO PUSH2 0xA34 JUMPI DUP1 PUSH1 0x1F LT PUSH2 0xA09 JUMPI PUSH2 0x100 DUP1 DUP4 SLOAD DIV MUL DUP4 MSTORE SWAP2 PUSH1 0x20 ADD SWAP2 PUSH2 0xA34 JUMP JUMPDEST DUP3 ADD SWAP2 SWAP1 PUSH1 0x0 MSTORE PUSH1 0x20 PUSH1 0x0 KECCAK256 SWAP1 JUMPDEST DUP2 SLOAD DUP2 MSTORE SWAP1 PUSH1 0x1 ADD SWAP1 PUSH1 0x20 ADD DUP1 DUP4 GT PUSH2 0xA17 JUMPI DUP3 SWAP1 SUB PUSH1 0x1F AND DUP3 ADD SWAP2 JUMPDEST POP POP POP POP POP SWAP1 POP SWAP1 JUMP JUMPDEST PUSH1 0x0 PUSH2 0xA49 DUP3 PUSH2 0x221A JUMP JUMPDEST PUSH2 0xA7F JUMPI PUSH1 0x40 MLOAD PUSH32 0x8C379A000000000000000000000000000000000000000000000000000000000 DUP2 MSTORE PUSH1 0x4 ADD PUSH2 0x815 SWAP1 PUSH2 0x3C2C JUMP JUMPDEST POP PUSH1 0x0 SWAP1 DUP2 MSTORE PUSH1 0x4 PUSH1 0x20 MSTORE PUSH1 0x40 SWAP1 KECCAK256 SLOAD PUSH20 0xFFFFFFFFFFFFFFFFFFFFFFFFFFFFFFFFFFFFFFFF AND SWAP1 JUMP JUMPDEST PUSH1 0x0 PUSH2 0xAB3 DUP3 PUSH2 0x1078 JUMP JUMPDEST SWAP1 POP DUP1 PUSH20 0xFFFFFFFFFFFFFFFFFFFFFFFFFFFFFFFFFFFFFFFF AND DUP4 PUSH20 0xFFFFFFFFFFFFFFFFFFFFFFFFFFFFFFFFFFFFFFFF AND EQ ISZERO PUSH2 0xB1B JUMPI PUSH1 0x40 MLOAD PUSH32 0x8C379A000000000000000000000000000000000000000000000000000000000 DUP2 MSTORE PUSH1 0x4 ADD PUSH2 0x815 SWAP1 PUSH2 0x3DAF JUMP JUMPDEST DUP1 PUSH20 0xFFFFFFFFFFFFFFFFFFFFFFFFFFFFFFFFFFFFFFFF AND PUSH2 0xB3A PUSH2 0x2227 JUMP JUMPDEST PUSH20 0xFFFFFFFFFFFFFFFFFFFFFFFFFFFFFFFFFFFFFFFF AND EQ DUP1 PUSH2 0xB63 JUMPI POP PUSH2 0xB63 DUP2 PUSH2 0x6FE PUSH2 0x2227 JUMP JUMPDEST PUSH2 0xB99 JUMPI PUSH1 0x40 MLOAD PUSH32 0x8C379A000000000000000000000000000000000000000000000000000000000 DUP2 MSTORE PUSH1 0x4 ADD PUSH2 0x815 SWAP1 PUSH2 0x3A4C JUMP JUMPDEST PUSH2 0xBA3 DUP4 DUP4 PUSH2 0x222B JUMP JUMPDEST POP POP POP JUMP JUMPDEST PUSH1 0x0 PUSH2 0xBB4 PUSH1 0x2 PUSH2 0x22CB JUMP JUMPDEST SWAP1 POP SWAP1 JUMP JUMPDEST PUSH1 0xC SLOAD DUP2 JUMP JUMPDEST PUSH1 0x0 PUSH2 0xBCA DUP5 PUSH2 0x221A JUMP JUMPDEST PUSH2 0xC00 JUMPI PUSH1 0x40 MLOAD PUSH32 0x8C379A000000000000000000000000000000000000000000000000000000000 DUP2 MSTORE PUSH1 0x4 ADD PUSH2 0x815 SWAP1 PUSH2 0x37B4 JUMP JUMPDEST PUSH1 0x0 DUP5 DUP2 MSTORE PUSH1 0xE PUSH1 0x20 MSTORE PUSH1 0x40 SWAP1 KECCAK256 PUSH1 0x4 PUSH1 0x3 DUP3 ADD SLOAD PUSH17 0x100000000000000000000000000000000 SWAP1 DIV PUSH1 0xFF AND PUSH1 0x4 DUP2 GT ISZERO PUSH2 0xC37 JUMPI INVALID JUMPDEST EQ PUSH2 0xC6E JUMPI PUSH1 0x40 MLOAD PUSH32 0x8C379A000000000000000000000000000000000000000000000000000000000 DUP2 MSTORE PUSH1 0x4 ADD PUSH2 0x815 SWAP1 PUSH2 0x3F6B JUMP JUMPDEST PUSH1 0x2 DUP2 ADD SLOAD CALLVALUE DUP2 GT ISZERO PUSH2 0xCAD JUMPI PUSH1 0x40 MLOAD PUSH32 0x8C379A000000000000000000000000000000000000000000000000000000000 DUP2 MSTORE PUSH1 0x4 ADD PUSH2 0x815 SWAP1 PUSH2 0x387F JUMP JUMPDEST PUSH1 0x0 PUSH2 0xCB8 DUP8 PUSH2 0x1078 JUMP JUMPDEST SWAP1 POP PUSH2 0xCC5 DUP2 DUP7 DUP10 PUSH2 0x22D6 JUMP JUMPDEST DUP6 ISZERO PUSH2 0xCD7 JUMPI PUSH1 0x2 DUP4 ADD DUP7 SWAP1 SSTORE PUSH2 0xD3B JUMP JUMPDEST PUSH1 0x3 DUP4 ADD DUP1 SLOAD PUSH32 0xFFFFFFFFFFFFFFFFFFFFFFFFFFFFFF00FFFFFFFFFFFFFFFFFFFFFFFFFFFFFFFF AND PUSH17 0x300000000000000000000000000000000 OR SWAP1 SSTORE PUSH32 0xFFFFFFFFFFFFFFFFFFFFFFFFFFFFFFFFFFFFFFFFFFFFFFFFFFFFFFFFFFFFFFFF PUSH1 0x2 DUP5 ADD SSTORE JUMPDEST PUSH2 0xD45 DUP2 DUP4 PUSH2 0x2473 JUMP JUMPDEST DUP2 CALLVALUE GT ISZERO PUSH2 0xD59 JUMPI PUSH2 0xD59 CALLER DUP4 CALLVALUE SUB PUSH2 0x2473 JUMP JUMPDEST POP SWAP2 POP POP JUMPDEST SWAP4 SWAP3 POP POP POP JUMP JUMPDEST PUSH2 0xD76 PUSH2 0xD70 PUSH2 0x2227 JUMP JUMPDEST DUP3 PUSH2 0x2527 JUMP JUMPDEST PUSH2 0xDAC JUMPI PUSH1 0x40 MLOAD PUSH32 0x8C379A000000000000000000000000000000000000000000000000000000000 DUP2 MSTORE PUSH1 0x4 ADD PUSH2 0x815 SWAP1 PUSH2 0x3E43 JUMP JUMPDEST PUSH2 0xBA3 DUP4 DUP4 DUP4 PUSH2 0x22D6 JUMP JUMPDEST PUSH2 0xDC0 DUP2 PUSH2 0x1078 JUMP JUMPDEST PUSH20 0xFFFFFFFFFFFFFFFFFFFFFFFFFFFFFFFFFFFFFFFF AND CALLER PUSH20 0xFFFFFFFFFFFFFFFFFFFFFFFFFFFFFFFFFFFFFFFF AND EQ PUSH2 0xE24 JUMPI PUSH1 0x40 MLOAD PUSH32 0x8C379A000000000000000000000000000000000000000000000000000000000 DUP2 MSTORE PUSH1 0x4 ADD PUSH2 0x815 SWAP1 PUSH2 0x361E JUMP JUMPDEST PUSH1 0x0 DUP2 DUP2 MSTORE PUSH1 0xE PUSH1 0x20 MSTORE PUSH1 0x40 DUP2 KECCAK256 SWAP1 PUSH1 0x3 DUP3 ADD SLOAD PUSH17 0x100000000000000000000000000000000 SWAP1 DIV PUSH1 0xFF AND PUSH1 0x4 DUP2 GT ISZERO PUSH2 0xE5A JUMPI INVALID JUMPDEST EQ ISZERO PUSH2 0xEB1 JUMPI PUSH1 0x3 DUP2 ADD SLOAD PUSH8 0xFFFFFFFFFFFFFFFF AND PUSH3 0x127500 ADD TIMESTAMP GT PUSH2 0xEAC JUMPI PUSH1 0x40 MLOAD PUSH32 0x8C379A000000000000000000000000000000000000000000000000000000000 DUP2 MSTORE PUSH1 0x4 ADD PUSH2 0x815 SWAP1 PUSH2 0x3F34 JUMP JUMPDEST PUSH2 0xF69 JUMP JUMPDEST PUSH1 0x1 PUSH1 0x3 DUP3 ADD SLOAD PUSH17 0x100000000000000000000000000000000 SWAP1 DIV PUSH1 0xFF AND PUSH1 0x4 DUP2 GT ISZERO PUSH2 0xEDA JUMPI INVALID JUMPDEST EQ PUSH2 0xF11 JUMPI PUSH1 0x40 MLOAD PUSH32 0x8C379A000000000000000000000000000000000000000000000000000000000 DUP2 MSTORE PUSH1 0x4 ADD PUSH2 0x815 SWAP1 PUSH2 0x3D78 JUMP JUMPDEST PUSH1 0x3 DUP2 ADD SLOAD PUSH8 0xFFFFFFFFFFFFFFFF PUSH9 0x10000000000000000 SWAP1 SWAP2 DIV AND PUSH2 0x1C20 ADD TIMESTAMP GT PUSH2 0xF69 JUMPI PUSH1 0x40 MLOAD PUSH32 0x8C379A000000000000000000000000000000000000000000000000000000000 DUP2 MSTORE PUSH1 0x4 ADD PUSH2 0x815 SWAP1 PUSH2 0x3F34 JUMP JUMPDEST PUSH1 0x3 DUP2 ADD DUP1 SLOAD PUSH32 0xFFFFFFFFFFFFFFFFFFFFFFFFFFFFFF00FFFFFFFFFFFFFFFFFFFFFFFFFFFFFFFF AND PUSH17 0x200000000000000000000000000000000 OR SWAP1 SSTORE PUSH1 0xB SLOAD PUSH1 0x2 DUP3 ADD SLOAD PUSH2 0xFDC SWAP2 PUSH20 0xFFFFFFFFFFFFFFFFFFFFFFFFFFFFFFFFFFFFFFFF AND SWAP1 CALLER SWAP1 PUSH2 0xFD7 SWAP1 PUSH2 0x4E20 PUSH2 0x25FA JUMP JUMPDEST PUSH2 0x264E JUMP JUMPDEST POP POP JUMP JUMPDEST PUSH20 0xFFFFFFFFFFFFFFFFFFFFFFFFFFFFFFFFFFFFFFFF DUP3 AND PUSH1 0x0 SWAP1 DUP2 MSTORE PUSH1 0x1 PUSH1 0x20 MSTORE PUSH1 0x40 DUP2 KECCAK256 PUSH2 0x100F SWAP1 DUP4 PUSH2 0x2778 JUMP JUMPDEST SWAP1 POP JUMPDEST SWAP3 SWAP2 POP POP JUMP JUMPDEST PUSH9 0x3635C9ADC5DEA00000 DUP2 JUMP JUMPDEST PUSH2 0xBA3 DUP4 DUP4 DUP4 PUSH1 0x40 MLOAD DUP1 PUSH1 0x20 ADD PUSH1 0x40 MSTORE DUP1 PUSH1 0x0 DUP2 MSTORE POP PUSH2 0x1C24 JUMP JUMPDEST PUSH1 0xB SLOAD PUSH20 0xFFFFFFFFFFFFFFFFFFFFFFFFFFFFFFFFFFFFFFFF AND DUP2 JUMP JUMPDEST PUSH1 0x0 DUP1 PUSH2 0x106A PUSH1 0x2 DUP5 PUSH2 0x2784 JUMP JUMPDEST POP SWAP4 SWAP3 POP POP POP JUMP JUMPDEST PUSH2 0x1C20 DUP2 JUMP JUMPDEST PUSH1 0x0 PUSH2 0x1012 DUP3 PUSH1 0x40 MLOAD DUP1 PUSH1 0x60 ADD PUSH1 0x40 MSTORE DUP1 PUSH1 0x29 DUP2 MSTORE PUSH1 0x20 ADD PUSH2 0x40EC PUSH1 0x29 SWAP2 CODECOPY PUSH1 0x2 SWAP2 SWAP1 PUSH2 0x27A0 JUMP JUMPDEST PUSH1 0x9 DUP1 SLOAD PUSH1 0x40 DUP1 MLOAD PUSH1 0x20 PUSH1 0x1F PUSH1 0x2 PUSH32 0xFFFFFFFFFFFFFFFFFFFFFFFFFFFFFFFFFFFFFFFFFFFFFFFFFFFFFFFFFFFFFFFF PUSH2 0x100 PUSH1 0x1 DUP9 AND ISZERO MUL ADD SWAP1 SWAP6 AND SWAP5 SWAP1 SWAP5 DIV SWAP4 DUP5 ADD DUP2 SWAP1 DIV DUP2 MUL DUP3 ADD DUP2 ADD SWAP1 SWAP3 MSTORE DUP3 DUP2 MSTORE PUSH1 0x60 SWAP4 SWAP1 SWAP3 SWAP1 SWAP2 DUP4 ADD DUP3 DUP3 DUP1 ISZERO PUSH2 0xA34 JUMPI DUP1 PUSH1 0x1F LT PUSH2 0xA09 JUMPI PUSH2 0x100 DUP1 DUP4 SLOAD DIV MUL DUP4 MSTORE SWAP2 PUSH1 0x20 ADD SWAP2 PUSH2 0xA34 JUMP JUMPDEST PUSH2 0x4E20 DUP2 JUMP JUMPDEST PUSH1 0x0 PUSH20 0xFFFFFFFFFFFFFFFFFFFFFFFFFFFFFFFFFFFFFFFF DUP3 AND PUSH2 0x1174 JUMPI PUSH1 0x40 MLOAD PUSH32 0x8C379A000000000000000000000000000000000000000000000000000000000 DUP2 MSTORE PUSH1 0x4 ADD PUSH2 0x815 SWAP1 PUSH2 0x3AA9 JUMP JUMPDEST PUSH20 0xFFFFFFFFFFFFFFFFFFFFFFFFFFFFFFFFFFFFFFFF DUP3 AND PUSH1 0x0 SWAP1 DUP2 MSTORE PUSH1 0x1 PUSH1 0x20 MSTORE PUSH1 0x40 SWAP1 KECCAK256 PUSH2 0x1012 SWAP1 PUSH2 0x22CB JUMP JUMPDEST PUSH2 0x11AA PUSH2 0x2227 JUMP JUMPDEST PUSH20 0xFFFFFFFFFFFFFFFFFFFFFFFFFFFFFFFFFFFFFFFF AND PUSH2 0x11C8 PUSH2 0x12FC JUMP JUMPDEST PUSH20 0xFFFFFFFFFFFFFFFFFFFFFFFFFFFFFFFFFFFFFFFF AND EQ PUSH2 0x1215 JUMPI PUSH1 0x40 MLOAD PUSH32 0x8C379A000000000000000000000000000000000000000000000000000000000 DUP2 MSTORE PUSH1 0x4 ADD PUSH2 0x815 SWAP1 PUSH2 0x3C89 JUMP JUMPDEST PUSH1 0xA SLOAD PUSH1 0x40 MLOAD PUSH1 0x0 SWAP2 PUSH20 0xFFFFFFFFFFFFFFFFFFFFFFFFFFFFFFFFFFFFFFFF AND SWAP1 PUSH32 0x8BE0079C531659141344CD1FD0A4F28419497F9722A3DAAFE3B4186F6B6457E0 SWAP1 DUP4 SWAP1 LOG3 PUSH1 0xA DUP1 SLOAD PUSH32 0xFFFFFFFFFFFFFFFFFFFFFFFF0000000000000000000000000000000000000000 AND SWAP1 SSTORE JUMP JUMPDEST PUSH2 0x128C PUSH2 0x2227 JUMP JUMPDEST PUSH20 0xFFFFFFFFFFFFFFFFFFFFFFFFFFFFFFFFFFFFFFFF AND PUSH2 0x12AA PUSH2 0x12FC JUMP JUMPDEST PUSH20 0xFFFFFFFFFFFFFFFFFFFFFFFFFFFFFFFFFFFFFFFF AND EQ PUSH2 0x12F7 JUMPI PUSH1 0x40 MLOAD PUSH32 0x8C379A000000000000000000000000000000000000000000000000000000000 DUP2 MSTORE PUSH1 0x4 ADD PUSH2 0x815 SWAP1 PUSH2 0x3C89 JUMP JUMPDEST PUSH1 0xC SSTORE JUMP JUMPDEST PUSH1 0xA SLOAD PUSH20 0xFFFFFFFFFFFFFFFFFFFFFFFFFFFFFFFFFFFFFFFF AND SWAP1 JUMP JUMPDEST PUSH1 0x7 DUP1 SLOAD PUSH1 0x40 DUP1 MLOAD PUSH1 0x20 PUSH1 0x1F PUSH1 0x2 PUSH32 0xFFFFFFFFFFFFFFFFFFFFFFFFFFFFFFFFFFFFFFFFFFFFFFFFFFFFFFFFFFFFFFFF PUSH2 0x100 PUSH1 0x1 DUP9 AND ISZERO MUL ADD SWAP1 SWAP6 AND SWAP5 SWAP1 SWAP5 DIV SWAP4 DUP5 ADD DUP2 SWAP1 DIV DUP2 MUL DUP3 ADD DUP2 ADD SWAP1 SWAP3 MSTORE DUP3 DUP2 MSTORE PUSH1 0x60 SWAP4 SWAP1 SWAP3 SWAP1 SWAP2 DUP4 ADD DUP3 DUP3 DUP1 ISZERO PUSH2 0xA34 JUMPI DUP1 PUSH1 0x1F LT PUSH2 0xA09 JUMPI PUSH2 0x100 DUP1 DUP4 SLOAD DIV MUL DUP4 MSTORE SWAP2 PUSH1 0x20 ADD SWAP2 PUSH2 0xA34 JUMP JUMPDEST PUSH1 0x0 DUP2 DUP2 MSTORE PUSH1 0xE PUSH1 0x20 MSTORE PUSH1 0x40 DUP2 KECCAK256 DUP1 SLOAD DUP3 SWAP2 SWAP1 PUSH20 0xFFFFFFFFFFFFFFFFFFFFFFFFFFFFFFFFFFFFFFFF AND PUSH2 0x13F6 JUMPI PUSH1 0x40 MLOAD PUSH32 0x8C379A000000000000000000000000000000000000000000000000000000000 DUP2 MSTORE PUSH1 0x4 ADD PUSH2 0x815 SWAP1 PUSH2 0x361E JUMP JUMPDEST DUP1 SLOAD PUSH1 0x1 SWAP1 SWAP2 ADD SLOAD PUSH20 0xFFFFFFFFFFFFFFFFFFFFFFFFFFFFFFFFFFFFFFFF SWAP2 DUP3 AND SWAP4 POP AND SWAP1 POP SWAP2 POP SWAP2 JUMP JUMPDEST PUSH8 0x16345785D8A0000 DUP2 JUMP JUMPDEST PUSH2 0x1434 PUSH2 0x2227 JUMP JUMPDEST PUSH20 0xFFFFFFFFFFFFFFFFFFFFFFFFFFFFFFFFFFFFFFFF AND DUP3 PUSH20 0xFFFFFFFFFFFFFFFFFFFFFFFFFFFFFFFFFFFFFFFF AND EQ ISZERO PUSH2 0x1499 JUMPI PUSH1 0x40 MLOAD PUSH32 0x8C379A000000000000000000000000000000000000000000000000000000000 DUP2 MSTORE PUSH1 0x4 ADD PUSH2 0x815 SWAP1 PUSH2 0x3981 JUMP JUMPDEST DUP1 PUSH1 0x5 PUSH1 0x0 PUSH2 0x14A6 PUSH2 0x2227 JUMP JUMPDEST PUSH20 0xFFFFFFFFFFFFFFFFFFFFFFFFFFFFFFFFFFFFFFFF SWAP1 DUP2 AND DUP3 MSTORE PUSH1 0x20 DUP1 DUP4 ADD SWAP4 SWAP1 SWAP4 MSTORE PUSH1 0x40 SWAP2 DUP3 ADD PUSH1 0x0 SWAP1 DUP2 KECCAK256 SWAP2 DUP8 AND DUP1 DUP3 MSTORE SWAP2 SWAP1 SWAP4 MSTORE SWAP2 KECCAK256 DUP1 SLOAD PUSH32 0xFFFFFFFFFFFFFFFFFFFFFFFFFFFFFFFFFFFFFFFFFFFFFFFFFFFFFFFFFFFFFF00 AND SWAP3 ISZERO ISZERO SWAP3 SWAP1 SWAP3 OR SWAP1 SWAP2 SSTORE PUSH2 0x1515 PUSH2 0x2227 JUMP JUMPDEST PUSH20 0xFFFFFFFFFFFFFFFFFFFFFFFFFFFFFFFFFFFFFFFF AND PUSH32 0x17307EAB39AB6107E8899845AD3D59BD9653F200F220920489CA2B5937696C31 DUP4 PUSH1 0x40 MLOAD PUSH2 0x155A SWAP2 SWAP1 PUSH2 0x3600 JUMP JUMPDEST PUSH1 0x40 MLOAD DUP1 SWAP2 SUB SWAP1 LOG3 POP POP JUMP JUMPDEST PUSH1 0x40 MLOAD DUP1 PUSH1 0x40 ADD PUSH1 0x40 MSTORE DUP1 PUSH1 0xF DUP2 MSTORE PUSH1 0x20 ADD PUSH32 0x46657377617020506F6F6C204E46540000000000000000000000000000000000 DUP2 MSTORE POP DUP2 JUMP JUMPDEST PUSH3 0x127500 DUP2 JUMP JUMPDEST PUSH1 0x0 PUSH1 0xD SLOAD TIMESTAMP GT PUSH2 0x15E3 JUMPI PUSH1 0x40 MLOAD PUSH32 0x8C379A000000000000000000000000000000000000000000000000000000000 DUP2 MSTORE PUSH1 0x4 ADD PUSH2 0x815 SWAP1 PUSH2 0x36E9 JUMP JUMPDEST DUP3 PUSH20 0xFFFFFFFFFFFFFFFFFFFFFFFFFFFFFFFFFFFFFFFF AND DUP5 PUSH20 0xFFFFFFFFFFFFFFFFFFFFFFFFFFFFFFFFFFFFFFFF AND EQ ISZERO PUSH2 0x1649 JUMPI PUSH1 0x40 MLOAD PUSH32 0x8C379A000000000000000000000000000000000000000000000000000000000 DUP2 MSTORE PUSH1 0x4 ADD PUSH2 0x815 SWAP1 PUSH2 0x3720 JUMP JUMPDEST PUSH1 0xC SLOAD CALLVALUE LT ISZERO PUSH2 0x1685 JUMPI PUSH1 0x40 MLOAD PUSH32 0x8C379A000000000000000000000000000000000000000000000000000000000 DUP2 MSTORE PUSH1 0x4 ADD PUSH2 0x815 SWAP1 PUSH2 0x387F JUMP JUMPDEST PUSH1 0x0 DUP1 DUP5 PUSH20 0xFFFFFFFFFFFFFFFFFFFFFFFFFFFFFFFFFFFFFFFF AND DUP7 PUSH20 0xFFFFFFFFFFFFFFFFFFFFFFFFFFFFFFFFFFFFFFFF AND GT ISZERO PUSH2 0x16C3 JUMPI DUP5 DUP7 PUSH2 0x16C6 JUMP JUMPDEST DUP6 DUP6 JUMPDEST SWAP2 POP SWAP2 POP ADDRESS DUP3 DUP3 PUSH1 0x40 MLOAD PUSH1 0x20 ADD PUSH2 0x16DF SWAP4 SWAP3 SWAP2 SWAP1 PUSH2 0x345D JUMP JUMPDEST PUSH1 0x40 MLOAD PUSH1 0x20 DUP2 DUP4 SUB SUB DUP2 MSTORE SWAP1 PUSH1 0x40 MSTORE DUP1 MLOAD SWAP1 PUSH1 0x20 ADD KECCAK256 PUSH1 0x0 SHR SWAP3 POP PUSH2 0x1703 DUP4 PUSH2 0x221A JUMP JUMPDEST ISZERO PUSH2 0x1A13 JUMPI PUSH1 0x0 DUP4 DUP2 MSTORE PUSH1 0xE PUSH1 0x20 MSTORE PUSH1 0x40 SWAP1 KECCAK256 PUSH1 0x2 DUP2 ADD SLOAD PUSH2 0x1733 SWAP1 PUSH1 0xA SWAP1 PUSH2 0x172D SWAP1 PUSH1 0xB PUSH2 0x25FA JUMP JUMPDEST SWAP1 PUSH2 0x27AD JUMP JUMPDEST CALLVALUE LT ISZERO PUSH2 0x176C JUMPI PUSH1 0x40 MLOAD PUSH32 0x8C379A000000000000000000000000000000000000000000000000000000000 DUP2 MSTORE PUSH1 0x4 ADD PUSH2 0x815 SWAP1 PUSH2 0x387F JUMP JUMPDEST PUSH1 0x2 DUP2 ADD SLOAD PUSH2 0x1783 SWAP1 PUSH8 0x16345785D8A0000 PUSH2 0x27F9 JUMP JUMPDEST CALLVALUE LT ISZERO PUSH2 0x17BC JUMPI PUSH1 0x40 MLOAD PUSH32 0x8C379A000000000000000000000000000000000000000000000000000000000 DUP2 MSTORE PUSH1 0x4 ADD PUSH2 0x815 SWAP1 PUSH2 0x387F JUMP JUMPDEST PUSH1 0x0 PUSH1 0x3 DUP3 ADD SLOAD PUSH17 0x100000000000000000000000000000000 SWAP1 DIV PUSH1 0xFF AND PUSH1 0x4 DUP2 GT ISZERO PUSH2 0x17E5 JUMPI INVALID JUMPDEST EQ ISZERO PUSH2 0x1895 JUMPI PUSH1 0x3 DUP2 ADD SLOAD PUSH8 0xFFFFFFFFFFFFFFFF AND PUSH3 0x127500 ADD TIMESTAMP GT ISZERO PUSH2 0x1838 JUMPI PUSH1 0x40 MLOAD PUSH32 0x8C379A000000000000000000000000000000000000000000000000000000000 DUP2 MSTORE PUSH1 0x4 ADD PUSH2 0x815 SWAP1 PUSH2 0x3B98 JUMP JUMPDEST PUSH1 0x3 DUP2 ADD SLOAD PUSH8 0xFFFFFFFFFFFFFFFF AND PUSH3 0x1258E0 ADD TIMESTAMP LT PUSH2 0x1890 JUMPI PUSH1 0x3 DUP2 ADD DUP1 SLOAD PUSH32 0xFFFFFFFFFFFFFFFFFFFFFFFFFFFFFF00FFFFFFFFFFFFFFFFFFFFFFFFFFFFFFFF AND PUSH17 0x100000000000000000000000000000000 OR SWAP1 SSTORE JUMPDEST PUSH2 0x194E JUMP JUMPDEST PUSH1 0x1 PUSH1 0x3 DUP3 ADD SLOAD PUSH17 0x100000000000000000000000000000000 SWAP1 DIV PUSH1 0xFF AND PUSH1 0x4 DUP2 GT ISZERO PUSH2 0x18BE JUMPI INVALID JUMPDEST EQ PUSH2 0x18F5 JUMPI PUSH1 0x40 MLOAD PUSH32 0x8C379A000000000000000000000000000000000000000000000000000000000 DUP2 MSTORE PUSH1 0x4 ADD PUSH2 0x815 SWAP1 PUSH2 0x3D78 JUMP JUMPDEST PUSH1 0x3 DUP2 ADD SLOAD PUSH8 0xFFFFFFFFFFFFFFFF PUSH9 0x10000000000000000 SWAP1 SWAP2 DIV AND PUSH2 0x1C20 ADD TIMESTAMP GT ISZERO PUSH2 0x194E JUMPI PUSH1 0x40 MLOAD PUSH32 0x8C379A000000000000000000000000000000000000000000000000000000000 DUP2 MSTORE PUSH1 0x4 ADD PUSH2 0x815 SWAP1 PUSH2 0x3B98 JUMP JUMPDEST PUSH1 0x3 DUP2 ADD DUP1 SLOAD PUSH32 0xFFFFFFFFFFFFFFFFFFFFFFFFFFFFFFFF0000000000000000FFFFFFFFFFFFFFFF AND PUSH9 0x10000000000000000 TIMESTAMP PUSH8 0xFFFFFFFFFFFFFFFF AND MUL OR SWAP1 SSTORE PUSH1 0x2 DUP2 ADD SLOAD PUSH1 0x0 SWAP1 PUSH2 0x19B4 SWAP1 PUSH1 0xA SWAP1 PUSH2 0x172D SWAP1 PUSH2 0x19AD SWAP1 PUSH1 0x9 PUSH2 0x25FA JUMP JUMPDEST CALLVALUE SWAP1 PUSH2 0x27F9 JUMP JUMPDEST SWAP1 POP PUSH1 0x0 PUSH2 0x19C1 DUP7 PUSH2 0x1078 JUMP JUMPDEST SWAP1 POP PUSH2 0x19CE DUP2 DUP9 DUP9 PUSH2 0x22D6 JUMP JUMPDEST CALLVALUE PUSH1 0x2 DUP5 ADD SSTORE PUSH2 0x19DE DUP2 DUP4 PUSH2 0x2473 JUMP JUMPDEST PUSH1 0xB SLOAD PUSH2 0x1A0B SWAP1 PUSH20 0xFFFFFFFFFFFFFFFFFFFFFFFFFFFFFFFFFFFFFFFF AND DUP9 PUSH9 0x1B1AE4D6E2EF500000 PUSH2 0x264E JUMP JUMPDEST POP POP POP PUSH2 0x1C15 JUMP JUMPDEST PUSH2 0x1A1D DUP5 DUP5 PUSH2 0x2838 JUMP JUMPDEST PUSH2 0x1A25 PUSH2 0x30DE JUMP JUMPDEST PUSH20 0xFFFFFFFFFFFFFFFFFFFFFFFFFFFFFFFFFFFFFFFF DUP4 DUP2 AND DUP3 MSTORE DUP3 DUP2 AND PUSH1 0x20 DUP1 DUP5 ADD SWAP2 DUP3 MSTORE CALLVALUE PUSH1 0x40 DUP1 DUP7 ADD SWAP2 DUP3 MSTORE PUSH8 0xFFFFFFFFFFFFFFFF TIMESTAMP DUP2 AND PUSH1 0x60 DUP9 ADD SWAP1 DUP2 MSTORE PUSH1 0x0 PUSH1 0xA0 DUP10 ADD DUP2 DUP2 MSTORE DUP13 DUP3 MSTORE PUSH1 0xE SWAP1 SWAP7 MSTORE SWAP3 SWAP1 SWAP3 KECCAK256 DUP8 MLOAD DUP2 SLOAD SWAP1 DUP9 AND PUSH32 0xFFFFFFFFFFFFFFFFFFFFFFFF0000000000000000000000000000000000000000 SWAP2 DUP3 AND OR DUP3 SSTORE SWAP6 MLOAD PUSH1 0x1 DUP3 ADD DUP1 SLOAD SWAP2 SWAP1 SWAP9 AND SWAP7 AND SWAP6 SWAP1 SWAP6 OR SWAP1 SWAP6 SSTORE SWAP1 MLOAD PUSH1 0x2 DUP5 ADD SSTORE MLOAD PUSH1 0x3 DUP4 ADD DUP1 SLOAD PUSH1 0x80 DUP8 ADD MLOAD DUP7 AND PUSH9 0x10000000000000000 MUL PUSH32 0xFFFFFFFFFFFFFFFFFFFFFFFFFFFFFFFF0000000000000000FFFFFFFFFFFFFFFF SWAP4 SWAP1 SWAP7 AND PUSH32 0xFFFFFFFFFFFFFFFFFFFFFFFFFFFFFFFFFFFFFFFFFFFFFFFF0000000000000000 SWAP1 SWAP2 AND OR SWAP2 SWAP1 SWAP2 AND SWAP4 SWAP1 SWAP4 OR DUP1 DUP5 SSTORE SWAP1 MLOAD DUP5 SWAP4 SWAP1 SWAP2 PUSH32 0xFFFFFFFFFFFFFFFFFFFFFFFFFFFFFF00FFFFFFFFFFFFFFFFFFFFFFFFFFFFFFFF AND PUSH17 0x100000000000000000000000000000000 DUP4 PUSH1 0x4 DUP2 GT ISZERO PUSH2 0x1B79 JUMPI INVALID JUMPDEST MUL OR SWAP1 SSTORE POP SWAP1 POP POP DUP6 PUSH20 0xFFFFFFFFFFFFFFFFFFFFFFFFFFFFFFFFFFFFFFFF AND DUP8 PUSH20 0xFFFFFFFFFFFFFFFFFFFFFFFFFFFFFFFFFFFFFFFF AND PUSH32 0xF8ADD6E61A4E95282CADC4338B757ABF66DAADD9FAC5C3303CAB67BBE40A124 DUP7 PUSH1 0x40 MLOAD PUSH2 0x1BDE SWAP2 SWAP1 PUSH2 0x3FA2 JUMP JUMPDEST PUSH1 0x40 MLOAD DUP1 SWAP2 SUB SWAP1 LOG3 PUSH1 0xB SLOAD PUSH2 0x1C13 SWAP1 PUSH20 0xFFFFFFFFFFFFFFFFFFFFFFFFFFFFFFFFFFFFFFFF AND DUP7 PUSH9 0x3635C9ADC5DEA00000 PUSH2 0x264E JUMP JUMPDEST POP JUMPDEST POP POP SWAP4 SWAP3 POP POP POP JUMP JUMPDEST PUSH1 0xD SLOAD DUP2 JUMP JUMPDEST PUSH2 0x1C35 PUSH2 0x1C2F PUSH2 0x2227 JUMP JUMPDEST DUP4 PUSH2 0x2527 JUMP JUMPDEST PUSH2 0x1C6B JUMPI PUSH1 0x40 MLOAD PUSH32 0x8C379A000000000000000000000000000000000000000000000000000000000 DUP2 MSTORE PUSH1 0x4 ADD PUSH2 0x815 SWAP1 PUSH2 0x3E43 JUMP JUMPDEST PUSH2 0x1C77 DUP5 DUP5 DUP5 DUP5 PUSH2 0x2957 JUMP JUMPDEST POP POP POP POP JUMP JUMPDEST PUSH1 0x60 PUSH2 0x1C88 DUP3 PUSH2 0x221A JUMP JUMPDEST PUSH2 0x1CBE JUMPI PUSH1 0x40 MLOAD PUSH32 0x8C379A000000000000000000000000000000000000000000000000000000000 DUP2 MSTORE PUSH1 0x4 ADD PUSH2 0x815 SWAP1 PUSH2 0x3D1B JUMP JUMPDEST PUSH1 0x0 DUP3 DUP2 MSTORE PUSH1 0x8 PUSH1 0x20 SWAP1 DUP2 MSTORE PUSH1 0x40 SWAP2 DUP3 SWAP1 KECCAK256 DUP1 SLOAD DUP4 MLOAD PUSH1 0x1F PUSH1 0x2 PUSH32 0xFFFFFFFFFFFFFFFFFFFFFFFFFFFFFFFFFFFFFFFFFFFFFFFFFFFFFFFFFFFFFFFF PUSH2 0x100 PUSH1 0x1 DUP7 AND ISZERO MUL ADD SWAP1 SWAP4 AND SWAP3 SWAP1 SWAP3 DIV SWAP2 DUP3 ADD DUP5 SWAP1 DIV DUP5 MUL DUP2 ADD DUP5 ADD SWAP1 SWAP5 MSTORE DUP1 DUP5 MSTORE PUSH1 0x60 SWAP4 SWAP3 DUP4 ADD DUP3 DUP3 DUP1 ISZERO PUSH2 0x1D71 JUMPI DUP1 PUSH1 0x1F LT PUSH2 0x1D46 JUMPI PUSH2 0x100 DUP1 DUP4 SLOAD DIV MUL DUP4 MSTORE SWAP2 PUSH1 0x20 ADD SWAP2 PUSH2 0x1D71 JUMP JUMPDEST DUP3 ADD SWAP2 SWAP1 PUSH1 0x0 MSTORE PUSH1 0x20 PUSH1 0x0 KECCAK256 SWAP1 JUMPDEST DUP2 SLOAD DUP2 MSTORE SWAP1 PUSH1 0x1 ADD SWAP1 PUSH1 0x20 ADD DUP1 DUP4 GT PUSH2 0x1D54 JUMPI DUP3 SWAP1 SUB PUSH1 0x1F AND DUP3 ADD SWAP2 JUMPDEST POP POP POP POP POP SWAP1 POP PUSH1 0x60 PUSH2 0x1D82 PUSH2 0x10A0 JUMP JUMPDEST SWAP1 POP DUP1 MLOAD PUSH1 0x0 EQ ISZERO PUSH2 0x1D96 JUMPI POP SWAP1 POP PUSH2 0x90F JUMP JUMPDEST DUP2 MLOAD ISZERO PUSH2 0x1DC8 JUMPI DUP1 DUP3 PUSH1 0x40 MLOAD PUSH1 0x20 ADD PUSH2 0x1DB0 SWAP3 SWAP2 SWAP1 PUSH2 0x34BB JUMP JUMPDEST PUSH1 0x40 MLOAD PUSH1 0x20 DUP2 DUP4 SUB SUB DUP2 MSTORE SWAP1 PUSH1 0x40 MSTORE SWAP3 POP POP POP PUSH2 0x90F JUMP JUMPDEST DUP1 PUSH2 0x1DD2 DUP6 PUSH2 0x29A4 JUMP JUMPDEST PUSH1 0x40 MLOAD PUSH1 0x20 ADD PUSH2 0x1DE3 SWAP3 SWAP2 SWAP1 PUSH2 0x34BB JUMP JUMPDEST PUSH1 0x40 MLOAD PUSH1 0x20 DUP2 DUP4 SUB SUB DUP2 MSTORE SWAP1 PUSH1 0x40 MSTORE SWAP3 POP POP POP SWAP2 SWAP1 POP JUMP JUMPDEST PUSH9 0x1B1AE4D6E2EF500000 DUP2 JUMP JUMPDEST PUSH1 0x0 PUSH2 0x1E13 DUP4 PUSH2 0x1078 JUMP JUMPDEST PUSH20 0xFFFFFFFFFFFFFFFFFFFFFFFFFFFFFFFFFFFFFFFF AND CALLER PUSH20 0xFFFFFFFFFFFFFFFFFFFFFFFFFFFFFFFFFFFFFFFF AND EQ PUSH2 0x1E77 JUMPI PUSH1 0x40 MLOAD PUSH32 0x8C379A000000000000000000000000000000000000000000000000000000000 DUP2 MSTORE PUSH1 0x4 ADD PUSH2 0x815 SWAP1 PUSH2 0x361E JUMP JUMPDEST PUSH1 0x0 DUP4 DUP2 MSTORE PUSH1 0xE PUSH1 0x20 MSTORE PUSH1 0x40 SWAP1 KECCAK256 PUSH1 0x2 PUSH1 0x3 DUP3 ADD SLOAD PUSH17 0x100000000000000000000000000000000 SWAP1 DIV PUSH1 0xFF AND PUSH1 0x4 DUP2 GT ISZERO PUSH2 0x1EAE JUMPI INVALID JUMPDEST LT ISZERO PUSH2 0x1EE6 JUMPI PUSH1 0x40 MLOAD PUSH32 0x8C379A000000000000000000000000000000000000000000000000000000000 DUP2 MSTORE PUSH1 0x4 ADD PUSH2 0x815 SWAP1 PUSH2 0x38ED JUMP JUMPDEST DUP3 ISZERO PUSH2 0x1F35 JUMPI PUSH1 0x3 DUP2 ADD DUP1 SLOAD PUSH32 0xFFFFFFFFFFFFFFFFFFFFFFFFFFFFFF00FFFFFFFFFFFFFFFFFFFFFFFFFFFFFFFF AND PUSH17 0x400000000000000000000000000000000 OR SWAP1 SSTORE PUSH1 0x2 DUP2 ADD DUP4 SWAP1 SSTORE PUSH2 0x1F99 JUMP JUMPDEST PUSH1 0x3 DUP2 ADD DUP1 SLOAD PUSH32 0xFFFFFFFFFFFFFFFFFFFFFFFFFFFFFF00FFFFFFFFFFFFFFFFFFFFFFFFFFFFFFFF AND PUSH17 0x300000000000000000000000000000000 OR SWAP1 SSTORE PUSH32 0xFFFFFFFFFFFFFFFFFFFFFFFFFFFFFFFFFFFFFFFFFFFFFFFFFFFFFFFFFFFFFFFF PUSH1 0x2 DUP3 ADD SSTORE JUMPDEST POP SWAP1 SWAP3 SWAP2 POP POP JUMP JUMPDEST PUSH20 0xFFFFFFFFFFFFFFFFFFFFFFFFFFFFFFFFFFFFFFFF SWAP2 DUP3 AND PUSH1 0x0 SWAP1 DUP2 MSTORE PUSH1 0x5 PUSH1 0x20 SWAP1 DUP2 MSTORE PUSH1 0x40 DUP1 DUP4 KECCAK256 SWAP4 SWAP1 SWAP5 AND DUP3 MSTORE SWAP2 SWAP1 SWAP2 MSTORE KECCAK256 SLOAD PUSH1 0xFF AND SWAP1 JUMP JUMPDEST PUSH2 0x1FE4 PUSH2 0x2227 JUMP JUMPDEST PUSH20 0xFFFFFFFFFFFFFFFFFFFFFFFFFFFFFFFFFFFFFFFF AND PUSH2 0x2002 PUSH2 0x12FC JUMP JUMPDEST PUSH20 0xFFFFFFFFFFFFFFFFFFFFFFFFFFFFFFFFFFFFFFFF AND EQ PUSH2 0x204F JUMPI PUSH1 0x40 MLOAD PUSH32 0x8C379A000000000000000000000000000000000000000000000000000000000 DUP2 MSTORE PUSH1 0x4 ADD PUSH2 0x815 SWAP1 PUSH2 0x3C89 JUMP JUMPDEST PUSH20 0xFFFFFFFFFFFFFFFFFFFFFFFFFFFFFFFFFFFFFFFF DUP2 AND PUSH2 0x209C JUMPI PUSH1 0x40 MLOAD PUSH32 0x8C379A000000000000000000000000000000000000000000000000000000000 DUP2 MSTORE PUSH1 0x4 ADD PUSH2 0x815 SWAP1 PUSH2 0x37EB JUMP JUMPDEST PUSH1 0xA SLOAD PUSH1 0x40 MLOAD PUSH20 0xFFFFFFFFFFFFFFFFFFFFFFFFFFFFFFFFFFFFFFFF DUP1 DUP5 AND SWAP3 AND SWAP1 PUSH32 0x8BE0079C531659141344CD1FD0A4F28419497F9722A3DAAFE3B4186F6B6457E0 SWAP1 PUSH1 0x0 SWAP1 LOG3 PUSH1 0xA DUP1 SLOAD PUSH32 0xFFFFFFFFFFFFFFFFFFFFFFFF0000000000000000000000000000000000000000 AND PUSH20 0xFFFFFFFFFFFFFFFFFFFFFFFFFFFFFFFFFFFFFFFF SWAP3 SWAP1 SWAP3 AND SWAP2 SWAP1 SWAP2 OR SWAP1 SSTORE JUMP JUMPDEST PUSH2 0x2132 PUSH2 0x2227 JUMP JUMPDEST PUSH20 0xFFFFFFFFFFFFFFFFFFFFFFFFFFFFFFFFFFFFFFFF AND PUSH2 0x2150 PUSH2 0x12FC JUMP JUMPDEST PUSH20 0xFFFFFFFFFFFFFFFFFFFFFFFFFFFFFFFFFFFFFFFF AND EQ PUSH2 0x219D JUMPI PUSH1 0x40 MLOAD PUSH32 0x8C379A000000000000000000000000000000000000000000000000000000000 DUP2 MSTORE PUSH1 0x4 ADD PUSH2 0x815 SWAP1 PUSH2 0x3C89 JUMP JUMPDEST DUP1 SELFBALANCE LT ISZERO PUSH2 0x21D7 JUMPI PUSH1 0x40 MLOAD PUSH32 0x8C379A000000000000000000000000000000000000000000000000000000000 DUP2 MSTORE PUSH1 0x4 ADD PUSH2 0x815 SWAP1 PUSH2 0x3E0C JUMP JUMPDEST PUSH2 0xFDC DUP3 DUP3 PUSH2 0x2473 JUMP JUMPDEST PUSH1 0x40 MLOAD DUP1 PUSH1 0x40 ADD PUSH1 0x40 MSTORE DUP1 PUSH1 0x4 DUP2 MSTORE PUSH1 0x20 ADD PUSH32 0x4645534E00000000000000000000000000000000000000000000000000000000 DUP2 MSTORE POP DUP2 JUMP JUMPDEST PUSH1 0x0 PUSH2 0x1012 PUSH1 0x2 DUP4 PUSH2 0x2AD1 JUMP JUMPDEST CALLER SWAP1 JUMP JUMPDEST PUSH1 0x0 DUP2 DUP2 MSTORE PUSH1 0x4 PUSH1 0x20 MSTORE PUSH1 0x40 SWAP1 KECCAK256 DUP1 SLOAD PUSH32 0xFFFFFFFFFFFFFFFFFFFFFFFF0000000000000000000000000000000000000000 AND PUSH20 0xFFFFFFFFFFFFFFFFFFFFFFFFFFFFFFFFFFFFFFFF DUP5 AND SWAP1 DUP2 OR SWAP1 SWAP2 SSTORE DUP2 SWAP1 PUSH2 0x2285 DUP3 PUSH2 0x1078 JUMP JUMPDEST PUSH20 0xFFFFFFFFFFFFFFFFFFFFFFFFFFFFFFFFFFFFFFFF AND PUSH32 0x8C5BE1E5EBEC7D5BD14F71427D1E84F3DD0314C0F7B2291E5B200AC8C7C3B925 PUSH1 0x40 MLOAD PUSH1 0x40 MLOAD DUP1 SWAP2 SUB SWAP1 LOG4 POP POP JUMP JUMPDEST PUSH1 0x0 PUSH2 0x1012 DUP3 PUSH2 0x2ADD JUMP JUMPDEST DUP3 PUSH20 0xFFFFFFFFFFFFFFFFFFFFFFFFFFFFFFFFFFFFFFFF AND PUSH2 0x22F6 DUP3 PUSH2 0x1078 JUMP JUMPDEST PUSH20 0xFFFFFFFFFFFFFFFFFFFFFFFFFFFFFFFFFFFFFFFF AND EQ PUSH2 0x2343 JUMPI PUSH1 0x40 MLOAD PUSH32 0x8C379A000000000000000000000000000000000000000000000000000000000 DUP2 MSTORE PUSH1 0x4 ADD PUSH2 0x815 SWAP1 PUSH2 0x3CBE JUMP JUMPDEST PUSH20 0xFFFFFFFFFFFFFFFFFFFFFFFFFFFFFFFFFFFFFFFF DUP3 AND PUSH2 0x2390 JUMPI PUSH1 0x40 MLOAD PUSH32 0x8C379A000000000000000000000000000000000000000000000000000000000 DUP2 MSTORE PUSH1 0x4 ADD PUSH2 0x815 SWAP1 PUSH2 0x3924 JUMP JUMPDEST PUSH2 0x239B DUP4 DUP4 DUP4 PUSH2 0xBA3 JUMP JUMPDEST PUSH2 0x23A6 PUSH1 0x0 DUP3 PUSH2 0x222B JUMP JUMPDEST PUSH20 0xFFFFFFFFFFFFFFFFFFFFFFFFFFFFFFFFFFFFFFFF DUP4 AND PUSH1 0x0 SWAP1 DUP2 MSTORE PUSH1 0x1 PUSH1 0x20 MSTORE PUSH1 0x40 SWAP1 KECCAK256 PUSH2 0x23D5 SWAP1 DUP3 PUSH2 0x2AE1 JUMP JUMPDEST POP PUSH20 0xFFFFFFFFFFFFFFFFFFFFFFFFFFFFFFFFFFFFFFFF DUP3 AND PUSH1 0x0 SWAP1 DUP2 MSTORE PUSH1 0x1 PUSH1 0x20 MSTORE PUSH1 0x40 SWAP1 KECCAK256 PUSH2 0x2405 SWAP1 DUP3 PUSH2 0x2AED JUMP JUMPDEST POP PUSH2 0x2412 PUSH1 0x2 DUP3 DUP5 PUSH2 0x2AF9 JUMP JUMPDEST POP DUP1 DUP3 PUSH20 0xFFFFFFFFFFFFFFFFFFFFFFFFFFFFFFFFFFFFFFFF AND DUP5 PUSH20 0xFFFFFFFFFFFFFFFFFFFFFFFFFFFFFFFFFFFFFFFF AND PUSH32 0xDDF252AD1BE2C89B69C2B068FC378DAA952BA7F163C4A11628F55A4DF523B3EF PUSH1 0x40 MLOAD PUSH1 0x40 MLOAD DUP1 SWAP2 SUB SWAP1 LOG4 POP POP POP JUMP JUMPDEST PUSH1 0x40 DUP1 MLOAD PUSH1 0x0 DUP1 DUP3 MSTORE PUSH1 0x20 DUP3 ADD SWAP1 SWAP3 MSTORE PUSH20 0xFFFFFFFFFFFFFFFFFFFFFFFFFFFFFFFFFFFFFFFF DUP5 AND SWAP1 DUP4 SWAP1 PUSH1 0x40 MLOAD PUSH2 0x24AA SWAP2 SWAP1 PUSH2 0x349F JUMP JUMPDEST PUSH1 0x0 PUSH1 0x40 MLOAD DUP1 DUP4 SUB DUP2 DUP6 DUP8 GAS CALL SWAP3 POP POP POP RETURNDATASIZE DUP1 PUSH1 0x0 DUP2 EQ PUSH2 0x24E7 JUMPI PUSH1 0x40 MLOAD SWAP2 POP PUSH1 0x1F NOT PUSH1 0x3F RETURNDATASIZE ADD AND DUP3 ADD PUSH1 0x40 MSTORE RETURNDATASIZE DUP3 MSTORE RETURNDATASIZE PUSH1 0x0 PUSH1 0x20 DUP5 ADD RETURNDATACOPY PUSH2 0x24EC JUMP JUMPDEST PUSH1 0x60 SWAP2 POP JUMPDEST POP POP SWAP1 POP DUP1 PUSH2 0xBA3 JUMPI PUSH1 0x40 MLOAD PUSH32 0x8C379A000000000000000000000000000000000000000000000000000000000 DUP2 MSTORE PUSH1 0x4 ADD PUSH2 0x815 SWAP1 PUSH2 0x3ED7 JUMP JUMPDEST PUSH1 0x0 PUSH2 0x2532 DUP3 PUSH2 0x221A JUMP JUMPDEST PUSH2 0x2568 JUMPI PUSH1 0x40 MLOAD PUSH32 0x8C379A000000000000000000000000000000000000000000000000000000000 DUP2 MSTORE PUSH1 0x4 ADD PUSH2 0x815 SWAP1 PUSH2 0x39B8 JUMP JUMPDEST PUSH1 0x0 PUSH2 0x2573 DUP4 PUSH2 0x1078 JUMP JUMPDEST SWAP1 POP DUP1 PUSH20 0xFFFFFFFFFFFFFFFFFFFFFFFFFFFFFFFFFFFFFFFF AND DUP5 PUSH20 0xFFFFFFFFFFFFFFFFFFFFFFFFFFFFFFFFFFFFFFFF AND EQ DUP1 PUSH2 0x25E2 JUMPI POP DUP4 PUSH20 0xFFFFFFFFFFFFFFFFFFFFFFFFFFFFFFFFFFFFFFFF AND PUSH2 0x25CA DUP5 PUSH2 0xA3E JUMP JUMPDEST PUSH20 0xFFFFFFFFFFFFFFFFFFFFFFFFFFFFFFFFFFFFFFFF AND EQ JUMPDEST DUP1 PUSH2 0x25F2 JUMPI POP PUSH2 0x25F2 DUP2 DUP6 PUSH2 0x1FA1 JUMP JUMPDEST SWAP5 SWAP4 POP POP POP POP JUMP JUMPDEST PUSH1 0x0 DUP3 PUSH2 0x2609 JUMPI POP PUSH1 0x0 PUSH2 0x1012 JUMP JUMPDEST DUP3 DUP3 MUL DUP3 DUP5 DUP3 DUP2 PUSH2 0x2616 JUMPI INVALID JUMPDEST DIV EQ PUSH2 0x100F JUMPI PUSH1 0x40 MLOAD PUSH32 0x8C379A000000000000000000000000000000000000000000000000000000000 DUP2 MSTORE PUSH1 0x4 ADD PUSH2 0x815 SWAP1 PUSH2 0x3BCF JUMP JUMPDEST PUSH1 0x0 PUSH1 0x60 DUP5 PUSH20 0xFFFFFFFFFFFFFFFFFFFFFFFFFFFFFFFFFFFFFFFF AND PUSH4 0xA9059CBB DUP6 DUP6 PUSH1 0x40 MLOAD PUSH1 0x24 ADD PUSH2 0x2681 SWAP3 SWAP2 SWAP1 PUSH2 0x35DA JUMP JUMPDEST PUSH1 0x40 MLOAD PUSH1 0x20 DUP2 DUP4 SUB SUB DUP2 MSTORE SWAP1 PUSH1 0x40 MSTORE SWAP1 PUSH1 0xE0 SHL PUSH1 0x20 DUP3 ADD DUP1 MLOAD PUSH28 0xFFFFFFFFFFFFFFFFFFFFFFFFFFFFFFFFFFFFFFFFFFFFFFFFFFFFFFFF DUP4 DUP2 DUP4 AND OR DUP4 MSTORE POP POP POP POP PUSH1 0x40 MLOAD PUSH2 0x26CF SWAP2 SWAP1 PUSH2 0x349F JUMP JUMPDEST PUSH1 0x0 PUSH1 0x40 MLOAD DUP1 DUP4 SUB DUP2 PUSH1 0x0 DUP7 GAS CALL SWAP2 POP POP RETURNDATASIZE DUP1 PUSH1 0x0 DUP2 EQ PUSH2 0x270C JUMPI PUSH1 0x40 MLOAD SWAP2 POP PUSH1 0x1F NOT PUSH1 0x3F RETURNDATASIZE ADD AND DUP3 ADD PUSH1 0x40 MSTORE RETURNDATASIZE DUP3 MSTORE RETURNDATASIZE PUSH1 0x0 PUSH1 0x20 DUP5 ADD RETURNDATACOPY PUSH2 0x2711 JUMP JUMPDEST PUSH1 0x60 SWAP2 POP JUMPDEST POP SWAP2 POP SWAP2 POP DUP2 DUP1 ISZERO PUSH2 0x273B JUMPI POP DUP1 MLOAD ISZERO DUP1 PUSH2 0x273B JUMPI POP DUP1 DUP1 PUSH1 0x20 ADD SWAP1 MLOAD DUP2 ADD SWAP1 PUSH2 0x273B SWAP2 SWAP1 PUSH2 0x334E JUMP JUMPDEST PUSH2 0x2771 JUMPI PUSH1 0x40 MLOAD PUSH32 0x8C379A000000000000000000000000000000000000000000000000000000000 DUP2 MSTORE PUSH1 0x4 ADD PUSH2 0x815 SWAP1 PUSH2 0x36B2 JUMP JUMPDEST POP POP POP POP POP JUMP JUMPDEST PUSH1 0x0 PUSH2 0x100F DUP4 DUP4 PUSH2 0x2B1C JUMP JUMPDEST PUSH1 0x0 DUP1 DUP1 DUP1 PUSH2 0x2793 DUP7 DUP7 PUSH2 0x2B7B JUMP JUMPDEST SWAP1 SWAP8 SWAP1 SWAP7 POP SWAP5 POP POP POP POP POP JUMP JUMPDEST PUSH1 0x0 PUSH2 0x25F2 DUP5 DUP5 DUP5 PUSH2 0x2BF1 JUMP JUMPDEST PUSH1 0x0 DUP1 DUP3 GT PUSH2 0x27E8 JUMPI PUSH1 0x40 MLOAD PUSH32 0x8C379A000000000000000000000000000000000000000000000000000000000 DUP2 MSTORE PUSH1 0x4 ADD PUSH2 0x815 SWAP1 PUSH2 0x3A15 JUMP JUMPDEST DUP2 DUP4 DUP2 PUSH2 0x27F1 JUMPI INVALID JUMPDEST DIV SWAP4 SWAP3 POP POP POP JUMP JUMPDEST PUSH1 0x0 DUP3 DUP3 ADD DUP4 DUP2 LT ISZERO PUSH2 0x100F JUMPI PUSH1 0x40 MLOAD PUSH32 0x8C379A000000000000000000000000000000000000000000000000000000000 DUP2 MSTORE PUSH1 0x4 ADD PUSH2 0x815 SWAP1 PUSH2 0x38B6 JUMP JUMPDEST PUSH20 0xFFFFFFFFFFFFFFFFFFFFFFFFFFFFFFFFFFFFFFFF DUP3 AND PUSH2 0x2885 JUMPI PUSH1 0x40 MLOAD PUSH32 0x8C379A000000000000000000000000000000000000000000000000000000000 DUP2 MSTORE PUSH1 0x4 ADD PUSH2 0x815 SWAP1 PUSH2 0x3B63 JUMP JUMPDEST PUSH2 0x288E DUP2 PUSH2 0x221A JUMP JUMPDEST ISZERO PUSH2 0x28C5 JUMPI PUSH1 0x40 MLOAD PUSH32 0x8C379A000000000000000000000000000000000000000000000000000000000 DUP2 MSTORE PUSH1 0x4 ADD PUSH2 0x815 SWAP1 PUSH2 0x3848 JUMP JUMPDEST PUSH2 0x28D1 PUSH1 0x0 DUP4 DUP4 PUSH2 0xBA3 JUMP JUMPDEST PUSH20 0xFFFFFFFFFFFFFFFFFFFFFFFFFFFFFFFFFFFFFFFF DUP3 AND PUSH1 0x0 SWAP1 DUP2 MSTORE PUSH1 0x1 PUSH1 0x20 MSTORE PUSH1 0x40 SWAP1 KECCAK256 PUSH2 0x2900 SWAP1 DUP3 PUSH2 0x2AED JUMP JUMPDEST POP PUSH2 0x290D PUSH1 0x2 DUP3 DUP5 PUSH2 0x2AF9 JUMP JUMPDEST POP PUSH1 0x40 MLOAD DUP2 SWAP1 PUSH20 0xFFFFFFFFFFFFFFFFFFFFFFFFFFFFFFFFFFFFFFFF DUP5 AND SWAP1 PUSH1 0x0 SWAP1 PUSH32 0xDDF252AD1BE2C89B69C2B068FC378DAA952BA7F163C4A11628F55A4DF523B3EF SWAP1 DUP3 SWAP1 LOG4 POP POP JUMP JUMPDEST PUSH2 0x2962 DUP5 DUP5 DUP5 PUSH2 0x22D6 JUMP JUMPDEST PUSH2 0x296E DUP5 DUP5 DUP5 DUP5 PUSH2 0x2C6A JUMP JUMPDEST PUSH2 0x1C77 JUMPI PUSH1 0x40 MLOAD PUSH32 0x8C379A000000000000000000000000000000000000000000000000000000000 DUP2 MSTORE PUSH1 0x4 ADD PUSH2 0x815 SWAP1 PUSH2 0x3757 JUMP JUMPDEST PUSH1 0x60 DUP2 PUSH2 0x29E5 JUMPI POP PUSH1 0x40 DUP1 MLOAD DUP1 DUP3 ADD SWAP1 SWAP2 MSTORE PUSH1 0x1 DUP2 MSTORE PUSH32 0x3000000000000000000000000000000000000000000000000000000000000000 PUSH1 0x20 DUP3 ADD MSTORE PUSH2 0x90F JUMP JUMPDEST DUP2 PUSH1 0x0 JUMPDEST DUP2 ISZERO PUSH2 0x29FD JUMPI PUSH1 0x1 ADD PUSH1 0xA DUP3 DIV SWAP2 POP PUSH2 0x29E9 JUMP JUMPDEST PUSH1 0x60 DUP2 PUSH8 0xFFFFFFFFFFFFFFFF DUP2 GT DUP1 ISZERO PUSH2 0x2A16 JUMPI PUSH1 0x0 DUP1 REVERT JUMPDEST POP PUSH1 0x40 MLOAD SWAP1 DUP1 DUP3 MSTORE DUP1 PUSH1 0x1F ADD PUSH1 0x1F NOT AND PUSH1 0x20 ADD DUP3 ADD PUSH1 0x40 MSTORE DUP1 ISZERO PUSH2 0x2A41 JUMPI PUSH1 0x20 DUP3 ADD DUP2 DUP1 CALLDATASIZE DUP4 CALLDATACOPY ADD SWAP1 POP JUMPDEST POP DUP6 SWAP4 POP SWAP1 POP PUSH32 0xFFFFFFFFFFFFFFFFFFFFFFFFFFFFFFFFFFFFFFFFFFFFFFFFFFFFFFFFFFFFFFFF DUP3 ADD JUMPDEST DUP4 ISZERO PUSH2 0x2AC8 JUMPI PUSH1 0xA DUP5 MOD PUSH1 0x30 ADD PUSH1 0xF8 SHL DUP3 DUP3 DUP1 PUSH1 0x1 SWAP1 SUB SWAP4 POP DUP2 MLOAD DUP2 LT PUSH2 0x2A8E JUMPI INVALID JUMPDEST PUSH1 0x20 ADD ADD SWAP1 PUSH31 0xFFFFFFFFFFFFFFFFFFFFFFFFFFFFFFFFFFFFFFFFFFFFFFFFFFFFFFFFFFFFFF NOT AND SWAP1 DUP2 PUSH1 0x0 BYTE SWAP1 MSTORE8 POP PUSH1 0xA DUP5 DIV SWAP4 POP PUSH2 0x2A6B JUMP JUMPDEST POP SWAP5 SWAP4 POP POP POP POP JUMP JUMPDEST PUSH1 0x0 PUSH2 0x100F DUP4 DUP4 PUSH2 0x2DD7 JUMP JUMPDEST SLOAD SWAP1 JUMP JUMPDEST PUSH1 0x0 PUSH2 0x100F DUP4 DUP4 PUSH2 0x2DEF JUMP JUMPDEST PUSH1 0x0 PUSH2 0x100F DUP4 DUP4 PUSH2 0x2ED3 JUMP JUMPDEST PUSH1 0x0 PUSH2 0x25F2 DUP5 DUP5 PUSH20 0xFFFFFFFFFFFFFFFFFFFFFFFFFFFFFFFFFFFFFFFF DUP6 AND PUSH2 0x2F1D JUMP JUMPDEST DUP2 SLOAD PUSH1 0x0 SWAP1 DUP3 LT PUSH2 0x2B59 JUMPI PUSH1 0x40 MLOAD PUSH32 0x8C379A000000000000000000000000000000000000000000000000000000000 DUP2 MSTORE PUSH1 0x4 ADD PUSH2 0x815 SWAP1 PUSH2 0x3655 JUMP JUMPDEST DUP3 PUSH1 0x0 ADD DUP3 DUP2 SLOAD DUP2 LT PUSH2 0x2B68 JUMPI INVALID JUMPDEST SWAP1 PUSH1 0x0 MSTORE PUSH1 0x20 PUSH1 0x0 KECCAK256 ADD SLOAD SWAP1 POP SWAP3 SWAP2 POP POP JUMP JUMPDEST DUP2 SLOAD PUSH1 0x0 SWAP1 DUP2 SWAP1 DUP4 LT PUSH2 0x2BBA JUMPI PUSH1 0x40 MLOAD PUSH32 0x8C379A000000000000000000000000000000000000000000000000000000000 DUP2 MSTORE PUSH1 0x4 ADD PUSH2 0x815 SWAP1 PUSH2 0x3B06 JUMP JUMPDEST PUSH1 0x0 DUP5 PUSH1 0x0 ADD DUP5 DUP2 SLOAD DUP2 LT PUSH2 0x2BCB JUMPI INVALID JUMPDEST SWAP1 PUSH1 0x0 MSTORE PUSH1 0x20 PUSH1 0x0 KECCAK256 SWAP1 PUSH1 0x2 MUL ADD SWAP1 POP DUP1 PUSH1 0x0 ADD SLOAD DUP2 PUSH1 0x1 ADD SLOAD SWAP3 POP SWAP3 POP POP SWAP3 POP SWAP3 SWAP1 POP JUMP JUMPDEST PUSH1 0x0 DUP3 DUP2 MSTORE PUSH1 0x1 DUP5 ADD PUSH1 0x20 MSTORE PUSH1 0x40 DUP2 KECCAK256 SLOAD DUP3 DUP2 PUSH2 0x2C3B JUMPI PUSH1 0x40 MLOAD PUSH32 0x8C379A000000000000000000000000000000000000000000000000000000000 DUP2 MSTORE PUSH1 0x4 ADD PUSH2 0x815 SWAP2 SWAP1 PUSH2 0x360B JUMP JUMPDEST POP DUP5 PUSH1 0x0 ADD PUSH1 0x1 DUP3 SUB DUP2 SLOAD DUP2 LT PUSH2 0x2C4E JUMPI INVALID JUMPDEST SWAP1 PUSH1 0x0 MSTORE PUSH1 0x20 PUSH1 0x0 KECCAK256 SWAP1 PUSH1 0x2 MUL ADD PUSH1 0x1 ADD SLOAD SWAP2 POP POP SWAP4 SWAP3 POP POP POP JUMP JUMPDEST PUSH1 0x0 PUSH2 0x2C8B DUP5 PUSH20 0xFFFFFFFFFFFFFFFFFFFFFFFFFFFFFFFFFFFFFFFF AND PUSH2 0x2FB4 JUMP JUMPDEST PUSH2 0x2C97 JUMPI POP PUSH1 0x1 PUSH2 0x25F2 JUMP JUMPDEST PUSH1 0x60 PUSH2 0x2D6F PUSH32 0x150B7A0200000000000000000000000000000000000000000000000000000000 PUSH2 0x2CC5 PUSH2 0x2227 JUMP JUMPDEST DUP9 DUP8 DUP8 PUSH1 0x40 MLOAD PUSH1 0x24 ADD PUSH2 0x2CDB SWAP5 SWAP4 SWAP3 SWAP2 SWAP1 PUSH2 0x350B JUMP JUMPDEST PUSH1 0x40 MLOAD PUSH1 0x20 DUP2 DUP4 SUB SUB DUP2 MSTORE SWAP1 PUSH1 0x40 MSTORE SWAP1 PUSH28 0xFFFFFFFFFFFFFFFFFFFFFFFFFFFFFFFFFFFFFFFFFFFFFFFFFFFFFFFF NOT AND PUSH1 0x20 DUP3 ADD DUP1 MLOAD PUSH28 0xFFFFFFFFFFFFFFFFFFFFFFFFFFFFFFFFFFFFFFFFFFFFFFFFFFFFFFFF DUP4 DUP2 DUP4 AND OR DUP4 MSTORE POP POP POP POP PUSH1 0x40 MLOAD DUP1 PUSH1 0x60 ADD PUSH1 0x40 MSTORE DUP1 PUSH1 0x32 DUP2 MSTORE PUSH1 0x20 ADD PUSH2 0x40BA PUSH1 0x32 SWAP2 CODECOPY PUSH20 0xFFFFFFFFFFFFFFFFFFFFFFFFFFFFFFFFFFFFFFFF DUP9 AND SWAP2 SWAP1 PUSH2 0x2FBA JUMP JUMPDEST SWAP1 POP PUSH1 0x0 DUP2 DUP1 PUSH1 0x20 ADD SWAP1 MLOAD DUP2 ADD SWAP1 PUSH2 0x2D87 SWAP2 SWAP1 PUSH2 0x3386 JUMP JUMPDEST PUSH32 0xFFFFFFFF00000000000000000000000000000000000000000000000000000000 AND PUSH32 0x150B7A0200000000000000000000000000000000000000000000000000000000 EQ SWAP3 POP POP POP SWAP5 SWAP4 POP POP POP POP JUMP JUMPDEST PUSH1 0x0 SWAP1 DUP2 MSTORE PUSH1 0x1 SWAP2 SWAP1 SWAP2 ADD PUSH1 0x20 MSTORE PUSH1 0x40 SWAP1 KECCAK256 SLOAD ISZERO ISZERO SWAP1 JUMP JUMPDEST PUSH1 0x0 DUP2 DUP2 MSTORE PUSH1 0x1 DUP4 ADD PUSH1 0x20 MSTORE PUSH1 0x40 DUP2 KECCAK256 SLOAD DUP1 ISZERO PUSH2 0x2EC9 JUMPI DUP4 SLOAD PUSH32 0xFFFFFFFFFFFFFFFFFFFFFFFFFFFFFFFFFFFFFFFFFFFFFFFFFFFFFFFFFFFFFFFF DUP1 DUP4 ADD SWAP2 SWAP1 DUP2 ADD SWAP1 PUSH1 0x0 SWAP1 DUP8 SWAP1 DUP4 SWAP1 DUP2 LT PUSH2 0x2E40 JUMPI INVALID JUMPDEST SWAP1 PUSH1 0x0 MSTORE PUSH1 0x20 PUSH1 0x0 KECCAK256 ADD SLOAD SWAP1 POP DUP1 DUP8 PUSH1 0x0 ADD DUP5 DUP2 SLOAD DUP2 LT PUSH2 0x2E5D JUMPI INVALID JUMPDEST PUSH1 0x0 SWAP2 DUP3 MSTORE PUSH1 0x20 DUP1 DUP4 KECCAK256 SWAP1 SWAP2 ADD SWAP3 SWAP1 SWAP3 SSTORE DUP3 DUP2 MSTORE PUSH1 0x1 DUP10 DUP2 ADD SWAP1 SWAP3 MSTORE PUSH1 0x40 SWAP1 KECCAK256 SWAP1 DUP5 ADD SWAP1 SSTORE DUP7 SLOAD DUP8 SWAP1 DUP1 PUSH2 0x2E8D JUMPI INVALID JUMPDEST PUSH1 0x1 SWAP1 SUB DUP2 DUP2 SWAP1 PUSH1 0x0 MSTORE PUSH1 0x20 PUSH1 0x0 KECCAK256 ADD PUSH1 0x0 SWAP1 SSTORE SWAP1 SSTORE DUP7 PUSH1 0x1 ADD PUSH1 0x0 DUP8 DUP2 MSTORE PUSH1 0x20 ADD SWAP1 DUP2 MSTORE PUSH1 0x20 ADD PUSH1 0x0 KECCAK256 PUSH1 0x0 SWAP1 SSTORE PUSH1 0x1 SWAP5 POP POP POP POP POP PUSH2 0x1012 JUMP JUMPDEST PUSH1 0x0 SWAP2 POP POP PUSH2 0x1012 JUMP JUMPDEST PUSH1 0x0 PUSH2 0x2EDF DUP4 DUP4 PUSH2 0x2DD7 JUMP JUMPDEST PUSH2 0x2F15 JUMPI POP DUP2 SLOAD PUSH1 0x1 DUP2 DUP2 ADD DUP5 SSTORE PUSH1 0x0 DUP5 DUP2 MSTORE PUSH1 0x20 DUP1 DUP3 KECCAK256 SWAP1 SWAP4 ADD DUP5 SWAP1 SSTORE DUP5 SLOAD DUP5 DUP3 MSTORE DUP3 DUP7 ADD SWAP1 SWAP4 MSTORE PUSH1 0x40 SWAP1 KECCAK256 SWAP2 SWAP1 SWAP2 SSTORE PUSH2 0x1012 JUMP JUMPDEST POP PUSH1 0x0 PUSH2 0x1012 JUMP JUMPDEST PUSH1 0x0 DUP3 DUP2 MSTORE PUSH1 0x1 DUP5 ADD PUSH1 0x20 MSTORE PUSH1 0x40 DUP2 KECCAK256 SLOAD DUP1 PUSH2 0x2F82 JUMPI POP POP PUSH1 0x40 DUP1 MLOAD DUP1 DUP3 ADD DUP3 MSTORE DUP4 DUP2 MSTORE PUSH1 0x20 DUP1 DUP3 ADD DUP5 DUP2 MSTORE DUP7 SLOAD PUSH1 0x1 DUP2 DUP2 ADD DUP10 SSTORE PUSH1 0x0 DUP10 DUP2 MSTORE DUP5 DUP2 KECCAK256 SWAP6 MLOAD PUSH1 0x2 SWAP1 SWAP4 MUL SWAP1 SWAP6 ADD SWAP2 DUP3 SSTORE SWAP2 MLOAD SWAP1 DUP3 ADD SSTORE DUP7 SLOAD DUP7 DUP5 MSTORE DUP2 DUP9 ADD SWAP1 SWAP3 MSTORE SWAP3 SWAP1 SWAP2 KECCAK256 SSTORE PUSH2 0xD5E JUMP JUMPDEST DUP3 DUP6 PUSH1 0x0 ADD PUSH1 0x1 DUP4 SUB DUP2 SLOAD DUP2 LT PUSH2 0x2F95 JUMPI INVALID JUMPDEST SWAP1 PUSH1 0x0 MSTORE PUSH1 0x20 PUSH1 0x0 KECCAK256 SWAP1 PUSH1 0x2 MUL ADD PUSH1 0x1 ADD DUP2 SWAP1 SSTORE POP PUSH1 0x0 SWAP2 POP POP PUSH2 0xD5E JUMP JUMPDEST EXTCODESIZE ISZERO ISZERO SWAP1 JUMP JUMPDEST PUSH1 0x60 PUSH2 0x25F2 DUP5 DUP5 PUSH1 0x0 DUP6 DUP6 PUSH2 0x2FCE DUP6 PUSH2 0x2FB4 JUMP JUMPDEST PUSH2 0x3004 JUMPI PUSH1 0x40 MLOAD PUSH32 0x8C379A000000000000000000000000000000000000000000000000000000000 DUP2 MSTORE PUSH1 0x4 ADD PUSH2 0x815 SWAP1 PUSH2 0x3EA0 JUMP JUMPDEST PUSH1 0x0 PUSH1 0x60 DUP7 PUSH20 0xFFFFFFFFFFFFFFFFFFFFFFFFFFFFFFFFFFFFFFFF AND DUP6 DUP8 PUSH1 0x40 MLOAD PUSH2 0x302E SWAP2 SWAP1 PUSH2 0x349F JUMP JUMPDEST PUSH1 0x0 PUSH1 0x40 MLOAD DUP1 DUP4 SUB DUP2 DUP6 DUP8 GAS CALL SWAP3 POP POP POP RETURNDATASIZE DUP1 PUSH1 0x0 DUP2 EQ PUSH2 0x306B JUMPI PUSH1 0x40 MLOAD SWAP2 POP PUSH1 0x1F NOT PUSH1 0x3F RETURNDATASIZE ADD AND DUP3 ADD PUSH1 0x40 MSTORE RETURNDATASIZE DUP3 MSTORE RETURNDATASIZE PUSH1 0x0 PUSH1 0x20 DUP5 ADD RETURNDATACOPY PUSH2 0x3070 JUMP JUMPDEST PUSH1 0x60 SWAP2 POP JUMPDEST POP SWAP2 POP SWAP2 POP PUSH2 0x3080 DUP3 DUP3 DUP7 PUSH2 0x308B JUMP JUMPDEST SWAP8 SWAP7 POP POP POP POP POP POP POP JUMP JUMPDEST PUSH1 0x60 DUP4 ISZERO PUSH2 0x309A JUMPI POP DUP2 PUSH2 0xD5E JUMP JUMPDEST DUP3 MLOAD ISZERO PUSH2 0x30AA JUMPI DUP3 MLOAD DUP1 DUP5 PUSH1 0x20 ADD REVERT JUMPDEST DUP2 PUSH1 0x40 MLOAD PUSH32 0x8C379A000000000000000000000000000000000000000000000000000000000 DUP2 MSTORE PUSH1 0x4 ADD PUSH2 0x815 SWAP2 SWAP1 PUSH2 0x360B JUMP JUMPDEST PUSH1 0x40 DUP1 MLOAD PUSH1 0xC0 DUP2 ADD DUP3 MSTORE PUSH1 0x0 DUP1 DUP3 MSTORE PUSH1 0x20 DUP3 ADD DUP2 SWAP1 MSTORE SWAP2 DUP2 ADD DUP3 SWAP1 MSTORE PUSH1 0x60 DUP2 ADD DUP3 SWAP1 MSTORE PUSH1 0x80 DUP2 ADD DUP3 SWAP1 MSTORE SWAP1 PUSH1 0xA0 DUP3 ADD MSTORE SWAP1 JUMP JUMPDEST DUP1 CALLDATALOAD PUSH20 0xFFFFFFFFFFFFFFFFFFFFFFFFFFFFFFFFFFFFFFFF DUP2 AND DUP2 EQ PUSH2 0x1012 JUMPI PUSH1 0x0 DUP1 REVERT JUMPDEST PUSH1 0x0 PUSH1 0x20 DUP3 DUP5 SUB SLT ISZERO PUSH2 0x3146 JUMPI DUP1 DUP2 REVERT JUMPDEST PUSH2 0x100F DUP4 DUP4 PUSH2 0x3111 JUMP JUMPDEST PUSH1 0x0 DUP1 PUSH1 0x40 DUP4 DUP6 SUB SLT ISZERO PUSH2 0x3162 JUMPI DUP1 DUP2 REVERT JUMPDEST PUSH2 0x316C DUP5 DUP5 PUSH2 0x3111 JUMP JUMPDEST SWAP2 POP PUSH2 0x317B DUP5 PUSH1 0x20 DUP6 ADD PUSH2 0x3111 JUMP JUMPDEST SWAP1 POP SWAP3 POP SWAP3 SWAP1 POP JUMP JUMPDEST PUSH1 0x0 DUP1 PUSH1 0x0 PUSH1 0x60 DUP5 DUP7 SUB SLT ISZERO PUSH2 0x3198 JUMPI DUP1 DUP2 REVERT JUMPDEST PUSH2 0x31A2 DUP6 DUP6 PUSH2 0x3111 JUMP JUMPDEST SWAP3 POP PUSH2 0x31B1 DUP6 PUSH1 0x20 DUP7 ADD PUSH2 0x3111 JUMP JUMPDEST SWAP2 POP PUSH2 0x31C0 DUP6 PUSH1 0x40 DUP7 ADD PUSH2 0x3111 JUMP JUMPDEST SWAP1 POP SWAP3 POP SWAP3 POP SWAP3 JUMP JUMPDEST PUSH1 0x0 DUP1 PUSH1 0x0 PUSH1 0x60 DUP5 DUP7 SUB SLT ISZERO PUSH2 0x31DD JUMPI DUP3 DUP4 REVERT JUMPDEST DUP4 CALLDATALOAD PUSH2 0x31E8 DUP2 PUSH2 0x4058 JUMP JUMPDEST SWAP3 POP PUSH1 0x20 DUP5 ADD CALLDATALOAD PUSH2 0x31F8 DUP2 PUSH2 0x4058 JUMP JUMPDEST SWAP3 SWAP6 SWAP3 SWAP5 POP POP POP PUSH1 0x40 SWAP2 SWAP1 SWAP2 ADD CALLDATALOAD SWAP1 JUMP JUMPDEST PUSH1 0x0 DUP1 PUSH1 0x0 DUP1 PUSH1 0x80 DUP6 DUP8 SUB SLT ISZERO PUSH2 0x321E JUMPI DUP1 DUP2 REVERT JUMPDEST PUSH2 0x3228 DUP7 DUP7 PUSH2 0x3111 JUMP JUMPDEST SWAP4 POP PUSH1 0x20 PUSH2 0x3238 DUP8 DUP3 DUP9 ADD PUSH2 0x3111 JUMP JUMPDEST SWAP4 POP PUSH1 0x40 DUP7 ADD CALLDATALOAD SWAP3 POP PUSH1 0x60 DUP7 ADD CALLDATALOAD PUSH8 0xFFFFFFFFFFFFFFFF DUP1 DUP3 GT ISZERO PUSH2 0x325B JUMPI DUP4 DUP5 REVERT JUMPDEST DUP2 DUP9 ADD SWAP2 POP DUP9 PUSH1 0x1F DUP4 ADD SLT PUSH2 0x326E JUMPI DUP4 DUP5 REVERT JUMPDEST DUP2 CALLDATALOAD DUP2 DUP2 GT ISZERO PUSH2 0x327C JUMPI DUP5 DUP6 REVERT JUMPDEST PUSH1 0x40 MLOAD DUP5 PUSH32 0xFFFFFFFFFFFFFFFFFFFFFFFFFFFFFFFFFFFFFFFFFFFFFFFFFFFFFFFFFFFFFFE0 PUSH1 0x1F DUP5 ADD AND DUP3 ADD ADD DUP2 DUP2 LT DUP5 DUP3 GT OR ISZERO PUSH2 0x32B9 JUMPI DUP7 DUP8 REVERT JUMPDEST PUSH1 0x40 MSTORE DUP2 DUP2 MSTORE DUP4 DUP3 ADD DUP6 ADD DUP12 LT ISZERO PUSH2 0x32CF JUMPI DUP6 DUP7 REVERT JUMPDEST DUP2 DUP6 DUP6 ADD DUP7 DUP4 ADD CALLDATACOPY SWAP1 DUP2 ADD SWAP1 SWAP4 ADD SWAP4 SWAP1 SWAP4 MSTORE POP SWAP4 SWAP7 SWAP3 SWAP6 POP SWAP1 SWAP4 POP POP JUMP JUMPDEST PUSH1 0x0 DUP1 PUSH1 0x40 DUP4 DUP6 SUB SLT ISZERO PUSH2 0x32FF JUMPI DUP2 DUP3 REVERT JUMPDEST PUSH2 0x3309 DUP5 DUP5 PUSH2 0x3111 JUMP JUMPDEST SWAP2 POP PUSH1 0x20 DUP4 ADD CALLDATALOAD PUSH2 0x3319 DUP2 PUSH2 0x407D JUMP JUMPDEST DUP1 SWAP2 POP POP SWAP3 POP SWAP3 SWAP1 POP JUMP JUMPDEST PUSH1 0x0 DUP1 PUSH1 0x40 DUP4 DUP6 SUB SLT ISZERO PUSH2 0x3336 JUMPI DUP2 DUP3 REVERT JUMPDEST PUSH2 0x3340 DUP5 DUP5 PUSH2 0x3111 JUMP JUMPDEST SWAP5 PUSH1 0x20 SWAP4 SWAP1 SWAP4 ADD CALLDATALOAD SWAP4 POP POP POP JUMP JUMPDEST PUSH1 0x0 PUSH1 0x20 DUP3 DUP5 SUB SLT ISZERO PUSH2 0x335F JUMPI DUP1 DUP2 REVERT JUMPDEST DUP2 MLOAD PUSH2 0x100F DUP2 PUSH2 0x407D JUMP JUMPDEST PUSH1 0x0 PUSH1 0x20 DUP3 DUP5 SUB SLT ISZERO PUSH2 0x337B JUMPI DUP1 DUP2 REVERT JUMPDEST DUP2 CALLDATALOAD PUSH2 0x100F DUP2 PUSH2 0x408B JUMP JUMPDEST PUSH1 0x0 PUSH1 0x20 DUP3 DUP5 SUB SLT ISZERO PUSH2 0x3397 JUMPI DUP1 DUP2 REVERT JUMPDEST DUP2 MLOAD PUSH2 0x100F DUP2 PUSH2 0x408B JUMP JUMPDEST PUSH1 0x0 PUSH1 0x20 DUP3 DUP5 SUB SLT ISZERO PUSH2 0x33B3 JUMPI DUP1 DUP2 REVERT JUMPDEST POP CALLDATALOAD SWAP2 SWAP1 POP JUMP JUMPDEST PUSH1 0x0 DUP1 PUSH1 0x40 DUP4 DUP6 SUB SLT ISZERO PUSH2 0x33CC JUMPI DUP2 DUP3 REVERT JUMPDEST POP POP DUP1 CALLDATALOAD SWAP3 PUSH1 0x20 SWAP1 SWAP2 ADD CALLDATALOAD SWAP2 POP JUMP JUMPDEST PUSH1 0x0 DUP1 PUSH1 0x0 PUSH1 0x60 DUP5 DUP7 SUB SLT ISZERO PUSH2 0x33EF JUMPI DUP3 DUP4 REVERT JUMPDEST DUP4 CALLDATALOAD SWAP3 POP PUSH1 0x20 DUP5 ADD CALLDATALOAD SWAP2 POP PUSH1 0x40 DUP5 ADD CALLDATALOAD PUSH2 0x3408 DUP2 PUSH2 0x4058 JUMP JUMPDEST DUP1 SWAP2 POP POP SWAP3 POP SWAP3 POP SWAP3 JUMP JUMPDEST PUSH1 0x0 DUP2 MLOAD DUP1 DUP5 MSTORE PUSH2 0x342B DUP2 PUSH1 0x20 DUP7 ADD PUSH1 0x20 DUP7 ADD PUSH2 0x402C JUMP JUMPDEST PUSH1 0x1F ADD PUSH32 0xFFFFFFFFFFFFFFFFFFFFFFFFFFFFFFFFFFFFFFFFFFFFFFFFFFFFFFFFFFFFFFE0 AND SWAP3 SWAP1 SWAP3 ADD PUSH1 0x20 ADD SWAP3 SWAP2 POP POP JUMP JUMPDEST PUSH32 0xFFFFFFFFFFFFFFFFFFFFFFFFFFFFFFFFFFFFFFFF000000000000000000000000 PUSH1 0x60 SWAP5 DUP6 SHL DUP2 AND DUP3 MSTORE SWAP3 DUP5 SHL DUP4 AND PUSH1 0x14 DUP3 ADD MSTORE SWAP3 SHL AND PUSH1 0x28 DUP3 ADD MSTORE PUSH1 0x3C ADD SWAP1 JUMP JUMPDEST PUSH1 0x0 DUP3 MLOAD PUSH2 0x34B1 DUP2 DUP5 PUSH1 0x20 DUP8 ADD PUSH2 0x402C JUMP JUMPDEST SWAP2 SWAP1 SWAP2 ADD SWAP3 SWAP2 POP POP JUMP JUMPDEST PUSH1 0x0 DUP4 MLOAD PUSH2 0x34CD DUP2 DUP5 PUSH1 0x20 DUP9 ADD PUSH2 0x402C JUMP JUMPDEST DUP4 MLOAD SWAP1 DUP4 ADD SWAP1 PUSH2 0x34E1 DUP2 DUP4 PUSH1 0x20 DUP9 ADD PUSH2 0x402C JUMP JUMPDEST ADD SWAP5 SWAP4 POP POP POP POP JUMP JUMPDEST PUSH20 0xFFFFFFFFFFFFFFFFFFFFFFFFFFFFFFFFFFFFFFFF SWAP2 SWAP1 SWAP2 AND DUP2 MSTORE PUSH1 0x20 ADD SWAP1 JUMP JUMPDEST PUSH1 0x0 PUSH20 0xFFFFFFFFFFFFFFFFFFFFFFFFFFFFFFFFFFFFFFFF DUP1 DUP8 AND DUP4 MSTORE DUP1 DUP7 AND PUSH1 0x20 DUP5 ADD MSTORE POP DUP4 PUSH1 0x40 DUP4 ADD MSTORE PUSH1 0x80 PUSH1 0x60 DUP4 ADD MSTORE PUSH2 0x354A PUSH1 0x80 DUP4 ADD DUP5 PUSH2 0x3413 JUMP JUMPDEST SWAP7 SWAP6 POP POP POP POP POP POP JUMP JUMPDEST PUSH20 0xFFFFFFFFFFFFFFFFFFFFFFFFFFFFFFFFFFFFFFFF SWAP3 DUP4 AND DUP2 MSTORE SWAP2 AND PUSH1 0x20 DUP3 ADD MSTORE PUSH1 0x40 ADD SWAP1 JUMP JUMPDEST PUSH20 0xFFFFFFFFFFFFFFFFFFFFFFFFFFFFFFFFFFFFFFFF DUP8 DUP2 AND DUP3 MSTORE DUP7 AND PUSH1 0x20 DUP3 ADD MSTORE PUSH1 0x40 DUP2 ADD DUP6 SWAP1 MSTORE PUSH8 0xFFFFFFFFFFFFFFFF DUP5 DUP2 AND PUSH1 0x60 DUP4 ADD MSTORE DUP4 AND PUSH1 0x80 DUP3 ADD MSTORE PUSH1 0xC0 DUP2 ADD PUSH1 0x5 DUP4 LT PUSH2 0x35C9 JUMPI INVALID JUMPDEST DUP3 PUSH1 0xA0 DUP4 ADD MSTORE SWAP8 SWAP7 POP POP POP POP POP POP POP JUMP JUMPDEST PUSH20 0xFFFFFFFFFFFFFFFFFFFFFFFFFFFFFFFFFFFFFFFF SWAP3 SWAP1 SWAP3 AND DUP3 MSTORE PUSH1 0x20 DUP3 ADD MSTORE PUSH1 0x40 ADD SWAP1 JUMP JUMPDEST SWAP1 ISZERO ISZERO DUP2 MSTORE PUSH1 0x20 ADD SWAP1 JUMP JUMPDEST PUSH1 0x0 PUSH1 0x20 DUP3 MSTORE PUSH2 0x100F PUSH1 0x20 DUP4 ADD DUP5 PUSH2 0x3413 JUMP JUMPDEST PUSH1 0x20 DUP1 DUP3 MSTORE PUSH1 0x15 SWAP1 DUP3 ADD MSTORE PUSH32 0x4645534E3A204E4F5420544F4B454E204F574E45520000000000000000000000 PUSH1 0x40 DUP3 ADD MSTORE PUSH1 0x60 ADD SWAP1 JUMP JUMPDEST PUSH1 0x20 DUP1 DUP3 MSTORE PUSH1 0x22 SWAP1 DUP3 ADD MSTORE PUSH32 0x456E756D657261626C655365743A20696E646578206F7574206F6620626F756E PUSH1 0x40 DUP3 ADD MSTORE PUSH32 0x6473000000000000000000000000000000000000000000000000000000000000 PUSH1 0x60 DUP3 ADD MSTORE PUSH1 0x80 ADD SWAP1 JUMP JUMPDEST PUSH1 0x20 DUP1 DUP3 MSTORE PUSH1 0x1F SWAP1 DUP3 ADD MSTORE PUSH32 0x5472616E7366657248656C7065723A205452414E534645525F4641494C454400 PUSH1 0x40 DUP3 ADD MSTORE PUSH1 0x60 ADD SWAP1 JUMP JUMPDEST PUSH1 0x20 DUP1 DUP3 MSTORE PUSH1 0x15 SWAP1 DUP3 ADD MSTORE PUSH32 0x4645534E3A20424944204E4F5420535441525445440000000000000000000000 PUSH1 0x40 DUP3 ADD MSTORE PUSH1 0x60 ADD SWAP1 JUMP JUMPDEST PUSH1 0x20 DUP1 DUP3 MSTORE PUSH1 0x19 SWAP1 DUP3 ADD MSTORE PUSH32 0x4645534E3A204944454E544943414C5F41444452455353455300000000000000 PUSH1 0x40 DUP3 ADD MSTORE PUSH1 0x60 ADD SWAP1 JUMP JUMPDEST PUSH1 0x20 DUP1 DUP3 MSTORE PUSH1 0x32 SWAP1 DUP3 ADD MSTORE PUSH32 0x4552433732313A207472616E7366657220746F206E6F6E204552433732315265 PUSH1 0x40 DUP3 ADD MSTORE PUSH32 0x63656976657220696D706C656D656E7465720000000000000000000000000000 PUSH1 0x60 DUP3 ADD MSTORE PUSH1 0x80 ADD SWAP1 JUMP JUMPDEST PUSH1 0x20 DUP1 DUP3 MSTORE PUSH1 0x17 SWAP1 DUP3 ADD MSTORE PUSH32 0x4645534E3A20544F4B454E204E4F542043524541544544000000000000000000 PUSH1 0x40 DUP3 ADD MSTORE PUSH1 0x60 ADD SWAP1 JUMP JUMPDEST PUSH1 0x20 DUP1 DUP3 MSTORE PUSH1 0x26 SWAP1 DUP3 ADD MSTORE PUSH32 0x4F776E61626C653A206E6577206F776E657220697320746865207A65726F2061 PUSH1 0x40 DUP3 ADD MSTORE PUSH32 0x6464726573730000000000000000000000000000000000000000000000000000 PUSH1 0x60 DUP3 ADD MSTORE PUSH1 0x80 ADD SWAP1 JUMP JUMPDEST PUSH1 0x20 DUP1 DUP3 MSTORE PUSH1 0x1C SWAP1 DUP3 ADD MSTORE PUSH32 0x4552433732313A20746F6B656E20616C7265616479206D696E74656400000000 PUSH1 0x40 DUP3 ADD MSTORE PUSH1 0x60 ADD SWAP1 JUMP JUMPDEST PUSH1 0x20 DUP1 DUP3 MSTORE PUSH1 0xE SWAP1 DUP3 ADD MSTORE PUSH32 0x4645534E3A20504159204C455353000000000000000000000000000000000000 PUSH1 0x40 DUP3 ADD MSTORE PUSH1 0x60 ADD SWAP1 JUMP JUMPDEST PUSH1 0x20 DUP1 DUP3 MSTORE PUSH1 0x1B SWAP1 DUP3 ADD MSTORE PUSH32 0x536166654D6174683A206164646974696F6E206F766572666C6F770000000000 PUSH1 0x40 DUP3 ADD MSTORE PUSH1 0x60 ADD SWAP1 JUMP JUMPDEST PUSH1 0x20 DUP1 DUP3 MSTORE PUSH1 0x15 SWAP1 DUP3 ADD MSTORE PUSH32 0x4645534E3A20424944204E4F5420534554544C45440000000000000000000000 PUSH1 0x40 DUP3 ADD MSTORE PUSH1 0x60 ADD SWAP1 JUMP JUMPDEST PUSH1 0x20 DUP1 DUP3 MSTORE PUSH1 0x24 SWAP1 DUP3 ADD MSTORE PUSH32 0x4552433732313A207472616E7366657220746F20746865207A65726F20616464 PUSH1 0x40 DUP3 ADD MSTORE PUSH32 0x7265737300000000000000000000000000000000000000000000000000000000 PUSH1 0x60 DUP3 ADD MSTORE PUSH1 0x80 ADD SWAP1 JUMP JUMPDEST PUSH1 0x20 DUP1 DUP3 MSTORE PUSH1 0x19 SWAP1 DUP3 ADD MSTORE PUSH32 0x4552433732313A20617070726F766520746F2063616C6C657200000000000000 PUSH1 0x40 DUP3 ADD MSTORE PUSH1 0x60 ADD SWAP1 JUMP JUMPDEST PUSH1 0x20 DUP1 DUP3 MSTORE PUSH1 0x2C SWAP1 DUP3 ADD MSTORE PUSH32 0x4552433732313A206F70657261746F7220717565727920666F72206E6F6E6578 PUSH1 0x40 DUP3 ADD MSTORE PUSH32 0x697374656E7420746F6B656E0000000000000000000000000000000000000000 PUSH1 0x60 DUP3 ADD MSTORE PUSH1 0x80 ADD SWAP1 JUMP JUMPDEST PUSH1 0x20 DUP1 DUP3 MSTORE PUSH1 0x1A SWAP1 DUP3 ADD MSTORE PUSH32 0x536166654D6174683A206469766973696F6E206279207A65726F000000000000 PUSH1 0x40 DUP3 ADD MSTORE PUSH1 0x60 ADD SWAP1 JUMP JUMPDEST PUSH1 0x20 DUP1 DUP3 MSTORE PUSH1 0x38 SWAP1 DUP3 ADD MSTORE PUSH32 0x4552433732313A20617070726F76652063616C6C6572206973206E6F74206F77 PUSH1 0x40 DUP3 ADD MSTORE PUSH32 0x6E6572206E6F7220617070726F76656420666F7220616C6C0000000000000000 PUSH1 0x60 DUP3 ADD MSTORE PUSH1 0x80 ADD SWAP1 JUMP JUMPDEST PUSH1 0x20 DUP1 DUP3 MSTORE PUSH1 0x2A SWAP1 DUP3 ADD MSTORE PUSH32 0x4552433732313A2062616C616E636520717565727920666F7220746865207A65 PUSH1 0x40 DUP3 ADD MSTORE PUSH32 0x726F206164647265737300000000000000000000000000000000000000000000 PUSH1 0x60 DUP3 ADD MSTORE PUSH1 0x80 ADD SWAP1 JUMP JUMPDEST PUSH1 0x20 DUP1 DUP3 MSTORE PUSH1 0x22 SWAP1 DUP3 ADD MSTORE PUSH32 0x456E756D657261626C654D61703A20696E646578206F7574206F6620626F756E PUSH1 0x40 DUP3 ADD MSTORE PUSH32 0x6473000000000000000000000000000000000000000000000000000000000000 PUSH1 0x60 DUP3 ADD MSTORE PUSH1 0x80 ADD SWAP1 JUMP JUMPDEST PUSH1 0x20 DUP1 DUP3 MSTORE DUP2 DUP2 ADD MSTORE PUSH32 0x4552433732313A206D696E7420746F20746865207A65726F2061646472657373 PUSH1 0x40 DUP3 ADD MSTORE PUSH1 0x60 ADD SWAP1 JUMP JUMPDEST PUSH1 0x20 DUP1 DUP3 MSTORE PUSH1 0x12 SWAP1 DUP3 ADD MSTORE PUSH32 0x4645534E3A2042494420544F4F204C4154450000000000000000000000000000 PUSH1 0x40 DUP3 ADD MSTORE PUSH1 0x60 ADD SWAP1 JUMP JUMPDEST PUSH1 0x20 DUP1 DUP3 MSTORE PUSH1 0x21 SWAP1 DUP3 ADD MSTORE PUSH32 0x536166654D6174683A206D756C7469706C69636174696F6E206F766572666C6F PUSH1 0x40 DUP3 ADD MSTORE PUSH32 0x7700000000000000000000000000000000000000000000000000000000000000 PUSH1 0x60 DUP3 ADD MSTORE PUSH1 0x80 ADD SWAP1 JUMP JUMPDEST PUSH1 0x20 DUP1 DUP3 MSTORE PUSH1 0x2C SWAP1 DUP3 ADD MSTORE PUSH32 0x4552433732313A20617070726F76656420717565727920666F72206E6F6E6578 PUSH1 0x40 DUP3 ADD MSTORE PUSH32 0x697374656E7420746F6B656E0000000000000000000000000000000000000000 PUSH1 0x60 DUP3 ADD MSTORE PUSH1 0x80 ADD SWAP1 JUMP JUMPDEST PUSH1 0x20 DUP1 DUP3 MSTORE DUP2 DUP2 ADD MSTORE PUSH32 0x4F776E61626C653A2063616C6C6572206973206E6F7420746865206F776E6572 PUSH1 0x40 DUP3 ADD MSTORE PUSH1 0x60 ADD SWAP1 JUMP JUMPDEST PUSH1 0x20 DUP1 DUP3 MSTORE PUSH1 0x29 SWAP1 DUP3 ADD MSTORE PUSH32 0x4552433732313A207472616E73666572206F6620746F6B656E20746861742069 PUSH1 0x40 DUP3 ADD MSTORE PUSH32 0x73206E6F74206F776E0000000000000000000000000000000000000000000000 PUSH1 0x60 DUP3 ADD MSTORE PUSH1 0x80 ADD SWAP1 JUMP JUMPDEST PUSH1 0x20 DUP1 DUP3 MSTORE PUSH1 0x2F SWAP1 DUP3 ADD MSTORE PUSH32 0x4552433732314D657461646174613A2055524920717565727920666F72206E6F PUSH1 0x40 DUP3 ADD MSTORE PUSH32 0x6E6578697374656E7420746F6B656E0000000000000000000000000000000000 PUSH1 0x60 DUP3 ADD MSTORE PUSH1 0x80 ADD SWAP1 JUMP JUMPDEST PUSH1 0x20 DUP1 DUP3 MSTORE PUSH1 0x13 SWAP1 DUP3 ADD MSTORE PUSH32 0x4645534E3A2042494420434F4D504C4554454400000000000000000000000000 PUSH1 0x40 DUP3 ADD MSTORE PUSH1 0x60 ADD SWAP1 JUMP JUMPDEST PUSH1 0x20 DUP1 DUP3 MSTORE PUSH1 0x21 SWAP1 DUP3 ADD MSTORE PUSH32 0x4552433732313A20617070726F76616C20746F2063757272656E74206F776E65 PUSH1 0x40 DUP3 ADD MSTORE PUSH32 0x7200000000000000000000000000000000000000000000000000000000000000 PUSH1 0x60 DUP3 ADD MSTORE PUSH1 0x80 ADD SWAP1 JUMP JUMPDEST PUSH1 0x20 DUP1 DUP3 MSTORE PUSH1 0x1A SWAP1 DUP3 ADD MSTORE PUSH32 0x4645534E3A20494E53554646494349454E542042414C414E4345000000000000 PUSH1 0x40 DUP3 ADD MSTORE PUSH1 0x60 ADD SWAP1 JUMP JUMPDEST PUSH1 0x20 DUP1 DUP3 MSTORE PUSH1 0x31 SWAP1 DUP3 ADD MSTORE PUSH32 0x4552433732313A207472616E736665722063616C6C6572206973206E6F74206F PUSH1 0x40 DUP3 ADD MSTORE PUSH32 0x776E6572206E6F7220617070726F766564000000000000000000000000000000 PUSH1 0x60 DUP3 ADD MSTORE PUSH1 0x80 ADD SWAP1 JUMP JUMPDEST PUSH1 0x20 DUP1 DUP3 MSTORE PUSH1 0x1D SWAP1 DUP3 ADD MSTORE PUSH32 0x416464726573733A2063616C6C20746F206E6F6E2D636F6E7472616374000000 PUSH1 0x40 DUP3 ADD MSTORE PUSH1 0x60 ADD SWAP1 JUMP JUMPDEST PUSH1 0x20 DUP1 DUP3 MSTORE PUSH1 0x23 SWAP1 DUP3 ADD MSTORE PUSH32 0x5472616E7366657248656C7065723A204554485F5452414E534645525F464149 PUSH1 0x40 DUP3 ADD MSTORE PUSH32 0x4C45440000000000000000000000000000000000000000000000000000000000 PUSH1 0x60 DUP3 ADD MSTORE PUSH1 0x80 ADD SWAP1 JUMP JUMPDEST PUSH1 0x20 DUP1 DUP3 MSTORE PUSH1 0x12 SWAP1 DUP3 ADD MSTORE PUSH32 0x4645534E3A20424944204F4E20474F494E470000000000000000000000000000 PUSH1 0x40 DUP3 ADD MSTORE PUSH1 0x60 ADD SWAP1 JUMP JUMPDEST PUSH1 0x20 DUP1 DUP3 MSTORE PUSH1 0x12 SWAP1 DUP3 ADD MSTORE PUSH32 0x4645534E3A204E4F5420464F522053414C450000000000000000000000000000 PUSH1 0x40 DUP3 ADD MSTORE PUSH1 0x60 ADD SWAP1 JUMP JUMPDEST SWAP1 DUP2 MSTORE PUSH1 0x20 ADD SWAP1 JUMP JUMPDEST PUSH1 0x0 PUSH1 0xE0 DUP3 ADD SWAP1 POP DUP4 DUP3 MSTORE PUSH20 0xFFFFFFFFFFFFFFFFFFFFFFFFFFFFFFFFFFFFFFFF DUP1 DUP5 MLOAD AND PUSH1 0x20 DUP5 ADD MSTORE DUP1 PUSH1 0x20 DUP6 ADD MLOAD AND PUSH1 0x40 DUP5 ADD MSTORE POP PUSH1 0x40 DUP4 ADD MLOAD PUSH1 0x60 DUP4 ADD MSTORE PUSH1 0x60 DUP4 ADD MLOAD PUSH8 0xFFFFFFFFFFFFFFFF DUP1 DUP3 AND PUSH1 0x80 DUP6 ADD MSTORE DUP1 PUSH1 0x80 DUP7 ADD MLOAD AND PUSH1 0xA0 DUP6 ADD MSTORE POP POP PUSH1 0xA0 DUP4 ADD MLOAD PUSH1 0x5 DUP2 LT PUSH2 0x401E JUMPI INVALID JUMPDEST DUP1 PUSH1 0xC0 DUP5 ADD MSTORE POP SWAP4 SWAP3 POP POP POP JUMP JUMPDEST PUSH1 0x0 JUMPDEST DUP4 DUP2 LT ISZERO PUSH2 0x4047 JUMPI DUP2 DUP2 ADD MLOAD DUP4 DUP3 ADD MSTORE PUSH1 0x20 ADD PUSH2 0x402F JUMP JUMPDEST DUP4 DUP2 GT ISZERO PUSH2 0x1C77 JUMPI POP POP PUSH1 0x0 SWAP2 ADD MSTORE JUMP JUMPDEST PUSH20 0xFFFFFFFFFFFFFFFFFFFFFFFFFFFFFFFFFFFFFFFF DUP2 AND DUP2 EQ PUSH2 0x407A JUMPI PUSH1 0x0 DUP1 REVERT JUMPDEST POP JUMP JUMPDEST DUP1 ISZERO ISZERO DUP2 EQ PUSH2 0x407A JUMPI PUSH1 0x0 DUP1 REVERT JUMPDEST PUSH32 0xFFFFFFFF00000000000000000000000000000000000000000000000000000000 DUP2 AND DUP2 EQ PUSH2 0x407A JUMPI PUSH1 0x0 DUP1 REVERT INVALID GASLIMIT MSTORE NUMBER CALLDATACOPY ORIGIN BALANCE GASPRICE KECCAK256 PUSH21 0x72616E7366657220746F206E6F6E20455243373231 MSTORE PUSH6 0x636569766572 KECCAK256 PUSH10 0x6D706C656D656E746572 GASLIMIT MSTORE NUMBER CALLDATACOPY ORIGIN BALANCE GASPRICE KECCAK256 PUSH16 0x776E657220717565727920666F72206E PUSH16 0x6E6578697374656E7420746F6B656EA2 PUSH5 0x6970667358 0x22 SLT KECCAK256 JUMPI ADD 0xAB ORIGIN 0xC5 0xDF 0x28 SWAP7 0xB1 0xC7 0xD5 0xE4 SUB 0xB7 SWAP10 SWAP9 EXTCODESIZE PUSH17 0x95B535A21B04980A025B1576C83E64736F PUSH13 0x63430007000033000000000000 "
    }
  }
}