{
  "abi": [
    {
      "inputs": [
        {
          "internalType": "address",
          "name": "_factory",
          "type": "address"
        },
        {
          "internalType": "address",
          "name": "_feswaNFT",
          "type": "address"
        },
        {
          "internalType": "address",
          "name": "_WETH",
          "type": "address"
        }
      ],
      "stateMutability": "nonpayable",
      "type": "constructor"
    },
    {
      "inputs": [
        {
          "internalType": "uint256",
          "name": "tokenID",
          "type": "uint256"
        },
        {
          "internalType": "address",
          "name": "pairOwner",
          "type": "address"
        },
        {
          "internalType": "uint256",
          "name": "rateTrigger",
          "type": "uint256"
        }
      ],
      "name": "ManageFeswaPair",
      "outputs": [
        {
          "internalType": "address",
          "name": "pairAAB",
          "type": "address"
        },
        {
          "internalType": "address",
          "name": "pairABB",
          "type": "address"
        }
      ],
      "stateMutability": "nonpayable",
      "type": "function"
    },
    {
      "inputs": [],
      "name": "WETH",
      "outputs": [
        {
          "internalType": "address",
          "name": "",
          "type": "address"
        }
      ],
      "stateMutability": "view",
      "type": "function"
    },
    {
      "inputs": [
        {
          "internalType": "address",
          "name": "tokenA",
          "type": "address"
        },
        {
          "internalType": "address",
          "name": "tokenB",
          "type": "address"
        },
        {
          "internalType": "uint256",
          "name": "amountADesired",
          "type": "uint256"
        },
        {
          "internalType": "uint256",
          "name": "amountBDesired",
          "type": "uint256"
        },
        {
          "internalType": "uint256",
          "name": "ratio",
          "type": "uint256"
        },
        {
          "internalType": "address",
          "name": "to",
          "type": "address"
        },
        {
          "internalType": "uint256",
          "name": "deadline",
          "type": "uint256"
        }
      ],
      "name": "addLiquidity",
      "outputs": [
        {
          "internalType": "uint256",
          "name": "amountA",
          "type": "uint256"
        },
        {
          "internalType": "uint256",
          "name": "amountB",
          "type": "uint256"
        },
        {
          "internalType": "uint256",
          "name": "liquidityAAB",
          "type": "uint256"
        },
        {
          "internalType": "uint256",
          "name": "liquidityABB",
          "type": "uint256"
        }
      ],
      "stateMutability": "nonpayable",
      "type": "function"
    },
    {
      "inputs": [
        {
          "internalType": "address",
          "name": "token",
          "type": "address"
        },
        {
          "internalType": "uint256",
          "name": "amountTokenDesired",
          "type": "uint256"
        },
        {
          "internalType": "uint256",
          "name": "ratio",
          "type": "uint256"
        },
        {
          "internalType": "address",
          "name": "to",
          "type": "address"
        },
        {
          "internalType": "uint256",
          "name": "deadline",
          "type": "uint256"
        }
      ],
      "name": "addLiquidityETH",
      "outputs": [
        {
          "internalType": "uint256",
          "name": "amountToken",
          "type": "uint256"
        },
        {
          "internalType": "uint256",
          "name": "amountETH",
          "type": "uint256"
        },
        {
          "internalType": "uint256",
          "name": "liquidityTTE",
          "type": "uint256"
        },
        {
          "internalType": "uint256",
          "name": "liquidityTEE",
          "type": "uint256"
        }
      ],
      "stateMutability": "payable",
      "type": "function"
    },
    {
      "inputs": [
        {
          "internalType": "uint256",
          "name": "amountOut",
          "type": "uint256"
        },
        {
          "internalType": "address[]",
          "name": "path",
          "type": "address[]"
        }
      ],
      "name": "estimateAmountsIn",
      "outputs": [
        {
          "internalType": "uint256[]",
          "name": "amounts",
          "type": "uint256[]"
        }
      ],
      "stateMutability": "view",
      "type": "function"
    },
    {
      "inputs": [
        {
          "internalType": "uint256",
          "name": "amountIn",
          "type": "uint256"
        },
        {
          "internalType": "address[]",
          "name": "path",
          "type": "address[]"
        }
      ],
      "name": "estimateAmountsOut",
      "outputs": [
        {
          "internalType": "uint256[]",
          "name": "amounts",
          "type": "uint256[]"
        }
      ],
      "stateMutability": "view",
      "type": "function"
    },
    {
      "inputs": [],
      "name": "factory",
      "outputs": [
        {
          "internalType": "address",
          "name": "",
          "type": "address"
        }
      ],
      "stateMutability": "view",
      "type": "function"
    },
    {
      "inputs": [],
      "name": "feswaNFT",
      "outputs": [
        {
          "internalType": "address",
          "name": "",
          "type": "address"
        }
      ],
      "stateMutability": "view",
      "type": "function"
    },
    {
      "inputs": [
        {
          "internalType": "uint256",
          "name": "amountOut",
          "type": "uint256"
        },
        {
          "internalType": "uint256",
          "name": "reserveIn",
          "type": "uint256"
        },
        {
          "internalType": "uint256",
          "name": "reserveOut",
          "type": "uint256"
        }
      ],
      "name": "getAmountIn",
      "outputs": [
        {
          "internalType": "uint256",
          "name": "amountIn",
          "type": "uint256"
        }
      ],
      "stateMutability": "view",
      "type": "function"
    },
    {
      "inputs": [
        {
          "internalType": "uint256",
          "name": "amountIn",
          "type": "uint256"
        },
        {
          "internalType": "uint256",
          "name": "reserveIn",
          "type": "uint256"
        },
        {
          "internalType": "uint256",
          "name": "reserveOut",
          "type": "uint256"
        }
      ],
      "name": "getAmountOut",
      "outputs": [
        {
          "internalType": "uint256",
          "name": "amountOut",
          "type": "uint256"
        }
      ],
      "stateMutability": "view",
      "type": "function"
    },
    {
      "inputs": [
        {
          "internalType": "uint256",
          "name": "amountA",
          "type": "uint256"
        },
        {
          "internalType": "uint256",
          "name": "reserveA",
          "type": "uint256"
        },
        {
          "internalType": "uint256",
          "name": "reserveB",
          "type": "uint256"
        }
      ],
      "name": "quote",
      "outputs": [
        {
          "internalType": "uint256",
          "name": "amountB",
          "type": "uint256"
        }
      ],
      "stateMutability": "pure",
      "type": "function"
    },
    {
      "inputs": [
        {
          "internalType": "address",
          "name": "tokenA",
          "type": "address"
        },
        {
          "internalType": "address",
          "name": "tokenB",
          "type": "address"
        },
        {
          "internalType": "uint256",
          "name": "liquidityAAB",
          "type": "uint256"
        },
        {
          "internalType": "uint256",
          "name": "liquidityABB",
          "type": "uint256"
        },
        {
          "internalType": "uint256",
          "name": "amountAMin",
          "type": "uint256"
        },
        {
          "internalType": "uint256",
          "name": "amountBMin",
          "type": "uint256"
        },
        {
          "internalType": "address",
          "name": "to",
          "type": "address"
        },
        {
          "internalType": "uint256",
          "name": "deadline",
          "type": "uint256"
        }
      ],
      "name": "removeLiquidity",
      "outputs": [
        {
          "internalType": "uint256",
          "name": "amountA",
          "type": "uint256"
        },
        {
          "internalType": "uint256",
          "name": "amountB",
          "type": "uint256"
        }
      ],
      "stateMutability": "nonpayable",
      "type": "function"
    },
    {
      "inputs": [
        {
          "internalType": "address",
          "name": "token",
          "type": "address"
        },
        {
          "internalType": "uint256",
          "name": "liquidityTTE",
          "type": "uint256"
        },
        {
          "internalType": "uint256",
          "name": "liquidityTEE",
          "type": "uint256"
        },
        {
          "internalType": "uint256",
          "name": "amountTokenMin",
          "type": "uint256"
        },
        {
          "internalType": "uint256",
          "name": "amountETHMin",
          "type": "uint256"
        },
        {
          "internalType": "address",
          "name": "to",
          "type": "address"
        },
        {
          "internalType": "uint256",
          "name": "deadline",
          "type": "uint256"
        }
      ],
      "name": "removeLiquidityETH",
      "outputs": [
        {
          "internalType": "uint256",
          "name": "amountToken",
          "type": "uint256"
        },
        {
          "internalType": "uint256",
          "name": "amountETH",
          "type": "uint256"
        }
      ],
      "stateMutability": "nonpayable",
      "type": "function"
    },
    {
      "inputs": [
        {
          "internalType": "address",
          "name": "token",
          "type": "address"
        },
        {
          "internalType": "uint256",
          "name": "liquidityTTE",
          "type": "uint256"
        },
        {
          "internalType": "uint256",
          "name": "liquidityTEE",
          "type": "uint256"
        },
        {
          "internalType": "uint256",
          "name": "amountTokenMin",
          "type": "uint256"
        },
        {
          "internalType": "uint256",
          "name": "amountETHMin",
          "type": "uint256"
        },
        {
          "internalType": "address",
          "name": "to",
          "type": "address"
        },
        {
          "internalType": "uint256",
          "name": "deadline",
          "type": "uint256"
        }
      ],
      "name": "removeLiquidityETHFeeOnTransfer",
      "outputs": [
        {
          "internalType": "uint256",
          "name": "amountETH",
          "type": "uint256"
        }
      ],
      "stateMutability": "nonpayable",
      "type": "function"
    },
    {
      "inputs": [
        {
          "internalType": "address",
          "name": "token",
          "type": "address"
        },
        {
          "internalType": "uint256",
          "name": "liquidityTTE",
          "type": "uint256"
        },
        {
          "internalType": "uint256",
          "name": "amountTokenMin",
          "type": "uint256"
        },
        {
          "internalType": "uint256",
          "name": "amountETHMin",
          "type": "uint256"
        },
        {
          "internalType": "address",
          "name": "to",
          "type": "address"
        },
        {
          "internalType": "uint256",
          "name": "deadline",
          "type": "uint256"
        },
        {
          "internalType": "bool",
          "name": "approveMax",
          "type": "bool"
        },
        {
          "internalType": "uint8",
          "name": "v",
          "type": "uint8"
        },
        {
          "internalType": "bytes32",
          "name": "r",
          "type": "bytes32"
        },
        {
          "internalType": "bytes32",
          "name": "s",
          "type": "bytes32"
        }
      ],
      "name": "removeLiquidityETHWithPermit",
      "outputs": [
        {
          "internalType": "uint256",
          "name": "amountToken",
          "type": "uint256"
        },
        {
          "internalType": "uint256",
          "name": "amountETH",
          "type": "uint256"
        }
      ],
      "stateMutability": "nonpayable",
      "type": "function"
    },
    {
      "inputs": [
        {
          "internalType": "address",
          "name": "token",
          "type": "address"
        },
        {
          "internalType": "uint256",
          "name": "liquidityTTE",
          "type": "uint256"
        },
        {
          "internalType": "uint256",
          "name": "liquidityTEE",
          "type": "uint256"
        },
        {
          "internalType": "address",
          "name": "to",
          "type": "address"
        },
        {
          "internalType": "uint256",
          "name": "deadline",
          "type": "uint256"
        },
        {
          "internalType": "bool",
          "name": "approveMax",
          "type": "bool"
        },
        {
          "internalType": "uint8",
          "name": "v",
          "type": "uint8"
        },
        {
          "internalType": "bytes32",
          "name": "r",
          "type": "bytes32"
        },
        {
          "internalType": "bytes32",
          "name": "s",
          "type": "bytes32"
        }
      ],
      "name": "removeLiquidityETHWithPermitFeeOnTransfer",
      "outputs": [
        {
          "internalType": "uint256",
          "name": "amountETH",
          "type": "uint256"
        }
      ],
      "stateMutability": "nonpayable",
      "type": "function"
    },
    {
      "inputs": [
        {
          "internalType": "address",
          "name": "tokenA",
          "type": "address"
        },
        {
          "internalType": "address",
          "name": "tokenB",
          "type": "address"
        },
        {
          "internalType": "uint256",
          "name": "liquidityAAB",
          "type": "uint256"
        },
        {
          "internalType": "uint256",
          "name": "amountAMin",
          "type": "uint256"
        },
        {
          "internalType": "uint256",
          "name": "amountBMin",
          "type": "uint256"
        },
        {
          "internalType": "address",
          "name": "to",
          "type": "address"
        },
        {
          "internalType": "uint256",
          "name": "deadline",
          "type": "uint256"
        },
        {
          "internalType": "bool",
          "name": "approveMax",
          "type": "bool"
        },
        {
          "internalType": "uint8",
          "name": "v",
          "type": "uint8"
        },
        {
          "internalType": "bytes32",
          "name": "r",
          "type": "bytes32"
        },
        {
          "internalType": "bytes32",
          "name": "s",
          "type": "bytes32"
        }
      ],
      "name": "removeLiquidityWithPermit",
      "outputs": [
        {
          "internalType": "uint256",
          "name": "amountA",
          "type": "uint256"
        },
        {
          "internalType": "uint256",
          "name": "amountB",
          "type": "uint256"
        }
      ],
      "stateMutability": "nonpayable",
      "type": "function"
    },
    {
      "inputs": [
        {
          "internalType": "uint256",
          "name": "amountOut",
          "type": "uint256"
        },
        {
          "internalType": "address[]",
          "name": "path",
          "type": "address[]"
        },
        {
          "internalType": "address",
          "name": "to",
          "type": "address"
        },
        {
          "internalType": "uint256",
          "name": "deadline",
          "type": "uint256"
        }
      ],
      "name": "swapETHForExactTokens",
      "outputs": [
        {
          "internalType": "uint256[]",
          "name": "amounts",
          "type": "uint256[]"
        }
      ],
      "stateMutability": "payable",
      "type": "function"
    },
    {
      "inputs": [
        {
          "internalType": "uint256",
          "name": "amountOutMin",
          "type": "uint256"
        },
        {
          "internalType": "address[]",
          "name": "path",
          "type": "address[]"
        },
        {
          "internalType": "address",
          "name": "to",
          "type": "address"
        },
        {
          "internalType": "uint256",
          "name": "deadline",
          "type": "uint256"
        }
      ],
      "name": "swapExactETHForTokens",
      "outputs": [
        {
          "internalType": "uint256[]",
          "name": "amounts",
          "type": "uint256[]"
        }
      ],
      "stateMutability": "payable",
      "type": "function"
    },
    {
      "inputs": [
        {
          "internalType": "uint256",
          "name": "amountOutMin",
          "type": "uint256"
        },
        {
          "internalType": "address[]",
          "name": "path",
          "type": "address[]"
        },
        {
          "internalType": "address",
          "name": "to",
          "type": "address"
        },
        {
          "internalType": "uint256",
          "name": "deadline",
          "type": "uint256"
        }
      ],
      "name": "swapExactETHForTokensFeeOnTransfer",
      "outputs": [],
      "stateMutability": "payable",
      "type": "function"
    },
    {
      "inputs": [
        {
          "internalType": "uint256",
          "name": "amountIn",
          "type": "uint256"
        },
        {
          "internalType": "uint256",
          "name": "amountOutMin",
          "type": "uint256"
        },
        {
          "internalType": "address[]",
          "name": "path",
          "type": "address[]"
        },
        {
          "internalType": "address",
          "name": "to",
          "type": "address"
        },
        {
          "internalType": "uint256",
          "name": "deadline",
          "type": "uint256"
        }
      ],
      "name": "swapExactTokensForETH",
      "outputs": [
        {
          "internalType": "uint256[]",
          "name": "amounts",
          "type": "uint256[]"
        }
      ],
      "stateMutability": "nonpayable",
      "type": "function"
    },
    {
      "inputs": [
        {
          "internalType": "uint256",
          "name": "amountIn",
          "type": "uint256"
        },
        {
          "internalType": "uint256",
          "name": "amountOutMin",
          "type": "uint256"
        },
        {
          "internalType": "address[]",
          "name": "path",
          "type": "address[]"
        },
        {
          "internalType": "address",
          "name": "to",
          "type": "address"
        },
        {
          "internalType": "uint256",
          "name": "deadline",
          "type": "uint256"
        }
      ],
      "name": "swapExactTokensForETHFeeOnTransfer",
      "outputs": [],
      "stateMutability": "nonpayable",
      "type": "function"
    },
    {
      "inputs": [
        {
          "internalType": "uint256",
          "name": "amountIn",
          "type": "uint256"
        },
        {
          "internalType": "uint256",
          "name": "amountOutMin",
          "type": "uint256"
        },
        {
          "internalType": "address[]",
          "name": "path",
          "type": "address[]"
        },
        {
          "internalType": "address",
          "name": "to",
          "type": "address"
        },
        {
          "internalType": "uint256",
          "name": "deadline",
          "type": "uint256"
        }
      ],
      "name": "swapExactTokensForTokens",
      "outputs": [
        {
          "internalType": "uint256[]",
          "name": "amounts",
          "type": "uint256[]"
        }
      ],
      "stateMutability": "nonpayable",
      "type": "function"
    },
    {
      "inputs": [
        {
          "internalType": "uint256",
          "name": "amountIn",
          "type": "uint256"
        },
        {
          "internalType": "uint256",
          "name": "amountOutMin",
          "type": "uint256"
        },
        {
          "internalType": "address[]",
          "name": "path",
          "type": "address[]"
        },
        {
          "internalType": "address",
          "name": "to",
          "type": "address"
        },
        {
          "internalType": "uint256",
          "name": "deadline",
          "type": "uint256"
        }
      ],
      "name": "swapExactTokensForTokensFeeOnTransfer",
      "outputs": [],
      "stateMutability": "nonpayable",
      "type": "function"
    },
    {
      "inputs": [
        {
          "internalType": "uint256",
          "name": "amountOut",
          "type": "uint256"
        },
        {
          "internalType": "uint256",
          "name": "amountInMax",
          "type": "uint256"
        },
        {
          "internalType": "address[]",
          "name": "path",
          "type": "address[]"
        },
        {
          "internalType": "address",
          "name": "to",
          "type": "address"
        },
        {
          "internalType": "uint256",
          "name": "deadline",
          "type": "uint256"
        }
      ],
      "name": "swapTokensForExactETH",
      "outputs": [
        {
          "internalType": "uint256[]",
          "name": "amounts",
          "type": "uint256[]"
        }
      ],
      "stateMutability": "nonpayable",
      "type": "function"
    },
    {
      "inputs": [
        {
          "internalType": "uint256",
          "name": "amountOut",
          "type": "uint256"
        },
        {
          "internalType": "uint256",
          "name": "amountInMax",
          "type": "uint256"
        },
        {
          "internalType": "address[]",
          "name": "path",
          "type": "address[]"
        },
        {
          "internalType": "address",
          "name": "to",
          "type": "address"
        },
        {
          "internalType": "uint256",
          "name": "deadline",
          "type": "uint256"
        }
      ],
      "name": "swapTokensForExactTokens",
      "outputs": [
        {
          "internalType": "uint256[]",
          "name": "amounts",
          "type": "uint256[]"
        }
      ],
      "stateMutability": "nonpayable",
      "type": "function"
    },
    {
      "stateMutability": "payable",
      "type": "receive"
    }
  ],
  "evm": {
    "bytecode": {
      "linkReferences": {},
      "object": "60e06040523480156200001157600080fd5b50604051620059203803806200592083398101604081905262000034916200005c565b6001600160601b0319606093841b811660805291831b821660a05290911b1660c052620000c8565b60008060006060848603121562000071578283fd5b83516200007e81620000af565b60208501519093506200009181620000af565b6040850151909250620000a481620000af565b809150509250925092565b6001600160a01b0381168114620000c557600080fd5b50565b60805160601c60a05160601c60c05160601c615728620001f8600039806101c252806105a952806107625280610dd85280610f3652806112ca52806113f7528061148c52806116ac52806117c65280611c585280611d965280611e945280611f075280611f7a5280611ff1528061234c52806123f75280612478528061271252806128b052806129da5280612a6f5280612c395280612c9a5280612d535280612e9d5280612edd5280612f9652508061108852806128215250806106605280610839528061095152806109bc5280610af15280610e8f5280610f1452806111ef528061137552806115ec528061188e5280611a1752806122ed52806124b752806126f0528061284a528061295b52806134c3528061350652806138dd5280613a155280613f7452506157286000f3fe6080604052600436106101a55760003560e01c806396adb337116100e1578063c45a01551161008a578063ead86a2911610064578063ead86a29146104dc578063eef40f31146104f1578063fb3bdb4114610511578063ffbcf7f314610524576101eb565b8063c45a015514610494578063d57b57a5146104a9578063ded9382a146104bc576101eb565b8063ad615dec116100bb578063ad615dec14610424578063ba3690cb14610444578063ba9f20b814610464576101eb565b806396adb337146103c2578063a59600db146103e2578063ad5c464814610402576101eb565b80634a25d94a1161014e5780637ff36ab5116101285780637ff36ab51461034f57806385f8c259146103625780638803dbee146103825780638de9d7d2146103a2576101eb565b80634a25d94a146102e1578063573692c1146103015780636a055fa914610321576101eb565b80632e1db1431161017f5780632e1db1431461028157806338ed1739146102a15780633d221b20146102c1576101eb565b8063054d50d4146101f057806318cbafe5146102265780632195995c14610253576101eb565b366101eb573373ffffffffffffffffffffffffffffffffffffffff7f000000000000000000000000000000000000000000000000000000000000000016146101e957fe5b005b600080fd5b3480156101fc57600080fd5b5061021061020b366004614d67565b610537565b60405161021d91906155d0565b60405180910390f35b34801561023257600080fd5b50610246610241366004614cf6565b61054c565b60405161021d9190614f8d565b34801561025f57600080fd5b5061027361026e36600461476f565b61082f565b60405161021d92919061564e565b34801561028d57600080fd5b5061024661029c366004614c24565b61094a565b3480156102ad57600080fd5b506102466102bc366004614cf6565b610978565b3480156102cd57600080fd5b506101e96102dc366004614cf6565b610a8b565b3480156102ed57600080fd5b506102466102fc366004614cf6565b610d84565b34801561030d57600080fd5b5061021061031c3660046149c3565b610f0c565b34801561032d57600080fd5b5061034161033c366004614bed565b61103e565b60405161021d929190614f09565b61024661035d366004614c6e565b61128b565b34801561036e57600080fd5b5061021061037d366004614d67565b61159b565b34801561038e57600080fd5b5061024661039d366004614cf6565b6115a8565b3480156103ae57600080fd5b506102106103bd366004614ae4565b611669565b3480156103ce57600080fd5b506102736103dd366004614819565b611843565b3480156103ee57600080fd5b506101e96103fd366004614cf6565b611c06565b34801561040e57600080fd5b50610417611f05565b60405161021d9190614e69565b34801561043057600080fd5b5061021061043f366004614d67565b611f29565b34801561045057600080fd5b5061027361045f366004614ae4565b611f36565b34801561047057600080fd5b5061048461047f3660046146fe565b61206f565b60405161021d949392919061565c565b3480156104a057600080fd5b506104176122eb565b6101e96104b7366004614c6e565b61230f565b3480156104c857600080fd5b506102736104d7366004614a4e565b6126e6565b3480156104e857600080fd5b5061041761281f565b3480156104fd57600080fd5b5061024661050c366004614c24565b612843565b61024661051f366004614c6e565b612871565b610484610532366004614972565b612baf565b60006105448484846130f8565b949350505050565b60608142811015610592576040517f08c379a000000000000000000000000000000000000000000000000000000000815260040161058990615076565b60405180910390fd5b73ffffffffffffffffffffffffffffffffffffffff7f00000000000000000000000000000000000000000000000000000000000000001686867fffffffffffffffffffffffffffffffffffffffffffffffffffffffffffffffff81018181106105f757fe5b905060200201602081019061060c9190614686565b73ffffffffffffffffffffffffffffffffffffffff1614610659576040517f08c379a00000000000000000000000000000000000000000000000000000000081526004016105899061503f565b60006106877f00000000000000000000000000000000000000000000000000000000000000008a89896131a9565b809450819250505087836001855103815181106106a057fe5b602002602001015110156106e0576040517f08c379a00000000000000000000000000000000000000000000000000000000081526004016105899061520c565b610721878760008181106106f057fe5b90506020020160208101906107059190614686565b33838660008151811061071457fe5b6020026020010151613322565b6107608388888080602002602001604051908101604052809392919081815260200183836020028082843760009201919091525030925061344f915050565b7f000000000000000000000000000000000000000000000000000000000000000073ffffffffffffffffffffffffffffffffffffffff16632e1a7d4d846001865103815181106107ac57fe5b60200260200101516040518263ffffffff1660e01b81526004016107d091906155d0565b600060405180830381600087803b1580156107ea57600080fd5b505af11580156107fe573d6000803e3d6000fd5b50505050610823858460018651038151811061081657fe5b60200260200101516135d9565b50509695505050505050565b600080600061085f7f00000000000000000000000000000000000000000000000000000000000000008f8f613692565b905060008761086e578c610890565b7fffffffffffffffffffffffffffffffffffffffffffffffffffffffffffffffff5b6040517fd505accf00000000000000000000000000000000000000000000000000000000815290915073ffffffffffffffffffffffffffffffffffffffff83169063d505accf906108f1903390309086908f908e908e908e90600401614e8a565b600060405180830381600087803b15801561090b57600080fd5b505af115801561091f573d6000803e3d6000fd5b5050505050506109368d8d8d60008e8e8e8e611843565b909e909d509b505050505050505050505050565b60606105447f000000000000000000000000000000000000000000000000000000000000000085858561370d565b606081428110156109b5576040517f08c379a000000000000000000000000000000000000000000000000000000000815260040161058990615076565b60006109e37f00000000000000000000000000000000000000000000000000000000000000008a89896131a9565b809450819250505087836001855103815181106109fc57fe5b60200260200101511015610a3c576040517f08c379a00000000000000000000000000000000000000000000000000000000081526004016105899061520c565b610a4c878760008181106106f057fe5b610823838888808060200260200160405190810160405280939291908181526020018383602002808284376000920191909152508a925061344f915050565b8042811015610ac6576040517f08c379a000000000000000000000000000000000000000000000000000000000815260040161058990615076565b610b5f85856000818110610ad657fe5b9050602002016020810190610aeb9190614686565b33610b597f000000000000000000000000000000000000000000000000000000000000000089896000818110610b1d57fe5b9050602002016020810190610b329190614686565b8a8a6001818110610b3f57fe5b9050602002016020810190610b549190614686565b613692565b8a613322565b600085857fffffffffffffffffffffffffffffffffffffffffffffffffffffffffffffffff8101818110610b8f57fe5b9050602002016020810190610ba49190614686565b73ffffffffffffffffffffffffffffffffffffffff166370a08231856040518263ffffffff1660e01b8152600401610bdc9190614e69565b60206040518083038186803b158015610bf457600080fd5b505afa158015610c08573d6000803e3d6000fd5b505050506040513d601f19601f82011682018060405250810190610c2c9190614bd5565b9050610c6c868680806020026020016040519081016040528093929190818152602001838360200280828437600092019190915250889250613895915050565b86610d428288887fffffffffffffffffffffffffffffffffffffffffffffffffffffffffffffffff8101818110610c9f57fe5b9050602002016020810190610cb49190614686565b73ffffffffffffffffffffffffffffffffffffffff166370a08231886040518263ffffffff1660e01b8152600401610cec9190614e69565b60206040518083038186803b158015610d0457600080fd5b505afa158015610d18573d6000803e3d6000fd5b505050506040513d601f19601f82011682018060405250810190610d3c9190614bd5565b90613aee565b1015610d7a576040517f08c379a00000000000000000000000000000000000000000000000000000000081526004016105899061520c565b5050505050505050565b60608142811015610dc1576040517f08c379a000000000000000000000000000000000000000000000000000000000815260040161058990615076565b73ffffffffffffffffffffffffffffffffffffffff7f00000000000000000000000000000000000000000000000000000000000000001686867fffffffffffffffffffffffffffffffffffffffffffffffffffffffffffffffff8101818110610e2657fe5b9050602002016020810190610e3b9190614686565b73ffffffffffffffffffffffffffffffffffffffff1614610e88576040517f08c379a00000000000000000000000000000000000000000000000000000000081526004016105899061503f565b6000610eb67f00000000000000000000000000000000000000000000000000000000000000008a8989613b31565b80945081925050508783600081518110610ecc57fe5b602002602001015111156106e0576040517f08c379a0000000000000000000000000000000000000000000000000000000008152600401610589906152fd565b600080610f5a7f00000000000000000000000000000000000000000000000000000000000000008c7f0000000000000000000000000000000000000000000000000000000000000000613692565b9050600086610f69578a610f8b565b7fffffffffffffffffffffffffffffffffffffffffffffffffffffffffffffffff5b6040517fd505accf00000000000000000000000000000000000000000000000000000000815290915073ffffffffffffffffffffffffffffffffffffffff83169063d505accf90610fec903390309086908e908d908d908d90600401614e8a565b600060405180830381600087803b15801561100657600080fd5b505af115801561101a573d6000803e3d6000fd5b5050505061102e8c8c8c6000808e8e611669565b9c9b505050505050505050505050565b600080600061104b6145a9565b6040517f2f380b3500000000000000000000000000000000000000000000000000000000815273ffffffffffffffffffffffffffffffffffffffff7f00000000000000000000000000000000000000000000000000000000000000001690632f380b35906110bd908a906004016155d0565b60e06040518083038186803b1580156110d557600080fd5b505afa1580156110e9573d6000803e3d6000fd5b505050506040513d601f19601f8201168201806040525081019061110d9190614894565b90925090503373ffffffffffffffffffffffffffffffffffffffff831614611161576040517f08c379a00000000000000000000000000000000000000000000000000000000081526004016105899061535a565b60038160a00151600581111561117357fe5b10156111ab576040517f08c379a0000000000000000000000000000000000000000000000000000000008152600401610589906150ad565b805160208201516040517f883d273000000000000000000000000000000000000000000000000000000000815273ffffffffffffffffffffffffffffffffffffffff7f0000000000000000000000000000000000000000000000000000000000000000169063883d27309061122a90859085908d908d90600401614f30565b6040805180830381600087803b15801561124357600080fd5b505af1158015611257573d6000803e3d6000fd5b505050506040513d601f19601f8201168201806040525081019061127b91906146c5565b909a909950975050505050505050565b606081428110156112c8576040517f08c379a000000000000000000000000000000000000000000000000000000000815260040161058990615076565b7f000000000000000000000000000000000000000000000000000000000000000073ffffffffffffffffffffffffffffffffffffffff168686600081811061130c57fe5b90506020020160208101906113219190614686565b73ffffffffffffffffffffffffffffffffffffffff161461136e576040517f08c379a00000000000000000000000000000000000000000000000000000000081526004016105899061503f565b600061139c7f00000000000000000000000000000000000000000000000000000000000000003489896131a9565b809450819250505087836001855103815181106113b557fe5b602002602001015110156113f5576040517f08c379a00000000000000000000000000000000000000000000000000000000081526004016105899061520c565b7f000000000000000000000000000000000000000000000000000000000000000073ffffffffffffffffffffffffffffffffffffffff1663d0e30db08460008151811061143e57fe5b60200260200101516040518263ffffffff1660e01b81526004016000604051808303818588803b15801561147157600080fd5b505af1158015611485573d6000803e3d6000fd5b50505050507f000000000000000000000000000000000000000000000000000000000000000073ffffffffffffffffffffffffffffffffffffffff1663a9059cbb82856000815181106114d457fe5b60200260200101516040518363ffffffff1660e01b81526004016114f9929190614f67565b602060405180830381600087803b15801561151357600080fd5b505af1158015611527573d6000803e3d6000fd5b505050506040513d601f19601f8201168201806040525081019061154b9190614b35565b61155157fe5b611590838888808060200260200160405190810160405280939291908181526020018383602002808284376000920191909152508a925061344f915050565b505095945050505050565b6000610544848484613ca7565b606081428110156115e5576040517f08c379a000000000000000000000000000000000000000000000000000000000815260040161058990615076565b60006116137f00000000000000000000000000000000000000000000000000000000000000008a8989613b31565b8094508192505050878360008151811061162957fe5b60200260200101511115610a3c576040517f08c379a0000000000000000000000000000000000000000000000000000000008152600401610589906152fd565b600081428110156116a6576040517f08c379a000000000000000000000000000000000000000000000000000000000815260040161058990615076565b6116d6897f00000000000000000000000000000000000000000000000000000000000000008a8a8a8a308a611843565b6040517f70a0823100000000000000000000000000000000000000000000000000000000815290935061178991508a90869073ffffffffffffffffffffffffffffffffffffffff8316906370a0823190611734903090600401614e69565b60206040518083038186803b15801561174c57600080fd5b505afa158015611760573d6000803e3d6000fd5b505050506040513d601f19601f820116820180604052508101906117849190614bd5565b613d56565b6040517f2e1a7d4d00000000000000000000000000000000000000000000000000000000815273ffffffffffffffffffffffffffffffffffffffff7f00000000000000000000000000000000000000000000000000000000000000001690632e1a7d4d906117fb9085906004016155d0565b600060405180830381600087803b15801561181557600080fd5b505af1158015611829573d6000803e3d6000fd5b5050505061183784836135d9565b50979650505050505050565b6000808242811015611881576040517f08c379a000000000000000000000000000000000000000000000000000000000815260040161058990615076565b8815611a0a5760006118b47f00000000000000000000000000000000000000000000000000000000000000008d8d613692565b6040517f23b872dd00000000000000000000000000000000000000000000000000000000815290915073ffffffffffffffffffffffffffffffffffffffff8216906323b872dd9061190d90339085908f90600401614ed8565b602060405180830381600087803b15801561192757600080fd5b505af115801561193b573d6000803e3d6000fd5b505050506040513d601f19601f8201168201806040525081019061195f9190614b35565b506040517f89afcb4400000000000000000000000000000000000000000000000000000000815273ffffffffffffffffffffffffffffffffffffffff8216906389afcb44906119b2908990600401614e69565b6040805180830381600087803b1580156119cb57600080fd5b505af11580156119df573d6000803e3d6000fd5b505050506040513d601f19601f82011682018060405250810190611a039190614cd3565b9094509250505b8715611b84576000611a3d7f00000000000000000000000000000000000000000000000000000000000000008c8e613692565b6040517f23b872dd00000000000000000000000000000000000000000000000000000000815290915073ffffffffffffffffffffffffffffffffffffffff8216906323b872dd90611a9690339085908e90600401614ed8565b602060405180830381600087803b158015611ab057600080fd5b505af1158015611ac4573d6000803e3d6000fd5b505050506040513d601f19601f82011682018060405250810190611ae89190614b35565b506000808273ffffffffffffffffffffffffffffffffffffffff166389afcb44896040518263ffffffff1660e01b8152600401611b259190614e69565b6040805180830381600087803b158015611b3e57600080fd5b505af1158015611b52573d6000803e3d6000fd5b505050506040513d601f19601f82011682018060405250810190611b769190614cd3565b969096019594909401935050505b86831015611bbe576040517f08c379a0000000000000000000000000000000000000000000000000000000008152600401610589906154df565b85821015611bf8576040517f08c379a000000000000000000000000000000000000000000000000000000000815260040161058990615391565b509850989650505050505050565b8042811015611c41576040517f08c379a000000000000000000000000000000000000000000000000000000000815260040161058990615076565b73ffffffffffffffffffffffffffffffffffffffff7f00000000000000000000000000000000000000000000000000000000000000001685857fffffffffffffffffffffffffffffffffffffffffffffffffffffffffffffffff8101818110611ca657fe5b9050602002016020810190611cbb9190614686565b73ffffffffffffffffffffffffffffffffffffffff1614611d08576040517f08c379a00000000000000000000000000000000000000000000000000000000081526004016105899061503f565b611d1885856000818110610ad657fe5b611d56858580806020026020016040519081016040528093929190818152602001838360200280828437600092019190915250309250613895915050565b6040517f70a0823100000000000000000000000000000000000000000000000000000000815260009073ffffffffffffffffffffffffffffffffffffffff7f000000000000000000000000000000000000000000000000000000000000000016906370a0823190611dcb903090600401614e69565b60206040518083038186803b158015611de357600080fd5b505afa158015611df7573d6000803e3d6000fd5b505050506040513d601f19601f82011682018060405250810190611e1b9190614bd5565b905086811015611e57576040517f08c379a00000000000000000000000000000000000000000000000000000000081526004016105899061520c565b6040517f2e1a7d4d00000000000000000000000000000000000000000000000000000000815273ffffffffffffffffffffffffffffffffffffffff7f00000000000000000000000000000000000000000000000000000000000000001690632e1a7d4d90611ec99084906004016155d0565b600060405180830381600087803b158015611ee357600080fd5b505af1158015611ef7573d6000803e3d6000fd5b50505050610d7a84826135d9565b7f000000000000000000000000000000000000000000000000000000000000000081565b6000610544848484613e80565b6000808242811015611f74576040517f08c379a000000000000000000000000000000000000000000000000000000000815260040161058990615076565b611fa48a7f00000000000000000000000000000000000000000000000000000000000000008b8b8b8b308b611843565b9093509150611fb48a8685613d56565b6040517f2e1a7d4d00000000000000000000000000000000000000000000000000000000815273ffffffffffffffffffffffffffffffffffffffff7f00000000000000000000000000000000000000000000000000000000000000001690632e1a7d4d906120269085906004016155d0565b600060405180830381600087803b15801561204057600080fd5b505af1158015612054573d6000803e3d6000fd5b5050505061206285836135d9565b5097509795505050505050565b60008060008084428110156120b0576040517f08c379a000000000000000000000000000000000000000000000000000000000815260040161058990615076565b60648811156120eb576040517f08c379a0000000000000000000000000000000000000000000000000000000008152600401610589906153ee565b87156121f257600060646120ff8c8b613f1c565b8161210657fe5b04935060646121158b8b613f1c565b8161211c57fe5b04925061212b8d8d8686613f6d565b9197509550905061213e8d338389613322565b61214a8c338388613322565b6040517f6a62784200000000000000000000000000000000000000000000000000000000815273ffffffffffffffffffffffffffffffffffffffff821690636a6278429061219c908b90600401614e69565b602060405180830381600087803b1580156121b657600080fd5b505af11580156121ca573d6000803e3d6000fd5b505050506040513d601f19601f820116820180604052508101906121ee9190614bd5565b9350505b606488146122dc57600061220c8c8e878d03898f03613f6d565b909c50909a5090506122208d33838e613322565b61222c8c33838d613322565b6040517f6a62784200000000000000000000000000000000000000000000000000000000815273ffffffffffffffffffffffffffffffffffffffff821690636a6278429061227e908b90600401614e69565b602060405180830381600087803b15801561229857600080fd5b505af11580156122ac573d6000803e3d6000fd5b505050506040513d601f19601f820116820180604052508101906122d09190614bd5565b958b0195948a01949250505b50975097509750979350505050565b7f000000000000000000000000000000000000000000000000000000000000000081565b804281101561234a576040517f08c379a000000000000000000000000000000000000000000000000000000000815260040161058990615076565b7f000000000000000000000000000000000000000000000000000000000000000073ffffffffffffffffffffffffffffffffffffffff168585600081811061238e57fe5b90506020020160208101906123a39190614686565b73ffffffffffffffffffffffffffffffffffffffff16146123f0576040517f08c379a00000000000000000000000000000000000000000000000000000000081526004016105899061503f565b60003490507f000000000000000000000000000000000000000000000000000000000000000073ffffffffffffffffffffffffffffffffffffffff1663d0e30db0826040518263ffffffff1660e01b81526004016000604051808303818588803b15801561245d57600080fd5b505af1158015612471573d6000803e3d6000fd5b50505050507f000000000000000000000000000000000000000000000000000000000000000073ffffffffffffffffffffffffffffffffffffffff1663a9059cbb6124e37f000000000000000000000000000000000000000000000000000000000000000089896000818110610b1d57fe5b836040518363ffffffff1660e01b8152600401612501929190614f67565b602060405180830381600087803b15801561251b57600080fd5b505af115801561252f573d6000803e3d6000fd5b505050506040513d601f19601f820116820180604052508101906125539190614b35565b61255957fe5b600086867fffffffffffffffffffffffffffffffffffffffffffffffffffffffffffffffff810181811061258957fe5b905060200201602081019061259e9190614686565b73ffffffffffffffffffffffffffffffffffffffff166370a08231866040518263ffffffff1660e01b81526004016125d69190614e69565b60206040518083038186803b1580156125ee57600080fd5b505afa158015612602573d6000803e3d6000fd5b505050506040513d601f19601f820116820180604052508101906126269190614bd5565b9050612666878780806020026020016040519081016040528093929190818152602001838360200280828437600092019190915250899250613895915050565b87610d428289897fffffffffffffffffffffffffffffffffffffffffffffffffffffffffffffffff810181811061269957fe5b90506020020160208101906126ae9190614686565b73ffffffffffffffffffffffffffffffffffffffff166370a08231896040518263ffffffff1660e01b8152600401610cec9190614e69565b60008060006127367f00000000000000000000000000000000000000000000000000000000000000008e7f0000000000000000000000000000000000000000000000000000000000000000613692565b9050600087612745578c612767565b7fffffffffffffffffffffffffffffffffffffffffffffffffffffffffffffffff5b6040517fd505accf00000000000000000000000000000000000000000000000000000000815290915073ffffffffffffffffffffffffffffffffffffffff83169063d505accf906127c8903390309086908f908e908e908e90600401614e8a565b600060405180830381600087803b1580156127e257600080fd5b505af11580156127f6573d6000803e3d6000fd5b5050505061280a8e8e60008f8f8f8f611f36565b909f909e509c50505050505050505050505050565b7f000000000000000000000000000000000000000000000000000000000000000081565b60606105447f000000000000000000000000000000000000000000000000000000000000000085858561417f565b606081428110156128ae576040517f08c379a000000000000000000000000000000000000000000000000000000000815260040161058990615076565b7f000000000000000000000000000000000000000000000000000000000000000073ffffffffffffffffffffffffffffffffffffffff16868660008181106128f257fe5b90506020020160208101906129079190614686565b73ffffffffffffffffffffffffffffffffffffffff1614612954576040517f08c379a00000000000000000000000000000000000000000000000000000000081526004016105899061503f565b60006129827f0000000000000000000000000000000000000000000000000000000000000000898989613b31565b8094508192505050348360008151811061299857fe5b602002602001015111156129d8576040517f08c379a0000000000000000000000000000000000000000000000000000000008152600401610589906152fd565b7f000000000000000000000000000000000000000000000000000000000000000073ffffffffffffffffffffffffffffffffffffffff1663d0e30db084600081518110612a2157fe5b60200260200101516040518263ffffffff1660e01b81526004016000604051808303818588803b158015612a5457600080fd5b505af1158015612a68573d6000803e3d6000fd5b50505050507f000000000000000000000000000000000000000000000000000000000000000073ffffffffffffffffffffffffffffffffffffffff1663a9059cbb8285600081518110612ab757fe5b60200260200101516040518363ffffffff1660e01b8152600401612adc929190614f67565b602060405180830381600087803b158015612af657600080fd5b505af1158015612b0a573d6000803e3d6000fd5b505050506040513d601f19601f82011682018060405250810190612b2e9190614b35565b612b3457fe5b612b73838888808060200260200160405190810160405280939291908181526020018383602002808284376000920191909152508a925061344f915050565b82600081518110612b8057fe5b6020026020010151341115611590576115903384600081518110612ba057fe5b602002602001015134036135d9565b6000806000808442811015612bf0576040517f08c379a000000000000000000000000000000000000000000000000000000000815260040161058990615076565b6064881115612c2b576040517f08c379a0000000000000000000000000000000000000000000000000000000008152600401610589906153ee565b8715612e8d576000612c858b7f00000000000000000000000000000000000000000000000000000000000000006064612c648e8e613f1c565b81612c6b57fe5b046064612c78348f613f1c565b81612c7f57fe5b04613f6d565b91975095509050612c988b338389613322565b7f000000000000000000000000000000000000000000000000000000000000000073ffffffffffffffffffffffffffffffffffffffff1663d0e30db0866040518263ffffffff1660e01b81526004016000604051808303818588803b158015612d0057600080fd5b505af1158015612d14573d6000803e3d6000fd5b50506040517fa9059cbb00000000000000000000000000000000000000000000000000000000815273ffffffffffffffffffffffffffffffffffffffff7f000000000000000000000000000000000000000000000000000000000000000016935063a9059cbb9250612d8d915084908990600401614f67565b602060405180830381600087803b158015612da757600080fd5b505af1158015612dbb573d6000803e3d6000fd5b505050506040513d601f19601f82011682018060405250810190612ddf9190614b35565b612de557fe5b6040517f6a62784200000000000000000000000000000000000000000000000000000000815273ffffffffffffffffffffffffffffffffffffffff821690636a62784290612e37908b90600401614e69565b602060405180830381600087803b158015612e5157600080fd5b505af1158015612e65573d6000803e3d6000fd5b505050506040513d601f19601f82011682018060405250810190612e899190614bd5565b9350505b606488146130d757600080612ec87f00000000000000000000000000000000000000000000000000000000000000008d8834038a8f03613f6d565b909c5092509050612edb8c33848e613322565b7f000000000000000000000000000000000000000000000000000000000000000073ffffffffffffffffffffffffffffffffffffffff1663d0e30db0826040518263ffffffff1660e01b81526004016000604051808303818588803b158015612f4357600080fd5b505af1158015612f57573d6000803e3d6000fd5b50506040517fa9059cbb00000000000000000000000000000000000000000000000000000000815273ffffffffffffffffffffffffffffffffffffffff7f000000000000000000000000000000000000000000000000000000000000000016935063a9059cbb9250612fd0915085908590600401614f67565b602060405180830381600087803b158015612fea57600080fd5b505af1158015612ffe573d6000803e3d6000fd5b505050506040513d601f19601f820116820180604052508101906130229190614b35565b61302857fe5b6040517f6a62784200000000000000000000000000000000000000000000000000000000815273ffffffffffffffffffffffffffffffffffffffff831690636a6278429061307a908c90600401614e69565b602060405180830381600087803b15801561309457600080fd5b505af11580156130a8573d6000803e3d6000fd5b505050506040513d601f19601f820116820180604052508101906130cc9190614bd5565b968b01969501949250505b833411156130eb576130eb338534036135d9565b5095509550955095915050565b6000808411613133576040517f08c379a0000000000000000000000000000000000000000000000000000000008152600401610589906151af565b6000831180156131435750600082115b613179576040517f08c379a00000000000000000000000000000000000000000000000000000000081526004016105899061511b565b60006131858584613f1c565b9050600061319385876142c6565b905080828161319e57fe5b049695505050505050565b6000606060028310156131e8576040517f08c379a0000000000000000000000000000000000000000000000000000000008152600401610589906152c6565b8267ffffffffffffffff811180156131ff57600080fd5b50604051908082528060200260200182016040528015613229578160200160208202803683370190505b509050848160008151811061323a57fe5b60200260200101818152505060005b7fffffffffffffffffffffffffffffffffffffffffffffffffffffffffffffffff84018110156133185760008060006132c68a89898781811061328857fe5b905060200201602081019061329d9190614686565b8a8a886001018181106132ac57fe5b90506020020160208101906132c19190614686565b614303565b9250925092506132ea8585815181106132db57fe5b602002602001015184846130f8565b8585600101815181106132f957fe5b60209081029190910101528361330d578095505b505050600101613249565b5094509492505050565b600060608573ffffffffffffffffffffffffffffffffffffffff166323b872dd86868660405160240161335793929190614ed8565b6040516020818303038152906040529060e01b6020820180517bffffffffffffffffffffffffffffffffffffffffffffffffffffffff83818316178352505050506040516133a59190614dcc565b6000604051808303816000865af19150503d80600081146133e2576040519150601f19603f3d011682016040523d82523d6000602084013e6133e7565b606091505b50915091508180156134115750805115806134115750808060200190518101906134119190614b35565b613447576040517f08c379a00000000000000000000000000000000000000000000000000000000081526004016105899061553c565b505050505050565b60005b60018351038110156135d35760008084838151811061346d57fe5b602002602001015185846001018151811061348457fe5b60200260200101519150915060008684600101815181106134a157fe5b602002602001015190506000600287510385106134be57856134ff565b6134ff7f0000000000000000000000000000000000000000000000000000000000000000848988600201815181106134f257fe5b6020026020010151613692565b905061352c7f00000000000000000000000000000000000000000000000000000000000000008585613692565b604080516000815260208101918290527f1c6da7240000000000000000000000000000000000000000000000000000000090915273ffffffffffffffffffffffffffffffffffffffff9190911690631c6da724906135919085908590602481016155d9565b600060405180830381600087803b1580156135ab57600080fd5b505af11580156135bf573d6000803e3d6000fd5b505060019096019550613452945050505050565b50505050565b6040805160008082526020820190925273ffffffffffffffffffffffffffffffffffffffff84169083906040516136109190614dcc565b60006040518083038185875af1925050503d806000811461364d576040519150601f19603f3d011682016040523d82523d6000602084013e613652565b606091505b505090508061368d576040517f08c379a000000000000000000000000000000000000000000000000000000000815260040161058990615425565b505050565b60008383836040516020016136a8929190614d92565b604051602081830303815290604052805190602001206040516020016136cf929190614de8565b604080517fffffffffffffffffffffffffffffffffffffffffffffffffffffffffffffffe08184030181529190528051602090910120949350505050565b6060600282101561374a576040517f08c379a0000000000000000000000000000000000000000000000000000000008152600401610589906152c6565b8167ffffffffffffffff8111801561376157600080fd5b5060405190808252806020026020018201604052801561378b578160200160208202803683370190505b509050838160018351038151811061379f57fe5b60209081029190910101527fffffffffffffffffffffffffffffffffffffffffffffffffffffffffffffffff82015b801561388c57600080613825888787600187038181106137ea57fe5b90506020020160208101906137ff9190614686565b88888781811061380b57fe5b90506020020160208101906138209190614686565b6144f2565b50509150915061384984848151811061383a57fe5b60200260200101518383613ca7565b84600185038151811061385857fe5b602090810291909101015250507fffffffffffffffffffffffffffffffffffffffffffffffffffffffffffffffff016137ce565b50949350505050565b60005b600183510381101561368d576000808483815181106138b357fe5b60200260200101518584600101815181106138ca57fe5b60200260200101519150915060006139037f00000000000000000000000000000000000000000000000000000000000000008484613692565b90506000806000808473ffffffffffffffffffffffffffffffffffffffff16630902f1ac6040518163ffffffff1660e01b815260040160806040518083038186803b15801561395157600080fd5b505afa158015613965573d6000803e3d6000fd5b505050506040513d601f19601f820116820180604052508101906139899190614b7f565b50506dffffffffffffffffffffffffffff1691506dffffffffffffffffffffffffffff1691506139ec828873ffffffffffffffffffffffffffffffffffffffff166370a08231886040518263ffffffff1660e01b8152600401610cec9190614e69565b93506139f98483836130f8565b92505050600060028951038710613a105787613a44565b613a447f0000000000000000000000000000000000000000000000000000000000000000868b8a600201815181106134f257fe5b604080516000815260208101918290527f1c6da7240000000000000000000000000000000000000000000000000000000090915290915073ffffffffffffffffffffffffffffffffffffffff851690631c6da72490613aaa9085908590602481016155d9565b600060405180830381600087803b158015613ac457600080fd5b505af1158015613ad8573d6000803e3d6000fd5b5050600190980197506138989650505050505050565b80820382811115613b2b576040517f08c379a000000000000000000000000000000000000000000000000000000000815260040161058990614fd1565b92915050565b600060606002831015613b70576040517f08c379a0000000000000000000000000000000000000000000000000000000008152600401610589906152c6565b8267ffffffffffffffff81118015613b8757600080fd5b50604051908082528060200260200182016040528015613bb1578160200160208202803683370190505b5090508481600183510381518110613bc557fe5b60209081029190910101526000807fffffffffffffffffffffffffffffffffffffffffffffffffffffffffffffffff85015b8015613c9b57613c3189888860018503818110613c1057fe5b9050602002016020810190613c259190614686565b8989858181106132ac57fe5b86519097509194509250613c5a90859083908110613c4b57fe5b60200260200101518484613ca7565b846001830381518110613c6957fe5b60209081029190910101527fffffffffffffffffffffffffffffffffffffffffffffffffffffffffffffffff01613bf7565b50505094509492505050565b6000808411613ce2576040517f08c379a000000000000000000000000000000000000000000000000000000000815260040161058990615482565b600083118015613cf25750600082115b613d28576040517f08c379a00000000000000000000000000000000000000000000000000000000081526004016105899061511b565b6000613d348486613f1c565b90506000613d428487613aee565b905080613d4f83826142c6565b8161319e57fe5b600060608473ffffffffffffffffffffffffffffffffffffffff1663a9059cbb8585604051602401613d89929190614f67565b6040516020818303038152906040529060e01b6020820180517bffffffffffffffffffffffffffffffffffffffffffffffffffffffff8381831617835250505050604051613dd79190614dcc565b6000604051808303816000865af19150503d8060008114613e14576040519150601f19603f3d011682016040523d82523d6000602084013e613e19565b606091505b5091509150818015613e43575080511580613e43575080806020019051810190613e439190614b35565b613e79576040517f08c379a000000000000000000000000000000000000000000000000000000000815260040161058990615008565b5050505050565b6000808411613ebb576040517f08c379a000000000000000000000000000000000000000000000000000000000815260040161058990615269565b600083118015613ecb5750600082115b613f01576040517f08c379a00000000000000000000000000000000000000000000000000000000081526004016105899061511b565b82613f0c8584613f1c565b81613f1357fe5b04949350505050565b6000811580613f3757505080820282828281613f3457fe5b04145b613b2b576040517f08c379a0000000000000000000000000000000000000000000000000000000008152600401610589906150e4565b60008060007f000000000000000000000000000000000000000000000000000000000000000073ffffffffffffffffffffffffffffffffffffffff1663e6a4390588886040518363ffffffff1660e01b8152600401613fcd929190614f09565b60206040518083038186803b158015613fe557600080fd5b505afa158015613ff9573d6000803e3d6000fd5b505050506040513d601f19601f8201168201806040525081019061401d91906146a9565b905073ffffffffffffffffffffffffffffffffffffffff811661406c576040517f08c379a000000000000000000000000000000000000000000000000000000000815260040161058990615599565b6000808273ffffffffffffffffffffffffffffffffffffffff16630902f1ac6040518163ffffffff1660e01b815260040160806040518083038186803b1580156140b557600080fd5b505afa1580156140c9573d6000803e3d6000fd5b505050506040513d601f19601f820116820180604052508101906140ed9190614b7f565b50506dffffffffffffffffffffffffffff1691506dffffffffffffffffffffffffffff169150816000148015614121575080155b1561413157869450859350614173565b600061413e888484613e80565b905086811161415257879550935083614171565b600061415f888486613e80565b90508881111561416b57fe5b95508694505b505b50509450945094915050565b606060028210156141bc576040517f08c379a0000000000000000000000000000000000000000000000000000000008152600401610589906152c6565b8167ffffffffffffffff811180156141d357600080fd5b506040519080825280602002602001820160405280156141fd578160200160208202803683370190505b509050838160008151811061420e57fe5b60200260200101818152505060005b7fffffffffffffffffffffffffffffffffffffffffffffffffffffffffffffffff830181101561388c5760008061427e8887878681811061425a57fe5b905060200201602081019061426f9190614686565b88888760010181811061380b57fe5b5050915091506142a284848151811061429357fe5b602002602001015183836130f8565b8484600101815181106142b157fe5b6020908102919091010152505060010161421d565b80820182811015613b2b576040517f08c379a000000000000000000000000000000000000000000000000000000000815260040161058990615178565b60008060006143138686866144f2565b5091945092509050600080808061432b8a898b6144f2565b9296509094509250905060006143418886613f1c565b9050600061434f8886613f1c565b905061435b8184613f1c565b61436783612710613f1c565b11156144e35760006143798383613aee565b90506000614392600261438c8d8a6142c6565b90613f1c565b905060006143a5600261438c8d8c6142c6565b90506143bc8e8b898487816143b657fe5b04613322565b6143cb8d888c8587816143b657fe5b8973ffffffffffffffffffffffffffffffffffffffff1663fff6cae96040518163ffffffff1660e01b81526004016040805180830381600087803b15801561441257600080fd5b505af1158015614426573d6000803e3d6000fd5b505050506040513d601f19601f8201168201806040525081019061444a9190614b51565b50508673ffffffffffffffffffffffffffffffffffffffff1663fff6cae96040518163ffffffff1660e01b81526004016040805180830381600087803b15801561449357600080fd5b505af11580156144a7573d6000803e3d6000fd5b505050506040513d601f19601f820116820180604052508101906144cb9190614b51565b50506144d88f8f8f6144f2565b50919d509b50505050505b50505050505093509350939050565b600080600080614503878787613692565b91508173ffffffffffffffffffffffffffffffffffffffff16630902f1ac6040518163ffffffff1660e01b815260040160806040518083038186803b15801561454b57600080fd5b505afa15801561455f573d6000803e3d6000fd5b505050506040513d601f19601f820116820180604052508101906145839190614b7f565b6dffffffffffffffffffffffffffff9384169b9290931699509397509095509350505050565b6040805160c08101825260008082526020820181905291810182905260608101829052608081018290529060a082015290565b8051613b2b816156a3565b60008083601f8401126145f8578182fd5b50813567ffffffffffffffff81111561460f578182fd5b602083019150836020808302850101111561462957600080fd5b9250929050565b805160068110613b2b57600080fd5b80516dffffffffffffffffffffffffffff81168114613b2b57600080fd5b805167ffffffffffffffff81168114613b2b57600080fd5b803560ff81168114613b2b57600080fd5b600060208284031215614697578081fd5b81356146a2816156a3565b9392505050565b6000602082840312156146ba578081fd5b81516146a2816156a3565b600080604083850312156146d7578081fd5b82516146e2816156a3565b60208401519092506146f3816156a3565b809150509250929050565b600080600080600080600060e0888a031215614718578283fd5b8735614723816156a3565b96506020880135614733816156a3565b955060408801359450606088013593506080880135925060a0880135614758816156a3565b8092505060c0880135905092959891949750929550565b60008060008060008060008060008060006101608c8e031215614790578384fd5b8b3561479b816156a3565b9a5060208c01356147ab816156a3565b995060408c0135985060608c0135975060808c0135965060a08c01356147d0816156a3565b955060c08c0135945060e08c01356147e7816156c8565b93506147f78d6101008e01614675565b92506101208c013591506101408c013590509295989b509295989b9093969950565b600080600080600080600080610100898b031215614835578384fd5b8835614840816156a3565b97506020890135614850816156a3565b965060408901359550606089013594506080890135935060a0890135925060c089013561487c816156a3565b8092505060e089013590509295985092959890939650565b60008082840360e08112156148a7578283fd5b83516148b2816156a3565b925060c07fffffffffffffffffffffffffffffffffffffffffffffffffffffffffffffffe0820112156148e3578182fd5b5060405160c0810181811067ffffffffffffffff82111715614903578283fd5b60405261491385602086016145dc565b815261492285604086016145dc565b60208201526060840151604082015261493e856080860161465d565b60608201526149508560a0860161465d565b60808201526149628560c08601614630565b60a0820152809150509250929050565b600080600080600060a08688031215614989578283fd5b8535614994816156a3565b9450602086013593506040860135925060608601356149b2816156a3565b949793965091946080013592915050565b60008060008060008060008060006101208a8c0312156149e1578283fd5b89356149ec816156a3565b985060208a0135975060408a0135965060608a0135614a0a816156a3565b955060808a0135945060a08a0135614a21816156c8565b9350614a308b60c08c01614675565b925060e08a013591506101008a013590509295985092959850929598565b6000806000806000806000806000806101408b8d031215614a6d578384fd5b8a35614a78816156a3565b995060208b0135985060408b0135975060608b0135965060808b0135614a9d816156a3565b955060a08b0135945060c08b0135614ab4816156c8565b9350614ac38c60e08d01614675565b92506101008b013591506101208b013590509295989b9194979a5092959850565b600080600080600080600060e0888a031215614afe578081fd5b8735614b09816156a3565b96506020880135955060408801359450606088013593506080880135925060a0880135614758816156a3565b600060208284031215614b46578081fd5b81516146a2816156c8565b60008060408385031215614b63578182fd5b8251614b6e816156d6565b60208401519092506146f3816156d6565b60008060008060808587031215614b94578182fd5b614b9e868661463f565b9350614bad866020870161463f565b9250604085015163ffffffff81168114614bc5578283fd5b6060959095015193969295505050565b600060208284031215614be6578081fd5b5051919050565b600080600060608486031215614c01578081fd5b833592506020840135614c13816156a3565b929592945050506040919091013590565b600080600060408486031215614c38578081fd5b83359250602084013567ffffffffffffffff811115614c55578182fd5b614c61868287016145e7565b9497909650939450505050565b600080600080600060808688031215614c85578283fd5b85359450602086013567ffffffffffffffff811115614ca2578384fd5b614cae888289016145e7565b9095509350506040860135614cc2816156a3565b949793965091946060013592915050565b60008060408385031215614ce5578182fd5b505080516020909101519092909150565b60008060008060008060a08789031215614d0e578384fd5b8635955060208701359450604087013567ffffffffffffffff811115614d32578485fd5b614d3e89828a016145e7565b9095509350506060870135614d52816156a3565b80925050608087013590509295509295509295565b600080600060608486031215614d7b578081fd5b505081359360208301359350604090920135919050565b7fffffffffffffffffffffffffffffffffffffffff000000000000000000000000606093841b811682529190921b16601482015260280190565b60008251614dde818460208701615677565b9190910192915050565b7fff00000000000000000000000000000000000000000000000000000000000000815260609290921b7fffffffffffffffffffffffffffffffffffffffff00000000000000000000000016600183015260158201527fbaeae6b526d52ab9edea88a8a5991ed61443a0c4d6bea03dc99971664961f4b7603582015260550190565b73ffffffffffffffffffffffffffffffffffffffff91909116815260200190565b73ffffffffffffffffffffffffffffffffffffffff97881681529590961660208601526040850193909352606084019190915260ff16608083015260a082015260c081019190915260e00190565b73ffffffffffffffffffffffffffffffffffffffff9384168152919092166020820152604081019190915260600190565b73ffffffffffffffffffffffffffffffffffffffff92831681529116602082015260400190565b73ffffffffffffffffffffffffffffffffffffffff9485168152928416602084015292166040820152606081019190915260800190565b73ffffffffffffffffffffffffffffffffffffffff929092168252602082015260400190565b6020808252825182820181905260009190848201906040850190845b81811015614fc557835183529284019291840191600101614fa9565b50909695505050505050565b60208082526015908201527f64732d6d6174682d7375622d756e646572666c6f770000000000000000000000604082015260600190565b6020808252601f908201527f5472616e7366657248656c7065723a205452414e534645525f4641494c454400604082015260600190565b6020808252601a908201527f466553776170526f757465723a20494e56414c49445f50415448000000000000604082015260600190565b60208082526015908201527f466553776170526f757465723a20455850495245440000000000000000000000604082015260600190565b60208082526013908201527f4665537761703a204e4f5420414c4c4f57454400000000000000000000000000604082015260600190565b60208082526014908201527f64732d6d6174682d6d756c2d6f766572666c6f77000000000000000000000000604082015260600190565b60208082526025908201527f4665537761704c6962726172793a20494e53554646494349454e545f4c49515560408201527f4944495459000000000000000000000000000000000000000000000000000000606082015260800190565b60208082526014908201527f64732d6d6174682d6164642d6f766572666c6f77000000000000000000000000604082015260600190565b60208082526028908201527f4665537761704c6962726172793a20494e53554646494349454e545f494e505560408201527f545f414d4f554e54000000000000000000000000000000000000000000000000606082015260800190565b60208082526028908201527f466553776170526f757465723a20494e53554646494349454e545f4f5554505560408201527f545f414d4f554e54000000000000000000000000000000000000000000000000606082015260800190565b60208082526022908201527f4665537761704c6962726172793a20494e53554646494349454e545f414d4f5560408201527f4e54000000000000000000000000000000000000000000000000000000000000606082015260800190565b6020808252601b908201527f4665537761704c6962726172793a20494e56414c49445f504154480000000000604082015260600190565b60208082526024908201527f466553776170526f757465723a204558434553534956455f494e5055545f414d60408201527f4f554e5400000000000000000000000000000000000000000000000000000000606082015260800190565b60208082526017908201527f4665537761703a204e4f5420544f4b454e204f574e4552000000000000000000604082015260600190565b60208082526023908201527f466553776170526f757465723a20494e53554646494349454e545f425f414d4f60408201527f554e540000000000000000000000000000000000000000000000000000000000606082015260800190565b60208082526011908201527f4665537761703a20524154494f20454552000000000000000000000000000000604082015260600190565b60208082526023908201527f5472616e7366657248656c7065723a204554485f5452414e534645525f46414960408201527f4c45440000000000000000000000000000000000000000000000000000000000606082015260800190565b60208082526029908201527f4665537761704c6962726172793a20494e53554646494349454e545f4f55545060408201527f55545f414d4f554e540000000000000000000000000000000000000000000000606082015260800190565b60208082526023908201527f466553776170526f757465723a20494e53554646494349454e545f415f414d4f60408201527f554e540000000000000000000000000000000000000000000000000000000000606082015260800190565b60208082526024908201527f5472616e7366657248656c7065723a205452414e534645525f46524f4d5f464160408201527f494c454400000000000000000000000000000000000000000000000000000000606082015260800190565b60208082526013908201527f4665537761703a204e4f54204352454154454400000000000000000000000000604082015260600190565b90815260200190565b600084825273ffffffffffffffffffffffffffffffffffffffff8416602083015260606040830152825180606084015261561a816080850160208701615677565b601f017fffffffffffffffffffffffffffffffffffffffffffffffffffffffffffffffe01691909101608001949350505050565b918252602082015260400190565b93845260208401929092526040830152606082015260800190565b60005b8381101561569257818101518382015260200161567a565b838111156135d35750506000910152565b73ffffffffffffffffffffffffffffffffffffffff811681146156c557600080fd5b50565b80151581146156c557600080fd5b6dffffffffffffffffffffffffffff811681146156c557600080fdfea264697066735822122041f4b4957e4772e5653c3c9221462bccc6b173672ddcc040d0b30600931cbb8764736f6c634300060c0033",
      "opcodes": "PUSH1 0xE0 PUSH1 0x40 MSTORE CALLVALUE DUP1 ISZERO PUSH3 0x11 JUMPI PUSH1 0x0 DUP1 REVERT JUMPDEST POP PUSH1 0x40 MLOAD PUSH3 0x5920 CODESIZE SUB DUP1 PUSH3 0x5920 DUP4 CODECOPY DUP2 ADD PUSH1 0x40 DUP2 SWAP1 MSTORE PUSH3 0x34 SWAP2 PUSH3 0x5C JUMP JUMPDEST PUSH1 0x1 PUSH1 0x1 PUSH1 0x60 SHL SUB NOT PUSH1 0x60 SWAP4 DUP5 SHL DUP2 AND PUSH1 0x80 MSTORE SWAP2 DUP4 SHL DUP3 AND PUSH1 0xA0 MSTORE SWAP1 SWAP2 SHL AND PUSH1 0xC0 MSTORE PUSH3 0xC8 JUMP JUMPDEST PUSH1 0x0 DUP1 PUSH1 0x0 PUSH1 0x60 DUP5 DUP7 SUB SLT ISZERO PUSH3 0x71 JUMPI DUP3 DUP4 REVERT JUMPDEST DUP4 MLOAD PUSH3 0x7E DUP2 PUSH3 0xAF JUMP JUMPDEST PUSH1 0x20 DUP6 ADD MLOAD SWAP1 SWAP4 POP PUSH3 0x91 DUP2 PUSH3 0xAF JUMP JUMPDEST PUSH1 0x40 DUP6 ADD MLOAD SWAP1 SWAP3 POP PUSH3 0xA4 DUP2 PUSH3 0xAF JUMP JUMPDEST DUP1 SWAP2 POP POP SWAP3 POP SWAP3 POP SWAP3 JUMP JUMPDEST PUSH1 0x1 PUSH1 0x1 PUSH1 0xA0 SHL SUB DUP2 AND DUP2 EQ PUSH3 0xC5 JUMPI PUSH1 0x0 DUP1 REVERT JUMPDEST POP JUMP JUMPDEST PUSH1 0x80 MLOAD PUSH1 0x60 SHR PUSH1 0xA0 MLOAD PUSH1 0x60 SHR PUSH1 0xC0 MLOAD PUSH1 0x60 SHR PUSH2 0x5728 PUSH3 0x1F8 PUSH1 0x0 CODECOPY DUP1 PUSH2 0x1C2 MSTORE DUP1 PUSH2 0x5A9 MSTORE DUP1 PUSH2 0x762 MSTORE DUP1 PUSH2 0xDD8 MSTORE DUP1 PUSH2 0xF36 MSTORE DUP1 PUSH2 0x12CA MSTORE DUP1 PUSH2 0x13F7 MSTORE DUP1 PUSH2 0x148C MSTORE DUP1 PUSH2 0x16AC MSTORE DUP1 PUSH2 0x17C6 MSTORE DUP1 PUSH2 0x1C58 MSTORE DUP1 PUSH2 0x1D96 MSTORE DUP1 PUSH2 0x1E94 MSTORE DUP1 PUSH2 0x1F07 MSTORE DUP1 PUSH2 0x1F7A MSTORE DUP1 PUSH2 0x1FF1 MSTORE DUP1 PUSH2 0x234C MSTORE DUP1 PUSH2 0x23F7 MSTORE DUP1 PUSH2 0x2478 MSTORE DUP1 PUSH2 0x2712 MSTORE DUP1 PUSH2 0x28B0 MSTORE DUP1 PUSH2 0x29DA MSTORE DUP1 PUSH2 0x2A6F MSTORE DUP1 PUSH2 0x2C39 MSTORE DUP1 PUSH2 0x2C9A MSTORE DUP1 PUSH2 0x2D53 MSTORE DUP1 PUSH2 0x2E9D MSTORE DUP1 PUSH2 0x2EDD MSTORE DUP1 PUSH2 0x2F96 MSTORE POP DUP1 PUSH2 0x1088 MSTORE DUP1 PUSH2 0x2821 MSTORE POP DUP1 PUSH2 0x660 MSTORE DUP1 PUSH2 0x839 MSTORE DUP1 PUSH2 0x951 MSTORE DUP1 PUSH2 0x9BC MSTORE DUP1 PUSH2 0xAF1 MSTORE DUP1 PUSH2 0xE8F MSTORE DUP1 PUSH2 0xF14 MSTORE DUP1 PUSH2 0x11EF MSTORE DUP1 PUSH2 0x1375 MSTORE DUP1 PUSH2 0x15EC MSTORE DUP1 PUSH2 0x188E MSTORE DUP1 PUSH2 0x1A17 MSTORE DUP1 PUSH2 0x22ED MSTORE DUP1 PUSH2 0x24B7 MSTORE DUP1 PUSH2 0x26F0 MSTORE DUP1 PUSH2 0x284A MSTORE DUP1 PUSH2 0x295B MSTORE DUP1 PUSH2 0x34C3 MSTORE DUP1 PUSH2 0x3506 MSTORE DUP1 PUSH2 0x38DD MSTORE DUP1 PUSH2 0x3A15 MSTORE DUP1 PUSH2 0x3F74 MSTORE POP PUSH2 0x5728 PUSH1 0x0 RETURN INVALID PUSH1 0x80 PUSH1 0x40 MSTORE PUSH1 0x4 CALLDATASIZE LT PUSH2 0x1A5 JUMPI PUSH1 0x0 CALLDATALOAD PUSH1 0xE0 SHR DUP1 PUSH4 0x96ADB337 GT PUSH2 0xE1 JUMPI DUP1 PUSH4 0xC45A0155 GT PUSH2 0x8A JUMPI DUP1 PUSH4 0xEAD86A29 GT PUSH2 0x64 JUMPI DUP1 PUSH4 0xEAD86A29 EQ PUSH2 0x4DC JUMPI DUP1 PUSH4 0xEEF40F31 EQ PUSH2 0x4F1 JUMPI DUP1 PUSH4 0xFB3BDB41 EQ PUSH2 0x511 JUMPI DUP1 PUSH4 0xFFBCF7F3 EQ PUSH2 0x524 JUMPI PUSH2 0x1EB JUMP JUMPDEST DUP1 PUSH4 0xC45A0155 EQ PUSH2 0x494 JUMPI DUP1 PUSH4 0xD57B57A5 EQ PUSH2 0x4A9 JUMPI DUP1 PUSH4 0xDED9382A EQ PUSH2 0x4BC JUMPI PUSH2 0x1EB JUMP JUMPDEST DUP1 PUSH4 0xAD615DEC GT PUSH2 0xBB JUMPI DUP1 PUSH4 0xAD615DEC EQ PUSH2 0x424 JUMPI DUP1 PUSH4 0xBA3690CB EQ PUSH2 0x444 JUMPI DUP1 PUSH4 0xBA9F20B8 EQ PUSH2 0x464 JUMPI PUSH2 0x1EB JUMP JUMPDEST DUP1 PUSH4 0x96ADB337 EQ PUSH2 0x3C2 JUMPI DUP1 PUSH4 0xA59600DB EQ PUSH2 0x3E2 JUMPI DUP1 PUSH4 0xAD5C4648 EQ PUSH2 0x402 JUMPI PUSH2 0x1EB JUMP JUMPDEST DUP1 PUSH4 0x4A25D94A GT PUSH2 0x14E JUMPI DUP1 PUSH4 0x7FF36AB5 GT PUSH2 0x128 JUMPI DUP1 PUSH4 0x7FF36AB5 EQ PUSH2 0x34F JUMPI DUP1 PUSH4 0x85F8C259 EQ PUSH2 0x362 JUMPI DUP1 PUSH4 0x8803DBEE EQ PUSH2 0x382 JUMPI DUP1 PUSH4 0x8DE9D7D2 EQ PUSH2 0x3A2 JUMPI PUSH2 0x1EB JUMP JUMPDEST DUP1 PUSH4 0x4A25D94A EQ PUSH2 0x2E1 JUMPI DUP1 PUSH4 0x573692C1 EQ PUSH2 0x301 JUMPI DUP1 PUSH4 0x6A055FA9 EQ PUSH2 0x321 JUMPI PUSH2 0x1EB JUMP JUMPDEST DUP1 PUSH4 0x2E1DB143 GT PUSH2 0x17F JUMPI DUP1 PUSH4 0x2E1DB143 EQ PUSH2 0x281 JUMPI DUP1 PUSH4 0x38ED1739 EQ PUSH2 0x2A1 JUMPI DUP1 PUSH4 0x3D221B20 EQ PUSH2 0x2C1 JUMPI PUSH2 0x1EB JUMP JUMPDEST DUP1 PUSH4 0x54D50D4 EQ PUSH2 0x1F0 JUMPI DUP1 PUSH4 0x18CBAFE5 EQ PUSH2 0x226 JUMPI DUP1 PUSH4 0x2195995C EQ PUSH2 0x253 JUMPI PUSH2 0x1EB JUMP JUMPDEST CALLDATASIZE PUSH2 0x1EB JUMPI CALLER PUSH20 0xFFFFFFFFFFFFFFFFFFFFFFFFFFFFFFFFFFFFFFFF PUSH32 0x0 AND EQ PUSH2 0x1E9 JUMPI INVALID JUMPDEST STOP JUMPDEST PUSH1 0x0 DUP1 REVERT JUMPDEST CALLVALUE DUP1 ISZERO PUSH2 0x1FC JUMPI PUSH1 0x0 DUP1 REVERT JUMPDEST POP PUSH2 0x210 PUSH2 0x20B CALLDATASIZE PUSH1 0x4 PUSH2 0x4D67 JUMP JUMPDEST PUSH2 0x537 JUMP JUMPDEST PUSH1 0x40 MLOAD PUSH2 0x21D SWAP2 SWAP1 PUSH2 0x55D0 JUMP JUMPDEST PUSH1 0x40 MLOAD DUP1 SWAP2 SUB SWAP1 RETURN JUMPDEST CALLVALUE DUP1 ISZERO PUSH2 0x232 JUMPI PUSH1 0x0 DUP1 REVERT JUMPDEST POP PUSH2 0x246 PUSH2 0x241 CALLDATASIZE PUSH1 0x4 PUSH2 0x4CF6 JUMP JUMPDEST PUSH2 0x54C JUMP JUMPDEST PUSH1 0x40 MLOAD PUSH2 0x21D SWAP2 SWAP1 PUSH2 0x4F8D JUMP JUMPDEST CALLVALUE DUP1 ISZERO PUSH2 0x25F JUMPI PUSH1 0x0 DUP1 REVERT JUMPDEST POP PUSH2 0x273 PUSH2 0x26E CALLDATASIZE PUSH1 0x4 PUSH2 0x476F JUMP JUMPDEST PUSH2 0x82F JUMP JUMPDEST PUSH1 0x40 MLOAD PUSH2 0x21D SWAP3 SWAP2 SWAP1 PUSH2 0x564E JUMP JUMPDEST CALLVALUE DUP1 ISZERO PUSH2 0x28D JUMPI PUSH1 0x0 DUP1 REVERT JUMPDEST POP PUSH2 0x246 PUSH2 0x29C CALLDATASIZE PUSH1 0x4 PUSH2 0x4C24 JUMP JUMPDEST PUSH2 0x94A JUMP JUMPDEST CALLVALUE DUP1 ISZERO PUSH2 0x2AD JUMPI PUSH1 0x0 DUP1 REVERT JUMPDEST POP PUSH2 0x246 PUSH2 0x2BC CALLDATASIZE PUSH1 0x4 PUSH2 0x4CF6 JUMP JUMPDEST PUSH2 0x978 JUMP JUMPDEST CALLVALUE DUP1 ISZERO PUSH2 0x2CD JUMPI PUSH1 0x0 DUP1 REVERT JUMPDEST POP PUSH2 0x1E9 PUSH2 0x2DC CALLDATASIZE PUSH1 0x4 PUSH2 0x4CF6 JUMP JUMPDEST PUSH2 0xA8B JUMP JUMPDEST CALLVALUE DUP1 ISZERO PUSH2 0x2ED JUMPI PUSH1 0x0 DUP1 REVERT JUMPDEST POP PUSH2 0x246 PUSH2 0x2FC CALLDATASIZE PUSH1 0x4 PUSH2 0x4CF6 JUMP JUMPDEST PUSH2 0xD84 JUMP JUMPDEST CALLVALUE DUP1 ISZERO PUSH2 0x30D JUMPI PUSH1 0x0 DUP1 REVERT JUMPDEST POP PUSH2 0x210 PUSH2 0x31C CALLDATASIZE PUSH1 0x4 PUSH2 0x49C3 JUMP JUMPDEST PUSH2 0xF0C JUMP JUMPDEST CALLVALUE DUP1 ISZERO PUSH2 0x32D JUMPI PUSH1 0x0 DUP1 REVERT JUMPDEST POP PUSH2 0x341 PUSH2 0x33C CALLDATASIZE PUSH1 0x4 PUSH2 0x4BED JUMP JUMPDEST PUSH2 0x103E JUMP JUMPDEST PUSH1 0x40 MLOAD PUSH2 0x21D SWAP3 SWAP2 SWAP1 PUSH2 0x4F09 JUMP JUMPDEST PUSH2 0x246 PUSH2 0x35D CALLDATASIZE PUSH1 0x4 PUSH2 0x4C6E JUMP JUMPDEST PUSH2 0x128B JUMP JUMPDEST CALLVALUE DUP1 ISZERO PUSH2 0x36E JUMPI PUSH1 0x0 DUP1 REVERT JUMPDEST POP PUSH2 0x210 PUSH2 0x37D CALLDATASIZE PUSH1 0x4 PUSH2 0x4D67 JUMP JUMPDEST PUSH2 0x159B JUMP JUMPDEST CALLVALUE DUP1 ISZERO PUSH2 0x38E JUMPI PUSH1 0x0 DUP1 REVERT JUMPDEST POP PUSH2 0x246 PUSH2 0x39D CALLDATASIZE PUSH1 0x4 PUSH2 0x4CF6 JUMP JUMPDEST PUSH2 0x15A8 JUMP JUMPDEST CALLVALUE DUP1 ISZERO PUSH2 0x3AE JUMPI PUSH1 0x0 DUP1 REVERT JUMPDEST POP PUSH2 0x210 PUSH2 0x3BD CALLDATASIZE PUSH1 0x4 PUSH2 0x4AE4 JUMP JUMPDEST PUSH2 0x1669 JUMP JUMPDEST CALLVALUE DUP1 ISZERO PUSH2 0x3CE JUMPI PUSH1 0x0 DUP1 REVERT JUMPDEST POP PUSH2 0x273 PUSH2 0x3DD CALLDATASIZE PUSH1 0x4 PUSH2 0x4819 JUMP JUMPDEST PUSH2 0x1843 JUMP JUMPDEST CALLVALUE DUP1 ISZERO PUSH2 0x3EE JUMPI PUSH1 0x0 DUP1 REVERT JUMPDEST POP PUSH2 0x1E9 PUSH2 0x3FD CALLDATASIZE PUSH1 0x4 PUSH2 0x4CF6 JUMP JUMPDEST PUSH2 0x1C06 JUMP JUMPDEST CALLVALUE DUP1 ISZERO PUSH2 0x40E JUMPI PUSH1 0x0 DUP1 REVERT JUMPDEST POP PUSH2 0x417 PUSH2 0x1F05 JUMP JUMPDEST PUSH1 0x40 MLOAD PUSH2 0x21D SWAP2 SWAP1 PUSH2 0x4E69 JUMP JUMPDEST CALLVALUE DUP1 ISZERO PUSH2 0x430 JUMPI PUSH1 0x0 DUP1 REVERT JUMPDEST POP PUSH2 0x210 PUSH2 0x43F CALLDATASIZE PUSH1 0x4 PUSH2 0x4D67 JUMP JUMPDEST PUSH2 0x1F29 JUMP JUMPDEST CALLVALUE DUP1 ISZERO PUSH2 0x450 JUMPI PUSH1 0x0 DUP1 REVERT JUMPDEST POP PUSH2 0x273 PUSH2 0x45F CALLDATASIZE PUSH1 0x4 PUSH2 0x4AE4 JUMP JUMPDEST PUSH2 0x1F36 JUMP JUMPDEST CALLVALUE DUP1 ISZERO PUSH2 0x470 JUMPI PUSH1 0x0 DUP1 REVERT JUMPDEST POP PUSH2 0x484 PUSH2 0x47F CALLDATASIZE PUSH1 0x4 PUSH2 0x46FE JUMP JUMPDEST PUSH2 0x206F JUMP JUMPDEST PUSH1 0x40 MLOAD PUSH2 0x21D SWAP5 SWAP4 SWAP3 SWAP2 SWAP1 PUSH2 0x565C JUMP JUMPDEST CALLVALUE DUP1 ISZERO PUSH2 0x4A0 JUMPI PUSH1 0x0 DUP1 REVERT JUMPDEST POP PUSH2 0x417 PUSH2 0x22EB JUMP JUMPDEST PUSH2 0x1E9 PUSH2 0x4B7 CALLDATASIZE PUSH1 0x4 PUSH2 0x4C6E JUMP JUMPDEST PUSH2 0x230F JUMP JUMPDEST CALLVALUE DUP1 ISZERO PUSH2 0x4C8 JUMPI PUSH1 0x0 DUP1 REVERT JUMPDEST POP PUSH2 0x273 PUSH2 0x4D7 CALLDATASIZE PUSH1 0x4 PUSH2 0x4A4E JUMP JUMPDEST PUSH2 0x26E6 JUMP JUMPDEST CALLVALUE DUP1 ISZERO PUSH2 0x4E8 JUMPI PUSH1 0x0 DUP1 REVERT JUMPDEST POP PUSH2 0x417 PUSH2 0x281F JUMP JUMPDEST CALLVALUE DUP1 ISZERO PUSH2 0x4FD JUMPI PUSH1 0x0 DUP1 REVERT JUMPDEST POP PUSH2 0x246 PUSH2 0x50C CALLDATASIZE PUSH1 0x4 PUSH2 0x4C24 JUMP JUMPDEST PUSH2 0x2843 JUMP JUMPDEST PUSH2 0x246 PUSH2 0x51F CALLDATASIZE PUSH1 0x4 PUSH2 0x4C6E JUMP JUMPDEST PUSH2 0x2871 JUMP JUMPDEST PUSH2 0x484 PUSH2 0x532 CALLDATASIZE PUSH1 0x4 PUSH2 0x4972 JUMP JUMPDEST PUSH2 0x2BAF JUMP JUMPDEST PUSH1 0x0 PUSH2 0x544 DUP5 DUP5 DUP5 PUSH2 0x30F8 JUMP JUMPDEST SWAP5 SWAP4 POP POP POP POP JUMP JUMPDEST PUSH1 0x60 DUP2 TIMESTAMP DUP2 LT ISZERO PUSH2 0x592 JUMPI PUSH1 0x40 MLOAD PUSH32 0x8C379A000000000000000000000000000000000000000000000000000000000 DUP2 MSTORE PUSH1 0x4 ADD PUSH2 0x589 SWAP1 PUSH2 0x5076 JUMP JUMPDEST PUSH1 0x40 MLOAD DUP1 SWAP2 SUB SWAP1 REVERT JUMPDEST PUSH20 0xFFFFFFFFFFFFFFFFFFFFFFFFFFFFFFFFFFFFFFFF PUSH32 0x0 AND DUP7 DUP7 PUSH32 0xFFFFFFFFFFFFFFFFFFFFFFFFFFFFFFFFFFFFFFFFFFFFFFFFFFFFFFFFFFFFFFFF DUP2 ADD DUP2 DUP2 LT PUSH2 0x5F7 JUMPI INVALID JUMPDEST SWAP1 POP PUSH1 0x20 MUL ADD PUSH1 0x20 DUP2 ADD SWAP1 PUSH2 0x60C SWAP2 SWAP1 PUSH2 0x4686 JUMP JUMPDEST PUSH20 0xFFFFFFFFFFFFFFFFFFFFFFFFFFFFFFFFFFFFFFFF AND EQ PUSH2 0x659 JUMPI PUSH1 0x40 MLOAD PUSH32 0x8C379A000000000000000000000000000000000000000000000000000000000 DUP2 MSTORE PUSH1 0x4 ADD PUSH2 0x589 SWAP1 PUSH2 0x503F JUMP JUMPDEST PUSH1 0x0 PUSH2 0x687 PUSH32 0x0 DUP11 DUP10 DUP10 PUSH2 0x31A9 JUMP JUMPDEST DUP1 SWAP5 POP DUP2 SWAP3 POP POP POP DUP8 DUP4 PUSH1 0x1 DUP6 MLOAD SUB DUP2 MLOAD DUP2 LT PUSH2 0x6A0 JUMPI INVALID JUMPDEST PUSH1 0x20 MUL PUSH1 0x20 ADD ADD MLOAD LT ISZERO PUSH2 0x6E0 JUMPI PUSH1 0x40 MLOAD PUSH32 0x8C379A000000000000000000000000000000000000000000000000000000000 DUP2 MSTORE PUSH1 0x4 ADD PUSH2 0x589 SWAP1 PUSH2 0x520C JUMP JUMPDEST PUSH2 0x721 DUP8 DUP8 PUSH1 0x0 DUP2 DUP2 LT PUSH2 0x6F0 JUMPI INVALID JUMPDEST SWAP1 POP PUSH1 0x20 MUL ADD PUSH1 0x20 DUP2 ADD SWAP1 PUSH2 0x705 SWAP2 SWAP1 PUSH2 0x4686 JUMP JUMPDEST CALLER DUP4 DUP7 PUSH1 0x0 DUP2 MLOAD DUP2 LT PUSH2 0x714 JUMPI INVALID JUMPDEST PUSH1 0x20 MUL PUSH1 0x20 ADD ADD MLOAD PUSH2 0x3322 JUMP JUMPDEST PUSH2 0x760 DUP4 DUP9 DUP9 DUP1 DUP1 PUSH1 0x20 MUL PUSH1 0x20 ADD PUSH1 0x40 MLOAD SWAP1 DUP2 ADD PUSH1 0x40 MSTORE DUP1 SWAP4 SWAP3 SWAP2 SWAP1 DUP2 DUP2 MSTORE PUSH1 0x20 ADD DUP4 DUP4 PUSH1 0x20 MUL DUP1 DUP3 DUP5 CALLDATACOPY PUSH1 0x0 SWAP3 ADD SWAP2 SWAP1 SWAP2 MSTORE POP ADDRESS SWAP3 POP PUSH2 0x344F SWAP2 POP POP JUMP JUMPDEST PUSH32 0x0 PUSH20 0xFFFFFFFFFFFFFFFFFFFFFFFFFFFFFFFFFFFFFFFF AND PUSH4 0x2E1A7D4D DUP5 PUSH1 0x1 DUP7 MLOAD SUB DUP2 MLOAD DUP2 LT PUSH2 0x7AC JUMPI INVALID JUMPDEST PUSH1 0x20 MUL PUSH1 0x20 ADD ADD MLOAD PUSH1 0x40 MLOAD DUP3 PUSH4 0xFFFFFFFF AND PUSH1 0xE0 SHL DUP2 MSTORE PUSH1 0x4 ADD PUSH2 0x7D0 SWAP2 SWAP1 PUSH2 0x55D0 JUMP JUMPDEST PUSH1 0x0 PUSH1 0x40 MLOAD DUP1 DUP4 SUB DUP2 PUSH1 0x0 DUP8 DUP1 EXTCODESIZE ISZERO DUP1 ISZERO PUSH2 0x7EA JUMPI PUSH1 0x0 DUP1 REVERT JUMPDEST POP GAS CALL ISZERO DUP1 ISZERO PUSH2 0x7FE JUMPI RETURNDATASIZE PUSH1 0x0 DUP1 RETURNDATACOPY RETURNDATASIZE PUSH1 0x0 REVERT JUMPDEST POP POP POP POP PUSH2 0x823 DUP6 DUP5 PUSH1 0x1 DUP7 MLOAD SUB DUP2 MLOAD DUP2 LT PUSH2 0x816 JUMPI INVALID JUMPDEST PUSH1 0x20 MUL PUSH1 0x20 ADD ADD MLOAD PUSH2 0x35D9 JUMP JUMPDEST POP POP SWAP7 SWAP6 POP POP POP POP POP POP JUMP JUMPDEST PUSH1 0x0 DUP1 PUSH1 0x0 PUSH2 0x85F PUSH32 0x0 DUP16 DUP16 PUSH2 0x3692 JUMP JUMPDEST SWAP1 POP PUSH1 0x0 DUP8 PUSH2 0x86E JUMPI DUP13 PUSH2 0x890 JUMP JUMPDEST PUSH32 0xFFFFFFFFFFFFFFFFFFFFFFFFFFFFFFFFFFFFFFFFFFFFFFFFFFFFFFFFFFFFFFFF JUMPDEST PUSH1 0x40 MLOAD PUSH32 0xD505ACCF00000000000000000000000000000000000000000000000000000000 DUP2 MSTORE SWAP1 SWAP2 POP PUSH20 0xFFFFFFFFFFFFFFFFFFFFFFFFFFFFFFFFFFFFFFFF DUP4 AND SWAP1 PUSH4 0xD505ACCF SWAP1 PUSH2 0x8F1 SWAP1 CALLER SWAP1 ADDRESS SWAP1 DUP7 SWAP1 DUP16 SWAP1 DUP15 SWAP1 DUP15 SWAP1 DUP15 SWAP1 PUSH1 0x4 ADD PUSH2 0x4E8A JUMP JUMPDEST PUSH1 0x0 PUSH1 0x40 MLOAD DUP1 DUP4 SUB DUP2 PUSH1 0x0 DUP8 DUP1 EXTCODESIZE ISZERO DUP1 ISZERO PUSH2 0x90B JUMPI PUSH1 0x0 DUP1 REVERT JUMPDEST POP GAS CALL ISZERO DUP1 ISZERO PUSH2 0x91F JUMPI RETURNDATASIZE PUSH1 0x0 DUP1 RETURNDATACOPY RETURNDATASIZE PUSH1 0x0 REVERT JUMPDEST POP POP POP POP POP POP PUSH2 0x936 DUP14 DUP14 DUP14 PUSH1 0x0 DUP15 DUP15 DUP15 DUP15 PUSH2 0x1843 JUMP JUMPDEST SWAP1 SWAP15 SWAP1 SWAP14 POP SWAP12 POP POP POP POP POP POP POP POP POP POP POP POP JUMP JUMPDEST PUSH1 0x60 PUSH2 0x544 PUSH32 0x0 DUP6 DUP6 DUP6 PUSH2 0x370D JUMP JUMPDEST PUSH1 0x60 DUP2 TIMESTAMP DUP2 LT ISZERO PUSH2 0x9B5 JUMPI PUSH1 0x40 MLOAD PUSH32 0x8C379A000000000000000000000000000000000000000000000000000000000 DUP2 MSTORE PUSH1 0x4 ADD PUSH2 0x589 SWAP1 PUSH2 0x5076 JUMP JUMPDEST PUSH1 0x0 PUSH2 0x9E3 PUSH32 0x0 DUP11 DUP10 DUP10 PUSH2 0x31A9 JUMP JUMPDEST DUP1 SWAP5 POP DUP2 SWAP3 POP POP POP DUP8 DUP4 PUSH1 0x1 DUP6 MLOAD SUB DUP2 MLOAD DUP2 LT PUSH2 0x9FC JUMPI INVALID JUMPDEST PUSH1 0x20 MUL PUSH1 0x20 ADD ADD MLOAD LT ISZERO PUSH2 0xA3C JUMPI PUSH1 0x40 MLOAD PUSH32 0x8C379A000000000000000000000000000000000000000000000000000000000 DUP2 MSTORE PUSH1 0x4 ADD PUSH2 0x589 SWAP1 PUSH2 0x520C JUMP JUMPDEST PUSH2 0xA4C DUP8 DUP8 PUSH1 0x0 DUP2 DUP2 LT PUSH2 0x6F0 JUMPI INVALID JUMPDEST PUSH2 0x823 DUP4 DUP9 DUP9 DUP1 DUP1 PUSH1 0x20 MUL PUSH1 0x20 ADD PUSH1 0x40 MLOAD SWAP1 DUP2 ADD PUSH1 0x40 MSTORE DUP1 SWAP4 SWAP3 SWAP2 SWAP1 DUP2 DUP2 MSTORE PUSH1 0x20 ADD DUP4 DUP4 PUSH1 0x20 MUL DUP1 DUP3 DUP5 CALLDATACOPY PUSH1 0x0 SWAP3 ADD SWAP2 SWAP1 SWAP2 MSTORE POP DUP11 SWAP3 POP PUSH2 0x344F SWAP2 POP POP JUMP JUMPDEST DUP1 TIMESTAMP DUP2 LT ISZERO PUSH2 0xAC6 JUMPI PUSH1 0x40 MLOAD PUSH32 0x8C379A000000000000000000000000000000000000000000000000000000000 DUP2 MSTORE PUSH1 0x4 ADD PUSH2 0x589 SWAP1 PUSH2 0x5076 JUMP JUMPDEST PUSH2 0xB5F DUP6 DUP6 PUSH1 0x0 DUP2 DUP2 LT PUSH2 0xAD6 JUMPI INVALID JUMPDEST SWAP1 POP PUSH1 0x20 MUL ADD PUSH1 0x20 DUP2 ADD SWAP1 PUSH2 0xAEB SWAP2 SWAP1 PUSH2 0x4686 JUMP JUMPDEST CALLER PUSH2 0xB59 PUSH32 0x0 DUP10 DUP10 PUSH1 0x0 DUP2 DUP2 LT PUSH2 0xB1D JUMPI INVALID JUMPDEST SWAP1 POP PUSH1 0x20 MUL ADD PUSH1 0x20 DUP2 ADD SWAP1 PUSH2 0xB32 SWAP2 SWAP1 PUSH2 0x4686 JUMP JUMPDEST DUP11 DUP11 PUSH1 0x1 DUP2 DUP2 LT PUSH2 0xB3F JUMPI INVALID JUMPDEST SWAP1 POP PUSH1 0x20 MUL ADD PUSH1 0x20 DUP2 ADD SWAP1 PUSH2 0xB54 SWAP2 SWAP1 PUSH2 0x4686 JUMP JUMPDEST PUSH2 0x3692 JUMP JUMPDEST DUP11 PUSH2 0x3322 JUMP JUMPDEST PUSH1 0x0 DUP6 DUP6 PUSH32 0xFFFFFFFFFFFFFFFFFFFFFFFFFFFFFFFFFFFFFFFFFFFFFFFFFFFFFFFFFFFFFFFF DUP2 ADD DUP2 DUP2 LT PUSH2 0xB8F JUMPI INVALID JUMPDEST SWAP1 POP PUSH1 0x20 MUL ADD PUSH1 0x20 DUP2 ADD SWAP1 PUSH2 0xBA4 SWAP2 SWAP1 PUSH2 0x4686 JUMP JUMPDEST PUSH20 0xFFFFFFFFFFFFFFFFFFFFFFFFFFFFFFFFFFFFFFFF AND PUSH4 0x70A08231 DUP6 PUSH1 0x40 MLOAD DUP3 PUSH4 0xFFFFFFFF AND PUSH1 0xE0 SHL DUP2 MSTORE PUSH1 0x4 ADD PUSH2 0xBDC SWAP2 SWAP1 PUSH2 0x4E69 JUMP JUMPDEST PUSH1 0x20 PUSH1 0x40 MLOAD DUP1 DUP4 SUB DUP2 DUP7 DUP1 EXTCODESIZE ISZERO DUP1 ISZERO PUSH2 0xBF4 JUMPI PUSH1 0x0 DUP1 REVERT JUMPDEST POP GAS STATICCALL ISZERO DUP1 ISZERO PUSH2 0xC08 JUMPI RETURNDATASIZE PUSH1 0x0 DUP1 RETURNDATACOPY RETURNDATASIZE PUSH1 0x0 REVERT JUMPDEST POP POP POP POP PUSH1 0x40 MLOAD RETURNDATASIZE PUSH1 0x1F NOT PUSH1 0x1F DUP3 ADD AND DUP3 ADD DUP1 PUSH1 0x40 MSTORE POP DUP2 ADD SWAP1 PUSH2 0xC2C SWAP2 SWAP1 PUSH2 0x4BD5 JUMP JUMPDEST SWAP1 POP PUSH2 0xC6C DUP7 DUP7 DUP1 DUP1 PUSH1 0x20 MUL PUSH1 0x20 ADD PUSH1 0x40 MLOAD SWAP1 DUP2 ADD PUSH1 0x40 MSTORE DUP1 SWAP4 SWAP3 SWAP2 SWAP1 DUP2 DUP2 MSTORE PUSH1 0x20 ADD DUP4 DUP4 PUSH1 0x20 MUL DUP1 DUP3 DUP5 CALLDATACOPY PUSH1 0x0 SWAP3 ADD SWAP2 SWAP1 SWAP2 MSTORE POP DUP9 SWAP3 POP PUSH2 0x3895 SWAP2 POP POP JUMP JUMPDEST DUP7 PUSH2 0xD42 DUP3 DUP9 DUP9 PUSH32 0xFFFFFFFFFFFFFFFFFFFFFFFFFFFFFFFFFFFFFFFFFFFFFFFFFFFFFFFFFFFFFFFF DUP2 ADD DUP2 DUP2 LT PUSH2 0xC9F JUMPI INVALID JUMPDEST SWAP1 POP PUSH1 0x20 MUL ADD PUSH1 0x20 DUP2 ADD SWAP1 PUSH2 0xCB4 SWAP2 SWAP1 PUSH2 0x4686 JUMP JUMPDEST PUSH20 0xFFFFFFFFFFFFFFFFFFFFFFFFFFFFFFFFFFFFFFFF AND PUSH4 0x70A08231 DUP9 PUSH1 0x40 MLOAD DUP3 PUSH4 0xFFFFFFFF AND PUSH1 0xE0 SHL DUP2 MSTORE PUSH1 0x4 ADD PUSH2 0xCEC SWAP2 SWAP1 PUSH2 0x4E69 JUMP JUMPDEST PUSH1 0x20 PUSH1 0x40 MLOAD DUP1 DUP4 SUB DUP2 DUP7 DUP1 EXTCODESIZE ISZERO DUP1 ISZERO PUSH2 0xD04 JUMPI PUSH1 0x0 DUP1 REVERT JUMPDEST POP GAS STATICCALL ISZERO DUP1 ISZERO PUSH2 0xD18 JUMPI RETURNDATASIZE PUSH1 0x0 DUP1 RETURNDATACOPY RETURNDATASIZE PUSH1 0x0 REVERT JUMPDEST POP POP POP POP PUSH1 0x40 MLOAD RETURNDATASIZE PUSH1 0x1F NOT PUSH1 0x1F DUP3 ADD AND DUP3 ADD DUP1 PUSH1 0x40 MSTORE POP DUP2 ADD SWAP1 PUSH2 0xD3C SWAP2 SWAP1 PUSH2 0x4BD5 JUMP JUMPDEST SWAP1 PUSH2 0x3AEE JUMP JUMPDEST LT ISZERO PUSH2 0xD7A JUMPI PUSH1 0x40 MLOAD PUSH32 0x8C379A000000000000000000000000000000000000000000000000000000000 DUP2 MSTORE PUSH1 0x4 ADD PUSH2 0x589 SWAP1 PUSH2 0x520C JUMP JUMPDEST POP POP POP POP POP POP POP POP JUMP JUMPDEST PUSH1 0x60 DUP2 TIMESTAMP DUP2 LT ISZERO PUSH2 0xDC1 JUMPI PUSH1 0x40 MLOAD PUSH32 0x8C379A000000000000000000000000000000000000000000000000000000000 DUP2 MSTORE PUSH1 0x4 ADD PUSH2 0x589 SWAP1 PUSH2 0x5076 JUMP JUMPDEST PUSH20 0xFFFFFFFFFFFFFFFFFFFFFFFFFFFFFFFFFFFFFFFF PUSH32 0x0 AND DUP7 DUP7 PUSH32 0xFFFFFFFFFFFFFFFFFFFFFFFFFFFFFFFFFFFFFFFFFFFFFFFFFFFFFFFFFFFFFFFF DUP2 ADD DUP2 DUP2 LT PUSH2 0xE26 JUMPI INVALID JUMPDEST SWAP1 POP PUSH1 0x20 MUL ADD PUSH1 0x20 DUP2 ADD SWAP1 PUSH2 0xE3B SWAP2 SWAP1 PUSH2 0x4686 JUMP JUMPDEST PUSH20 0xFFFFFFFFFFFFFFFFFFFFFFFFFFFFFFFFFFFFFFFF AND EQ PUSH2 0xE88 JUMPI PUSH1 0x40 MLOAD PUSH32 0x8C379A000000000000000000000000000000000000000000000000000000000 DUP2 MSTORE PUSH1 0x4 ADD PUSH2 0x589 SWAP1 PUSH2 0x503F JUMP JUMPDEST PUSH1 0x0 PUSH2 0xEB6 PUSH32 0x0 DUP11 DUP10 DUP10 PUSH2 0x3B31 JUMP JUMPDEST DUP1 SWAP5 POP DUP2 SWAP3 POP POP POP DUP8 DUP4 PUSH1 0x0 DUP2 MLOAD DUP2 LT PUSH2 0xECC JUMPI INVALID JUMPDEST PUSH1 0x20 MUL PUSH1 0x20 ADD ADD MLOAD GT ISZERO PUSH2 0x6E0 JUMPI PUSH1 0x40 MLOAD PUSH32 0x8C379A000000000000000000000000000000000000000000000000000000000 DUP2 MSTORE PUSH1 0x4 ADD PUSH2 0x589 SWAP1 PUSH2 0x52FD JUMP JUMPDEST PUSH1 0x0 DUP1 PUSH2 0xF5A PUSH32 0x0 DUP13 PUSH32 0x0 PUSH2 0x3692 JUMP JUMPDEST SWAP1 POP PUSH1 0x0 DUP7 PUSH2 0xF69 JUMPI DUP11 PUSH2 0xF8B JUMP JUMPDEST PUSH32 0xFFFFFFFFFFFFFFFFFFFFFFFFFFFFFFFFFFFFFFFFFFFFFFFFFFFFFFFFFFFFFFFF JUMPDEST PUSH1 0x40 MLOAD PUSH32 0xD505ACCF00000000000000000000000000000000000000000000000000000000 DUP2 MSTORE SWAP1 SWAP2 POP PUSH20 0xFFFFFFFFFFFFFFFFFFFFFFFFFFFFFFFFFFFFFFFF DUP4 AND SWAP1 PUSH4 0xD505ACCF SWAP1 PUSH2 0xFEC SWAP1 CALLER SWAP1 ADDRESS SWAP1 DUP7 SWAP1 DUP15 SWAP1 DUP14 SWAP1 DUP14 SWAP1 DUP14 SWAP1 PUSH1 0x4 ADD PUSH2 0x4E8A JUMP JUMPDEST PUSH1 0x0 PUSH1 0x40 MLOAD DUP1 DUP4 SUB DUP2 PUSH1 0x0 DUP8 DUP1 EXTCODESIZE ISZERO DUP1 ISZERO PUSH2 0x1006 JUMPI PUSH1 0x0 DUP1 REVERT JUMPDEST POP GAS CALL ISZERO DUP1 ISZERO PUSH2 0x101A JUMPI RETURNDATASIZE PUSH1 0x0 DUP1 RETURNDATACOPY RETURNDATASIZE PUSH1 0x0 REVERT JUMPDEST POP POP POP POP PUSH2 0x102E DUP13 DUP13 DUP13 PUSH1 0x0 DUP1 DUP15 DUP15 PUSH2 0x1669 JUMP JUMPDEST SWAP13 SWAP12 POP POP POP POP POP POP POP POP POP POP POP POP JUMP JUMPDEST PUSH1 0x0 DUP1 PUSH1 0x0 PUSH2 0x104B PUSH2 0x45A9 JUMP JUMPDEST PUSH1 0x40 MLOAD PUSH32 0x2F380B3500000000000000000000000000000000000000000000000000000000 DUP2 MSTORE PUSH20 0xFFFFFFFFFFFFFFFFFFFFFFFFFFFFFFFFFFFFFFFF PUSH32 0x0 AND SWAP1 PUSH4 0x2F380B35 SWAP1 PUSH2 0x10BD SWAP1 DUP11 SWAP1 PUSH1 0x4 ADD PUSH2 0x55D0 JUMP JUMPDEST PUSH1 0xE0 PUSH1 0x40 MLOAD DUP1 DUP4 SUB DUP2 DUP7 DUP1 EXTCODESIZE ISZERO DUP1 ISZERO PUSH2 0x10D5 JUMPI PUSH1 0x0 DUP1 REVERT JUMPDEST POP GAS STATICCALL ISZERO DUP1 ISZERO PUSH2 0x10E9 JUMPI RETURNDATASIZE PUSH1 0x0 DUP1 RETURNDATACOPY RETURNDATASIZE PUSH1 0x0 REVERT JUMPDEST POP POP POP POP PUSH1 0x40 MLOAD RETURNDATASIZE PUSH1 0x1F NOT PUSH1 0x1F DUP3 ADD AND DUP3 ADD DUP1 PUSH1 0x40 MSTORE POP DUP2 ADD SWAP1 PUSH2 0x110D SWAP2 SWAP1 PUSH2 0x4894 JUMP JUMPDEST SWAP1 SWAP3 POP SWAP1 POP CALLER PUSH20 0xFFFFFFFFFFFFFFFFFFFFFFFFFFFFFFFFFFFFFFFF DUP4 AND EQ PUSH2 0x1161 JUMPI PUSH1 0x40 MLOAD PUSH32 0x8C379A000000000000000000000000000000000000000000000000000000000 DUP2 MSTORE PUSH1 0x4 ADD PUSH2 0x589 SWAP1 PUSH2 0x535A JUMP JUMPDEST PUSH1 0x3 DUP2 PUSH1 0xA0 ADD MLOAD PUSH1 0x5 DUP2 GT ISZERO PUSH2 0x1173 JUMPI INVALID JUMPDEST LT ISZERO PUSH2 0x11AB JUMPI PUSH1 0x40 MLOAD PUSH32 0x8C379A000000000000000000000000000000000000000000000000000000000 DUP2 MSTORE PUSH1 0x4 ADD PUSH2 0x589 SWAP1 PUSH2 0x50AD JUMP JUMPDEST DUP1 MLOAD PUSH1 0x20 DUP3 ADD MLOAD PUSH1 0x40 MLOAD PUSH32 0x883D273000000000000000000000000000000000000000000000000000000000 DUP2 MSTORE PUSH20 0xFFFFFFFFFFFFFFFFFFFFFFFFFFFFFFFFFFFFFFFF PUSH32 0x0 AND SWAP1 PUSH4 0x883D2730 SWAP1 PUSH2 0x122A SWAP1 DUP6 SWAP1 DUP6 SWAP1 DUP14 SWAP1 DUP14 SWAP1 PUSH1 0x4 ADD PUSH2 0x4F30 JUMP JUMPDEST PUSH1 0x40 DUP1 MLOAD DUP1 DUP4 SUB DUP2 PUSH1 0x0 DUP8 DUP1 EXTCODESIZE ISZERO DUP1 ISZERO PUSH2 0x1243 JUMPI PUSH1 0x0 DUP1 REVERT JUMPDEST POP GAS CALL ISZERO DUP1 ISZERO PUSH2 0x1257 JUMPI RETURNDATASIZE PUSH1 0x0 DUP1 RETURNDATACOPY RETURNDATASIZE PUSH1 0x0 REVERT JUMPDEST POP POP POP POP PUSH1 0x40 MLOAD RETURNDATASIZE PUSH1 0x1F NOT PUSH1 0x1F DUP3 ADD AND DUP3 ADD DUP1 PUSH1 0x40 MSTORE POP DUP2 ADD SWAP1 PUSH2 0x127B SWAP2 SWAP1 PUSH2 0x46C5 JUMP JUMPDEST SWAP1 SWAP11 SWAP1 SWAP10 POP SWAP8 POP POP POP POP POP POP POP POP JUMP JUMPDEST PUSH1 0x60 DUP2 TIMESTAMP DUP2 LT ISZERO PUSH2 0x12C8 JUMPI PUSH1 0x40 MLOAD PUSH32 0x8C379A000000000000000000000000000000000000000000000000000000000 DUP2 MSTORE PUSH1 0x4 ADD PUSH2 0x589 SWAP1 PUSH2 0x5076 JUMP JUMPDEST PUSH32 0x0 PUSH20 0xFFFFFFFFFFFFFFFFFFFFFFFFFFFFFFFFFFFFFFFF AND DUP7 DUP7 PUSH1 0x0 DUP2 DUP2 LT PUSH2 0x130C JUMPI INVALID JUMPDEST SWAP1 POP PUSH1 0x20 MUL ADD PUSH1 0x20 DUP2 ADD SWAP1 PUSH2 0x1321 SWAP2 SWAP1 PUSH2 0x4686 JUMP JUMPDEST PUSH20 0xFFFFFFFFFFFFFFFFFFFFFFFFFFFFFFFFFFFFFFFF AND EQ PUSH2 0x136E JUMPI PUSH1 0x40 MLOAD PUSH32 0x8C379A000000000000000000000000000000000000000000000000000000000 DUP2 MSTORE PUSH1 0x4 ADD PUSH2 0x589 SWAP1 PUSH2 0x503F JUMP JUMPDEST PUSH1 0x0 PUSH2 0x139C PUSH32 0x0 CALLVALUE DUP10 DUP10 PUSH2 0x31A9 JUMP JUMPDEST DUP1 SWAP5 POP DUP2 SWAP3 POP POP POP DUP8 DUP4 PUSH1 0x1 DUP6 MLOAD SUB DUP2 MLOAD DUP2 LT PUSH2 0x13B5 JUMPI INVALID JUMPDEST PUSH1 0x20 MUL PUSH1 0x20 ADD ADD MLOAD LT ISZERO PUSH2 0x13F5 JUMPI PUSH1 0x40 MLOAD PUSH32 0x8C379A000000000000000000000000000000000000000000000000000000000 DUP2 MSTORE PUSH1 0x4 ADD PUSH2 0x589 SWAP1 PUSH2 0x520C JUMP JUMPDEST PUSH32 0x0 PUSH20 0xFFFFFFFFFFFFFFFFFFFFFFFFFFFFFFFFFFFFFFFF AND PUSH4 0xD0E30DB0 DUP5 PUSH1 0x0 DUP2 MLOAD DUP2 LT PUSH2 0x143E JUMPI INVALID JUMPDEST PUSH1 0x20 MUL PUSH1 0x20 ADD ADD MLOAD PUSH1 0x40 MLOAD DUP3 PUSH4 0xFFFFFFFF AND PUSH1 0xE0 SHL DUP2 MSTORE PUSH1 0x4 ADD PUSH1 0x0 PUSH1 0x40 MLOAD DUP1 DUP4 SUB DUP2 DUP6 DUP9 DUP1 EXTCODESIZE ISZERO DUP1 ISZERO PUSH2 0x1471 JUMPI PUSH1 0x0 DUP1 REVERT JUMPDEST POP GAS CALL ISZERO DUP1 ISZERO PUSH2 0x1485 JUMPI RETURNDATASIZE PUSH1 0x0 DUP1 RETURNDATACOPY RETURNDATASIZE PUSH1 0x0 REVERT JUMPDEST POP POP POP POP POP PUSH32 0x0 PUSH20 0xFFFFFFFFFFFFFFFFFFFFFFFFFFFFFFFFFFFFFFFF AND PUSH4 0xA9059CBB DUP3 DUP6 PUSH1 0x0 DUP2 MLOAD DUP2 LT PUSH2 0x14D4 JUMPI INVALID JUMPDEST PUSH1 0x20 MUL PUSH1 0x20 ADD ADD MLOAD PUSH1 0x40 MLOAD DUP4 PUSH4 0xFFFFFFFF AND PUSH1 0xE0 SHL DUP2 MSTORE PUSH1 0x4 ADD PUSH2 0x14F9 SWAP3 SWAP2 SWAP1 PUSH2 0x4F67 JUMP JUMPDEST PUSH1 0x20 PUSH1 0x40 MLOAD DUP1 DUP4 SUB DUP2 PUSH1 0x0 DUP8 DUP1 EXTCODESIZE ISZERO DUP1 ISZERO PUSH2 0x1513 JUMPI PUSH1 0x0 DUP1 REVERT JUMPDEST POP GAS CALL ISZERO DUP1 ISZERO PUSH2 0x1527 JUMPI RETURNDATASIZE PUSH1 0x0 DUP1 RETURNDATACOPY RETURNDATASIZE PUSH1 0x0 REVERT JUMPDEST POP POP POP POP PUSH1 0x40 MLOAD RETURNDATASIZE PUSH1 0x1F NOT PUSH1 0x1F DUP3 ADD AND DUP3 ADD DUP1 PUSH1 0x40 MSTORE POP DUP2 ADD SWAP1 PUSH2 0x154B SWAP2 SWAP1 PUSH2 0x4B35 JUMP JUMPDEST PUSH2 0x1551 JUMPI INVALID JUMPDEST PUSH2 0x1590 DUP4 DUP9 DUP9 DUP1 DUP1 PUSH1 0x20 MUL PUSH1 0x20 ADD PUSH1 0x40 MLOAD SWAP1 DUP2 ADD PUSH1 0x40 MSTORE DUP1 SWAP4 SWAP3 SWAP2 SWAP1 DUP2 DUP2 MSTORE PUSH1 0x20 ADD DUP4 DUP4 PUSH1 0x20 MUL DUP1 DUP3 DUP5 CALLDATACOPY PUSH1 0x0 SWAP3 ADD SWAP2 SWAP1 SWAP2 MSTORE POP DUP11 SWAP3 POP PUSH2 0x344F SWAP2 POP POP JUMP JUMPDEST POP POP SWAP6 SWAP5 POP POP POP POP POP JUMP JUMPDEST PUSH1 0x0 PUSH2 0x544 DUP5 DUP5 DUP5 PUSH2 0x3CA7 JUMP JUMPDEST PUSH1 0x60 DUP2 TIMESTAMP DUP2 LT ISZERO PUSH2 0x15E5 JUMPI PUSH1 0x40 MLOAD PUSH32 0x8C379A000000000000000000000000000000000000000000000000000000000 DUP2 MSTORE PUSH1 0x4 ADD PUSH2 0x589 SWAP1 PUSH2 0x5076 JUMP JUMPDEST PUSH1 0x0 PUSH2 0x1613 PUSH32 0x0 DUP11 DUP10 DUP10 PUSH2 0x3B31 JUMP JUMPDEST DUP1 SWAP5 POP DUP2 SWAP3 POP POP POP DUP8 DUP4 PUSH1 0x0 DUP2 MLOAD DUP2 LT PUSH2 0x1629 JUMPI INVALID JUMPDEST PUSH1 0x20 MUL PUSH1 0x20 ADD ADD MLOAD GT ISZERO PUSH2 0xA3C JUMPI PUSH1 0x40 MLOAD PUSH32 0x8C379A000000000000000000000000000000000000000000000000000000000 DUP2 MSTORE PUSH1 0x4 ADD PUSH2 0x589 SWAP1 PUSH2 0x52FD JUMP JUMPDEST PUSH1 0x0 DUP2 TIMESTAMP DUP2 LT ISZERO PUSH2 0x16A6 JUMPI PUSH1 0x40 MLOAD PUSH32 0x8C379A000000000000000000000000000000000000000000000000000000000 DUP2 MSTORE PUSH1 0x4 ADD PUSH2 0x589 SWAP1 PUSH2 0x5076 JUMP JUMPDEST PUSH2 0x16D6 DUP10 PUSH32 0x0 DUP11 DUP11 DUP11 DUP11 ADDRESS DUP11 PUSH2 0x1843 JUMP JUMPDEST PUSH1 0x40 MLOAD PUSH32 0x70A0823100000000000000000000000000000000000000000000000000000000 DUP2 MSTORE SWAP1 SWAP4 POP PUSH2 0x1789 SWAP2 POP DUP11 SWAP1 DUP7 SWAP1 PUSH20 0xFFFFFFFFFFFFFFFFFFFFFFFFFFFFFFFFFFFFFFFF DUP4 AND SWAP1 PUSH4 0x70A08231 SWAP1 PUSH2 0x1734 SWAP1 ADDRESS SWAP1 PUSH1 0x4 ADD PUSH2 0x4E69 JUMP JUMPDEST PUSH1 0x20 PUSH1 0x40 MLOAD DUP1 DUP4 SUB DUP2 DUP7 DUP1 EXTCODESIZE ISZERO DUP1 ISZERO PUSH2 0x174C JUMPI PUSH1 0x0 DUP1 REVERT JUMPDEST POP GAS STATICCALL ISZERO DUP1 ISZERO PUSH2 0x1760 JUMPI RETURNDATASIZE PUSH1 0x0 DUP1 RETURNDATACOPY RETURNDATASIZE PUSH1 0x0 REVERT JUMPDEST POP POP POP POP PUSH1 0x40 MLOAD RETURNDATASIZE PUSH1 0x1F NOT PUSH1 0x1F DUP3 ADD AND DUP3 ADD DUP1 PUSH1 0x40 MSTORE POP DUP2 ADD SWAP1 PUSH2 0x1784 SWAP2 SWAP1 PUSH2 0x4BD5 JUMP JUMPDEST PUSH2 0x3D56 JUMP JUMPDEST PUSH1 0x40 MLOAD PUSH32 0x2E1A7D4D00000000000000000000000000000000000000000000000000000000 DUP2 MSTORE PUSH20 0xFFFFFFFFFFFFFFFFFFFFFFFFFFFFFFFFFFFFFFFF PUSH32 0x0 AND SWAP1 PUSH4 0x2E1A7D4D SWAP1 PUSH2 0x17FB SWAP1 DUP6 SWAP1 PUSH1 0x4 ADD PUSH2 0x55D0 JUMP JUMPDEST PUSH1 0x0 PUSH1 0x40 MLOAD DUP1 DUP4 SUB DUP2 PUSH1 0x0 DUP8 DUP1 EXTCODESIZE ISZERO DUP1 ISZERO PUSH2 0x1815 JUMPI PUSH1 0x0 DUP1 REVERT JUMPDEST POP GAS CALL ISZERO DUP1 ISZERO PUSH2 0x1829 JUMPI RETURNDATASIZE PUSH1 0x0 DUP1 RETURNDATACOPY RETURNDATASIZE PUSH1 0x0 REVERT JUMPDEST POP POP POP POP PUSH2 0x1837 DUP5 DUP4 PUSH2 0x35D9 JUMP JUMPDEST POP SWAP8 SWAP7 POP POP POP POP POP POP POP JUMP JUMPDEST PUSH1 0x0 DUP1 DUP3 TIMESTAMP DUP2 LT ISZERO PUSH2 0x1881 JUMPI PUSH1 0x40 MLOAD PUSH32 0x8C379A000000000000000000000000000000000000000000000000000000000 DUP2 MSTORE PUSH1 0x4 ADD PUSH2 0x589 SWAP1 PUSH2 0x5076 JUMP JUMPDEST DUP9 ISZERO PUSH2 0x1A0A JUMPI PUSH1 0x0 PUSH2 0x18B4 PUSH32 0x0 DUP14 DUP14 PUSH2 0x3692 JUMP JUMPDEST PUSH1 0x40 MLOAD PUSH32 0x23B872DD00000000000000000000000000000000000000000000000000000000 DUP2 MSTORE SWAP1 SWAP2 POP PUSH20 0xFFFFFFFFFFFFFFFFFFFFFFFFFFFFFFFFFFFFFFFF DUP3 AND SWAP1 PUSH4 0x23B872DD SWAP1 PUSH2 0x190D SWAP1 CALLER SWAP1 DUP6 SWAP1 DUP16 SWAP1 PUSH1 0x4 ADD PUSH2 0x4ED8 JUMP JUMPDEST PUSH1 0x20 PUSH1 0x40 MLOAD DUP1 DUP4 SUB DUP2 PUSH1 0x0 DUP8 DUP1 EXTCODESIZE ISZERO DUP1 ISZERO PUSH2 0x1927 JUMPI PUSH1 0x0 DUP1 REVERT JUMPDEST POP GAS CALL ISZERO DUP1 ISZERO PUSH2 0x193B JUMPI RETURNDATASIZE PUSH1 0x0 DUP1 RETURNDATACOPY RETURNDATASIZE PUSH1 0x0 REVERT JUMPDEST POP POP POP POP PUSH1 0x40 MLOAD RETURNDATASIZE PUSH1 0x1F NOT PUSH1 0x1F DUP3 ADD AND DUP3 ADD DUP1 PUSH1 0x40 MSTORE POP DUP2 ADD SWAP1 PUSH2 0x195F SWAP2 SWAP1 PUSH2 0x4B35 JUMP JUMPDEST POP PUSH1 0x40 MLOAD PUSH32 0x89AFCB4400000000000000000000000000000000000000000000000000000000 DUP2 MSTORE PUSH20 0xFFFFFFFFFFFFFFFFFFFFFFFFFFFFFFFFFFFFFFFF DUP3 AND SWAP1 PUSH4 0x89AFCB44 SWAP1 PUSH2 0x19B2 SWAP1 DUP10 SWAP1 PUSH1 0x4 ADD PUSH2 0x4E69 JUMP JUMPDEST PUSH1 0x40 DUP1 MLOAD DUP1 DUP4 SUB DUP2 PUSH1 0x0 DUP8 DUP1 EXTCODESIZE ISZERO DUP1 ISZERO PUSH2 0x19CB JUMPI PUSH1 0x0 DUP1 REVERT JUMPDEST POP GAS CALL ISZERO DUP1 ISZERO PUSH2 0x19DF JUMPI RETURNDATASIZE PUSH1 0x0 DUP1 RETURNDATACOPY RETURNDATASIZE PUSH1 0x0 REVERT JUMPDEST POP POP POP POP PUSH1 0x40 MLOAD RETURNDATASIZE PUSH1 0x1F NOT PUSH1 0x1F DUP3 ADD AND DUP3 ADD DUP1 PUSH1 0x40 MSTORE POP DUP2 ADD SWAP1 PUSH2 0x1A03 SWAP2 SWAP1 PUSH2 0x4CD3 JUMP JUMPDEST SWAP1 SWAP5 POP SWAP3 POP POP JUMPDEST DUP8 ISZERO PUSH2 0x1B84 JUMPI PUSH1 0x0 PUSH2 0x1A3D PUSH32 0x0 DUP13 DUP15 PUSH2 0x3692 JUMP JUMPDEST PUSH1 0x40 MLOAD PUSH32 0x23B872DD00000000000000000000000000000000000000000000000000000000 DUP2 MSTORE SWAP1 SWAP2 POP PUSH20 0xFFFFFFFFFFFFFFFFFFFFFFFFFFFFFFFFFFFFFFFF DUP3 AND SWAP1 PUSH4 0x23B872DD SWAP1 PUSH2 0x1A96 SWAP1 CALLER SWAP1 DUP6 SWAP1 DUP15 SWAP1 PUSH1 0x4 ADD PUSH2 0x4ED8 JUMP JUMPDEST PUSH1 0x20 PUSH1 0x40 MLOAD DUP1 DUP4 SUB DUP2 PUSH1 0x0 DUP8 DUP1 EXTCODESIZE ISZERO DUP1 ISZERO PUSH2 0x1AB0 JUMPI PUSH1 0x0 DUP1 REVERT JUMPDEST POP GAS CALL ISZERO DUP1 ISZERO PUSH2 0x1AC4 JUMPI RETURNDATASIZE PUSH1 0x0 DUP1 RETURNDATACOPY RETURNDATASIZE PUSH1 0x0 REVERT JUMPDEST POP POP POP POP PUSH1 0x40 MLOAD RETURNDATASIZE PUSH1 0x1F NOT PUSH1 0x1F DUP3 ADD AND DUP3 ADD DUP1 PUSH1 0x40 MSTORE POP DUP2 ADD SWAP1 PUSH2 0x1AE8 SWAP2 SWAP1 PUSH2 0x4B35 JUMP JUMPDEST POP PUSH1 0x0 DUP1 DUP3 PUSH20 0xFFFFFFFFFFFFFFFFFFFFFFFFFFFFFFFFFFFFFFFF AND PUSH4 0x89AFCB44 DUP10 PUSH1 0x40 MLOAD DUP3 PUSH4 0xFFFFFFFF AND PUSH1 0xE0 SHL DUP2 MSTORE PUSH1 0x4 ADD PUSH2 0x1B25 SWAP2 SWAP1 PUSH2 0x4E69 JUMP JUMPDEST PUSH1 0x40 DUP1 MLOAD DUP1 DUP4 SUB DUP2 PUSH1 0x0 DUP8 DUP1 EXTCODESIZE ISZERO DUP1 ISZERO PUSH2 0x1B3E JUMPI PUSH1 0x0 DUP1 REVERT JUMPDEST POP GAS CALL ISZERO DUP1 ISZERO PUSH2 0x1B52 JUMPI RETURNDATASIZE PUSH1 0x0 DUP1 RETURNDATACOPY RETURNDATASIZE PUSH1 0x0 REVERT JUMPDEST POP POP POP POP PUSH1 0x40 MLOAD RETURNDATASIZE PUSH1 0x1F NOT PUSH1 0x1F DUP3 ADD AND DUP3 ADD DUP1 PUSH1 0x40 MSTORE POP DUP2 ADD SWAP1 PUSH2 0x1B76 SWAP2 SWAP1 PUSH2 0x4CD3 JUMP JUMPDEST SWAP7 SWAP1 SWAP7 ADD SWAP6 SWAP5 SWAP1 SWAP5 ADD SWAP4 POP POP POP JUMPDEST DUP7 DUP4 LT ISZERO PUSH2 0x1BBE JUMPI PUSH1 0x40 MLOAD PUSH32 0x8C379A000000000000000000000000000000000000000000000000000000000 DUP2 MSTORE PUSH1 0x4 ADD PUSH2 0x589 SWAP1 PUSH2 0x54DF JUMP JUMPDEST DUP6 DUP3 LT ISZERO PUSH2 0x1BF8 JUMPI PUSH1 0x40 MLOAD PUSH32 0x8C379A000000000000000000000000000000000000000000000000000000000 DUP2 MSTORE PUSH1 0x4 ADD PUSH2 0x589 SWAP1 PUSH2 0x5391 JUMP JUMPDEST POP SWAP9 POP SWAP9 SWAP7 POP POP POP POP POP POP POP JUMP JUMPDEST DUP1 TIMESTAMP DUP2 LT ISZERO PUSH2 0x1C41 JUMPI PUSH1 0x40 MLOAD PUSH32 0x8C379A000000000000000000000000000000000000000000000000000000000 DUP2 MSTORE PUSH1 0x4 ADD PUSH2 0x589 SWAP1 PUSH2 0x5076 JUMP JUMPDEST PUSH20 0xFFFFFFFFFFFFFFFFFFFFFFFFFFFFFFFFFFFFFFFF PUSH32 0x0 AND DUP6 DUP6 PUSH32 0xFFFFFFFFFFFFFFFFFFFFFFFFFFFFFFFFFFFFFFFFFFFFFFFFFFFFFFFFFFFFFFFF DUP2 ADD DUP2 DUP2 LT PUSH2 0x1CA6 JUMPI INVALID JUMPDEST SWAP1 POP PUSH1 0x20 MUL ADD PUSH1 0x20 DUP2 ADD SWAP1 PUSH2 0x1CBB SWAP2 SWAP1 PUSH2 0x4686 JUMP JUMPDEST PUSH20 0xFFFFFFFFFFFFFFFFFFFFFFFFFFFFFFFFFFFFFFFF AND EQ PUSH2 0x1D08 JUMPI PUSH1 0x40 MLOAD PUSH32 0x8C379A000000000000000000000000000000000000000000000000000000000 DUP2 MSTORE PUSH1 0x4 ADD PUSH2 0x589 SWAP1 PUSH2 0x503F JUMP JUMPDEST PUSH2 0x1D18 DUP6 DUP6 PUSH1 0x0 DUP2 DUP2 LT PUSH2 0xAD6 JUMPI INVALID JUMPDEST PUSH2 0x1D56 DUP6 DUP6 DUP1 DUP1 PUSH1 0x20 MUL PUSH1 0x20 ADD PUSH1 0x40 MLOAD SWAP1 DUP2 ADD PUSH1 0x40 MSTORE DUP1 SWAP4 SWAP3 SWAP2 SWAP1 DUP2 DUP2 MSTORE PUSH1 0x20 ADD DUP4 DUP4 PUSH1 0x20 MUL DUP1 DUP3 DUP5 CALLDATACOPY PUSH1 0x0 SWAP3 ADD SWAP2 SWAP1 SWAP2 MSTORE POP ADDRESS SWAP3 POP PUSH2 0x3895 SWAP2 POP POP JUMP JUMPDEST PUSH1 0x40 MLOAD PUSH32 0x70A0823100000000000000000000000000000000000000000000000000000000 DUP2 MSTORE PUSH1 0x0 SWAP1 PUSH20 0xFFFFFFFFFFFFFFFFFFFFFFFFFFFFFFFFFFFFFFFF PUSH32 0x0 AND SWAP1 PUSH4 0x70A08231 SWAP1 PUSH2 0x1DCB SWAP1 ADDRESS SWAP1 PUSH1 0x4 ADD PUSH2 0x4E69 JUMP JUMPDEST PUSH1 0x20 PUSH1 0x40 MLOAD DUP1 DUP4 SUB DUP2 DUP7 DUP1 EXTCODESIZE ISZERO DUP1 ISZERO PUSH2 0x1DE3 JUMPI PUSH1 0x0 DUP1 REVERT JUMPDEST POP GAS STATICCALL ISZERO DUP1 ISZERO PUSH2 0x1DF7 JUMPI RETURNDATASIZE PUSH1 0x0 DUP1 RETURNDATACOPY RETURNDATASIZE PUSH1 0x0 REVERT JUMPDEST POP POP POP POP PUSH1 0x40 MLOAD RETURNDATASIZE PUSH1 0x1F NOT PUSH1 0x1F DUP3 ADD AND DUP3 ADD DUP1 PUSH1 0x40 MSTORE POP DUP2 ADD SWAP1 PUSH2 0x1E1B SWAP2 SWAP1 PUSH2 0x4BD5 JUMP JUMPDEST SWAP1 POP DUP7 DUP2 LT ISZERO PUSH2 0x1E57 JUMPI PUSH1 0x40 MLOAD PUSH32 0x8C379A000000000000000000000000000000000000000000000000000000000 DUP2 MSTORE PUSH1 0x4 ADD PUSH2 0x589 SWAP1 PUSH2 0x520C JUMP JUMPDEST PUSH1 0x40 MLOAD PUSH32 0x2E1A7D4D00000000000000000000000000000000000000000000000000000000 DUP2 MSTORE PUSH20 0xFFFFFFFFFFFFFFFFFFFFFFFFFFFFFFFFFFFFFFFF PUSH32 0x0 AND SWAP1 PUSH4 0x2E1A7D4D SWAP1 PUSH2 0x1EC9 SWAP1 DUP5 SWAP1 PUSH1 0x4 ADD PUSH2 0x55D0 JUMP JUMPDEST PUSH1 0x0 PUSH1 0x40 MLOAD DUP1 DUP4 SUB DUP2 PUSH1 0x0 DUP8 DUP1 EXTCODESIZE ISZERO DUP1 ISZERO PUSH2 0x1EE3 JUMPI PUSH1 0x0 DUP1 REVERT JUMPDEST POP GAS CALL ISZERO DUP1 ISZERO PUSH2 0x1EF7 JUMPI RETURNDATASIZE PUSH1 0x0 DUP1 RETURNDATACOPY RETURNDATASIZE PUSH1 0x0 REVERT JUMPDEST POP POP POP POP PUSH2 0xD7A DUP5 DUP3 PUSH2 0x35D9 JUMP JUMPDEST PUSH32 0x0 DUP2 JUMP JUMPDEST PUSH1 0x0 PUSH2 0x544 DUP5 DUP5 DUP5 PUSH2 0x3E80 JUMP JUMPDEST PUSH1 0x0 DUP1 DUP3 TIMESTAMP DUP2 LT ISZERO PUSH2 0x1F74 JUMPI PUSH1 0x40 MLOAD PUSH32 0x8C379A000000000000000000000000000000000000000000000000000000000 DUP2 MSTORE PUSH1 0x4 ADD PUSH2 0x589 SWAP1 PUSH2 0x5076 JUMP JUMPDEST PUSH2 0x1FA4 DUP11 PUSH32 0x0 DUP12 DUP12 DUP12 DUP12 ADDRESS DUP12 PUSH2 0x1843 JUMP JUMPDEST SWAP1 SWAP4 POP SWAP2 POP PUSH2 0x1FB4 DUP11 DUP7 DUP6 PUSH2 0x3D56 JUMP JUMPDEST PUSH1 0x40 MLOAD PUSH32 0x2E1A7D4D00000000000000000000000000000000000000000000000000000000 DUP2 MSTORE PUSH20 0xFFFFFFFFFFFFFFFFFFFFFFFFFFFFFFFFFFFFFFFF PUSH32 0x0 AND SWAP1 PUSH4 0x2E1A7D4D SWAP1 PUSH2 0x2026 SWAP1 DUP6 SWAP1 PUSH1 0x4 ADD PUSH2 0x55D0 JUMP JUMPDEST PUSH1 0x0 PUSH1 0x40 MLOAD DUP1 DUP4 SUB DUP2 PUSH1 0x0 DUP8 DUP1 EXTCODESIZE ISZERO DUP1 ISZERO PUSH2 0x2040 JUMPI PUSH1 0x0 DUP1 REVERT JUMPDEST POP GAS CALL ISZERO DUP1 ISZERO PUSH2 0x2054 JUMPI RETURNDATASIZE PUSH1 0x0 DUP1 RETURNDATACOPY RETURNDATASIZE PUSH1 0x0 REVERT JUMPDEST POP POP POP POP PUSH2 0x2062 DUP6 DUP4 PUSH2 0x35D9 JUMP JUMPDEST POP SWAP8 POP SWAP8 SWAP6 POP POP POP POP POP POP JUMP JUMPDEST PUSH1 0x0 DUP1 PUSH1 0x0 DUP1 DUP5 TIMESTAMP DUP2 LT ISZERO PUSH2 0x20B0 JUMPI PUSH1 0x40 MLOAD PUSH32 0x8C379A000000000000000000000000000000000000000000000000000000000 DUP2 MSTORE PUSH1 0x4 ADD PUSH2 0x589 SWAP1 PUSH2 0x5076 JUMP JUMPDEST PUSH1 0x64 DUP9 GT ISZERO PUSH2 0x20EB JUMPI PUSH1 0x40 MLOAD PUSH32 0x8C379A000000000000000000000000000000000000000000000000000000000 DUP2 MSTORE PUSH1 0x4 ADD PUSH2 0x589 SWAP1 PUSH2 0x53EE JUMP JUMPDEST DUP8 ISZERO PUSH2 0x21F2 JUMPI PUSH1 0x0 PUSH1 0x64 PUSH2 0x20FF DUP13 DUP12 PUSH2 0x3F1C JUMP JUMPDEST DUP2 PUSH2 0x2106 JUMPI INVALID JUMPDEST DIV SWAP4 POP PUSH1 0x64 PUSH2 0x2115 DUP12 DUP12 PUSH2 0x3F1C JUMP JUMPDEST DUP2 PUSH2 0x211C JUMPI INVALID JUMPDEST DIV SWAP3 POP PUSH2 0x212B DUP14 DUP14 DUP7 DUP7 PUSH2 0x3F6D JUMP JUMPDEST SWAP2 SWAP8 POP SWAP6 POP SWAP1 POP PUSH2 0x213E DUP14 CALLER DUP4 DUP10 PUSH2 0x3322 JUMP JUMPDEST PUSH2 0x214A DUP13 CALLER DUP4 DUP9 PUSH2 0x3322 JUMP JUMPDEST PUSH1 0x40 MLOAD PUSH32 0x6A62784200000000000000000000000000000000000000000000000000000000 DUP2 MSTORE PUSH20 0xFFFFFFFFFFFFFFFFFFFFFFFFFFFFFFFFFFFFFFFF DUP3 AND SWAP1 PUSH4 0x6A627842 SWAP1 PUSH2 0x219C SWAP1 DUP12 SWAP1 PUSH1 0x4 ADD PUSH2 0x4E69 JUMP JUMPDEST PUSH1 0x20 PUSH1 0x40 MLOAD DUP1 DUP4 SUB DUP2 PUSH1 0x0 DUP8 DUP1 EXTCODESIZE ISZERO DUP1 ISZERO PUSH2 0x21B6 JUMPI PUSH1 0x0 DUP1 REVERT JUMPDEST POP GAS CALL ISZERO DUP1 ISZERO PUSH2 0x21CA JUMPI RETURNDATASIZE PUSH1 0x0 DUP1 RETURNDATACOPY RETURNDATASIZE PUSH1 0x0 REVERT JUMPDEST POP POP POP POP PUSH1 0x40 MLOAD RETURNDATASIZE PUSH1 0x1F NOT PUSH1 0x1F DUP3 ADD AND DUP3 ADD DUP1 PUSH1 0x40 MSTORE POP DUP2 ADD SWAP1 PUSH2 0x21EE SWAP2 SWAP1 PUSH2 0x4BD5 JUMP JUMPDEST SWAP4 POP POP JUMPDEST PUSH1 0x64 DUP9 EQ PUSH2 0x22DC JUMPI PUSH1 0x0 PUSH2 0x220C DUP13 DUP15 DUP8 DUP14 SUB DUP10 DUP16 SUB PUSH2 0x3F6D JUMP JUMPDEST SWAP1 SWAP13 POP SWAP1 SWAP11 POP SWAP1 POP PUSH2 0x2220 DUP14 CALLER DUP4 DUP15 PUSH2 0x3322 JUMP JUMPDEST PUSH2 0x222C DUP13 CALLER DUP4 DUP14 PUSH2 0x3322 JUMP JUMPDEST PUSH1 0x40 MLOAD PUSH32 0x6A62784200000000000000000000000000000000000000000000000000000000 DUP2 MSTORE PUSH20 0xFFFFFFFFFFFFFFFFFFFFFFFFFFFFFFFFFFFFFFFF DUP3 AND SWAP1 PUSH4 0x6A627842 SWAP1 PUSH2 0x227E SWAP1 DUP12 SWAP1 PUSH1 0x4 ADD PUSH2 0x4E69 JUMP JUMPDEST PUSH1 0x20 PUSH1 0x40 MLOAD DUP1 DUP4 SUB DUP2 PUSH1 0x0 DUP8 DUP1 EXTCODESIZE ISZERO DUP1 ISZERO PUSH2 0x2298 JUMPI PUSH1 0x0 DUP1 REVERT JUMPDEST POP GAS CALL ISZERO DUP1 ISZERO PUSH2 0x22AC JUMPI RETURNDATASIZE PUSH1 0x0 DUP1 RETURNDATACOPY RETURNDATASIZE PUSH1 0x0 REVERT JUMPDEST POP POP POP POP PUSH1 0x40 MLOAD RETURNDATASIZE PUSH1 0x1F NOT PUSH1 0x1F DUP3 ADD AND DUP3 ADD DUP1 PUSH1 0x40 MSTORE POP DUP2 ADD SWAP1 PUSH2 0x22D0 SWAP2 SWAP1 PUSH2 0x4BD5 JUMP JUMPDEST SWAP6 DUP12 ADD SWAP6 SWAP5 DUP11 ADD SWAP5 SWAP3 POP POP JUMPDEST POP SWAP8 POP SWAP8 POP SWAP8 POP SWAP8 SWAP4 POP POP POP POP JUMP JUMPDEST PUSH32 0x0 DUP2 JUMP JUMPDEST DUP1 TIMESTAMP DUP2 LT ISZERO PUSH2 0x234A JUMPI PUSH1 0x40 MLOAD PUSH32 0x8C379A000000000000000000000000000000000000000000000000000000000 DUP2 MSTORE PUSH1 0x4 ADD PUSH2 0x589 SWAP1 PUSH2 0x5076 JUMP JUMPDEST PUSH32 0x0 PUSH20 0xFFFFFFFFFFFFFFFFFFFFFFFFFFFFFFFFFFFFFFFF AND DUP6 DUP6 PUSH1 0x0 DUP2 DUP2 LT PUSH2 0x238E JUMPI INVALID JUMPDEST SWAP1 POP PUSH1 0x20 MUL ADD PUSH1 0x20 DUP2 ADD SWAP1 PUSH2 0x23A3 SWAP2 SWAP1 PUSH2 0x4686 JUMP JUMPDEST PUSH20 0xFFFFFFFFFFFFFFFFFFFFFFFFFFFFFFFFFFFFFFFF AND EQ PUSH2 0x23F0 JUMPI PUSH1 0x40 MLOAD PUSH32 0x8C379A000000000000000000000000000000000000000000000000000000000 DUP2 MSTORE PUSH1 0x4 ADD PUSH2 0x589 SWAP1 PUSH2 0x503F JUMP JUMPDEST PUSH1 0x0 CALLVALUE SWAP1 POP PUSH32 0x0 PUSH20 0xFFFFFFFFFFFFFFFFFFFFFFFFFFFFFFFFFFFFFFFF AND PUSH4 0xD0E30DB0 DUP3 PUSH1 0x40 MLOAD DUP3 PUSH4 0xFFFFFFFF AND PUSH1 0xE0 SHL DUP2 MSTORE PUSH1 0x4 ADD PUSH1 0x0 PUSH1 0x40 MLOAD DUP1 DUP4 SUB DUP2 DUP6 DUP9 DUP1 EXTCODESIZE ISZERO DUP1 ISZERO PUSH2 0x245D JUMPI PUSH1 0x0 DUP1 REVERT JUMPDEST POP GAS CALL ISZERO DUP1 ISZERO PUSH2 0x2471 JUMPI RETURNDATASIZE PUSH1 0x0 DUP1 RETURNDATACOPY RETURNDATASIZE PUSH1 0x0 REVERT JUMPDEST POP POP POP POP POP PUSH32 0x0 PUSH20 0xFFFFFFFFFFFFFFFFFFFFFFFFFFFFFFFFFFFFFFFF AND PUSH4 0xA9059CBB PUSH2 0x24E3 PUSH32 0x0 DUP10 DUP10 PUSH1 0x0 DUP2 DUP2 LT PUSH2 0xB1D JUMPI INVALID JUMPDEST DUP4 PUSH1 0x40 MLOAD DUP4 PUSH4 0xFFFFFFFF AND PUSH1 0xE0 SHL DUP2 MSTORE PUSH1 0x4 ADD PUSH2 0x2501 SWAP3 SWAP2 SWAP1 PUSH2 0x4F67 JUMP JUMPDEST PUSH1 0x20 PUSH1 0x40 MLOAD DUP1 DUP4 SUB DUP2 PUSH1 0x0 DUP8 DUP1 EXTCODESIZE ISZERO DUP1 ISZERO PUSH2 0x251B JUMPI PUSH1 0x0 DUP1 REVERT JUMPDEST POP GAS CALL ISZERO DUP1 ISZERO PUSH2 0x252F JUMPI RETURNDATASIZE PUSH1 0x0 DUP1 RETURNDATACOPY RETURNDATASIZE PUSH1 0x0 REVERT JUMPDEST POP POP POP POP PUSH1 0x40 MLOAD RETURNDATASIZE PUSH1 0x1F NOT PUSH1 0x1F DUP3 ADD AND DUP3 ADD DUP1 PUSH1 0x40 MSTORE POP DUP2 ADD SWAP1 PUSH2 0x2553 SWAP2 SWAP1 PUSH2 0x4B35 JUMP JUMPDEST PUSH2 0x2559 JUMPI INVALID JUMPDEST PUSH1 0x0 DUP7 DUP7 PUSH32 0xFFFFFFFFFFFFFFFFFFFFFFFFFFFFFFFFFFFFFFFFFFFFFFFFFFFFFFFFFFFFFFFF DUP2 ADD DUP2 DUP2 LT PUSH2 0x2589 JUMPI INVALID JUMPDEST SWAP1 POP PUSH1 0x20 MUL ADD PUSH1 0x20 DUP2 ADD SWAP1 PUSH2 0x259E SWAP2 SWAP1 PUSH2 0x4686 JUMP JUMPDEST PUSH20 0xFFFFFFFFFFFFFFFFFFFFFFFFFFFFFFFFFFFFFFFF AND PUSH4 0x70A08231 DUP7 PUSH1 0x40 MLOAD DUP3 PUSH4 0xFFFFFFFF AND PUSH1 0xE0 SHL DUP2 MSTORE PUSH1 0x4 ADD PUSH2 0x25D6 SWAP2 SWAP1 PUSH2 0x4E69 JUMP JUMPDEST PUSH1 0x20 PUSH1 0x40 MLOAD DUP1 DUP4 SUB DUP2 DUP7 DUP1 EXTCODESIZE ISZERO DUP1 ISZERO PUSH2 0x25EE JUMPI PUSH1 0x0 DUP1 REVERT JUMPDEST POP GAS STATICCALL ISZERO DUP1 ISZERO PUSH2 0x2602 JUMPI RETURNDATASIZE PUSH1 0x0 DUP1 RETURNDATACOPY RETURNDATASIZE PUSH1 0x0 REVERT JUMPDEST POP POP POP POP PUSH1 0x40 MLOAD RETURNDATASIZE PUSH1 0x1F NOT PUSH1 0x1F DUP3 ADD AND DUP3 ADD DUP1 PUSH1 0x40 MSTORE POP DUP2 ADD SWAP1 PUSH2 0x2626 SWAP2 SWAP1 PUSH2 0x4BD5 JUMP JUMPDEST SWAP1 POP PUSH2 0x2666 DUP8 DUP8 DUP1 DUP1 PUSH1 0x20 MUL PUSH1 0x20 ADD PUSH1 0x40 MLOAD SWAP1 DUP2 ADD PUSH1 0x40 MSTORE DUP1 SWAP4 SWAP3 SWAP2 SWAP1 DUP2 DUP2 MSTORE PUSH1 0x20 ADD DUP4 DUP4 PUSH1 0x20 MUL DUP1 DUP3 DUP5 CALLDATACOPY PUSH1 0x0 SWAP3 ADD SWAP2 SWAP1 SWAP2 MSTORE POP DUP10 SWAP3 POP PUSH2 0x3895 SWAP2 POP POP JUMP JUMPDEST DUP8 PUSH2 0xD42 DUP3 DUP10 DUP10 PUSH32 0xFFFFFFFFFFFFFFFFFFFFFFFFFFFFFFFFFFFFFFFFFFFFFFFFFFFFFFFFFFFFFFFF DUP2 ADD DUP2 DUP2 LT PUSH2 0x2699 JUMPI INVALID JUMPDEST SWAP1 POP PUSH1 0x20 MUL ADD PUSH1 0x20 DUP2 ADD SWAP1 PUSH2 0x26AE SWAP2 SWAP1 PUSH2 0x4686 JUMP JUMPDEST PUSH20 0xFFFFFFFFFFFFFFFFFFFFFFFFFFFFFFFFFFFFFFFF AND PUSH4 0x70A08231 DUP10 PUSH1 0x40 MLOAD DUP3 PUSH4 0xFFFFFFFF AND PUSH1 0xE0 SHL DUP2 MSTORE PUSH1 0x4 ADD PUSH2 0xCEC SWAP2 SWAP1 PUSH2 0x4E69 JUMP JUMPDEST PUSH1 0x0 DUP1 PUSH1 0x0 PUSH2 0x2736 PUSH32 0x0 DUP15 PUSH32 0x0 PUSH2 0x3692 JUMP JUMPDEST SWAP1 POP PUSH1 0x0 DUP8 PUSH2 0x2745 JUMPI DUP13 PUSH2 0x2767 JUMP JUMPDEST PUSH32 0xFFFFFFFFFFFFFFFFFFFFFFFFFFFFFFFFFFFFFFFFFFFFFFFFFFFFFFFFFFFFFFFF JUMPDEST PUSH1 0x40 MLOAD PUSH32 0xD505ACCF00000000000000000000000000000000000000000000000000000000 DUP2 MSTORE SWAP1 SWAP2 POP PUSH20 0xFFFFFFFFFFFFFFFFFFFFFFFFFFFFFFFFFFFFFFFF DUP4 AND SWAP1 PUSH4 0xD505ACCF SWAP1 PUSH2 0x27C8 SWAP1 CALLER SWAP1 ADDRESS SWAP1 DUP7 SWAP1 DUP16 SWAP1 DUP15 SWAP1 DUP15 SWAP1 DUP15 SWAP1 PUSH1 0x4 ADD PUSH2 0x4E8A JUMP JUMPDEST PUSH1 0x0 PUSH1 0x40 MLOAD DUP1 DUP4 SUB DUP2 PUSH1 0x0 DUP8 DUP1 EXTCODESIZE ISZERO DUP1 ISZERO PUSH2 0x27E2 JUMPI PUSH1 0x0 DUP1 REVERT JUMPDEST POP GAS CALL ISZERO DUP1 ISZERO PUSH2 0x27F6 JUMPI RETURNDATASIZE PUSH1 0x0 DUP1 RETURNDATACOPY RETURNDATASIZE PUSH1 0x0 REVERT JUMPDEST POP POP POP POP PUSH2 0x280A DUP15 DUP15 PUSH1 0x0 DUP16 DUP16 DUP16 DUP16 PUSH2 0x1F36 JUMP JUMPDEST SWAP1 SWAP16 SWAP1 SWAP15 POP SWAP13 POP POP POP POP POP POP POP POP POP POP POP POP POP JUMP JUMPDEST PUSH32 0x0 DUP2 JUMP JUMPDEST PUSH1 0x60 PUSH2 0x544 PUSH32 0x0 DUP6 DUP6 DUP6 PUSH2 0x417F JUMP JUMPDEST PUSH1 0x60 DUP2 TIMESTAMP DUP2 LT ISZERO PUSH2 0x28AE JUMPI PUSH1 0x40 MLOAD PUSH32 0x8C379A000000000000000000000000000000000000000000000000000000000 DUP2 MSTORE PUSH1 0x4 ADD PUSH2 0x589 SWAP1 PUSH2 0x5076 JUMP JUMPDEST PUSH32 0x0 PUSH20 0xFFFFFFFFFFFFFFFFFFFFFFFFFFFFFFFFFFFFFFFF AND DUP7 DUP7 PUSH1 0x0 DUP2 DUP2 LT PUSH2 0x28F2 JUMPI INVALID JUMPDEST SWAP1 POP PUSH1 0x20 MUL ADD PUSH1 0x20 DUP2 ADD SWAP1 PUSH2 0x2907 SWAP2 SWAP1 PUSH2 0x4686 JUMP JUMPDEST PUSH20 0xFFFFFFFFFFFFFFFFFFFFFFFFFFFFFFFFFFFFFFFF AND EQ PUSH2 0x2954 JUMPI PUSH1 0x40 MLOAD PUSH32 0x8C379A000000000000000000000000000000000000000000000000000000000 DUP2 MSTORE PUSH1 0x4 ADD PUSH2 0x589 SWAP1 PUSH2 0x503F JUMP JUMPDEST PUSH1 0x0 PUSH2 0x2982 PUSH32 0x0 DUP10 DUP10 DUP10 PUSH2 0x3B31 JUMP JUMPDEST DUP1 SWAP5 POP DUP2 SWAP3 POP POP POP CALLVALUE DUP4 PUSH1 0x0 DUP2 MLOAD DUP2 LT PUSH2 0x2998 JUMPI INVALID JUMPDEST PUSH1 0x20 MUL PUSH1 0x20 ADD ADD MLOAD GT ISZERO PUSH2 0x29D8 JUMPI PUSH1 0x40 MLOAD PUSH32 0x8C379A000000000000000000000000000000000000000000000000000000000 DUP2 MSTORE PUSH1 0x4 ADD PUSH2 0x589 SWAP1 PUSH2 0x52FD JUMP JUMPDEST PUSH32 0x0 PUSH20 0xFFFFFFFFFFFFFFFFFFFFFFFFFFFFFFFFFFFFFFFF AND PUSH4 0xD0E30DB0 DUP5 PUSH1 0x0 DUP2 MLOAD DUP2 LT PUSH2 0x2A21 JUMPI INVALID JUMPDEST PUSH1 0x20 MUL PUSH1 0x20 ADD ADD MLOAD PUSH1 0x40 MLOAD DUP3 PUSH4 0xFFFFFFFF AND PUSH1 0xE0 SHL DUP2 MSTORE PUSH1 0x4 ADD PUSH1 0x0 PUSH1 0x40 MLOAD DUP1 DUP4 SUB DUP2 DUP6 DUP9 DUP1 EXTCODESIZE ISZERO DUP1 ISZERO PUSH2 0x2A54 JUMPI PUSH1 0x0 DUP1 REVERT JUMPDEST POP GAS CALL ISZERO DUP1 ISZERO PUSH2 0x2A68 JUMPI RETURNDATASIZE PUSH1 0x0 DUP1 RETURNDATACOPY RETURNDATASIZE PUSH1 0x0 REVERT JUMPDEST POP POP POP POP POP PUSH32 0x0 PUSH20 0xFFFFFFFFFFFFFFFFFFFFFFFFFFFFFFFFFFFFFFFF AND PUSH4 0xA9059CBB DUP3 DUP6 PUSH1 0x0 DUP2 MLOAD DUP2 LT PUSH2 0x2AB7 JUMPI INVALID JUMPDEST PUSH1 0x20 MUL PUSH1 0x20 ADD ADD MLOAD PUSH1 0x40 MLOAD DUP4 PUSH4 0xFFFFFFFF AND PUSH1 0xE0 SHL DUP2 MSTORE PUSH1 0x4 ADD PUSH2 0x2ADC SWAP3 SWAP2 SWAP1 PUSH2 0x4F67 JUMP JUMPDEST PUSH1 0x20 PUSH1 0x40 MLOAD DUP1 DUP4 SUB DUP2 PUSH1 0x0 DUP8 DUP1 EXTCODESIZE ISZERO DUP1 ISZERO PUSH2 0x2AF6 JUMPI PUSH1 0x0 DUP1 REVERT JUMPDEST POP GAS CALL ISZERO DUP1 ISZERO PUSH2 0x2B0A JUMPI RETURNDATASIZE PUSH1 0x0 DUP1 RETURNDATACOPY RETURNDATASIZE PUSH1 0x0 REVERT JUMPDEST POP POP POP POP PUSH1 0x40 MLOAD RETURNDATASIZE PUSH1 0x1F NOT PUSH1 0x1F DUP3 ADD AND DUP3 ADD DUP1 PUSH1 0x40 MSTORE POP DUP2 ADD SWAP1 PUSH2 0x2B2E SWAP2 SWAP1 PUSH2 0x4B35 JUMP JUMPDEST PUSH2 0x2B34 JUMPI INVALID JUMPDEST PUSH2 0x2B73 DUP4 DUP9 DUP9 DUP1 DUP1 PUSH1 0x20 MUL PUSH1 0x20 ADD PUSH1 0x40 MLOAD SWAP1 DUP2 ADD PUSH1 0x40 MSTORE DUP1 SWAP4 SWAP3 SWAP2 SWAP1 DUP2 DUP2 MSTORE PUSH1 0x20 ADD DUP4 DUP4 PUSH1 0x20 MUL DUP1 DUP3 DUP5 CALLDATACOPY PUSH1 0x0 SWAP3 ADD SWAP2 SWAP1 SWAP2 MSTORE POP DUP11 SWAP3 POP PUSH2 0x344F SWAP2 POP POP JUMP JUMPDEST DUP3 PUSH1 0x0 DUP2 MLOAD DUP2 LT PUSH2 0x2B80 JUMPI INVALID JUMPDEST PUSH1 0x20 MUL PUSH1 0x20 ADD ADD MLOAD CALLVALUE GT ISZERO PUSH2 0x1590 JUMPI PUSH2 0x1590 CALLER DUP5 PUSH1 0x0 DUP2 MLOAD DUP2 LT PUSH2 0x2BA0 JUMPI INVALID JUMPDEST PUSH1 0x20 MUL PUSH1 0x20 ADD ADD MLOAD CALLVALUE SUB PUSH2 0x35D9 JUMP JUMPDEST PUSH1 0x0 DUP1 PUSH1 0x0 DUP1 DUP5 TIMESTAMP DUP2 LT ISZERO PUSH2 0x2BF0 JUMPI PUSH1 0x40 MLOAD PUSH32 0x8C379A000000000000000000000000000000000000000000000000000000000 DUP2 MSTORE PUSH1 0x4 ADD PUSH2 0x589 SWAP1 PUSH2 0x5076 JUMP JUMPDEST PUSH1 0x64 DUP9 GT ISZERO PUSH2 0x2C2B JUMPI PUSH1 0x40 MLOAD PUSH32 0x8C379A000000000000000000000000000000000000000000000000000000000 DUP2 MSTORE PUSH1 0x4 ADD PUSH2 0x589 SWAP1 PUSH2 0x53EE JUMP JUMPDEST DUP8 ISZERO PUSH2 0x2E8D JUMPI PUSH1 0x0 PUSH2 0x2C85 DUP12 PUSH32 0x0 PUSH1 0x64 PUSH2 0x2C64 DUP15 DUP15 PUSH2 0x3F1C JUMP JUMPDEST DUP2 PUSH2 0x2C6B JUMPI INVALID JUMPDEST DIV PUSH1 0x64 PUSH2 0x2C78 CALLVALUE DUP16 PUSH2 0x3F1C JUMP JUMPDEST DUP2 PUSH2 0x2C7F JUMPI INVALID JUMPDEST DIV PUSH2 0x3F6D JUMP JUMPDEST SWAP2 SWAP8 POP SWAP6 POP SWAP1 POP PUSH2 0x2C98 DUP12 CALLER DUP4 DUP10 PUSH2 0x3322 JUMP JUMPDEST PUSH32 0x0 PUSH20 0xFFFFFFFFFFFFFFFFFFFFFFFFFFFFFFFFFFFFFFFF AND PUSH4 0xD0E30DB0 DUP7 PUSH1 0x40 MLOAD DUP3 PUSH4 0xFFFFFFFF AND PUSH1 0xE0 SHL DUP2 MSTORE PUSH1 0x4 ADD PUSH1 0x0 PUSH1 0x40 MLOAD DUP1 DUP4 SUB DUP2 DUP6 DUP9 DUP1 EXTCODESIZE ISZERO DUP1 ISZERO PUSH2 0x2D00 JUMPI PUSH1 0x0 DUP1 REVERT JUMPDEST POP GAS CALL ISZERO DUP1 ISZERO PUSH2 0x2D14 JUMPI RETURNDATASIZE PUSH1 0x0 DUP1 RETURNDATACOPY RETURNDATASIZE PUSH1 0x0 REVERT JUMPDEST POP POP PUSH1 0x40 MLOAD PUSH32 0xA9059CBB00000000000000000000000000000000000000000000000000000000 DUP2 MSTORE PUSH20 0xFFFFFFFFFFFFFFFFFFFFFFFFFFFFFFFFFFFFFFFF PUSH32 0x0 AND SWAP4 POP PUSH4 0xA9059CBB SWAP3 POP PUSH2 0x2D8D SWAP2 POP DUP5 SWAP1 DUP10 SWAP1 PUSH1 0x4 ADD PUSH2 0x4F67 JUMP JUMPDEST PUSH1 0x20 PUSH1 0x40 MLOAD DUP1 DUP4 SUB DUP2 PUSH1 0x0 DUP8 DUP1 EXTCODESIZE ISZERO DUP1 ISZERO PUSH2 0x2DA7 JUMPI PUSH1 0x0 DUP1 REVERT JUMPDEST POP GAS CALL ISZERO DUP1 ISZERO PUSH2 0x2DBB JUMPI RETURNDATASIZE PUSH1 0x0 DUP1 RETURNDATACOPY RETURNDATASIZE PUSH1 0x0 REVERT JUMPDEST POP POP POP POP PUSH1 0x40 MLOAD RETURNDATASIZE PUSH1 0x1F NOT PUSH1 0x1F DUP3 ADD AND DUP3 ADD DUP1 PUSH1 0x40 MSTORE POP DUP2 ADD SWAP1 PUSH2 0x2DDF SWAP2 SWAP1 PUSH2 0x4B35 JUMP JUMPDEST PUSH2 0x2DE5 JUMPI INVALID JUMPDEST PUSH1 0x40 MLOAD PUSH32 0x6A62784200000000000000000000000000000000000000000000000000000000 DUP2 MSTORE PUSH20 0xFFFFFFFFFFFFFFFFFFFFFFFFFFFFFFFFFFFFFFFF DUP3 AND SWAP1 PUSH4 0x6A627842 SWAP1 PUSH2 0x2E37 SWAP1 DUP12 SWAP1 PUSH1 0x4 ADD PUSH2 0x4E69 JUMP JUMPDEST PUSH1 0x20 PUSH1 0x40 MLOAD DUP1 DUP4 SUB DUP2 PUSH1 0x0 DUP8 DUP1 EXTCODESIZE ISZERO DUP1 ISZERO PUSH2 0x2E51 JUMPI PUSH1 0x0 DUP1 REVERT JUMPDEST POP GAS CALL ISZERO DUP1 ISZERO PUSH2 0x2E65 JUMPI RETURNDATASIZE PUSH1 0x0 DUP1 RETURNDATACOPY RETURNDATASIZE PUSH1 0x0 REVERT JUMPDEST POP POP POP POP PUSH1 0x40 MLOAD RETURNDATASIZE PUSH1 0x1F NOT PUSH1 0x1F DUP3 ADD AND DUP3 ADD DUP1 PUSH1 0x40 MSTORE POP DUP2 ADD SWAP1 PUSH2 0x2E89 SWAP2 SWAP1 PUSH2 0x4BD5 JUMP JUMPDEST SWAP4 POP POP JUMPDEST PUSH1 0x64 DUP9 EQ PUSH2 0x30D7 JUMPI PUSH1 0x0 DUP1 PUSH2 0x2EC8 PUSH32 0x0 DUP14 DUP9 CALLVALUE SUB DUP11 DUP16 SUB PUSH2 0x3F6D JUMP JUMPDEST SWAP1 SWAP13 POP SWAP3 POP SWAP1 POP PUSH2 0x2EDB DUP13 CALLER DUP5 DUP15 PUSH2 0x3322 JUMP JUMPDEST PUSH32 0x0 PUSH20 0xFFFFFFFFFFFFFFFFFFFFFFFFFFFFFFFFFFFFFFFF AND PUSH4 0xD0E30DB0 DUP3 PUSH1 0x40 MLOAD DUP3 PUSH4 0xFFFFFFFF AND PUSH1 0xE0 SHL DUP2 MSTORE PUSH1 0x4 ADD PUSH1 0x0 PUSH1 0x40 MLOAD DUP1 DUP4 SUB DUP2 DUP6 DUP9 DUP1 EXTCODESIZE ISZERO DUP1 ISZERO PUSH2 0x2F43 JUMPI PUSH1 0x0 DUP1 REVERT JUMPDEST POP GAS CALL ISZERO DUP1 ISZERO PUSH2 0x2F57 JUMPI RETURNDATASIZE PUSH1 0x0 DUP1 RETURNDATACOPY RETURNDATASIZE PUSH1 0x0 REVERT JUMPDEST POP POP PUSH1 0x40 MLOAD PUSH32 0xA9059CBB00000000000000000000000000000000000000000000000000000000 DUP2 MSTORE PUSH20 0xFFFFFFFFFFFFFFFFFFFFFFFFFFFFFFFFFFFFFFFF PUSH32 0x0 AND SWAP4 POP PUSH4 0xA9059CBB SWAP3 POP PUSH2 0x2FD0 SWAP2 POP DUP6 SWAP1 DUP6 SWAP1 PUSH1 0x4 ADD PUSH2 0x4F67 JUMP JUMPDEST PUSH1 0x20 PUSH1 0x40 MLOAD DUP1 DUP4 SUB DUP2 PUSH1 0x0 DUP8 DUP1 EXTCODESIZE ISZERO DUP1 ISZERO PUSH2 0x2FEA JUMPI PUSH1 0x0 DUP1 REVERT JUMPDEST POP GAS CALL ISZERO DUP1 ISZERO PUSH2 0x2FFE JUMPI RETURNDATASIZE PUSH1 0x0 DUP1 RETURNDATACOPY RETURNDATASIZE PUSH1 0x0 REVERT JUMPDEST POP POP POP POP PUSH1 0x40 MLOAD RETURNDATASIZE PUSH1 0x1F NOT PUSH1 0x1F DUP3 ADD AND DUP3 ADD DUP1 PUSH1 0x40 MSTORE POP DUP2 ADD SWAP1 PUSH2 0x3022 SWAP2 SWAP1 PUSH2 0x4B35 JUMP JUMPDEST PUSH2 0x3028 JUMPI INVALID JUMPDEST PUSH1 0x40 MLOAD PUSH32 0x6A62784200000000000000000000000000000000000000000000000000000000 DUP2 MSTORE PUSH20 0xFFFFFFFFFFFFFFFFFFFFFFFFFFFFFFFFFFFFFFFF DUP4 AND SWAP1 PUSH4 0x6A627842 SWAP1 PUSH2 0x307A SWAP1 DUP13 SWAP1 PUSH1 0x4 ADD PUSH2 0x4E69 JUMP JUMPDEST PUSH1 0x20 PUSH1 0x40 MLOAD DUP1 DUP4 SUB DUP2 PUSH1 0x0 DUP8 DUP1 EXTCODESIZE ISZERO DUP1 ISZERO PUSH2 0x3094 JUMPI PUSH1 0x0 DUP1 REVERT JUMPDEST POP GAS CALL ISZERO DUP1 ISZERO PUSH2 0x30A8 JUMPI RETURNDATASIZE PUSH1 0x0 DUP1 RETURNDATACOPY RETURNDATASIZE PUSH1 0x0 REVERT JUMPDEST POP POP POP POP PUSH1 0x40 MLOAD RETURNDATASIZE PUSH1 0x1F NOT PUSH1 0x1F DUP3 ADD AND DUP3 ADD DUP1 PUSH1 0x40 MSTORE POP DUP2 ADD SWAP1 PUSH2 0x30CC SWAP2 SWAP1 PUSH2 0x4BD5 JUMP JUMPDEST SWAP7 DUP12 ADD SWAP7 SWAP6 ADD SWAP5 SWAP3 POP POP JUMPDEST DUP4 CALLVALUE GT ISZERO PUSH2 0x30EB JUMPI PUSH2 0x30EB CALLER DUP6 CALLVALUE SUB PUSH2 0x35D9 JUMP JUMPDEST POP SWAP6 POP SWAP6 POP SWAP6 POP SWAP6 SWAP2 POP POP JUMP JUMPDEST PUSH1 0x0 DUP1 DUP5 GT PUSH2 0x3133 JUMPI PUSH1 0x40 MLOAD PUSH32 0x8C379A000000000000000000000000000000000000000000000000000000000 DUP2 MSTORE PUSH1 0x4 ADD PUSH2 0x589 SWAP1 PUSH2 0x51AF JUMP JUMPDEST PUSH1 0x0 DUP4 GT DUP1 ISZERO PUSH2 0x3143 JUMPI POP PUSH1 0x0 DUP3 GT JUMPDEST PUSH2 0x3179 JUMPI PUSH1 0x40 MLOAD PUSH32 0x8C379A000000000000000000000000000000000000000000000000000000000 DUP2 MSTORE PUSH1 0x4 ADD PUSH2 0x589 SWAP1 PUSH2 0x511B JUMP JUMPDEST PUSH1 0x0 PUSH2 0x3185 DUP6 DUP5 PUSH2 0x3F1C JUMP JUMPDEST SWAP1 POP PUSH1 0x0 PUSH2 0x3193 DUP6 DUP8 PUSH2 0x42C6 JUMP JUMPDEST SWAP1 POP DUP1 DUP3 DUP2 PUSH2 0x319E JUMPI INVALID JUMPDEST DIV SWAP7 SWAP6 POP POP POP POP POP POP JUMP JUMPDEST PUSH1 0x0 PUSH1 0x60 PUSH1 0x2 DUP4 LT ISZERO PUSH2 0x31E8 JUMPI PUSH1 0x40 MLOAD PUSH32 0x8C379A000000000000000000000000000000000000000000000000000000000 DUP2 MSTORE PUSH1 0x4 ADD PUSH2 0x589 SWAP1 PUSH2 0x52C6 JUMP JUMPDEST DUP3 PUSH8 0xFFFFFFFFFFFFFFFF DUP2 GT DUP1 ISZERO PUSH2 0x31FF JUMPI PUSH1 0x0 DUP1 REVERT JUMPDEST POP PUSH1 0x40 MLOAD SWAP1 DUP1 DUP3 MSTORE DUP1 PUSH1 0x20 MUL PUSH1 0x20 ADD DUP3 ADD PUSH1 0x40 MSTORE DUP1 ISZERO PUSH2 0x3229 JUMPI DUP2 PUSH1 0x20 ADD PUSH1 0x20 DUP3 MUL DUP1 CALLDATASIZE DUP4 CALLDATACOPY ADD SWAP1 POP JUMPDEST POP SWAP1 POP DUP5 DUP2 PUSH1 0x0 DUP2 MLOAD DUP2 LT PUSH2 0x323A JUMPI INVALID JUMPDEST PUSH1 0x20 MUL PUSH1 0x20 ADD ADD DUP2 DUP2 MSTORE POP POP PUSH1 0x0 JUMPDEST PUSH32 0xFFFFFFFFFFFFFFFFFFFFFFFFFFFFFFFFFFFFFFFFFFFFFFFFFFFFFFFFFFFFFFFF DUP5 ADD DUP2 LT ISZERO PUSH2 0x3318 JUMPI PUSH1 0x0 DUP1 PUSH1 0x0 PUSH2 0x32C6 DUP11 DUP10 DUP10 DUP8 DUP2 DUP2 LT PUSH2 0x3288 JUMPI INVALID JUMPDEST SWAP1 POP PUSH1 0x20 MUL ADD PUSH1 0x20 DUP2 ADD SWAP1 PUSH2 0x329D SWAP2 SWAP1 PUSH2 0x4686 JUMP JUMPDEST DUP11 DUP11 DUP9 PUSH1 0x1 ADD DUP2 DUP2 LT PUSH2 0x32AC JUMPI INVALID JUMPDEST SWAP1 POP PUSH1 0x20 MUL ADD PUSH1 0x20 DUP2 ADD SWAP1 PUSH2 0x32C1 SWAP2 SWAP1 PUSH2 0x4686 JUMP JUMPDEST PUSH2 0x4303 JUMP JUMPDEST SWAP3 POP SWAP3 POP SWAP3 POP PUSH2 0x32EA DUP6 DUP6 DUP2 MLOAD DUP2 LT PUSH2 0x32DB JUMPI INVALID JUMPDEST PUSH1 0x20 MUL PUSH1 0x20 ADD ADD MLOAD DUP5 DUP5 PUSH2 0x30F8 JUMP JUMPDEST DUP6 DUP6 PUSH1 0x1 ADD DUP2 MLOAD DUP2 LT PUSH2 0x32F9 JUMPI INVALID JUMPDEST PUSH1 0x20 SWAP1 DUP2 MUL SWAP2 SWAP1 SWAP2 ADD ADD MSTORE DUP4 PUSH2 0x330D JUMPI DUP1 SWAP6 POP JUMPDEST POP POP POP PUSH1 0x1 ADD PUSH2 0x3249 JUMP JUMPDEST POP SWAP5 POP SWAP5 SWAP3 POP POP POP JUMP JUMPDEST PUSH1 0x0 PUSH1 0x60 DUP6 PUSH20 0xFFFFFFFFFFFFFFFFFFFFFFFFFFFFFFFFFFFFFFFF AND PUSH4 0x23B872DD DUP7 DUP7 DUP7 PUSH1 0x40 MLOAD PUSH1 0x24 ADD PUSH2 0x3357 SWAP4 SWAP3 SWAP2 SWAP1 PUSH2 0x4ED8 JUMP JUMPDEST PUSH1 0x40 MLOAD PUSH1 0x20 DUP2 DUP4 SUB SUB DUP2 MSTORE SWAP1 PUSH1 0x40 MSTORE SWAP1 PUSH1 0xE0 SHL PUSH1 0x20 DUP3 ADD DUP1 MLOAD PUSH28 0xFFFFFFFFFFFFFFFFFFFFFFFFFFFFFFFFFFFFFFFFFFFFFFFFFFFFFFFF DUP4 DUP2 DUP4 AND OR DUP4 MSTORE POP POP POP POP PUSH1 0x40 MLOAD PUSH2 0x33A5 SWAP2 SWAP1 PUSH2 0x4DCC JUMP JUMPDEST PUSH1 0x0 PUSH1 0x40 MLOAD DUP1 DUP4 SUB DUP2 PUSH1 0x0 DUP7 GAS CALL SWAP2 POP POP RETURNDATASIZE DUP1 PUSH1 0x0 DUP2 EQ PUSH2 0x33E2 JUMPI PUSH1 0x40 MLOAD SWAP2 POP PUSH1 0x1F NOT PUSH1 0x3F RETURNDATASIZE ADD AND DUP3 ADD PUSH1 0x40 MSTORE RETURNDATASIZE DUP3 MSTORE RETURNDATASIZE PUSH1 0x0 PUSH1 0x20 DUP5 ADD RETURNDATACOPY PUSH2 0x33E7 JUMP JUMPDEST PUSH1 0x60 SWAP2 POP JUMPDEST POP SWAP2 POP SWAP2 POP DUP2 DUP1 ISZERO PUSH2 0x3411 JUMPI POP DUP1 MLOAD ISZERO DUP1 PUSH2 0x3411 JUMPI POP DUP1 DUP1 PUSH1 0x20 ADD SWAP1 MLOAD DUP2 ADD SWAP1 PUSH2 0x3411 SWAP2 SWAP1 PUSH2 0x4B35 JUMP JUMPDEST PUSH2 0x3447 JUMPI PUSH1 0x40 MLOAD PUSH32 0x8C379A000000000000000000000000000000000000000000000000000000000 DUP2 MSTORE PUSH1 0x4 ADD PUSH2 0x589 SWAP1 PUSH2 0x553C JUMP JUMPDEST POP POP POP POP POP POP JUMP JUMPDEST PUSH1 0x0 JUMPDEST PUSH1 0x1 DUP4 MLOAD SUB DUP2 LT ISZERO PUSH2 0x35D3 JUMPI PUSH1 0x0 DUP1 DUP5 DUP4 DUP2 MLOAD DUP2 LT PUSH2 0x346D JUMPI INVALID JUMPDEST PUSH1 0x20 MUL PUSH1 0x20 ADD ADD MLOAD DUP6 DUP5 PUSH1 0x1 ADD DUP2 MLOAD DUP2 LT PUSH2 0x3484 JUMPI INVALID JUMPDEST PUSH1 0x20 MUL PUSH1 0x20 ADD ADD MLOAD SWAP2 POP SWAP2 POP PUSH1 0x0 DUP7 DUP5 PUSH1 0x1 ADD DUP2 MLOAD DUP2 LT PUSH2 0x34A1 JUMPI INVALID JUMPDEST PUSH1 0x20 MUL PUSH1 0x20 ADD ADD MLOAD SWAP1 POP PUSH1 0x0 PUSH1 0x2 DUP8 MLOAD SUB DUP6 LT PUSH2 0x34BE JUMPI DUP6 PUSH2 0x34FF JUMP JUMPDEST PUSH2 0x34FF PUSH32 0x0 DUP5 DUP10 DUP9 PUSH1 0x2 ADD DUP2 MLOAD DUP2 LT PUSH2 0x34F2 JUMPI INVALID JUMPDEST PUSH1 0x20 MUL PUSH1 0x20 ADD ADD MLOAD PUSH2 0x3692 JUMP JUMPDEST SWAP1 POP PUSH2 0x352C PUSH32 0x0 DUP6 DUP6 PUSH2 0x3692 JUMP JUMPDEST PUSH1 0x40 DUP1 MLOAD PUSH1 0x0 DUP2 MSTORE PUSH1 0x20 DUP2 ADD SWAP2 DUP3 SWAP1 MSTORE PUSH32 0x1C6DA72400000000000000000000000000000000000000000000000000000000 SWAP1 SWAP2 MSTORE PUSH20 0xFFFFFFFFFFFFFFFFFFFFFFFFFFFFFFFFFFFFFFFF SWAP2 SWAP1 SWAP2 AND SWAP1 PUSH4 0x1C6DA724 SWAP1 PUSH2 0x3591 SWAP1 DUP6 SWAP1 DUP6 SWAP1 PUSH1 0x24 DUP2 ADD PUSH2 0x55D9 JUMP JUMPDEST PUSH1 0x0 PUSH1 0x40 MLOAD DUP1 DUP4 SUB DUP2 PUSH1 0x0 DUP8 DUP1 EXTCODESIZE ISZERO DUP1 ISZERO PUSH2 0x35AB JUMPI PUSH1 0x0 DUP1 REVERT JUMPDEST POP GAS CALL ISZERO DUP1 ISZERO PUSH2 0x35BF JUMPI RETURNDATASIZE PUSH1 0x0 DUP1 RETURNDATACOPY RETURNDATASIZE PUSH1 0x0 REVERT JUMPDEST POP POP PUSH1 0x1 SWAP1 SWAP7 ADD SWAP6 POP PUSH2 0x3452 SWAP5 POP POP POP POP POP JUMP JUMPDEST POP POP POP POP JUMP JUMPDEST PUSH1 0x40 DUP1 MLOAD PUSH1 0x0 DUP1 DUP3 MSTORE PUSH1 0x20 DUP3 ADD SWAP1 SWAP3 MSTORE PUSH20 0xFFFFFFFFFFFFFFFFFFFFFFFFFFFFFFFFFFFFFFFF DUP5 AND SWAP1 DUP4 SWAP1 PUSH1 0x40 MLOAD PUSH2 0x3610 SWAP2 SWAP1 PUSH2 0x4DCC JUMP JUMPDEST PUSH1 0x0 PUSH1 0x40 MLOAD DUP1 DUP4 SUB DUP2 DUP6 DUP8 GAS CALL SWAP3 POP POP POP RETURNDATASIZE DUP1 PUSH1 0x0 DUP2 EQ PUSH2 0x364D JUMPI PUSH1 0x40 MLOAD SWAP2 POP PUSH1 0x1F NOT PUSH1 0x3F RETURNDATASIZE ADD AND DUP3 ADD PUSH1 0x40 MSTORE RETURNDATASIZE DUP3 MSTORE RETURNDATASIZE PUSH1 0x0 PUSH1 0x20 DUP5 ADD RETURNDATACOPY PUSH2 0x3652 JUMP JUMPDEST PUSH1 0x60 SWAP2 POP JUMPDEST POP POP SWAP1 POP DUP1 PUSH2 0x368D JUMPI PUSH1 0x40 MLOAD PUSH32 0x8C379A000000000000000000000000000000000000000000000000000000000 DUP2 MSTORE PUSH1 0x4 ADD PUSH2 0x589 SWAP1 PUSH2 0x5425 JUMP JUMPDEST POP POP POP JUMP JUMPDEST PUSH1 0x0 DUP4 DUP4 DUP4 PUSH1 0x40 MLOAD PUSH1 0x20 ADD PUSH2 0x36A8 SWAP3 SWAP2 SWAP1 PUSH2 0x4D92 JUMP JUMPDEST PUSH1 0x40 MLOAD PUSH1 0x20 DUP2 DUP4 SUB SUB DUP2 MSTORE SWAP1 PUSH1 0x40 MSTORE DUP1 MLOAD SWAP1 PUSH1 0x20 ADD KECCAK256 PUSH1 0x40 MLOAD PUSH1 0x20 ADD PUSH2 0x36CF SWAP3 SWAP2 SWAP1 PUSH2 0x4DE8 JUMP JUMPDEST PUSH1 0x40 DUP1 MLOAD PUSH32 0xFFFFFFFFFFFFFFFFFFFFFFFFFFFFFFFFFFFFFFFFFFFFFFFFFFFFFFFFFFFFFFE0 DUP2 DUP5 SUB ADD DUP2 MSTORE SWAP2 SWAP1 MSTORE DUP1 MLOAD PUSH1 0x20 SWAP1 SWAP2 ADD KECCAK256 SWAP5 SWAP4 POP POP POP POP JUMP JUMPDEST PUSH1 0x60 PUSH1 0x2 DUP3 LT ISZERO PUSH2 0x374A JUMPI PUSH1 0x40 MLOAD PUSH32 0x8C379A000000000000000000000000000000000000000000000000000000000 DUP2 MSTORE PUSH1 0x4 ADD PUSH2 0x589 SWAP1 PUSH2 0x52C6 JUMP JUMPDEST DUP2 PUSH8 0xFFFFFFFFFFFFFFFF DUP2 GT DUP1 ISZERO PUSH2 0x3761 JUMPI PUSH1 0x0 DUP1 REVERT JUMPDEST POP PUSH1 0x40 MLOAD SWAP1 DUP1 DUP3 MSTORE DUP1 PUSH1 0x20 MUL PUSH1 0x20 ADD DUP3 ADD PUSH1 0x40 MSTORE DUP1 ISZERO PUSH2 0x378B JUMPI DUP2 PUSH1 0x20 ADD PUSH1 0x20 DUP3 MUL DUP1 CALLDATASIZE DUP4 CALLDATACOPY ADD SWAP1 POP JUMPDEST POP SWAP1 POP DUP4 DUP2 PUSH1 0x1 DUP4 MLOAD SUB DUP2 MLOAD DUP2 LT PUSH2 0x379F JUMPI INVALID JUMPDEST PUSH1 0x20 SWAP1 DUP2 MUL SWAP2 SWAP1 SWAP2 ADD ADD MSTORE PUSH32 0xFFFFFFFFFFFFFFFFFFFFFFFFFFFFFFFFFFFFFFFFFFFFFFFFFFFFFFFFFFFFFFFF DUP3 ADD JUMPDEST DUP1 ISZERO PUSH2 0x388C JUMPI PUSH1 0x0 DUP1 PUSH2 0x3825 DUP9 DUP8 DUP8 PUSH1 0x1 DUP8 SUB DUP2 DUP2 LT PUSH2 0x37EA JUMPI INVALID JUMPDEST SWAP1 POP PUSH1 0x20 MUL ADD PUSH1 0x20 DUP2 ADD SWAP1 PUSH2 0x37FF SWAP2 SWAP1 PUSH2 0x4686 JUMP JUMPDEST DUP9 DUP9 DUP8 DUP2 DUP2 LT PUSH2 0x380B JUMPI INVALID JUMPDEST SWAP1 POP PUSH1 0x20 MUL ADD PUSH1 0x20 DUP2 ADD SWAP1 PUSH2 0x3820 SWAP2 SWAP1 PUSH2 0x4686 JUMP JUMPDEST PUSH2 0x44F2 JUMP JUMPDEST POP POP SWAP2 POP SWAP2 POP PUSH2 0x3849 DUP5 DUP5 DUP2 MLOAD DUP2 LT PUSH2 0x383A JUMPI INVALID JUMPDEST PUSH1 0x20 MUL PUSH1 0x20 ADD ADD MLOAD DUP4 DUP4 PUSH2 0x3CA7 JUMP JUMPDEST DUP5 PUSH1 0x1 DUP6 SUB DUP2 MLOAD DUP2 LT PUSH2 0x3858 JUMPI INVALID JUMPDEST PUSH1 0x20 SWAP1 DUP2 MUL SWAP2 SWAP1 SWAP2 ADD ADD MSTORE POP POP PUSH32 0xFFFFFFFFFFFFFFFFFFFFFFFFFFFFFFFFFFFFFFFFFFFFFFFFFFFFFFFFFFFFFFFF ADD PUSH2 0x37CE JUMP JUMPDEST POP SWAP5 SWAP4 POP POP POP POP JUMP JUMPDEST PUSH1 0x0 JUMPDEST PUSH1 0x1 DUP4 MLOAD SUB DUP2 LT ISZERO PUSH2 0x368D JUMPI PUSH1 0x0 DUP1 DUP5 DUP4 DUP2 MLOAD DUP2 LT PUSH2 0x38B3 JUMPI INVALID JUMPDEST PUSH1 0x20 MUL PUSH1 0x20 ADD ADD MLOAD DUP6 DUP5 PUSH1 0x1 ADD DUP2 MLOAD DUP2 LT PUSH2 0x38CA JUMPI INVALID JUMPDEST PUSH1 0x20 MUL PUSH1 0x20 ADD ADD MLOAD SWAP2 POP SWAP2 POP PUSH1 0x0 PUSH2 0x3903 PUSH32 0x0 DUP5 DUP5 PUSH2 0x3692 JUMP JUMPDEST SWAP1 POP PUSH1 0x0 DUP1 PUSH1 0x0 DUP1 DUP5 PUSH20 0xFFFFFFFFFFFFFFFFFFFFFFFFFFFFFFFFFFFFFFFF AND PUSH4 0x902F1AC PUSH1 0x40 MLOAD DUP2 PUSH4 0xFFFFFFFF AND PUSH1 0xE0 SHL DUP2 MSTORE PUSH1 0x4 ADD PUSH1 0x80 PUSH1 0x40 MLOAD DUP1 DUP4 SUB DUP2 DUP7 DUP1 EXTCODESIZE ISZERO DUP1 ISZERO PUSH2 0x3951 JUMPI PUSH1 0x0 DUP1 REVERT JUMPDEST POP GAS STATICCALL ISZERO DUP1 ISZERO PUSH2 0x3965 JUMPI RETURNDATASIZE PUSH1 0x0 DUP1 RETURNDATACOPY RETURNDATASIZE PUSH1 0x0 REVERT JUMPDEST POP POP POP POP PUSH1 0x40 MLOAD RETURNDATASIZE PUSH1 0x1F NOT PUSH1 0x1F DUP3 ADD AND DUP3 ADD DUP1 PUSH1 0x40 MSTORE POP DUP2 ADD SWAP1 PUSH2 0x3989 SWAP2 SWAP1 PUSH2 0x4B7F JUMP JUMPDEST POP POP PUSH14 0xFFFFFFFFFFFFFFFFFFFFFFFFFFFF AND SWAP2 POP PUSH14 0xFFFFFFFFFFFFFFFFFFFFFFFFFFFF AND SWAP2 POP PUSH2 0x39EC DUP3 DUP9 PUSH20 0xFFFFFFFFFFFFFFFFFFFFFFFFFFFFFFFFFFFFFFFF AND PUSH4 0x70A08231 DUP9 PUSH1 0x40 MLOAD DUP3 PUSH4 0xFFFFFFFF AND PUSH1 0xE0 SHL DUP2 MSTORE PUSH1 0x4 ADD PUSH2 0xCEC SWAP2 SWAP1 PUSH2 0x4E69 JUMP JUMPDEST SWAP4 POP PUSH2 0x39F9 DUP5 DUP4 DUP4 PUSH2 0x30F8 JUMP JUMPDEST SWAP3 POP POP POP PUSH1 0x0 PUSH1 0x2 DUP10 MLOAD SUB DUP8 LT PUSH2 0x3A10 JUMPI DUP8 PUSH2 0x3A44 JUMP JUMPDEST PUSH2 0x3A44 PUSH32 0x0 DUP7 DUP12 DUP11 PUSH1 0x2 ADD DUP2 MLOAD DUP2 LT PUSH2 0x34F2 JUMPI INVALID JUMPDEST PUSH1 0x40 DUP1 MLOAD PUSH1 0x0 DUP2 MSTORE PUSH1 0x20 DUP2 ADD SWAP2 DUP3 SWAP1 MSTORE PUSH32 0x1C6DA72400000000000000000000000000000000000000000000000000000000 SWAP1 SWAP2 MSTORE SWAP1 SWAP2 POP PUSH20 0xFFFFFFFFFFFFFFFFFFFFFFFFFFFFFFFFFFFFFFFF DUP6 AND SWAP1 PUSH4 0x1C6DA724 SWAP1 PUSH2 0x3AAA SWAP1 DUP6 SWAP1 DUP6 SWAP1 PUSH1 0x24 DUP2 ADD PUSH2 0x55D9 JUMP JUMPDEST PUSH1 0x0 PUSH1 0x40 MLOAD DUP1 DUP4 SUB DUP2 PUSH1 0x0 DUP8 DUP1 EXTCODESIZE ISZERO DUP1 ISZERO PUSH2 0x3AC4 JUMPI PUSH1 0x0 DUP1 REVERT JUMPDEST POP GAS CALL ISZERO DUP1 ISZERO PUSH2 0x3AD8 JUMPI RETURNDATASIZE PUSH1 0x0 DUP1 RETURNDATACOPY RETURNDATASIZE PUSH1 0x0 REVERT JUMPDEST POP POP PUSH1 0x1 SWAP1 SWAP9 ADD SWAP8 POP PUSH2 0x3898 SWAP7 POP POP POP POP POP POP POP JUMP JUMPDEST DUP1 DUP3 SUB DUP3 DUP2 GT ISZERO PUSH2 0x3B2B JUMPI PUSH1 0x40 MLOAD PUSH32 0x8C379A000000000000000000000000000000000000000000000000000000000 DUP2 MSTORE PUSH1 0x4 ADD PUSH2 0x589 SWAP1 PUSH2 0x4FD1 JUMP JUMPDEST SWAP3 SWAP2 POP POP JUMP JUMPDEST PUSH1 0x0 PUSH1 0x60 PUSH1 0x2 DUP4 LT ISZERO PUSH2 0x3B70 JUMPI PUSH1 0x40 MLOAD PUSH32 0x8C379A000000000000000000000000000000000000000000000000000000000 DUP2 MSTORE PUSH1 0x4 ADD PUSH2 0x589 SWAP1 PUSH2 0x52C6 JUMP JUMPDEST DUP3 PUSH8 0xFFFFFFFFFFFFFFFF DUP2 GT DUP1 ISZERO PUSH2 0x3B87 JUMPI PUSH1 0x0 DUP1 REVERT JUMPDEST POP PUSH1 0x40 MLOAD SWAP1 DUP1 DUP3 MSTORE DUP1 PUSH1 0x20 MUL PUSH1 0x20 ADD DUP3 ADD PUSH1 0x40 MSTORE DUP1 ISZERO PUSH2 0x3BB1 JUMPI DUP2 PUSH1 0x20 ADD PUSH1 0x20 DUP3 MUL DUP1 CALLDATASIZE DUP4 CALLDATACOPY ADD SWAP1 POP JUMPDEST POP SWAP1 POP DUP5 DUP2 PUSH1 0x1 DUP4 MLOAD SUB DUP2 MLOAD DUP2 LT PUSH2 0x3BC5 JUMPI INVALID JUMPDEST PUSH1 0x20 SWAP1 DUP2 MUL SWAP2 SWAP1 SWAP2 ADD ADD MSTORE PUSH1 0x0 DUP1 PUSH32 0xFFFFFFFFFFFFFFFFFFFFFFFFFFFFFFFFFFFFFFFFFFFFFFFFFFFFFFFFFFFFFFFF DUP6 ADD JUMPDEST DUP1 ISZERO PUSH2 0x3C9B JUMPI PUSH2 0x3C31 DUP10 DUP9 DUP9 PUSH1 0x1 DUP6 SUB DUP2 DUP2 LT PUSH2 0x3C10 JUMPI INVALID JUMPDEST SWAP1 POP PUSH1 0x20 MUL ADD PUSH1 0x20 DUP2 ADD SWAP1 PUSH2 0x3C25 SWAP2 SWAP1 PUSH2 0x4686 JUMP JUMPDEST DUP10 DUP10 DUP6 DUP2 DUP2 LT PUSH2 0x32AC JUMPI INVALID JUMPDEST DUP7 MLOAD SWAP1 SWAP8 POP SWAP2 SWAP5 POP SWAP3 POP PUSH2 0x3C5A SWAP1 DUP6 SWAP1 DUP4 SWAP1 DUP2 LT PUSH2 0x3C4B JUMPI INVALID JUMPDEST PUSH1 0x20 MUL PUSH1 0x20 ADD ADD MLOAD DUP5 DUP5 PUSH2 0x3CA7 JUMP JUMPDEST DUP5 PUSH1 0x1 DUP4 SUB DUP2 MLOAD DUP2 LT PUSH2 0x3C69 JUMPI INVALID JUMPDEST PUSH1 0x20 SWAP1 DUP2 MUL SWAP2 SWAP1 SWAP2 ADD ADD MSTORE PUSH32 0xFFFFFFFFFFFFFFFFFFFFFFFFFFFFFFFFFFFFFFFFFFFFFFFFFFFFFFFFFFFFFFFF ADD PUSH2 0x3BF7 JUMP JUMPDEST POP POP POP SWAP5 POP SWAP5 SWAP3 POP POP POP JUMP JUMPDEST PUSH1 0x0 DUP1 DUP5 GT PUSH2 0x3CE2 JUMPI PUSH1 0x40 MLOAD PUSH32 0x8C379A000000000000000000000000000000000000000000000000000000000 DUP2 MSTORE PUSH1 0x4 ADD PUSH2 0x589 SWAP1 PUSH2 0x5482 JUMP JUMPDEST PUSH1 0x0 DUP4 GT DUP1 ISZERO PUSH2 0x3CF2 JUMPI POP PUSH1 0x0 DUP3 GT JUMPDEST PUSH2 0x3D28 JUMPI PUSH1 0x40 MLOAD PUSH32 0x8C379A000000000000000000000000000000000000000000000000000000000 DUP2 MSTORE PUSH1 0x4 ADD PUSH2 0x589 SWAP1 PUSH2 0x511B JUMP JUMPDEST PUSH1 0x0 PUSH2 0x3D34 DUP5 DUP7 PUSH2 0x3F1C JUMP JUMPDEST SWAP1 POP PUSH1 0x0 PUSH2 0x3D42 DUP5 DUP8 PUSH2 0x3AEE JUMP JUMPDEST SWAP1 POP DUP1 PUSH2 0x3D4F DUP4 DUP3 PUSH2 0x42C6 JUMP JUMPDEST DUP2 PUSH2 0x319E JUMPI INVALID JUMPDEST PUSH1 0x0 PUSH1 0x60 DUP5 PUSH20 0xFFFFFFFFFFFFFFFFFFFFFFFFFFFFFFFFFFFFFFFF AND PUSH4 0xA9059CBB DUP6 DUP6 PUSH1 0x40 MLOAD PUSH1 0x24 ADD PUSH2 0x3D89 SWAP3 SWAP2 SWAP1 PUSH2 0x4F67 JUMP JUMPDEST PUSH1 0x40 MLOAD PUSH1 0x20 DUP2 DUP4 SUB SUB DUP2 MSTORE SWAP1 PUSH1 0x40 MSTORE SWAP1 PUSH1 0xE0 SHL PUSH1 0x20 DUP3 ADD DUP1 MLOAD PUSH28 0xFFFFFFFFFFFFFFFFFFFFFFFFFFFFFFFFFFFFFFFFFFFFFFFFFFFFFFFF DUP4 DUP2 DUP4 AND OR DUP4 MSTORE POP POP POP POP PUSH1 0x40 MLOAD PUSH2 0x3DD7 SWAP2 SWAP1 PUSH2 0x4DCC JUMP JUMPDEST PUSH1 0x0 PUSH1 0x40 MLOAD DUP1 DUP4 SUB DUP2 PUSH1 0x0 DUP7 GAS CALL SWAP2 POP POP RETURNDATASIZE DUP1 PUSH1 0x0 DUP2 EQ PUSH2 0x3E14 JUMPI PUSH1 0x40 MLOAD SWAP2 POP PUSH1 0x1F NOT PUSH1 0x3F RETURNDATASIZE ADD AND DUP3 ADD PUSH1 0x40 MSTORE RETURNDATASIZE DUP3 MSTORE RETURNDATASIZE PUSH1 0x0 PUSH1 0x20 DUP5 ADD RETURNDATACOPY PUSH2 0x3E19 JUMP JUMPDEST PUSH1 0x60 SWAP2 POP JUMPDEST POP SWAP2 POP SWAP2 POP DUP2 DUP1 ISZERO PUSH2 0x3E43 JUMPI POP DUP1 MLOAD ISZERO DUP1 PUSH2 0x3E43 JUMPI POP DUP1 DUP1 PUSH1 0x20 ADD SWAP1 MLOAD DUP2 ADD SWAP1 PUSH2 0x3E43 SWAP2 SWAP1 PUSH2 0x4B35 JUMP JUMPDEST PUSH2 0x3E79 JUMPI PUSH1 0x40 MLOAD PUSH32 0x8C379A000000000000000000000000000000000000000000000000000000000 DUP2 MSTORE PUSH1 0x4 ADD PUSH2 0x589 SWAP1 PUSH2 0x5008 JUMP JUMPDEST POP POP POP POP POP JUMP JUMPDEST PUSH1 0x0 DUP1 DUP5 GT PUSH2 0x3EBB JUMPI PUSH1 0x40 MLOAD PUSH32 0x8C379A000000000000000000000000000000000000000000000000000000000 DUP2 MSTORE PUSH1 0x4 ADD PUSH2 0x589 SWAP1 PUSH2 0x5269 JUMP JUMPDEST PUSH1 0x0 DUP4 GT DUP1 ISZERO PUSH2 0x3ECB JUMPI POP PUSH1 0x0 DUP3 GT JUMPDEST PUSH2 0x3F01 JUMPI PUSH1 0x40 MLOAD PUSH32 0x8C379A000000000000000000000000000000000000000000000000000000000 DUP2 MSTORE PUSH1 0x4 ADD PUSH2 0x589 SWAP1 PUSH2 0x511B JUMP JUMPDEST DUP3 PUSH2 0x3F0C DUP6 DUP5 PUSH2 0x3F1C JUMP JUMPDEST DUP2 PUSH2 0x3F13 JUMPI INVALID JUMPDEST DIV SWAP5 SWAP4 POP POP POP POP JUMP JUMPDEST PUSH1 0x0 DUP2 ISZERO DUP1 PUSH2 0x3F37 JUMPI POP POP DUP1 DUP3 MUL DUP3 DUP3 DUP3 DUP2 PUSH2 0x3F34 JUMPI INVALID JUMPDEST DIV EQ JUMPDEST PUSH2 0x3B2B JUMPI PUSH1 0x40 MLOAD PUSH32 0x8C379A000000000000000000000000000000000000000000000000000000000 DUP2 MSTORE PUSH1 0x4 ADD PUSH2 0x589 SWAP1 PUSH2 0x50E4 JUMP JUMPDEST PUSH1 0x0 DUP1 PUSH1 0x0 PUSH32 0x0 PUSH20 0xFFFFFFFFFFFFFFFFFFFFFFFFFFFFFFFFFFFFFFFF AND PUSH4 0xE6A43905 DUP9 DUP9 PUSH1 0x40 MLOAD DUP4 PUSH4 0xFFFFFFFF AND PUSH1 0xE0 SHL DUP2 MSTORE PUSH1 0x4 ADD PUSH2 0x3FCD SWAP3 SWAP2 SWAP1 PUSH2 0x4F09 JUMP JUMPDEST PUSH1 0x20 PUSH1 0x40 MLOAD DUP1 DUP4 SUB DUP2 DUP7 DUP1 EXTCODESIZE ISZERO DUP1 ISZERO PUSH2 0x3FE5 JUMPI PUSH1 0x0 DUP1 REVERT JUMPDEST POP GAS STATICCALL ISZERO DUP1 ISZERO PUSH2 0x3FF9 JUMPI RETURNDATASIZE PUSH1 0x0 DUP1 RETURNDATACOPY RETURNDATASIZE PUSH1 0x0 REVERT JUMPDEST POP POP POP POP PUSH1 0x40 MLOAD RETURNDATASIZE PUSH1 0x1F NOT PUSH1 0x1F DUP3 ADD AND DUP3 ADD DUP1 PUSH1 0x40 MSTORE POP DUP2 ADD SWAP1 PUSH2 0x401D SWAP2 SWAP1 PUSH2 0x46A9 JUMP JUMPDEST SWAP1 POP PUSH20 0xFFFFFFFFFFFFFFFFFFFFFFFFFFFFFFFFFFFFFFFF DUP2 AND PUSH2 0x406C JUMPI PUSH1 0x40 MLOAD PUSH32 0x8C379A000000000000000000000000000000000000000000000000000000000 DUP2 MSTORE PUSH1 0x4 ADD PUSH2 0x589 SWAP1 PUSH2 0x5599 JUMP JUMPDEST PUSH1 0x0 DUP1 DUP3 PUSH20 0xFFFFFFFFFFFFFFFFFFFFFFFFFFFFFFFFFFFFFFFF AND PUSH4 0x902F1AC PUSH1 0x40 MLOAD DUP2 PUSH4 0xFFFFFFFF AND PUSH1 0xE0 SHL DUP2 MSTORE PUSH1 0x4 ADD PUSH1 0x80 PUSH1 0x40 MLOAD DUP1 DUP4 SUB DUP2 DUP7 DUP1 EXTCODESIZE ISZERO DUP1 ISZERO PUSH2 0x40B5 JUMPI PUSH1 0x0 DUP1 REVERT JUMPDEST POP GAS STATICCALL ISZERO DUP1 ISZERO PUSH2 0x40C9 JUMPI RETURNDATASIZE PUSH1 0x0 DUP1 RETURNDATACOPY RETURNDATASIZE PUSH1 0x0 REVERT JUMPDEST POP POP POP POP PUSH1 0x40 MLOAD RETURNDATASIZE PUSH1 0x1F NOT PUSH1 0x1F DUP3 ADD AND DUP3 ADD DUP1 PUSH1 0x40 MSTORE POP DUP2 ADD SWAP1 PUSH2 0x40ED SWAP2 SWAP1 PUSH2 0x4B7F JUMP JUMPDEST POP POP PUSH14 0xFFFFFFFFFFFFFFFFFFFFFFFFFFFF AND SWAP2 POP PUSH14 0xFFFFFFFFFFFFFFFFFFFFFFFFFFFF AND SWAP2 POP DUP2 PUSH1 0x0 EQ DUP1 ISZERO PUSH2 0x4121 JUMPI POP DUP1 ISZERO JUMPDEST ISZERO PUSH2 0x4131 JUMPI DUP7 SWAP5 POP DUP6 SWAP4 POP PUSH2 0x4173 JUMP JUMPDEST PUSH1 0x0 PUSH2 0x413E DUP9 DUP5 DUP5 PUSH2 0x3E80 JUMP JUMPDEST SWAP1 POP DUP7 DUP2 GT PUSH2 0x4152 JUMPI DUP8 SWAP6 POP SWAP4 POP DUP4 PUSH2 0x4171 JUMP JUMPDEST PUSH1 0x0 PUSH2 0x415F DUP9 DUP5 DUP7 PUSH2 0x3E80 JUMP JUMPDEST SWAP1 POP DUP9 DUP2 GT ISZERO PUSH2 0x416B JUMPI INVALID JUMPDEST SWAP6 POP DUP7 SWAP5 POP JUMPDEST POP JUMPDEST POP POP SWAP5 POP SWAP5 POP SWAP5 SWAP2 POP POP JUMP JUMPDEST PUSH1 0x60 PUSH1 0x2 DUP3 LT ISZERO PUSH2 0x41BC JUMPI PUSH1 0x40 MLOAD PUSH32 0x8C379A000000000000000000000000000000000000000000000000000000000 DUP2 MSTORE PUSH1 0x4 ADD PUSH2 0x589 SWAP1 PUSH2 0x52C6 JUMP JUMPDEST DUP2 PUSH8 0xFFFFFFFFFFFFFFFF DUP2 GT DUP1 ISZERO PUSH2 0x41D3 JUMPI PUSH1 0x0 DUP1 REVERT JUMPDEST POP PUSH1 0x40 MLOAD SWAP1 DUP1 DUP3 MSTORE DUP1 PUSH1 0x20 MUL PUSH1 0x20 ADD DUP3 ADD PUSH1 0x40 MSTORE DUP1 ISZERO PUSH2 0x41FD JUMPI DUP2 PUSH1 0x20 ADD PUSH1 0x20 DUP3 MUL DUP1 CALLDATASIZE DUP4 CALLDATACOPY ADD SWAP1 POP JUMPDEST POP SWAP1 POP DUP4 DUP2 PUSH1 0x0 DUP2 MLOAD DUP2 LT PUSH2 0x420E JUMPI INVALID JUMPDEST PUSH1 0x20 MUL PUSH1 0x20 ADD ADD DUP2 DUP2 MSTORE POP POP PUSH1 0x0 JUMPDEST PUSH32 0xFFFFFFFFFFFFFFFFFFFFFFFFFFFFFFFFFFFFFFFFFFFFFFFFFFFFFFFFFFFFFFFF DUP4 ADD DUP2 LT ISZERO PUSH2 0x388C JUMPI PUSH1 0x0 DUP1 PUSH2 0x427E DUP9 DUP8 DUP8 DUP7 DUP2 DUP2 LT PUSH2 0x425A JUMPI INVALID JUMPDEST SWAP1 POP PUSH1 0x20 MUL ADD PUSH1 0x20 DUP2 ADD SWAP1 PUSH2 0x426F SWAP2 SWAP1 PUSH2 0x4686 JUMP JUMPDEST DUP9 DUP9 DUP8 PUSH1 0x1 ADD DUP2 DUP2 LT PUSH2 0x380B JUMPI INVALID JUMPDEST POP POP SWAP2 POP SWAP2 POP PUSH2 0x42A2 DUP5 DUP5 DUP2 MLOAD DUP2 LT PUSH2 0x4293 JUMPI INVALID JUMPDEST PUSH1 0x20 MUL PUSH1 0x20 ADD ADD MLOAD DUP4 DUP4 PUSH2 0x30F8 JUMP JUMPDEST DUP5 DUP5 PUSH1 0x1 ADD DUP2 MLOAD DUP2 LT PUSH2 0x42B1 JUMPI INVALID JUMPDEST PUSH1 0x20 SWAP1 DUP2 MUL SWAP2 SWAP1 SWAP2 ADD ADD MSTORE POP POP PUSH1 0x1 ADD PUSH2 0x421D JUMP JUMPDEST DUP1 DUP3 ADD DUP3 DUP2 LT ISZERO PUSH2 0x3B2B JUMPI PUSH1 0x40 MLOAD PUSH32 0x8C379A000000000000000000000000000000000000000000000000000000000 DUP2 MSTORE PUSH1 0x4 ADD PUSH2 0x589 SWAP1 PUSH2 0x5178 JUMP JUMPDEST PUSH1 0x0 DUP1 PUSH1 0x0 PUSH2 0x4313 DUP7 DUP7 DUP7 PUSH2 0x44F2 JUMP JUMPDEST POP SWAP2 SWAP5 POP SWAP3 POP SWAP1 POP PUSH1 0x0 DUP1 DUP1 DUP1 PUSH2 0x432B DUP11 DUP10 DUP12 PUSH2 0x44F2 JUMP JUMPDEST SWAP3 SWAP7 POP SWAP1 SWAP5 POP SWAP3 POP SWAP1 POP PUSH1 0x0 PUSH2 0x4341 DUP9 DUP7 PUSH2 0x3F1C JUMP JUMPDEST SWAP1 POP PUSH1 0x0 PUSH2 0x434F DUP9 DUP7 PUSH2 0x3F1C JUMP JUMPDEST SWAP1 POP PUSH2 0x435B DUP2 DUP5 PUSH2 0x3F1C JUMP JUMPDEST PUSH2 0x4367 DUP4 PUSH2 0x2710 PUSH2 0x3F1C JUMP JUMPDEST GT ISZERO PUSH2 0x44E3 JUMPI PUSH1 0x0 PUSH2 0x4379 DUP4 DUP4 PUSH2 0x3AEE JUMP JUMPDEST SWAP1 POP PUSH1 0x0 PUSH2 0x4392 PUSH1 0x2 PUSH2 0x438C DUP14 DUP11 PUSH2 0x42C6 JUMP JUMPDEST SWAP1 PUSH2 0x3F1C JUMP JUMPDEST SWAP1 POP PUSH1 0x0 PUSH2 0x43A5 PUSH1 0x2 PUSH2 0x438C DUP14 DUP13 PUSH2 0x42C6 JUMP JUMPDEST SWAP1 POP PUSH2 0x43BC DUP15 DUP12 DUP10 DUP5 DUP8 DUP2 PUSH2 0x43B6 JUMPI INVALID JUMPDEST DIV PUSH2 0x3322 JUMP JUMPDEST PUSH2 0x43CB DUP14 DUP9 DUP13 DUP6 DUP8 DUP2 PUSH2 0x43B6 JUMPI INVALID JUMPDEST DUP10 PUSH20 0xFFFFFFFFFFFFFFFFFFFFFFFFFFFFFFFFFFFFFFFF AND PUSH4 0xFFF6CAE9 PUSH1 0x40 MLOAD DUP2 PUSH4 0xFFFFFFFF AND PUSH1 0xE0 SHL DUP2 MSTORE PUSH1 0x4 ADD PUSH1 0x40 DUP1 MLOAD DUP1 DUP4 SUB DUP2 PUSH1 0x0 DUP8 DUP1 EXTCODESIZE ISZERO DUP1 ISZERO PUSH2 0x4412 JUMPI PUSH1 0x0 DUP1 REVERT JUMPDEST POP GAS CALL ISZERO DUP1 ISZERO PUSH2 0x4426 JUMPI RETURNDATASIZE PUSH1 0x0 DUP1 RETURNDATACOPY RETURNDATASIZE PUSH1 0x0 REVERT JUMPDEST POP POP POP POP PUSH1 0x40 MLOAD RETURNDATASIZE PUSH1 0x1F NOT PUSH1 0x1F DUP3 ADD AND DUP3 ADD DUP1 PUSH1 0x40 MSTORE POP DUP2 ADD SWAP1 PUSH2 0x444A SWAP2 SWAP1 PUSH2 0x4B51 JUMP JUMPDEST POP POP DUP7 PUSH20 0xFFFFFFFFFFFFFFFFFFFFFFFFFFFFFFFFFFFFFFFF AND PUSH4 0xFFF6CAE9 PUSH1 0x40 MLOAD DUP2 PUSH4 0xFFFFFFFF AND PUSH1 0xE0 SHL DUP2 MSTORE PUSH1 0x4 ADD PUSH1 0x40 DUP1 MLOAD DUP1 DUP4 SUB DUP2 PUSH1 0x0 DUP8 DUP1 EXTCODESIZE ISZERO DUP1 ISZERO PUSH2 0x4493 JUMPI PUSH1 0x0 DUP1 REVERT JUMPDEST POP GAS CALL ISZERO DUP1 ISZERO PUSH2 0x44A7 JUMPI RETURNDATASIZE PUSH1 0x0 DUP1 RETURNDATACOPY RETURNDATASIZE PUSH1 0x0 REVERT JUMPDEST POP POP POP POP PUSH1 0x40 MLOAD RETURNDATASIZE PUSH1 0x1F NOT PUSH1 0x1F DUP3 ADD AND DUP3 ADD DUP1 PUSH1 0x40 MSTORE POP DUP2 ADD SWAP1 PUSH2 0x44CB SWAP2 SWAP1 PUSH2 0x4B51 JUMP JUMPDEST POP POP PUSH2 0x44D8 DUP16 DUP16 DUP16 PUSH2 0x44F2 JUMP JUMPDEST POP SWAP2 SWAP14 POP SWAP12 POP POP POP POP POP JUMPDEST POP POP POP POP POP POP SWAP4 POP SWAP4 POP SWAP4 SWAP1 POP JUMP JUMPDEST PUSH1 0x0 DUP1 PUSH1 0x0 DUP1 PUSH2 0x4503 DUP8 DUP8 DUP8 PUSH2 0x3692 JUMP JUMPDEST SWAP2 POP DUP2 PUSH20 0xFFFFFFFFFFFFFFFFFFFFFFFFFFFFFFFFFFFFFFFF AND PUSH4 0x902F1AC PUSH1 0x40 MLOAD DUP2 PUSH4 0xFFFFFFFF AND PUSH1 0xE0 SHL DUP2 MSTORE PUSH1 0x4 ADD PUSH1 0x80 PUSH1 0x40 MLOAD DUP1 DUP4 SUB DUP2 DUP7 DUP1 EXTCODESIZE ISZERO DUP1 ISZERO PUSH2 0x454B JUMPI PUSH1 0x0 DUP1 REVERT JUMPDEST POP GAS STATICCALL ISZERO DUP1 ISZERO PUSH2 0x455F JUMPI RETURNDATASIZE PUSH1 0x0 DUP1 RETURNDATACOPY RETURNDATASIZE PUSH1 0x0 REVERT JUMPDEST POP POP POP POP PUSH1 0x40 MLOAD RETURNDATASIZE PUSH1 0x1F NOT PUSH1 0x1F DUP3 ADD AND DUP3 ADD DUP1 PUSH1 0x40 MSTORE POP DUP2 ADD SWAP1 PUSH2 0x4583 SWAP2 SWAP1 PUSH2 0x4B7F JUMP JUMPDEST PUSH14 0xFFFFFFFFFFFFFFFFFFFFFFFFFFFF SWAP4 DUP5 AND SWAP12 SWAP3 SWAP1 SWAP4 AND SWAP10 POP SWAP4 SWAP8 POP SWAP1 SWAP6 POP SWAP4 POP POP POP POP JUMP JUMPDEST PUSH1 0x40 DUP1 MLOAD PUSH1 0xC0 DUP2 ADD DUP3 MSTORE PUSH1 0x0 DUP1 DUP3 MSTORE PUSH1 0x20 DUP3 ADD DUP2 SWAP1 MSTORE SWAP2 DUP2 ADD DUP3 SWAP1 MSTORE PUSH1 0x60 DUP2 ADD DUP3 SWAP1 MSTORE PUSH1 0x80 DUP2 ADD DUP3 SWAP1 MSTORE SWAP1 PUSH1 0xA0 DUP3 ADD MSTORE SWAP1 JUMP JUMPDEST DUP1 MLOAD PUSH2 0x3B2B DUP2 PUSH2 0x56A3 JUMP JUMPDEST PUSH1 0x0 DUP1 DUP4 PUSH1 0x1F DUP5 ADD SLT PUSH2 0x45F8 JUMPI DUP2 DUP3 REVERT JUMPDEST POP DUP2 CALLDATALOAD PUSH8 0xFFFFFFFFFFFFFFFF DUP2 GT ISZERO PUSH2 0x460F JUMPI DUP2 DUP3 REVERT JUMPDEST PUSH1 0x20 DUP4 ADD SWAP2 POP DUP4 PUSH1 0x20 DUP1 DUP4 MUL DUP6 ADD ADD GT ISZERO PUSH2 0x4629 JUMPI PUSH1 0x0 DUP1 REVERT JUMPDEST SWAP3 POP SWAP3 SWAP1 POP JUMP JUMPDEST DUP1 MLOAD PUSH1 0x6 DUP2 LT PUSH2 0x3B2B JUMPI PUSH1 0x0 DUP1 REVERT JUMPDEST DUP1 MLOAD PUSH14 0xFFFFFFFFFFFFFFFFFFFFFFFFFFFF DUP2 AND DUP2 EQ PUSH2 0x3B2B JUMPI PUSH1 0x0 DUP1 REVERT JUMPDEST DUP1 MLOAD PUSH8 0xFFFFFFFFFFFFFFFF DUP2 AND DUP2 EQ PUSH2 0x3B2B JUMPI PUSH1 0x0 DUP1 REVERT JUMPDEST DUP1 CALLDATALOAD PUSH1 0xFF DUP2 AND DUP2 EQ PUSH2 0x3B2B JUMPI PUSH1 0x0 DUP1 REVERT JUMPDEST PUSH1 0x0 PUSH1 0x20 DUP3 DUP5 SUB SLT ISZERO PUSH2 0x4697 JUMPI DUP1 DUP2 REVERT JUMPDEST DUP2 CALLDATALOAD PUSH2 0x46A2 DUP2 PUSH2 0x56A3 JUMP JUMPDEST SWAP4 SWAP3 POP POP POP JUMP JUMPDEST PUSH1 0x0 PUSH1 0x20 DUP3 DUP5 SUB SLT ISZERO PUSH2 0x46BA JUMPI DUP1 DUP2 REVERT JUMPDEST DUP2 MLOAD PUSH2 0x46A2 DUP2 PUSH2 0x56A3 JUMP JUMPDEST PUSH1 0x0 DUP1 PUSH1 0x40 DUP4 DUP6 SUB SLT ISZERO PUSH2 0x46D7 JUMPI DUP1 DUP2 REVERT JUMPDEST DUP3 MLOAD PUSH2 0x46E2 DUP2 PUSH2 0x56A3 JUMP JUMPDEST PUSH1 0x20 DUP5 ADD MLOAD SWAP1 SWAP3 POP PUSH2 0x46F3 DUP2 PUSH2 0x56A3 JUMP JUMPDEST DUP1 SWAP2 POP POP SWAP3 POP SWAP3 SWAP1 POP JUMP JUMPDEST PUSH1 0x0 DUP1 PUSH1 0x0 DUP1 PUSH1 0x0 DUP1 PUSH1 0x0 PUSH1 0xE0 DUP9 DUP11 SUB SLT ISZERO PUSH2 0x4718 JUMPI DUP3 DUP4 REVERT JUMPDEST DUP8 CALLDATALOAD PUSH2 0x4723 DUP2 PUSH2 0x56A3 JUMP JUMPDEST SWAP7 POP PUSH1 0x20 DUP9 ADD CALLDATALOAD PUSH2 0x4733 DUP2 PUSH2 0x56A3 JUMP JUMPDEST SWAP6 POP PUSH1 0x40 DUP9 ADD CALLDATALOAD SWAP5 POP PUSH1 0x60 DUP9 ADD CALLDATALOAD SWAP4 POP PUSH1 0x80 DUP9 ADD CALLDATALOAD SWAP3 POP PUSH1 0xA0 DUP9 ADD CALLDATALOAD PUSH2 0x4758 DUP2 PUSH2 0x56A3 JUMP JUMPDEST DUP1 SWAP3 POP POP PUSH1 0xC0 DUP9 ADD CALLDATALOAD SWAP1 POP SWAP3 SWAP6 SWAP9 SWAP2 SWAP5 SWAP8 POP SWAP3 SWAP6 POP JUMP JUMPDEST PUSH1 0x0 DUP1 PUSH1 0x0 DUP1 PUSH1 0x0 DUP1 PUSH1 0x0 DUP1 PUSH1 0x0 DUP1 PUSH1 0x0 PUSH2 0x160 DUP13 DUP15 SUB SLT ISZERO PUSH2 0x4790 JUMPI DUP4 DUP5 REVERT JUMPDEST DUP12 CALLDATALOAD PUSH2 0x479B DUP2 PUSH2 0x56A3 JUMP JUMPDEST SWAP11 POP PUSH1 0x20 DUP13 ADD CALLDATALOAD PUSH2 0x47AB DUP2 PUSH2 0x56A3 JUMP JUMPDEST SWAP10 POP PUSH1 0x40 DUP13 ADD CALLDATALOAD SWAP9 POP PUSH1 0x60 DUP13 ADD CALLDATALOAD SWAP8 POP PUSH1 0x80 DUP13 ADD CALLDATALOAD SWAP7 POP PUSH1 0xA0 DUP13 ADD CALLDATALOAD PUSH2 0x47D0 DUP2 PUSH2 0x56A3 JUMP JUMPDEST SWAP6 POP PUSH1 0xC0 DUP13 ADD CALLDATALOAD SWAP5 POP PUSH1 0xE0 DUP13 ADD CALLDATALOAD PUSH2 0x47E7 DUP2 PUSH2 0x56C8 JUMP JUMPDEST SWAP4 POP PUSH2 0x47F7 DUP14 PUSH2 0x100 DUP15 ADD PUSH2 0x4675 JUMP JUMPDEST SWAP3 POP PUSH2 0x120 DUP13 ADD CALLDATALOAD SWAP2 POP PUSH2 0x140 DUP13 ADD CALLDATALOAD SWAP1 POP SWAP3 SWAP6 SWAP9 SWAP12 POP SWAP3 SWAP6 SWAP9 SWAP12 SWAP1 SWAP4 SWAP7 SWAP10 POP JUMP JUMPDEST PUSH1 0x0 DUP1 PUSH1 0x0 DUP1 PUSH1 0x0 DUP1 PUSH1 0x0 DUP1 PUSH2 0x100 DUP10 DUP12 SUB SLT ISZERO PUSH2 0x4835 JUMPI DUP4 DUP5 REVERT JUMPDEST DUP9 CALLDATALOAD PUSH2 0x4840 DUP2 PUSH2 0x56A3 JUMP JUMPDEST SWAP8 POP PUSH1 0x20 DUP10 ADD CALLDATALOAD PUSH2 0x4850 DUP2 PUSH2 0x56A3 JUMP JUMPDEST SWAP7 POP PUSH1 0x40 DUP10 ADD CALLDATALOAD SWAP6 POP PUSH1 0x60 DUP10 ADD CALLDATALOAD SWAP5 POP PUSH1 0x80 DUP10 ADD CALLDATALOAD SWAP4 POP PUSH1 0xA0 DUP10 ADD CALLDATALOAD SWAP3 POP PUSH1 0xC0 DUP10 ADD CALLDATALOAD PUSH2 0x487C DUP2 PUSH2 0x56A3 JUMP JUMPDEST DUP1 SWAP3 POP POP PUSH1 0xE0 DUP10 ADD CALLDATALOAD SWAP1 POP SWAP3 SWAP6 SWAP9 POP SWAP3 SWAP6 SWAP9 SWAP1 SWAP4 SWAP7 POP JUMP JUMPDEST PUSH1 0x0 DUP1 DUP3 DUP5 SUB PUSH1 0xE0 DUP2 SLT ISZERO PUSH2 0x48A7 JUMPI DUP3 DUP4 REVERT JUMPDEST DUP4 MLOAD PUSH2 0x48B2 DUP2 PUSH2 0x56A3 JUMP JUMPDEST SWAP3 POP PUSH1 0xC0 PUSH32 0xFFFFFFFFFFFFFFFFFFFFFFFFFFFFFFFFFFFFFFFFFFFFFFFFFFFFFFFFFFFFFFE0 DUP3 ADD SLT ISZERO PUSH2 0x48E3 JUMPI DUP2 DUP3 REVERT JUMPDEST POP PUSH1 0x40 MLOAD PUSH1 0xC0 DUP2 ADD DUP2 DUP2 LT PUSH8 0xFFFFFFFFFFFFFFFF DUP3 GT OR ISZERO PUSH2 0x4903 JUMPI DUP3 DUP4 REVERT JUMPDEST PUSH1 0x40 MSTORE PUSH2 0x4913 DUP6 PUSH1 0x20 DUP7 ADD PUSH2 0x45DC JUMP JUMPDEST DUP2 MSTORE PUSH2 0x4922 DUP6 PUSH1 0x40 DUP7 ADD PUSH2 0x45DC JUMP JUMPDEST PUSH1 0x20 DUP3 ADD MSTORE PUSH1 0x60 DUP5 ADD MLOAD PUSH1 0x40 DUP3 ADD MSTORE PUSH2 0x493E DUP6 PUSH1 0x80 DUP7 ADD PUSH2 0x465D JUMP JUMPDEST PUSH1 0x60 DUP3 ADD MSTORE PUSH2 0x4950 DUP6 PUSH1 0xA0 DUP7 ADD PUSH2 0x465D JUMP JUMPDEST PUSH1 0x80 DUP3 ADD MSTORE PUSH2 0x4962 DUP6 PUSH1 0xC0 DUP7 ADD PUSH2 0x4630 JUMP JUMPDEST PUSH1 0xA0 DUP3 ADD MSTORE DUP1 SWAP2 POP POP SWAP3 POP SWAP3 SWAP1 POP JUMP JUMPDEST PUSH1 0x0 DUP1 PUSH1 0x0 DUP1 PUSH1 0x0 PUSH1 0xA0 DUP7 DUP9 SUB SLT ISZERO PUSH2 0x4989 JUMPI DUP3 DUP4 REVERT JUMPDEST DUP6 CALLDATALOAD PUSH2 0x4994 DUP2 PUSH2 0x56A3 JUMP JUMPDEST SWAP5 POP PUSH1 0x20 DUP7 ADD CALLDATALOAD SWAP4 POP PUSH1 0x40 DUP7 ADD CALLDATALOAD SWAP3 POP PUSH1 0x60 DUP7 ADD CALLDATALOAD PUSH2 0x49B2 DUP2 PUSH2 0x56A3 JUMP JUMPDEST SWAP5 SWAP8 SWAP4 SWAP7 POP SWAP2 SWAP5 PUSH1 0x80 ADD CALLDATALOAD SWAP3 SWAP2 POP POP JUMP JUMPDEST PUSH1 0x0 DUP1 PUSH1 0x0 DUP1 PUSH1 0x0 DUP1 PUSH1 0x0 DUP1 PUSH1 0x0 PUSH2 0x120 DUP11 DUP13 SUB SLT ISZERO PUSH2 0x49E1 JUMPI DUP3 DUP4 REVERT JUMPDEST DUP10 CALLDATALOAD PUSH2 0x49EC DUP2 PUSH2 0x56A3 JUMP JUMPDEST SWAP9 POP PUSH1 0x20 DUP11 ADD CALLDATALOAD SWAP8 POP PUSH1 0x40 DUP11 ADD CALLDATALOAD SWAP7 POP PUSH1 0x60 DUP11 ADD CALLDATALOAD PUSH2 0x4A0A DUP2 PUSH2 0x56A3 JUMP JUMPDEST SWAP6 POP PUSH1 0x80 DUP11 ADD CALLDATALOAD SWAP5 POP PUSH1 0xA0 DUP11 ADD CALLDATALOAD PUSH2 0x4A21 DUP2 PUSH2 0x56C8 JUMP JUMPDEST SWAP4 POP PUSH2 0x4A30 DUP12 PUSH1 0xC0 DUP13 ADD PUSH2 0x4675 JUMP JUMPDEST SWAP3 POP PUSH1 0xE0 DUP11 ADD CALLDATALOAD SWAP2 POP PUSH2 0x100 DUP11 ADD CALLDATALOAD SWAP1 POP SWAP3 SWAP6 SWAP9 POP SWAP3 SWAP6 SWAP9 POP SWAP3 SWAP6 SWAP9 JUMP JUMPDEST PUSH1 0x0 DUP1 PUSH1 0x0 DUP1 PUSH1 0x0 DUP1 PUSH1 0x0 DUP1 PUSH1 0x0 DUP1 PUSH2 0x140 DUP12 DUP14 SUB SLT ISZERO PUSH2 0x4A6D JUMPI DUP4 DUP5 REVERT JUMPDEST DUP11 CALLDATALOAD PUSH2 0x4A78 DUP2 PUSH2 0x56A3 JUMP JUMPDEST SWAP10 POP PUSH1 0x20 DUP12 ADD CALLDATALOAD SWAP9 POP PUSH1 0x40 DUP12 ADD CALLDATALOAD SWAP8 POP PUSH1 0x60 DUP12 ADD CALLDATALOAD SWAP7 POP PUSH1 0x80 DUP12 ADD CALLDATALOAD PUSH2 0x4A9D DUP2 PUSH2 0x56A3 JUMP JUMPDEST SWAP6 POP PUSH1 0xA0 DUP12 ADD CALLDATALOAD SWAP5 POP PUSH1 0xC0 DUP12 ADD CALLDATALOAD PUSH2 0x4AB4 DUP2 PUSH2 0x56C8 JUMP JUMPDEST SWAP4 POP PUSH2 0x4AC3 DUP13 PUSH1 0xE0 DUP14 ADD PUSH2 0x4675 JUMP JUMPDEST SWAP3 POP PUSH2 0x100 DUP12 ADD CALLDATALOAD SWAP2 POP PUSH2 0x120 DUP12 ADD CALLDATALOAD SWAP1 POP SWAP3 SWAP6 SWAP9 SWAP12 SWAP2 SWAP5 SWAP8 SWAP11 POP SWAP3 SWAP6 SWAP9 POP JUMP JUMPDEST PUSH1 0x0 DUP1 PUSH1 0x0 DUP1 PUSH1 0x0 DUP1 PUSH1 0x0 PUSH1 0xE0 DUP9 DUP11 SUB SLT ISZERO PUSH2 0x4AFE JUMPI DUP1 DUP2 REVERT JUMPDEST DUP8 CALLDATALOAD PUSH2 0x4B09 DUP2 PUSH2 0x56A3 JUMP JUMPDEST SWAP7 POP PUSH1 0x20 DUP9 ADD CALLDATALOAD SWAP6 POP PUSH1 0x40 DUP9 ADD CALLDATALOAD SWAP5 POP PUSH1 0x60 DUP9 ADD CALLDATALOAD SWAP4 POP PUSH1 0x80 DUP9 ADD CALLDATALOAD SWAP3 POP PUSH1 0xA0 DUP9 ADD CALLDATALOAD PUSH2 0x4758 DUP2 PUSH2 0x56A3 JUMP JUMPDEST PUSH1 0x0 PUSH1 0x20 DUP3 DUP5 SUB SLT ISZERO PUSH2 0x4B46 JUMPI DUP1 DUP2 REVERT JUMPDEST DUP2 MLOAD PUSH2 0x46A2 DUP2 PUSH2 0x56C8 JUMP JUMPDEST PUSH1 0x0 DUP1 PUSH1 0x40 DUP4 DUP6 SUB SLT ISZERO PUSH2 0x4B63 JUMPI DUP2 DUP3 REVERT JUMPDEST DUP3 MLOAD PUSH2 0x4B6E DUP2 PUSH2 0x56D6 JUMP JUMPDEST PUSH1 0x20 DUP5 ADD MLOAD SWAP1 SWAP3 POP PUSH2 0x46F3 DUP2 PUSH2 0x56D6 JUMP JUMPDEST PUSH1 0x0 DUP1 PUSH1 0x0 DUP1 PUSH1 0x80 DUP6 DUP8 SUB SLT ISZERO PUSH2 0x4B94 JUMPI DUP2 DUP3 REVERT JUMPDEST PUSH2 0x4B9E DUP7 DUP7 PUSH2 0x463F JUMP JUMPDEST SWAP4 POP PUSH2 0x4BAD DUP7 PUSH1 0x20 DUP8 ADD PUSH2 0x463F JUMP JUMPDEST SWAP3 POP PUSH1 0x40 DUP6 ADD MLOAD PUSH4 0xFFFFFFFF DUP2 AND DUP2 EQ PUSH2 0x4BC5 JUMPI DUP3 DUP4 REVERT JUMPDEST PUSH1 0x60 SWAP6 SWAP1 SWAP6 ADD MLOAD SWAP4 SWAP7 SWAP3 SWAP6 POP POP POP JUMP JUMPDEST PUSH1 0x0 PUSH1 0x20 DUP3 DUP5 SUB SLT ISZERO PUSH2 0x4BE6 JUMPI DUP1 DUP2 REVERT JUMPDEST POP MLOAD SWAP2 SWAP1 POP JUMP JUMPDEST PUSH1 0x0 DUP1 PUSH1 0x0 PUSH1 0x60 DUP5 DUP7 SUB SLT ISZERO PUSH2 0x4C01 JUMPI DUP1 DUP2 REVERT JUMPDEST DUP4 CALLDATALOAD SWAP3 POP PUSH1 0x20 DUP5 ADD CALLDATALOAD PUSH2 0x4C13 DUP2 PUSH2 0x56A3 JUMP JUMPDEST SWAP3 SWAP6 SWAP3 SWAP5 POP POP POP PUSH1 0x40 SWAP2 SWAP1 SWAP2 ADD CALLDATALOAD SWAP1 JUMP JUMPDEST PUSH1 0x0 DUP1 PUSH1 0x0 PUSH1 0x40 DUP5 DUP7 SUB SLT ISZERO PUSH2 0x4C38 JUMPI DUP1 DUP2 REVERT JUMPDEST DUP4 CALLDATALOAD SWAP3 POP PUSH1 0x20 DUP5 ADD CALLDATALOAD PUSH8 0xFFFFFFFFFFFFFFFF DUP2 GT ISZERO PUSH2 0x4C55 JUMPI DUP2 DUP3 REVERT JUMPDEST PUSH2 0x4C61 DUP7 DUP3 DUP8 ADD PUSH2 0x45E7 JUMP JUMPDEST SWAP5 SWAP8 SWAP1 SWAP7 POP SWAP4 SWAP5 POP POP POP POP JUMP JUMPDEST PUSH1 0x0 DUP1 PUSH1 0x0 DUP1 PUSH1 0x0 PUSH1 0x80 DUP7 DUP9 SUB SLT ISZERO PUSH2 0x4C85 JUMPI DUP3 DUP4 REVERT JUMPDEST DUP6 CALLDATALOAD SWAP5 POP PUSH1 0x20 DUP7 ADD CALLDATALOAD PUSH8 0xFFFFFFFFFFFFFFFF DUP2 GT ISZERO PUSH2 0x4CA2 JUMPI DUP4 DUP5 REVERT JUMPDEST PUSH2 0x4CAE DUP9 DUP3 DUP10 ADD PUSH2 0x45E7 JUMP JUMPDEST SWAP1 SWAP6 POP SWAP4 POP POP PUSH1 0x40 DUP7 ADD CALLDATALOAD PUSH2 0x4CC2 DUP2 PUSH2 0x56A3 JUMP JUMPDEST SWAP5 SWAP8 SWAP4 SWAP7 POP SWAP2 SWAP5 PUSH1 0x60 ADD CALLDATALOAD SWAP3 SWAP2 POP POP JUMP JUMPDEST PUSH1 0x0 DUP1 PUSH1 0x40 DUP4 DUP6 SUB SLT ISZERO PUSH2 0x4CE5 JUMPI DUP2 DUP3 REVERT JUMPDEST POP POP DUP1 MLOAD PUSH1 0x20 SWAP1 SWAP2 ADD MLOAD SWAP1 SWAP3 SWAP1 SWAP2 POP JUMP JUMPDEST PUSH1 0x0 DUP1 PUSH1 0x0 DUP1 PUSH1 0x0 DUP1 PUSH1 0xA0 DUP8 DUP10 SUB SLT ISZERO PUSH2 0x4D0E JUMPI DUP4 DUP5 REVERT JUMPDEST DUP7 CALLDATALOAD SWAP6 POP PUSH1 0x20 DUP8 ADD CALLDATALOAD SWAP5 POP PUSH1 0x40 DUP8 ADD CALLDATALOAD PUSH8 0xFFFFFFFFFFFFFFFF DUP2 GT ISZERO PUSH2 0x4D32 JUMPI DUP5 DUP6 REVERT JUMPDEST PUSH2 0x4D3E DUP10 DUP3 DUP11 ADD PUSH2 0x45E7 JUMP JUMPDEST SWAP1 SWAP6 POP SWAP4 POP POP PUSH1 0x60 DUP8 ADD CALLDATALOAD PUSH2 0x4D52 DUP2 PUSH2 0x56A3 JUMP JUMPDEST DUP1 SWAP3 POP POP PUSH1 0x80 DUP8 ADD CALLDATALOAD SWAP1 POP SWAP3 SWAP6 POP SWAP3 SWAP6 POP SWAP3 SWAP6 JUMP JUMPDEST PUSH1 0x0 DUP1 PUSH1 0x0 PUSH1 0x60 DUP5 DUP7 SUB SLT ISZERO PUSH2 0x4D7B JUMPI DUP1 DUP2 REVERT JUMPDEST POP POP DUP2 CALLDATALOAD SWAP4 PUSH1 0x20 DUP4 ADD CALLDATALOAD SWAP4 POP PUSH1 0x40 SWAP1 SWAP3 ADD CALLDATALOAD SWAP2 SWAP1 POP JUMP JUMPDEST PUSH32 0xFFFFFFFFFFFFFFFFFFFFFFFFFFFFFFFFFFFFFFFF000000000000000000000000 PUSH1 0x60 SWAP4 DUP5 SHL DUP2 AND DUP3 MSTORE SWAP2 SWAP1 SWAP3 SHL AND PUSH1 0x14 DUP3 ADD MSTORE PUSH1 0x28 ADD SWAP1 JUMP JUMPDEST PUSH1 0x0 DUP3 MLOAD PUSH2 0x4DDE DUP2 DUP5 PUSH1 0x20 DUP8 ADD PUSH2 0x5677 JUMP JUMPDEST SWAP2 SWAP1 SWAP2 ADD SWAP3 SWAP2 POP POP JUMP JUMPDEST PUSH32 0xFF00000000000000000000000000000000000000000000000000000000000000 DUP2 MSTORE PUSH1 0x60 SWAP3 SWAP1 SWAP3 SHL PUSH32 0xFFFFFFFFFFFFFFFFFFFFFFFFFFFFFFFFFFFFFFFF000000000000000000000000 AND PUSH1 0x1 DUP4 ADD MSTORE PUSH1 0x15 DUP3 ADD MSTORE PUSH32 0xBAEAE6B526D52AB9EDEA88A8A5991ED61443A0C4D6BEA03DC99971664961F4B7 PUSH1 0x35 DUP3 ADD MSTORE PUSH1 0x55 ADD SWAP1 JUMP JUMPDEST PUSH20 0xFFFFFFFFFFFFFFFFFFFFFFFFFFFFFFFFFFFFFFFF SWAP2 SWAP1 SWAP2 AND DUP2 MSTORE PUSH1 0x20 ADD SWAP1 JUMP JUMPDEST PUSH20 0xFFFFFFFFFFFFFFFFFFFFFFFFFFFFFFFFFFFFFFFF SWAP8 DUP9 AND DUP2 MSTORE SWAP6 SWAP1 SWAP7 AND PUSH1 0x20 DUP7 ADD MSTORE PUSH1 0x40 DUP6 ADD SWAP4 SWAP1 SWAP4 MSTORE PUSH1 0x60 DUP5 ADD SWAP2 SWAP1 SWAP2 MSTORE PUSH1 0xFF AND PUSH1 0x80 DUP4 ADD MSTORE PUSH1 0xA0 DUP3 ADD MSTORE PUSH1 0xC0 DUP2 ADD SWAP2 SWAP1 SWAP2 MSTORE PUSH1 0xE0 ADD SWAP1 JUMP JUMPDEST PUSH20 0xFFFFFFFFFFFFFFFFFFFFFFFFFFFFFFFFFFFFFFFF SWAP4 DUP5 AND DUP2 MSTORE SWAP2 SWAP1 SWAP3 AND PUSH1 0x20 DUP3 ADD MSTORE PUSH1 0x40 DUP2 ADD SWAP2 SWAP1 SWAP2 MSTORE PUSH1 0x60 ADD SWAP1 JUMP JUMPDEST PUSH20 0xFFFFFFFFFFFFFFFFFFFFFFFFFFFFFFFFFFFFFFFF SWAP3 DUP4 AND DUP2 MSTORE SWAP2 AND PUSH1 0x20 DUP3 ADD MSTORE PUSH1 0x40 ADD SWAP1 JUMP JUMPDEST PUSH20 0xFFFFFFFFFFFFFFFFFFFFFFFFFFFFFFFFFFFFFFFF SWAP5 DUP6 AND DUP2 MSTORE SWAP3 DUP5 AND PUSH1 0x20 DUP5 ADD MSTORE SWAP3 AND PUSH1 0x40 DUP3 ADD MSTORE PUSH1 0x60 DUP2 ADD SWAP2 SWAP1 SWAP2 MSTORE PUSH1 0x80 ADD SWAP1 JUMP JUMPDEST PUSH20 0xFFFFFFFFFFFFFFFFFFFFFFFFFFFFFFFFFFFFFFFF SWAP3 SWAP1 SWAP3 AND DUP3 MSTORE PUSH1 0x20 DUP3 ADD MSTORE PUSH1 0x40 ADD SWAP1 JUMP JUMPDEST PUSH1 0x20 DUP1 DUP3 MSTORE DUP3 MLOAD DUP3 DUP3 ADD DUP2 SWAP1 MSTORE PUSH1 0x0 SWAP2 SWAP1 DUP5 DUP3 ADD SWAP1 PUSH1 0x40 DUP6 ADD SWAP1 DUP5 JUMPDEST DUP2 DUP2 LT ISZERO PUSH2 0x4FC5 JUMPI DUP4 MLOAD DUP4 MSTORE SWAP3 DUP5 ADD SWAP3 SWAP2 DUP5 ADD SWAP2 PUSH1 0x1 ADD PUSH2 0x4FA9 JUMP JUMPDEST POP SWAP1 SWAP7 SWAP6 POP POP POP POP POP POP JUMP JUMPDEST PUSH1 0x20 DUP1 DUP3 MSTORE PUSH1 0x15 SWAP1 DUP3 ADD MSTORE PUSH32 0x64732D6D6174682D7375622D756E646572666C6F770000000000000000000000 PUSH1 0x40 DUP3 ADD MSTORE PUSH1 0x60 ADD SWAP1 JUMP JUMPDEST PUSH1 0x20 DUP1 DUP3 MSTORE PUSH1 0x1F SWAP1 DUP3 ADD MSTORE PUSH32 0x5472616E7366657248656C7065723A205452414E534645525F4641494C454400 PUSH1 0x40 DUP3 ADD MSTORE PUSH1 0x60 ADD SWAP1 JUMP JUMPDEST PUSH1 0x20 DUP1 DUP3 MSTORE PUSH1 0x1A SWAP1 DUP3 ADD MSTORE PUSH32 0x466553776170526F757465723A20494E56414C49445F50415448000000000000 PUSH1 0x40 DUP3 ADD MSTORE PUSH1 0x60 ADD SWAP1 JUMP JUMPDEST PUSH1 0x20 DUP1 DUP3 MSTORE PUSH1 0x15 SWAP1 DUP3 ADD MSTORE PUSH32 0x466553776170526F757465723A20455850495245440000000000000000000000 PUSH1 0x40 DUP3 ADD MSTORE PUSH1 0x60 ADD SWAP1 JUMP JUMPDEST PUSH1 0x20 DUP1 DUP3 MSTORE PUSH1 0x13 SWAP1 DUP3 ADD MSTORE PUSH32 0x4665537761703A204E4F5420414C4C4F57454400000000000000000000000000 PUSH1 0x40 DUP3 ADD MSTORE PUSH1 0x60 ADD SWAP1 JUMP JUMPDEST PUSH1 0x20 DUP1 DUP3 MSTORE PUSH1 0x14 SWAP1 DUP3 ADD MSTORE PUSH32 0x64732D6D6174682D6D756C2D6F766572666C6F77000000000000000000000000 PUSH1 0x40 DUP3 ADD MSTORE PUSH1 0x60 ADD SWAP1 JUMP JUMPDEST PUSH1 0x20 DUP1 DUP3 MSTORE PUSH1 0x25 SWAP1 DUP3 ADD MSTORE PUSH32 0x4665537761704C6962726172793A20494E53554646494349454E545F4C495155 PUSH1 0x40 DUP3 ADD MSTORE PUSH32 0x4944495459000000000000000000000000000000000000000000000000000000 PUSH1 0x60 DUP3 ADD MSTORE PUSH1 0x80 ADD SWAP1 JUMP JUMPDEST PUSH1 0x20 DUP1 DUP3 MSTORE PUSH1 0x14 SWAP1 DUP3 ADD MSTORE PUSH32 0x64732D6D6174682D6164642D6F766572666C6F77000000000000000000000000 PUSH1 0x40 DUP3 ADD MSTORE PUSH1 0x60 ADD SWAP1 JUMP JUMPDEST PUSH1 0x20 DUP1 DUP3 MSTORE PUSH1 0x28 SWAP1 DUP3 ADD MSTORE PUSH32 0x4665537761704C6962726172793A20494E53554646494349454E545F494E5055 PUSH1 0x40 DUP3 ADD MSTORE PUSH32 0x545F414D4F554E54000000000000000000000000000000000000000000000000 PUSH1 0x60 DUP3 ADD MSTORE PUSH1 0x80 ADD SWAP1 JUMP JUMPDEST PUSH1 0x20 DUP1 DUP3 MSTORE PUSH1 0x28 SWAP1 DUP3 ADD MSTORE PUSH32 0x466553776170526F757465723A20494E53554646494349454E545F4F55545055 PUSH1 0x40 DUP3 ADD MSTORE PUSH32 0x545F414D4F554E54000000000000000000000000000000000000000000000000 PUSH1 0x60 DUP3 ADD MSTORE PUSH1 0x80 ADD SWAP1 JUMP JUMPDEST PUSH1 0x20 DUP1 DUP3 MSTORE PUSH1 0x22 SWAP1 DUP3 ADD MSTORE PUSH32 0x4665537761704C6962726172793A20494E53554646494349454E545F414D4F55 PUSH1 0x40 DUP3 ADD MSTORE PUSH32 0x4E54000000000000000000000000000000000000000000000000000000000000 PUSH1 0x60 DUP3 ADD MSTORE PUSH1 0x80 ADD SWAP1 JUMP JUMPDEST PUSH1 0x20 DUP1 DUP3 MSTORE PUSH1 0x1B SWAP1 DUP3 ADD MSTORE PUSH32 0x4665537761704C6962726172793A20494E56414C49445F504154480000000000 PUSH1 0x40 DUP3 ADD MSTORE PUSH1 0x60 ADD SWAP1 JUMP JUMPDEST PUSH1 0x20 DUP1 DUP3 MSTORE PUSH1 0x24 SWAP1 DUP3 ADD MSTORE PUSH32 0x466553776170526F757465723A204558434553534956455F494E5055545F414D PUSH1 0x40 DUP3 ADD MSTORE PUSH32 0x4F554E5400000000000000000000000000000000000000000000000000000000 PUSH1 0x60 DUP3 ADD MSTORE PUSH1 0x80 ADD SWAP1 JUMP JUMPDEST PUSH1 0x20 DUP1 DUP3 MSTORE PUSH1 0x17 SWAP1 DUP3 ADD MSTORE PUSH32 0x4665537761703A204E4F5420544F4B454E204F574E4552000000000000000000 PUSH1 0x40 DUP3 ADD MSTORE PUSH1 0x60 ADD SWAP1 JUMP JUMPDEST PUSH1 0x20 DUP1 DUP3 MSTORE PUSH1 0x23 SWAP1 DUP3 ADD MSTORE PUSH32 0x466553776170526F757465723A20494E53554646494349454E545F425F414D4F PUSH1 0x40 DUP3 ADD MSTORE PUSH32 0x554E540000000000000000000000000000000000000000000000000000000000 PUSH1 0x60 DUP3 ADD MSTORE PUSH1 0x80 ADD SWAP1 JUMP JUMPDEST PUSH1 0x20 DUP1 DUP3 MSTORE PUSH1 0x11 SWAP1 DUP3 ADD MSTORE PUSH32 0x4665537761703A20524154494F20454552000000000000000000000000000000 PUSH1 0x40 DUP3 ADD MSTORE PUSH1 0x60 ADD SWAP1 JUMP JUMPDEST PUSH1 0x20 DUP1 DUP3 MSTORE PUSH1 0x23 SWAP1 DUP3 ADD MSTORE PUSH32 0x5472616E7366657248656C7065723A204554485F5452414E534645525F464149 PUSH1 0x40 DUP3 ADD MSTORE PUSH32 0x4C45440000000000000000000000000000000000000000000000000000000000 PUSH1 0x60 DUP3 ADD MSTORE PUSH1 0x80 ADD SWAP1 JUMP JUMPDEST PUSH1 0x20 DUP1 DUP3 MSTORE PUSH1 0x29 SWAP1 DUP3 ADD MSTORE PUSH32 0x4665537761704C6962726172793A20494E53554646494349454E545F4F555450 PUSH1 0x40 DUP3 ADD MSTORE PUSH32 0x55545F414D4F554E540000000000000000000000000000000000000000000000 PUSH1 0x60 DUP3 ADD MSTORE PUSH1 0x80 ADD SWAP1 JUMP JUMPDEST PUSH1 0x20 DUP1 DUP3 MSTORE PUSH1 0x23 SWAP1 DUP3 ADD MSTORE PUSH32 0x466553776170526F757465723A20494E53554646494349454E545F415F414D4F PUSH1 0x40 DUP3 ADD MSTORE PUSH32 0x554E540000000000000000000000000000000000000000000000000000000000 PUSH1 0x60 DUP3 ADD MSTORE PUSH1 0x80 ADD SWAP1 JUMP JUMPDEST PUSH1 0x20 DUP1 DUP3 MSTORE PUSH1 0x24 SWAP1 DUP3 ADD MSTORE PUSH32 0x5472616E7366657248656C7065723A205452414E534645525F46524F4D5F4641 PUSH1 0x40 DUP3 ADD MSTORE PUSH32 0x494C454400000000000000000000000000000000000000000000000000000000 PUSH1 0x60 DUP3 ADD MSTORE PUSH1 0x80 ADD SWAP1 JUMP JUMPDEST PUSH1 0x20 DUP1 DUP3 MSTORE PUSH1 0x13 SWAP1 DUP3 ADD MSTORE PUSH32 0x4665537761703A204E4F54204352454154454400000000000000000000000000 PUSH1 0x40 DUP3 ADD MSTORE PUSH1 0x60 ADD SWAP1 JUMP JUMPDEST SWAP1 DUP2 MSTORE PUSH1 0x20 ADD SWAP1 JUMP JUMPDEST PUSH1 0x0 DUP5 DUP3 MSTORE PUSH20 0xFFFFFFFFFFFFFFFFFFFFFFFFFFFFFFFFFFFFFFFF DUP5 AND PUSH1 0x20 DUP4 ADD MSTORE PUSH1 0x60 PUSH1 0x40 DUP4 ADD MSTORE DUP3 MLOAD DUP1 PUSH1 0x60 DUP5 ADD MSTORE PUSH2 0x561A DUP2 PUSH1 0x80 DUP6 ADD PUSH1 0x20 DUP8 ADD PUSH2 0x5677 JUMP JUMPDEST PUSH1 0x1F ADD PUSH32 0xFFFFFFFFFFFFFFFFFFFFFFFFFFFFFFFFFFFFFFFFFFFFFFFFFFFFFFFFFFFFFFE0 AND SWAP2 SWAP1 SWAP2 ADD PUSH1 0x80 ADD SWAP5 SWAP4 POP POP POP POP JUMP JUMPDEST SWAP2 DUP3 MSTORE PUSH1 0x20 DUP3 ADD MSTORE PUSH1 0x40 ADD SWAP1 JUMP JUMPDEST SWAP4 DUP5 MSTORE PUSH1 0x20 DUP5 ADD SWAP3 SWAP1 SWAP3 MSTORE PUSH1 0x40 DUP4 ADD MSTORE PUSH1 0x60 DUP3 ADD MSTORE PUSH1 0x80 ADD SWAP1 JUMP JUMPDEST PUSH1 0x0 JUMPDEST DUP4 DUP2 LT ISZERO PUSH2 0x5692 JUMPI DUP2 DUP2 ADD MLOAD DUP4 DUP3 ADD MSTORE PUSH1 0x20 ADD PUSH2 0x567A JUMP JUMPDEST DUP4 DUP2 GT ISZERO PUSH2 0x35D3 JUMPI POP POP PUSH1 0x0 SWAP2 ADD MSTORE JUMP JUMPDEST PUSH20 0xFFFFFFFFFFFFFFFFFFFFFFFFFFFFFFFFFFFFFFFF DUP2 AND DUP2 EQ PUSH2 0x56C5 JUMPI PUSH1 0x0 DUP1 REVERT JUMPDEST POP JUMP JUMPDEST DUP1 ISZERO ISZERO DUP2 EQ PUSH2 0x56C5 JUMPI PUSH1 0x0 DUP1 REVERT JUMPDEST PUSH14 0xFFFFFFFFFFFFFFFFFFFFFFFFFFFF DUP2 AND DUP2 EQ PUSH2 0x56C5 JUMPI PUSH1 0x0 DUP1 REVERT INVALID LOG2 PUSH5 0x6970667358 0x22 SLT KECCAK256 COINBASE DELEGATECALL 0xB4 SWAP6 PUSH31 0x4772E5653C3C9221462BCCC6B173672DDCC040D0B30600931CBB8764736F6C PUSH4 0x4300060C STOP CALLER "
    }
  }
}